{
  "contractName": "AddressSetLibMock",
  "abi": [
    {
      "inputs": [],
      "stateMutability": "nonpayable",
      "type": "constructor"
    },
    {
      "anonymous": false,
      "inputs": [
        {
          "indexed": false,
          "internalType": "bool",
          "name": "result",
          "type": "bool"
        }
      ],
      "name": "Result",
      "type": "event"
    },
    {
      "inputs": [],
      "name": "clear",
      "outputs": [],
      "stateMutability": "nonpayable",
      "type": "function"
    },
    {
      "inputs": [
        {
          "internalType": "address",
          "name": "value",
          "type": "address"
        }
      ],
      "name": "add",
      "outputs": [],
      "stateMutability": "nonpayable",
      "type": "function"
    },
    {
      "inputs": [
        {
          "internalType": "address",
          "name": "value",
          "type": "address"
        }
      ],
      "name": "remove",
      "outputs": [],
      "stateMutability": "nonpayable",
      "type": "function"
    },
    {
      "inputs": [
        {
          "internalType": "address",
          "name": "value",
          "type": "address"
        }
      ],
      "name": "contains",
      "outputs": [
        {
          "internalType": "bool",
          "name": "",
          "type": "bool"
        }
      ],
      "stateMutability": "view",
      "type": "function"
    },
    {
      "inputs": [],
      "name": "length",
      "outputs": [
        {
          "internalType": "uint256",
          "name": "",
          "type": "uint256"
        }
      ],
      "stateMutability": "view",
      "type": "function"
    },
    {
      "inputs": [
        {
          "internalType": "uint256",
          "name": "index",
          "type": "uint256"
        }
      ],
      "name": "at",
      "outputs": [
        {
          "internalType": "address",
          "name": "",
          "type": "address"
        }
      ],
      "stateMutability": "view",
      "type": "function"
    },
    {
      "inputs": [],
      "name": "asArray",
      "outputs": [
        {
          "internalType": "address[]",
          "name": "selectedOracles",
          "type": "address[]"
        }
      ],
      "stateMutability": "view",
      "type": "function"
    }
  ],
  "bytecode": "0x608060405234801561001057600080fd5b5061002361004260201b6102591760201c565b8051805160009161003991839160200190610064565b509050506100fb565b61004a6100c9565b506040805160006020820190815281830190925290815290565b8280548282559060005260206000209081019282156100b9579160200282015b828111156100b957825182546001600160a01b0319166001600160a01b03909116178255602090920191600190910190610084565b506100c59291506100dc565b5090565b6040518060200160405280606081525090565b5b808211156100c55780546001600160a01b03191681556001016100dd565b6105c28061010a6000396000f3fe608060405234801561001057600080fd5b506004361061007d5760003560e01c806352efea6e1161005b57806352efea6e146100ea5780635dbe47e8146100f2578063bd868b6c1461012c578063e0886f90146101845761007d565b80630a3b0a4f146100825780631f7b6d32146100aa57806329092d0e146100c4575b600080fd5b6100a86004803603602081101561009857600080fd5b50356001600160a01b03166101bd565b005b6100b2610206565b60408051918252519081900360200190f35b6100a8600480360360208110156100da57600080fd5b50356001600160a01b0316610217565b6100a8610223565b6101186004803603602081101561010857600080fd5b50356001600160a01b031661022f565b604080519115158252519081900360200190f35b610134610241565b60408051602080825283518183015283519192839290830191858101910280838360005b83811015610170578181015183820152602001610158565b505050509050019250505060405180910390f35b6101a16004803603602081101561019a57600080fd5b503561024d565b604080516001600160a01b039092168252519081900360200190f35b60006101c9818361027b565b60408051821515815290519192507f0b3bdb70bcb1393d4319be3261bd6ab95e2ea1665e718029d24cecca39e84ccc919081900360200190a15050565b600061021260006102df565b905090565b60006101c981836102e3565b61022d60006103ea565b565b600061023b8183610447565b92915050565b60606102126000610468565b600061023b81836104ce565b610261610547565b506040805160006020820190815281830190925290815290565b60006102878383610447565b6102d657508154600180820184556000848152602080822090930180546001600160a01b0319166001600160a01b0386169081179091558554908252828601909352604090209190915561023b565b50600092915050565b5490565b6001600160a01b038116600090815260018301602052604081205480156103e0578354600019808301919081019060009087908390811061032057fe5b60009182526020909120015487546001600160a01b039091169150819088908590811061034957fe5b600091825260208083209190910180546001600160a01b0319166001600160a01b0394851617905591831681526001898101909252604090209084019055865487908061039257fe5b60008281526020808220830160001990810180546001600160a01b03191690559092019092556001600160a01b038816825260018981019091526040822091909155945061023b9350505050565b600091505061023b565b60005b81548110156104385781600101600083600001838154811061040b57fe5b60009182526020808320909101546001600160a01b031683528201929092526040018120556001016103ed565b5061044481600061055a565b50565b6001600160a01b031660009081526001919091016020526040902054151590565b6060816000018054806020026020016040519081016040528092919081815260200182805480156104c257602002820191906000526020600020905b81546001600160a01b031681526001909101906020018083116104a4575b50505050509050919050565b8154600090821061051c576040805162461bcd60e51b8152602060048201526013602482015272696e646578206f7574206f6620626f756e647360681b604482015290519081900360640190fd5b82600001828154811061052b57fe5b6000918252602090912001546001600160a01b03169392505050565b6040518060200160405280606081525090565b508054600082559060005260206000209081019061044491905b808211156105885760008155600101610574565b509056fea264697066735822122060b8a0e0d06462eee9e496c313c18896abbd5d61648eed50accb1792d9a6c7e264736f6c634300060c0033",
  "immutableReferences": {},
  "source": "// SPDX-License-Identifier: UNLICENSED\npragma solidity 0.6.12;\n\nimport {AddressSetLib} from \"../lib/AddressSetLib.sol\";\n\ncontract AddressSetLibMock {\n    using AddressSetLib for AddressSetLib.AddressSet;\n    AddressSetLib.AddressSet data;\n\n    event Result(bool result);\n\n    constructor() public {\n        data = AddressSetLib.init();\n    }\n\n    function clear() external {\n        data.clear();\n    }\n\n    function add(address value) external {\n        bool ret = data.add(value);\n        emit Result(ret);\n    }\n\n    function remove(address value) external {\n        bool ret = data.remove(value);\n        emit Result(ret);\n    }\n\n    function contains(address value) external view returns (bool) {\n        return data.contains(value);\n    }\n\n    function length() external view returns (uint256) {\n        return data.length();\n    }\n\n    function at(uint256 index) external view returns (address) {\n        return data.at(index);\n    }\n\n    function asArray() external view returns (address[] memory selectedOracles) {\n        return data.asArray();\n    }\n}\n",
  "sourcePath": "/home/adji/Desktop/work/coinfabrik/moc-shared/contracts/testing_mocks/AddressSetLibMock.sol",
  "compiler": {
    "name": "solc",
    "version": "0.6.12+commit.27d51765.Emscripten.clang"
  },
  "schemaVersion": "3.2.5",
  "updatedAt": "2020-10-01T22:39:15.398Z",
  "devdoc": {
    "kind": "dev",
    "methods": {},
    "version": 1
  },
  "userdoc": {
    "kind": "user",
    "methods": {},
    "version": 1
  }
}