{
  "contractName": "CalculatedPriceProvider",
  "abi": [
    {
      "inputs": [
        {
          "internalType": "contract IGovernor",
          "name": "newIGovernor",
          "type": "address"
        }
      ],
      "name": "changeIGovernor",
      "outputs": [],
      "stateMutability": "nonpayable",
      "type": "function"
    },
    {
      "inputs": [
        {
          "internalType": "bytes",
          "name": "data",
          "type": "bytes"
        }
      ],
      "name": "delegateCallToChanger",
      "outputs": [],
      "stateMutability": "nonpayable",
      "type": "function"
    },
    {
      "inputs": [],
      "name": "governor",
      "outputs": [
        {
          "internalType": "contract IGovernor",
          "name": "",
          "type": "address"
        }
      ],
      "stateMutability": "view",
      "type": "function"
    },
    {
      "inputs": [
        {
          "internalType": "contract IGovernor",
          "name": "_governor",
          "type": "address"
        },
        {
          "internalType": "address[]",
          "name": "_wlist",
          "type": "address[]"
        },
        {
          "internalType": "uint256",
          "name": "_multiplicator",
          "type": "uint256"
        },
        {
          "internalType": "contract IPriceProvider[]",
          "name": "_multiplyBy",
          "type": "address[]"
        },
        {
          "internalType": "uint256",
          "name": "_divisor",
          "type": "uint256"
        },
        {
          "internalType": "contract IPriceProvider[]",
          "name": "_divideBy",
          "type": "address[]"
        }
      ],
      "name": "initialize",
      "outputs": [],
      "stateMutability": "nonpayable",
      "type": "function"
    },
    {
      "inputs": [
        {
          "internalType": "address",
          "name": "_whitelisted",
          "type": "address"
        }
      ],
      "name": "addToWhitelist",
      "outputs": [],
      "stateMutability": "nonpayable",
      "type": "function"
    },
    {
      "inputs": [
        {
          "internalType": "address",
          "name": "_whitelisted",
          "type": "address"
        },
        {
          "internalType": "uint256",
          "name": "_hint",
          "type": "uint256"
        }
      ],
      "name": "removeFromWhitelist",
      "outputs": [],
      "stateMutability": "nonpayable",
      "type": "function"
    },
    {
      "inputs": [],
      "name": "getWhiteListLen",
      "outputs": [
        {
          "internalType": "uint256",
          "name": "",
          "type": "uint256"
        }
      ],
      "stateMutability": "view",
      "type": "function"
    },
    {
      "inputs": [
        {
          "internalType": "uint256",
          "name": "_idx",
          "type": "uint256"
        }
      ],
      "name": "getWhiteListAtIndex",
      "outputs": [
        {
          "internalType": "address",
          "name": "",
          "type": "address"
        }
      ],
      "stateMutability": "view",
      "type": "function"
    },
    {
      "inputs": [],
      "name": "getPriceProviderType",
      "outputs": [
        {
          "internalType": "enum IPriceProviderRegisterEntry.IPriceProviderType",
          "name": "",
          "type": "uint8"
        }
      ],
      "stateMutability": "pure",
      "type": "function"
    },
    {
      "inputs": [],
      "name": "peek",
      "outputs": [
        {
          "internalType": "bytes32",
          "name": "",
          "type": "bytes32"
        },
        {
          "internalType": "bool",
          "name": "",
          "type": "bool"
        }
      ],
      "stateMutability": "view",
      "type": "function"
    }
  ],
  "bytecode": "0x608060405261146c806100136000396000f3fe608060405234801561001057600080fd5b506004361061009e5760003560e01c8063cb0706f911610066578063cb0706f914610253578063dc8990e11461026d578063e43252d714610311578063eb3892a814610337578063f375b47f146103635761009e565b80630c340a24146100a35780631a3d00c0146100c757806359e02dd7146100e4578063a1e068f914610105578063b6e083301461022d575b600080fd5b6100ab61038f565b604080516001600160a01b039092168252519081900360200190f35b6100ab600480360360208110156100dd57600080fd5b503561039e565b6100ec6103b7565b6040805192835290151560208301528051918290030190f35b61022b600480360360c081101561011b57600080fd5b6001600160a01b038235169190810190604081016020820135600160201b81111561014557600080fd5b82018360208201111561015757600080fd5b803590602001918460208302840111600160201b8311171561017857600080fd5b91939092823592604081019060200135600160201b81111561019957600080fd5b8201836020820111156101ab57600080fd5b803590602001918460208302840111600160201b831117156101cc57600080fd5b91939092823592604081019060200135600160201b8111156101ed57600080fd5b8201836020820111156101ff57600080fd5b803590602001918460208302840111600160201b8311171561022057600080fd5b50909250905061043a565b005b61022b6004803603602081101561024357600080fd5b50356001600160a01b03166105af565b61025b6106ff565b60408051918252519081900360200190f35b61022b6004803603602081101561028357600080fd5b810190602081018135600160201b81111561029d57600080fd5b8201836020820111156102af57600080fd5b803590602001918460018302840111600160201b831117156102d057600080fd5b91908080601f016020809104026020016040519081016040528093929190818152602001838380828437600092019190915250929550610711945050505050565b61022b6004803603602081101561032757600080fd5b50356001600160a01b0316610995565b61022b6004803603604081101561034d57600080fd5b506001600160a01b038135169060200135610a9a565b61036b610ba1565b6040518082600281111561037b57fe5b60ff16815260200191505060405180910390f35b6033546001600160a01b031681565b60006103b160668363ffffffff610ba616565b92915050565b600080606633600114806103d057506103d08133610c19565b610421576040805162461bcd60e51b815260206004820152601a60248201527f41646472657373206973206e6f742077686974656c6973746564000000000000604482015290519081900360640190fd5b60008061042e6068610c93565b90955093505050509091565b600054610100900460ff16806104535750610453610dcd565b80610461575060005460ff16155b61049c5760405162461bcd60e51b815260040180806020018281038252602e815260200180611409602e913960400191505060405180910390fd5b600054610100900460ff161580156104c7576000805460ff1961ff0019909116610100171660011790555b6104d08a610dd3565b61054e8787878080602002602001604051908101604052809392919081815260200183836020028082843760009201919091525050604080516020808a0282810182019093528982528b94509092508991899182919085019084908082843760009201919091525060689695949392505063ffffffff610df5169050565b60005b88811015610590576105888a8a8381811061056857fe5b905060200201356001600160a01b03166066610e3390919063ffffffff16565b600101610551565b5080156105a3576000805461ff00191690555b50505050505050505050565b6033546040805163d994d6d560e01b815233600482015290516001600160a01b039092169163d994d6d591602480820192602092909190829003018186803b1580156105fa57600080fd5b505afa15801561060e573d6000803e3d6000fd5b505050506040513d602081101561062457600080fd5b50516040805180820190915260168152753737ba2fb0baba3437b934bd32b22fb1b430b733b2b960511b6020820152906106dc5760405162461bcd60e51b81526004018080602001828103825283818151815260200191508051906020019080838360005b838110156106a1578181015183820152602001610689565b50505050905090810190601f1680156106ce5780820380516001836020036101000a031916815260200191505b509250505060405180910390fd5b50603380546001600160a01b0319166001600160a01b0392909216919091179055565b600061070b6066610f2f565b90505b90565b6033546040805163d994d6d560e01b815233600482015290516001600160a01b039092169163d994d6d591602480820192602092909190829003018186803b15801561075c57600080fd5b505afa158015610770573d6000803e3d6000fd5b505050506040513d602081101561078657600080fd5b50516040805180820190915260168152753737ba2fb0baba3437b934bd32b22fb1b430b733b2b960511b6020820152906108015760405162461bcd60e51b81526020600482018181528351602484015283519092839260449091019190850190808383600083156106a1578181015183820152602001610689565b5060003390506000816001600160a01b0316836040516024018080602001828103825283818151815260200191508051906020019080838360005b8381101561085457818101518382015260200161083c565b50505050905090810190601f1680156108815780820380516001836020036101000a031916815260200191505b5060408051601f198184030181529181526020820180516001600160e01b03166350b113e560e11b178152905182519295509350839250908083835b602083106108dc5780518252601f1990920191602091820191016108bd565b6001836020036101000a038019825116818451168082178552505050505050905001915050600060405180830381855af49150503d806000811461093c576040519150601f19603f3d011682016040523d82523d6000602084013e610941565b606091505b5050905080610990576040805162461bcd60e51b8152602060048201526016602482015275115c9c9bdc881a5b8819195b1959d85d194818d85b1b60521b604482015290519081900360640190fd5b505050565b6033546040805163d994d6d560e01b815233600482015290516001600160a01b039092169163d994d6d591602480820192602092909190829003018186803b1580156109e057600080fd5b505afa1580156109f4573d6000803e3d6000fd5b505050506040513d6020811015610a0a57600080fd5b50516040805180820190915260168152753737ba2fb0baba3437b934bd32b22fb1b430b733b2b960511b602082015290610a855760405162461bcd60e51b81526020600482018181528351602484015283519092839260449091019190850190808383600083156106a1578181015183820152602001610689565b50610a9760668263ffffffff610e3316565b50565b6033546040805163d994d6d560e01b815233600482015290516001600160a01b039092169163d994d6d591602480820192602092909190829003018186803b158015610ae557600080fd5b505afa158015610af9573d6000803e3d6000fd5b505050506040513d6020811015610b0f57600080fd5b50516040805180820190915260168152753737ba2fb0baba3437b934bd32b22fb1b430b733b2b960511b602082015290610b8a5760405162461bcd60e51b81526020600482018181528351602484015283519092839260449091019190850190808383600083156106a1578181015183820152602001610689565b50610b9d6066838363ffffffff610f3316565b5050565b600290565b81546000908210610bee576040805162461bcd60e51b815260206004820152600d60248201526c092d8d8cacec2d840d2dcc8caf609b1b604482015290519081900360640190fd5b826000018281548110610bfd57fe5b6000918252602090912001546001600160a01b03169392505050565b60006001600160a01b038216610c70576040805162461bcd60e51b815260206004820152601760248201527604163636f756e74206d757374206e6f742062652030783604c1b604482015290519081900360640190fd5b506001600160a01b03166000908152600191909101602052604090205460ff1690565b6000806000600190506000610d08856002015486600001805480602002602001604051908101604052809291908181526020018280548015610cfe57602002820191906000526020600020905b81546001600160a01b03168152600190910190602001808311610ce0575b5050505050611114565b9250905081610d20575060009250829150610dc89050565b6000610d8a866003015487600101805480602002602001604051908101604052809291908181526020018280548015610cfe576020028201919060005260206000209081546001600160a01b03168152600190910190602001808311610ce0575050505050611114565b93509050821580610d99575080155b15610dae575060009350839250610dc8915050565b610dbe828263ffffffff6111e816565b6001945094505050505b915091565b303b1590565b603380546001600160a01b0319166001600160a01b0392909216919091179055565b600285018490558251610e0e90869060208601906112ef565b50600385018290558051610e2b90600187019060208401906112ef565b505050505050565b610e3d8282610c19565b610e6d5781546001810183556000838152602090200180546001600160a01b0319166001600160a01b0383161790555b6001600160a01b038116610ec2576040805162461bcd60e51b815260206004820152601760248201527604163636f756e74206d757374206e6f742062652030783604c1b604482015290519081900360640190fd5b610ecc8282610c19565b15610f085760405162461bcd60e51b81526004018080602001828103825260338152602001806113b56033913960400191505060405180910390fd5b6001600160a01b03166000908152600191820160205260409020805460ff19169091179055565b5490565b6001600160a01b038216610f88576040805162461bcd60e51b815260206004820152601760248201527604163636f756e74206d757374206e6f742062652030783604c1b604482015290519081900360640190fd5b82548110610fcd576040805162461bcd60e51b815260206004820152600d60248201526c092d8d8cacec2d840d2dcc8caf609b1b604482015290519081900360640190fd5b610fd78383610c19565b6110125760405162461bcd60e51b815260040180806020018281038252603c815260200180611379603c913960400191505060405180910390fd5b6001600160a01b03821660009081526001840160205260409020805460ff19169055805b835481101561110e57826001600160a01b031684600001828154811061105857fe5b6000918252602090912001546001600160a01b031614156111065783548490600019810190811061108557fe5b60009182526020909120015484546001600160a01b03909116908590839081106110ab57fe5b600091825260209091200180546001600160a01b0319166001600160a01b039290921691909117905583548490806110df57fe5b600082815260209020810160001990810180546001600160a01b031916905501905561110e565b600101611036565b50505050565b6000808080805b85518110156111d65785818151811061113057fe5b60200260200101516001600160a01b03166359e02dd76040518163ffffffff1660e01b8152600401604080518083038186803b15801561116f57600080fd5b505afa158015611183573d6000803e3d6000fd5b505050506040513d604081101561119957600080fd5b5080516020909101519093509150816111bc5750600093508392506111e1915050565b6111cc878463ffffffff61123116565b965060010161111b565b508560019350935050505b9250929050565b600061122a83836040518060400160405280601a81526020017f536166654d6174683a206469766973696f6e206279207a65726f00000000000081525061128a565b9392505050565b600082611240575060006103b1565b8282028284828161124d57fe5b041461122a5760405162461bcd60e51b81526004018080602001828103825260218152602001806113e86021913960400191505060405180910390fd5b600081836112d95760405162461bcd60e51b81526020600482018181528351602484015283519092839260449091019190850190808383600083156106a1578181015183820152602001610689565b5060008385816112e557fe5b0495945050505050565b828054828255906000526020600020908101928215611344579160200282015b8281111561134457825182546001600160a01b0319166001600160a01b0390911617825560209092019160019091019061130f565b50611350929150611354565b5090565b61070e91905b808211156113505780546001600160a01b031916815560010161135a56fe4163636f756e74206973206e6f7420616c6c6f77656420746f2072656d6f766520616464726573732066726f6d20746865207768697465206c6973744163636f756e74206e6f7420616c6c6f77656420746f20616464206163636f756e747320696e746f207768697465206c697374536166654d6174683a206d756c7469706c69636174696f6e206f766572666c6f77436f6e747261637420696e7374616e63652068617320616c7265616479206265656e20696e697469616c697a6564a26469706673582212207ccb16e14b2f65c8f006636d2d85e68298cc1d66c42530b625ebc27db4eab91e64736f6c63430006000033",
  "source": "pragma solidity 0.6.0;\n\nimport {SafeMath} from \"./openzeppelin/math/SafeMath.sol\";\nimport {IGovernor} from \"./moc-gobernanza/Governance/IGovernor.sol\";\nimport {IPriceProvider} from \"./libs/IPriceProvider.sol\";\nimport {IPriceProviderRegisterEntry} from \"./libs/IPriceProviderRegisterEntry.sol\";\nimport {CalculatedPriceProviderStorage} from \"./CalculatedPriceProviderStorage.sol\";\n\n/// @title This contract gets the price from some IPriceProviders and do the math to calculate\n/// a deduced price, for example RIFBTC and BTCUSD gives the price of RIFUSD\ncontract CalculatedPriceProvider is CalculatedPriceProviderStorage, IPriceProvider, IPriceProviderRegisterEntry {\n    using SafeMath for uint;\n\n    /**\n    Contract creation.\n\n    @param _governor The address of the contract which governs this one\n    @param _wlist Initial whitelist addresses\n    @param _multiplicator base value used to scale the result by multiplying it.\n    @param _multiplyBy list of IPriceProvider to query the price and then multiply the result\n    @param _divisor base value used to scale the result by dividing it.\n    @param _divideBy list of IPriceProvider to query the and then divide the result\n    */\n    function initialize(IGovernor _governor, address[] calldata _wlist,\n        uint _multiplicator, IPriceProvider[] calldata _multiplyBy,\n        uint _divisor, IPriceProvider[] calldata _divideBy) external initializer {\n        _initialize(_governor);\n        calculatedPriceProviderData._initialize(_multiplicator, _multiplyBy, _divisor, _divideBy);\n        for (uint256 i = 0; i < _wlist.length; i++) {\n            iterableWhitelistData._addToWhitelist(_wlist[i]);\n        }\n    }\n\n\n    /**\n     * @dev Add to the list of contracts that can stake in this contract\n     * @param  _whitelisted - the override coinPair\n     */\n    function addToWhitelist(address _whitelisted) external onlyAuthorizedChanger() {\n        iterableWhitelistData._addToWhitelist(_whitelisted);\n    }\n\n    /**\n     * @dev Remove from the list of contracts that can stake in this contract\n     * @param _whitelisted - the override coinPair\n     * @param _hint Optional hint to start traversing the array, zero is to search all the array.\n     */\n    function removeFromWhitelist(address _whitelisted, uint256 _hint) external onlyAuthorizedChanger() {\n        iterableWhitelistData._removeFromWhitelist(_whitelisted, _hint);\n    }\n\n    /// @notice Returns the count of whitelisted addresses.\n    function getWhiteListLen() external view returns (uint256) {\n        return iterableWhitelistData._getWhiteListLen();\n    }\n\n    /// @notice Returns the address at index.\n    /// @param _idx index to query.\n    function getWhiteListAtIndex(uint256 _idx) external view returns (address) {\n        return iterableWhitelistData._getWhiteListAtIndex(_idx);\n    }\n\n    /// @notice return the type of provider\n    function getPriceProviderType() external override pure returns (IPriceProviderType) {\n        return IPriceProviderType.Calculated;\n    }\n\n    /**\n    Get the calculated price\n\n    */\n    function peek() external override view whitelistedOrExternal(iterableWhitelistData) returns (bytes32, bool) {\n        (uint256 price, bool valid) = calculatedPriceProviderData._peek();\n        return (bytes32(price), valid);\n    }\n}\n",
  "sourcePath": "/home/adji/Desktop/work/coinfabrik/OMoC-Decentralized-Oracle/contracts/contracts/CalculatedPriceProvider.sol",
  "compiler": {
    "name": "solc",
    "version": "0.6.0+commit.26b70077.Emscripten.clang"
  },
  "schemaVersion": "3.2.0",
  "updatedAt": "2020-06-29T21:30:43.062Z",
  "devdoc": {
    "methods": {
      "addToWhitelist(address)": {
        "details": "Add to the list of contracts that can stake in this contract",
        "params": {
          "_whitelisted": "- the override coinPair"
        }
      },
      "changeIGovernor(address)": {
        "params": {
          "newIGovernor": "New governor address"
        }
      },
      "getWhiteListAtIndex(uint256)": {
        "params": {
          "_idx": "index to query."
        }
      },
      "initialize(address,address[],uint256,address[],uint256,address[])": {
        "params": {
          "_divideBy": "list of IPriceProvider to query the and then divide the result",
          "_divisor": "base value used to scale the result by dividing it.",
          "_governor": "The address of the contract which governs this one",
          "_multiplicator": "base value used to scale the result by multiplying it.",
          "_multiplyBy": "list of IPriceProvider to query the price and then multiply the result",
          "_wlist": "Initial whitelist addresses"
        }
      },
      "removeFromWhitelist(address,uint256)": {
        "details": "Remove from the list of contracts that can stake in this contract",
        "params": {
          "_hint": "Optional hint to start traversing the array, zero is to search all the array.",
          "_whitelisted": "- the override coinPair"
        }
      }
    },
    "title": "This contract gets the price from some IPriceProviders and do the math to calculate a deduced price, for example RIFBTC and BTCUSD gives the price of RIFUSD"
  },
  "userdoc": {
    "methods": {
      "changeIGovernor(address)": {
        "notice": "Change the contract's governor. Should be called through the old governance system"
      },
      "getPriceProviderType()": {
        "notice": "return the type of provider"
      },
      "getWhiteListAtIndex(uint256)": {
        "notice": "Returns the address at index."
      },
      "getWhiteListLen()": {
        "notice": "Returns the count of whitelisted addresses."
      },
      "initialize(address,address[],uint256,address[],uint256,address[])": {
        "notice": "Contract creation."
      },
      "peek()": {
        "notice": "Get the calculated price"
      }
    }
  }
}