{
  "contractName": "CoinPairPriceAddCalculatedPriceProviderChange",
  "abi": [
    {
      "inputs": [
        {
          "internalType": "address",
          "name": "_calculatedPriceProvider",
          "type": "address"
        },
        {
          "internalType": "contract GovernedAbstract[]",
          "name": "_coinPairPrices",
          "type": "address[]"
        }
      ],
      "stateMutability": "nonpayable",
      "type": "constructor"
    },
    {
      "inputs": [
        {
          "internalType": "contract IGovernor",
          "name": "newIGovernor",
          "type": "address"
        }
      ],
      "name": "changeIGovernor",
      "outputs": [],
      "stateMutability": "nonpayable",
      "type": "function"
    },
    {
      "inputs": [],
      "name": "coinPair",
      "outputs": [
        {
          "internalType": "bytes32",
          "name": "",
          "type": "bytes32"
        }
      ],
      "stateMutability": "view",
      "type": "function",
      "constant": true
    },
    {
      "inputs": [
        {
          "internalType": "uint256",
          "name": "",
          "type": "uint256"
        }
      ],
      "name": "coinPairPrices",
      "outputs": [
        {
          "internalType": "contract GovernedAbstract",
          "name": "",
          "type": "address"
        }
      ],
      "stateMutability": "view",
      "type": "function",
      "constant": true
    },
    {
      "inputs": [
        {
          "internalType": "bytes",
          "name": "data",
          "type": "bytes"
        }
      ],
      "name": "delegateCallToChanger",
      "outputs": [],
      "stateMutability": "nonpayable",
      "type": "function"
    },
    {
      "inputs": [],
      "name": "emergencyPublishingPeriodInBlocks",
      "outputs": [
        {
          "internalType": "uint256",
          "name": "",
          "type": "uint256"
        }
      ],
      "stateMutability": "view",
      "type": "function",
      "constant": true
    },
    {
      "inputs": [],
      "name": "encodedData",
      "outputs": [
        {
          "internalType": "bytes",
          "name": "",
          "type": "bytes"
        }
      ],
      "stateMutability": "view",
      "type": "function",
      "constant": true
    },
    {
      "inputs": [],
      "name": "governor",
      "outputs": [
        {
          "internalType": "contract IGovernor",
          "name": "",
          "type": "address"
        }
      ],
      "stateMutability": "view",
      "type": "function",
      "constant": true
    },
    {
      "inputs": [],
      "name": "lastPublicationBlock",
      "outputs": [
        {
          "internalType": "uint256",
          "name": "",
          "type": "uint256"
        }
      ],
      "stateMutability": "view",
      "type": "function",
      "constant": true
    },
    {
      "inputs": [],
      "name": "oracleManager",
      "outputs": [
        {
          "internalType": "contract OracleManager",
          "name": "",
          "type": "address"
        }
      ],
      "stateMutability": "view",
      "type": "function",
      "constant": true
    },
    {
      "inputs": [],
      "name": "token",
      "outputs": [
        {
          "internalType": "contract IERC20",
          "name": "",
          "type": "address"
        }
      ],
      "stateMutability": "view",
      "type": "function",
      "constant": true
    },
    {
      "inputs": [],
      "name": "validPricePeriodInBlocks",
      "outputs": [
        {
          "internalType": "uint256",
          "name": "",
          "type": "uint256"
        }
      ],
      "stateMutability": "view",
      "type": "function",
      "constant": true
    },
    {
      "inputs": [],
      "name": "execute",
      "outputs": [],
      "stateMutability": "nonpayable",
      "type": "function"
    },
    {
      "inputs": [
        {
          "internalType": "bytes",
          "name": "data",
          "type": "bytes"
        }
      ],
      "name": "impersonate",
      "outputs": [],
      "stateMutability": "nonpayable",
      "type": "function"
    }
  ],
  "bytecode": "0x60806040523480156200001157600080fd5b5060405162000d7738038062000d778339810160408190526200003491620001d1565b8160405160200162000047919062000295565b60405160208183030381529060405260ae90805190602001906200006d9291906200008c565b508051620000839060ad90602084019062000111565b50505062000309565b828054600181600116156101000203166002900490600052602060002090601f016020900481019282601f10620000cf57805160ff1916838001178555620000ff565b82800160010185558215620000ff579182015b82811115620000ff578251825591602001919060010190620000e2565b506200010d92915062000177565b5090565b82805482825590600052602060002090810192821562000169579160200282015b828111156200016957825182546001600160a01b0319166001600160a01b0390911617825560209092019160019091019062000132565b506200010d92915062000197565b6200019491905b808211156200010d57600081556001016200017e565b90565b6200019491905b808211156200010d5780546001600160a01b03191681556001016200019e565b8051620001cb81620002f0565b92915050565b60008060408385031215620001e4578182fd5b8251620001f181620002f0565b602084810151919350906001600160401b038111156200020f578283fd5b80850186601f82011262000221578384fd5b805191506200023a6200023483620002d0565b620002a9565b82815283810190828501858502840186018a101562000257578687fd5b8693505b848410156200028557620002708a82620001be565b8352600193909301929185019185016200025b565b5080955050505050509250929050565b6001600160a01b0391909116815260200190565b6040518181016001600160401b0381118282101715620002c857600080fd5b604052919050565b60006001600160401b03821115620002e6578081fd5b5060209081020190565b6001600160a01b03811681146200030657600080fd5b50565b610a5e80620003196000396000f3fe608060405234801561001057600080fd5b50600436106100cf5760003560e01c8063a16227ca1161008c578063d2b0bf7c11610066578063d2b0bf7c14610162578063dc8990e114610177578063f0cf1db91461018a578063fc0c546a14610192576100cf565b8063a16227ca14610134578063b6e0833014610147578063cc53a0051461015a576100cf565b80630c340a24146100d457806334c1e5b5146100f2578063565d878c14610107578063614619541461010f5780637a267c08146101195780639a5b37811461012c575b600080fd5b6100dc61019a565b6040516100e99190610865565b60405180910390f35b6100fa6101a9565b6040516100e99190610879565b6100dc6101af565b6101176101be565b005b6100dc610127366004610805565b610253565b6100fa61027a565b610117610142366004610700565b610280565b6101176101553660046106bd565b6102a1565b6100fa61039a565b61016a6103a0565b6040516100e99190610882565b61011761018536600461076a565b61042e565b6100fa6105af565b6100dc6105b5565b6033546001600160a01b031681565b60755481565b6079546001600160a01b031681565b60005b60ad548110156102505760ad81815481106101d857fe5b60009182526020909120015460405163dc8990e160e01b81526001600160a01b039091169063dc8990e1906102129060ae90600401610895565b600060405180830381600087803b15801561022c57600080fd5b505af1158015610240573d6000803e3d6000fd5b5050600190920191506101c19050565b50565b60ad818154811061026057fe5b6000918252602090912001546001600160a01b0316905081565b60775481565b61029d61028f828401846106bd565b60709063ffffffff6105c416565b5050565b60335460405163d994d6d560e01b81526001600160a01b039091169063d994d6d5906102d1903390600401610865565b60206040518083038186803b1580156102e957600080fd5b505afa1580156102fd573d6000803e3d6000fd5b505050506040513d601f19601f8201168201806040525061032191908101906106e0565b604051806040016040528060168152602001753737ba2fb0baba3437b934bd32b22fb1b430b733b2b960511b815250906103775760405162461bcd60e51b815260040161036e9190610882565b60405180910390fd5b50603380546001600160a01b0319166001600160a01b0392909216919091179055565b60765481565b60ae805460408051602060026001851615610100026000190190941693909304601f810184900484028201840190925281815292918301828280156104265780601f106103fb57610100808354040283529160200191610426565b820191906000526020600020905b81548152906001019060200180831161040957829003601f168201915b505050505081565b60335460405163d994d6d560e01b81526001600160a01b039091169063d994d6d59061045e903390600401610865565b60206040518083038186803b15801561047657600080fd5b505afa15801561048a573d6000803e3d6000fd5b505050506040513d601f19601f820116820180604052506104ae91908101906106e0565b604051806040016040528060168152602001753737ba2fb0baba3437b934bd32b22fb1b430b733b2b960511b815250906104fb5760405162461bcd60e51b815260040161036e9190610882565b5060405133906000908290610514908590602401610882565b60408051601f198184030181529181526020820180516001600160e01b03166350b113e560e11b179052516105499190610849565b600060405180830381855af49150503d8060008114610584576040519150601f19603f3d011682016040523d82523d6000602084013e610589565b606091505b50509050806105aa5760405162461bcd60e51b815260040161036e90610970565b505050565b60785481565b607a546001600160a01b031681565b6105ce8282610672565b6105fe5781546001810183556000838152602090200180546001600160a01b0319166001600160a01b0383161790555b6001600160a01b0381166106245760405162461bcd60e51b815260040161036e906109a0565b61062e8282610672565b1561064b5760405162461bcd60e51b815260040161036e9061091d565b6001600160a01b03166000908152600191820160205260409020805460ff19169091179055565b60006001600160a01b03821661069a5760405162461bcd60e51b815260040161036e906109a0565b506001600160a01b03166000908152600191909101602052604090205460ff1690565b6000602082840312156106ce578081fd5b81356106d981610a13565b9392505050565b6000602082840312156106f1578081fd5b815180151581146106d9578182fd5b60008060208385031215610712578081fd5b823567ffffffffffffffff80821115610729578283fd5b81850186601f82011261073a578384fd5b803592508183111561074a578384fd5b86602084830101111561075b578384fd5b60200196919550909350505050565b60006020828403121561077b578081fd5b813567ffffffffffffffff80821115610792578283fd5b81840185601f8201126107a3578384fd5b80359250818311156107b3578384fd5b604051601f8401601f1916810160200183811182821017156107d3578586fd5b6040528381528184016020018710156107ea578485fd5b6107fb8460208301602085016109d7565b9695505050505050565b600060208284031215610816578081fd5b5035919050565b600081518084526108358160208601602086016109e3565b601f01601f19169290920160200192915050565b6000825161085b8184602087016109e3565b9190910192915050565b6001600160a01b0391909116815260200190565b90815260200190565b6000602082526106d9602083018461081d565b6000602082016020835281845460018116600081146108bb57600181146108d957610912565b60028204607f16845260ff1982166040870152606086019250610912565b6002820480855287865260208620865b82811015610908578154898201604001526001909101906020016108e9565b8801604001945050505b509095945050505050565b60208082526033908201527f4163636f756e74206e6f7420616c6c6f77656420746f20616464206163636f756040820152721b9d1cc81a5b9d1bc81dda1a5d19481b1a5cdd606a1b606082015260800190565b602080825260169082015275115c9c9bdc881a5b8819195b1959d85d194818d85b1b60521b604082015260600190565b60208082526017908201527f4163636f756e74206d757374206e6f7420626520307830000000000000000000604082015260600190565b82818337506000910152565b60005b838110156109fe5781810151838201526020016109e6565b83811115610a0d576000848401525b50505050565b6001600160a01b038116811461025057600080fdfea2646970667358221220bcc4135816b48875f714b06cd503c4397e54fe9b8ab8718ae65abcb3e5131bad64736f6c63430006000033",
  "source": "pragma solidity 0.6.0;\npragma experimental ABIEncoderV2;\n\nimport {ChangeContract} from \"../moc-gobernanza/Governance/ChangeContract.sol\";\nimport {CoinPairPriceStorage} from \"../CoinPairPriceStorage.sol\";\nimport {GovernedAbstract} from \"../libs/GovernedAbstract.sol\";\n//import {IterableWhitelist} from \"../libs/IterableWhitelist.sol\";\n\n/**\n  @title CoinPairPriceAddCoinPairCalculatorChange\n  @notice This contract is a ChangeContract intended to be used to whitelist a coinPairPriceCalculator\n  in various CoinPaiPrice contracts at once.\n */\ncontract CoinPairPriceAddCalculatedPriceProviderChange is CoinPairPriceStorage, ChangeContract {\n\n    GovernedAbstract[] public coinPairPrices;\n    bytes public encodedData;\n\n    /**\n      @notice Constructor\n      @param _calculatedPriceProvider Address of coin pair price calculator to add to whitelists\n      @param _coinPairPrices List of coinPairPrice contracts that must whitelist the _coinPairPriceCalculator Address\n    */\n    constructor(address _calculatedPriceProvider, GovernedAbstract[] memory _coinPairPrices) public {\n        encodedData = abi.encode(_calculatedPriceProvider);\n        coinPairPrices = _coinPairPrices;\n    }\n\n    /**\n      @notice Execute the changes.\n      @dev Should be called by the governor, but this contract does not check that explicitly\n      because it is not its responsability in the current architecture\n     */\n    function execute() external override {\n        for (uint i = 0; i < coinPairPrices.length; i++) {\n            coinPairPrices[i].delegateCallToChanger(encodedData);\n        }\n        // TODO: Make it usable just once.\n    }\n\n    /**\n        Called by the Governed contract delegateCallToChanger method\n        This methods runs in the Governed contract storage.\n    */\n    function impersonate(bytes calldata data) external {\n        pricePeekWhitelistData._addToWhitelist(abi.decode(data, (address)));\n    }\n}\n",
  "sourcePath": "/home/adji/Desktop/work/coinfabrik/OMoC-Decentralized-Oracle/contracts/contracts/change/CoinPairPriceAddCalculatedPriceProviderChange.sol",
  "compiler": {
    "name": "solc",
    "version": "0.6.0+commit.26b70077.Emscripten.clang"
  },
  "schemaVersion": "3.2.0",
  "updatedAt": "2020-06-29T22:16:42.440Z",
  "networkType": "ethereum",
  "devdoc": {
    "methods": {
      "changeIGovernor(address)": {
        "params": {
          "newIGovernor": "New governor address"
        }
      },
      "constructor": {
        "params": {
          "_calculatedPriceProvider": "Address of coin pair price calculator to add to whitelists",
          "_coinPairPrices": "List of coinPairPrice contracts that must whitelist the _coinPairPriceCalculator Address"
        }
      },
      "execute()": {
        "details": "Should be called by the governor, but this contract does not check that explicitly because it is not its responsability in the current architecture"
      }
    },
    "title": "CoinPairPriceAddCoinPairCalculatorChange"
  },
  "userdoc": {
    "methods": {
      "changeIGovernor(address)": {
        "notice": "Change the contract's governor. Should be called through the old governance system"
      },
      "constructor": "Constructor",
      "execute()": {
        "notice": "Execute the changes."
      },
      "impersonate(bytes)": {
        "notice": "Called by the Governed contract delegateCallToChanger method This methods runs in the Governed contract storage."
      }
    },
    "notice": "This contract is a ChangeContract intended to be used to whitelist a coinPairPriceCalculator in various CoinPaiPrice contracts at once."
  }
}