{
  "contractName": "CoinPairPriceFree",
  "abi": [
    {
      "inputs": [],
      "name": "coinPairPrice",
      "outputs": [
        {
          "internalType": "contract IPriceProvider",
          "name": "",
          "type": "address"
        }
      ],
      "stateMutability": "view",
      "type": "function",
      "constant": true
    },
    {
      "inputs": [
        {
          "internalType": "contract IPriceProvider",
          "name": "_coinPairPrice",
          "type": "address"
        }
      ],
      "name": "initialize",
      "outputs": [],
      "stateMutability": "nonpayable",
      "type": "function"
    },
    {
      "inputs": [],
      "name": "peek",
      "outputs": [
        {
          "internalType": "bytes32",
          "name": "",
          "type": "bytes32"
        },
        {
          "internalType": "bool",
          "name": "",
          "type": "bool"
        }
      ],
      "stateMutability": "view",
      "type": "function",
      "constant": true
    }
  ],
  "bytecode": "0x608060405234801561001057600080fd5b5061026b806100206000396000f3fe608060405234801561001057600080fd5b50600436106100415760003560e01c80634b6123041461004657806359e02dd71461006a578063c4d66de81461008b575b600080fd5b61004e6100b3565b604080516001600160a01b039092168252519081900360200190f35b6100726100c2565b6040805192835290151560208301528051918290030190f35b6100b1600480360360208110156100a157600080fd5b50356001600160a01b0316610143565b005b6033546001600160a01b031681565b603354604080516359e02dd760e01b8152815160009384936001600160a01b03909116926359e02dd79260048083019392829003018186803b15801561010757600080fd5b505afa15801561011b573d6000803e3d6000fd5b505050506040513d604081101561013157600080fd5b50805160209091015190925090509091565b600054610100900460ff168061015c575061015c610201565b8061016a575060005460ff16155b6101a55760405162461bcd60e51b815260040180806020018281038252602e815260200180610208602e913960400191505060405180910390fd5b600054610100900460ff161580156101d0576000805460ff1961ff0019909116610100171660011790555b603380546001600160a01b0319166001600160a01b03841617905580156101fd576000805461ff00191690555b5050565b303b159056fe436f6e747261637420696e7374616e63652068617320616c7265616479206265656e20696e697469616c697a6564a26469706673582212207867313d9951048b7a521770f00ce7d2dbe95195374773ab4e83bb257e07877c64736f6c63430006000033",
  "source": "pragma solidity 0.6.0;\r\n\r\nimport {IPriceProvider} from \"./libs/IPriceProvider.sol\";\r\nimport {Initializable} from \"./openzeppelin/Initializable.sol\";\r\n\r\n/// @title This contract provides an interface for feeding prices from oracles, and\r\n///        get the current price. One contract must be instanced per supported coin pair,\r\n///        and registered through OracleManager global contract.\r\ncontract CoinPairPriceFree is Initializable, IPriceProvider {\r\n    IPriceProvider public coinPairPrice;\r\n\r\n    function initialize(IPriceProvider _coinPairPrice) public initializer {\r\n        coinPairPrice = _coinPairPrice;\r\n    }\r\n\r\n    /// @notice Return the current price, compatible with old MOC Oracle\r\n    function peek() external override view returns (bytes32, bool) {\r\n        return coinPairPrice.peek();\r\n    }\r\n}\r\n",
  "sourcePath": "/home/adji/Desktop/work/coinfabrik/OMoC-Decentralized-Oracle/contracts/contracts/CoinPairPriceFree.sol",
  "compiler": {
    "name": "solc",
    "version": "0.6.0+commit.26b70077.Emscripten.clang"
  },
  "schemaVersion": "3.2.0",
  "updatedAt": "2020-06-29T22:16:42.437Z",
  "networkType": "ethereum",
  "devdoc": {
    "methods": {},
    "title": "This contract provides an interface for feeding prices from oracles, and        get the current price. One contract must be instanced per supported coin pair,        and registered through OracleManager global contract."
  },
  "userdoc": {
    "methods": {
      "peek()": {
        "notice": "Return the current price, compatible with old MOC Oracle"
      }
    }
  }
}