{
  "contractName": "CoinPairPriceRoundLockPeriodInBlocksChange",
  "abi": [
    {
      "inputs": [
        {
          "internalType": "contract GovernedAbstract",
          "name": "_coinPairPrice",
          "type": "address"
        },
        {
          "internalType": "uint256",
          "name": "_roundLockPeriodInBlocks",
          "type": "uint256"
        }
      ],
      "stateMutability": "nonpayable",
      "type": "constructor"
    },
    {
      "inputs": [
        {
          "internalType": "contract IGovernor",
          "name": "newIGovernor",
          "type": "address"
        }
      ],
      "name": "changeIGovernor",
      "outputs": [],
      "stateMutability": "nonpayable",
      "type": "function"
    },
    {
      "inputs": [],
      "name": "coinPair",
      "outputs": [
        {
          "internalType": "bytes32",
          "name": "",
          "type": "bytes32"
        }
      ],
      "stateMutability": "view",
      "type": "function"
    },
    {
      "inputs": [],
      "name": "coinPairPrice",
      "outputs": [
        {
          "internalType": "contract GovernedAbstract",
          "name": "",
          "type": "address"
        }
      ],
      "stateMutability": "view",
      "type": "function"
    },
    {
      "inputs": [
        {
          "internalType": "bytes",
          "name": "data",
          "type": "bytes"
        }
      ],
      "name": "delegateCallToChanger",
      "outputs": [],
      "stateMutability": "nonpayable",
      "type": "function"
    },
    {
      "inputs": [],
      "name": "emergencyPublishingPeriodInBlocks",
      "outputs": [
        {
          "internalType": "uint256",
          "name": "",
          "type": "uint256"
        }
      ],
      "stateMutability": "view",
      "type": "function"
    },
    {
      "inputs": [],
      "name": "encodedData",
      "outputs": [
        {
          "internalType": "bytes",
          "name": "",
          "type": "bytes"
        }
      ],
      "stateMutability": "view",
      "type": "function"
    },
    {
      "inputs": [],
      "name": "governor",
      "outputs": [
        {
          "internalType": "contract IGovernor",
          "name": "",
          "type": "address"
        }
      ],
      "stateMutability": "view",
      "type": "function"
    },
    {
      "inputs": [],
      "name": "lastPublicationBlock",
      "outputs": [
        {
          "internalType": "uint256",
          "name": "",
          "type": "uint256"
        }
      ],
      "stateMutability": "view",
      "type": "function"
    },
    {
      "inputs": [],
      "name": "oracleManager",
      "outputs": [
        {
          "internalType": "contract OracleManager",
          "name": "",
          "type": "address"
        }
      ],
      "stateMutability": "view",
      "type": "function"
    },
    {
      "inputs": [],
      "name": "token",
      "outputs": [
        {
          "internalType": "contract IERC20",
          "name": "",
          "type": "address"
        }
      ],
      "stateMutability": "view",
      "type": "function"
    },
    {
      "inputs": [],
      "name": "validPricePeriodInBlocks",
      "outputs": [
        {
          "internalType": "uint256",
          "name": "",
          "type": "uint256"
        }
      ],
      "stateMutability": "view",
      "type": "function"
    },
    {
      "inputs": [],
      "name": "execute",
      "outputs": [],
      "stateMutability": "nonpayable",
      "type": "function"
    },
    {
      "inputs": [
        {
          "internalType": "bytes",
          "name": "data",
          "type": "bytes"
        }
      ],
      "name": "impersonate",
      "outputs": [],
      "stateMutability": "nonpayable",
      "type": "function"
    }
  ],
  "bytecode": "0x608060405234801561001057600080fd5b50604051610a1d380380610a1d8339818101604052604081101561003357600080fd5b50805160209182015160ad80546001600160a01b0319166001600160a01b038416179055604080518085018390528151808203860181529082019091528051929391926100849260ae92019061008c565b505050610127565b828054600181600116156101000203166002900490600052602060002090601f016020900481019282601f106100cd57805160ff19168380011785556100fa565b828001600101855582156100fa579182015b828111156100fa5782518255916020019190600101906100df565b5061010692915061010a565b5090565b61012491905b808211156101065760008155600101610110565b90565b6108e7806101366000396000f3fe608060405234801561001057600080fd5b50600436106100cf5760003560e01c8063a16227ca1161008c578063d2b0bf7c11610066578063d2b0bf7c146101d2578063dc8990e11461024f578063f0cf1db9146102f5578063fc0c546a146102fd576100cf565b8063a16227ca14610134578063b6e08330146101a4578063cc53a005146101ca576100cf565b80630c340a24146100d457806334c1e5b5146100f85780634b61230414610112578063565d878c1461011a57806361461954146101225780639a5b37811461012c575b600080fd5b6100dc610305565b604080516001600160a01b039092168252519081900360200190f35b610100610314565b60408051918252519081900360200190f35b6100dc61031a565b6100dc610329565b61012a610338565b005b610100610415565b61012a6004803603602081101561014a57600080fd5b81019060208101813564010000000081111561016557600080fd5b82018360208201111561017757600080fd5b8035906020019184600183028401116401000000008311171561019957600080fd5b50909250905061041b565b61012a600480360360208110156101ba57600080fd5b50356001600160a01b0316610434565b610100610584565b6101da61058a565b6040805160208082528351818301528351919283929083019185019080838360005b838110156102145781810151838201526020016101fc565b50505050905090810190601f1680156102415780820380516001836020036101000a031916815260200191505b509250505060405180910390f35b61012a6004803603602081101561026557600080fd5b81019060208101813564010000000081111561028057600080fd5b82018360208201111561029257600080fd5b803590602001918460018302840111640100000000831117156102b457600080fd5b91908080601f016020809104026020016040519081016040528093929190818152602001838380828437600092019190915250929550610618945050505050565b61010061089c565b6100dc6108a2565b6033546001600160a01b031681565b60755481565b60ad546001600160a01b031681565b6079546001600160a01b031681565b60ad5460405163dc8990e160e01b815260206004820190815260ae805460026000196001831615610100020190911604602484018190526001600160a01b039094169363dc8990e1939192918291604490910190849080156103db5780601f106103b0576101008083540402835291602001916103db565b820191906000526020600020905b8154815290600101906020018083116103be57829003601f168201915b505092505050600060405180830381600087803b1580156103fb57600080fd5b505af115801561040f573d6000803e3d6000fd5b50505050565b60775481565b8181602081101561042b57600080fd5b5035606b555050565b6033546040805163d994d6d560e01b815233600482015290516001600160a01b039092169163d994d6d591602480820192602092909190829003018186803b15801561047f57600080fd5b505afa158015610493573d6000803e3d6000fd5b505050506040513d60208110156104a957600080fd5b50516040805180820190915260168152753737ba2fb0baba3437b934bd32b22fb1b430b733b2b960511b6020820152906105615760405162461bcd60e51b81526004018080602001828103825283818151815260200191508051906020019080838360005b8381101561052657818101518382015260200161050e565b50505050905090810190601f1680156105535780820380516001836020036101000a031916815260200191505b509250505060405180910390fd5b50603380546001600160a01b0319166001600160a01b0392909216919091179055565b60765481565b60ae805460408051602060026001851615610100026000190190941693909304601f810184900484028201840190925281815292918301828280156106105780601f106105e557610100808354040283529160200191610610565b820191906000526020600020905b8154815290600101906020018083116105f357829003601f168201915b505050505081565b6033546040805163d994d6d560e01b815233600482015290516001600160a01b039092169163d994d6d591602480820192602092909190829003018186803b15801561066357600080fd5b505afa158015610677573d6000803e3d6000fd5b505050506040513d602081101561068d57600080fd5b50516040805180820190915260168152753737ba2fb0baba3437b934bd32b22fb1b430b733b2b960511b6020820152906107085760405162461bcd60e51b815260206004820181815283516024840152835190928392604490910191908501908083836000831561052657818101518382015260200161050e565b5060003390506000816001600160a01b0316836040516024018080602001828103825283818151815260200191508051906020019080838360005b8381101561075b578181015183820152602001610743565b50505050905090810190601f1680156107885780820380516001836020036101000a031916815260200191505b5060408051601f198184030181529181526020820180516001600160e01b03166350b113e560e11b178152905182519295509350839250908083835b602083106107e35780518252601f1990920191602091820191016107c4565b6001836020036101000a038019825116818451168082178552505050505050905001915050600060405180830381855af49150503d8060008114610843576040519150601f19603f3d011682016040523d82523d6000602084013e610848565b606091505b5050905080610897576040805162461bcd60e51b8152602060048201526016602482015275115c9c9bdc881a5b8819195b1959d85d194818d85b1b60521b604482015290519081900360640190fd5b505050565b60785481565b607a546001600160a01b03168156fea264697066735822122067a3140eb31dbbdb04937212371b31154d6572906a40752d50a37ed39e01b74364736f6c63430006000033",
  "source": "pragma solidity 0.6.0;\n\nimport {ChangeContract} from \"../moc-gobernanza/Governance/ChangeContract.sol\";\nimport {CoinPairPriceStorage} from \"../CoinPairPriceStorage.sol\";\nimport {GovernedAbstract} from \"../libs/GovernedAbstract.sol\";\n\n/**\n  @title CoinPairPriceRoundLockPeriodInBlocksChange\n  @notice This contract is a ChangeContract intended to be used to change the coinpairprice contract\n  parameter roundLockPeriodInBlocks\n */\ncontract CoinPairPriceRoundLockPeriodInBlocksChange is CoinPairPriceStorage, ChangeContract {\n\n    GovernedAbstract public coinPairPrice;\n    bytes public encodedData;\n\n    /**\n      @notice Constructor\n      @param _coinPairPrice Address of coin pair price to upgrade\n      @param _roundLockPeriodInBlocks The maximum count of oracles selected to participate each round\n    */\n    constructor(GovernedAbstract _coinPairPrice, uint256 _roundLockPeriodInBlocks) public {\n        coinPairPrice = _coinPairPrice;\n        encodedData = abi.encode(_roundLockPeriodInBlocks);\n    }\n\n    /**\n      @notice Execute the changes.\n      @dev Should be called by the governor, but this contract does not check that explicitly because\n      it is not its responsability in the current architecture\n     */\n    function execute() external override {\n        coinPairPrice.delegateCallToChanger(encodedData);\n        // TODO: Make it usable just once.\n    }\n\n    /**\n        Called by the Governed contract delegateCallToChanger method\n        This methods runs in the Governed contract storage.\n    */\n    function impersonate(bytes calldata data) external {\n        roundInfo.roundLockPeriodInBlocks = abi.decode(data, (uint256));\n    }\n}\n",
  "sourcePath": "/home/adji/Desktop/work/coinfabrik/OMoC-Decentralized-Oracle/contracts/contracts/change/CoinPairPriceRoundLockPeriodInBlocksChange.sol",
  "compiler": {
    "name": "solc",
    "version": "0.6.0+commit.26b70077.Emscripten.clang"
  },
  "schemaVersion": "3.2.0",
  "updatedAt": "2020-06-29T21:30:43.126Z",
  "devdoc": {
    "methods": {
      "changeIGovernor(address)": {
        "params": {
          "newIGovernor": "New governor address"
        }
      },
      "constructor": {
        "params": {
          "_coinPairPrice": "Address of coin pair price to upgrade",
          "_roundLockPeriodInBlocks": "The maximum count of oracles selected to participate each round"
        }
      },
      "execute()": {
        "details": "Should be called by the governor, but this contract does not check that explicitly because it is not its responsability in the current architecture"
      }
    },
    "title": "CoinPairPriceRoundLockPeriodInBlocksChange"
  },
  "userdoc": {
    "methods": {
      "changeIGovernor(address)": {
        "notice": "Change the contract's governor. Should be called through the old governance system"
      },
      "constructor": "Constructor",
      "execute()": {
        "notice": "Execute the changes."
      },
      "impersonate(bytes)": {
        "notice": "Called by the Governed contract delegateCallToChanger method This methods runs in the Governed contract storage."
      }
    },
    "notice": "This contract is a ChangeContract intended to be used to change the coinpairprice contract parameter roundLockPeriodInBlocks"
  }
}