{
  "contractName": "CoinPairPrice",
  "abi": [
    {
      "anonymous": false,
      "inputs": [
        {
          "indexed": false,
          "internalType": "address",
          "name": "sender",
          "type": "address"
        },
        {
          "indexed": false,
          "internalType": "uint256",
          "name": "price",
          "type": "uint256"
        },
        {
          "indexed": false,
          "internalType": "address",
          "name": "votedOracle",
          "type": "address"
        },
        {
          "indexed": false,
          "internalType": "uint256",
          "name": "blockNumber",
          "type": "uint256"
        }
      ],
      "name": "EmergencyPricePublished",
      "type": "event"
    },
    {
      "anonymous": false,
      "inputs": [
        {
          "indexed": false,
          "internalType": "address",
          "name": "caller",
          "type": "address"
        },
        {
          "indexed": false,
          "internalType": "uint256",
          "name": "number",
          "type": "uint256"
        },
        {
          "indexed": false,
          "internalType": "uint256",
          "name": "totalPoints",
          "type": "uint256"
        },
        {
          "indexed": false,
          "internalType": "uint256",
          "name": "startBlock",
          "type": "uint256"
        },
        {
          "indexed": false,
          "internalType": "uint256",
          "name": "lockPeriodEndBlock",
          "type": "uint256"
        },
        {
          "indexed": false,
          "internalType": "address[]",
          "name": "selectedOracles",
          "type": "address[]"
        }
      ],
      "name": "NewRound",
      "type": "event"
    },
    {
      "anonymous": false,
      "inputs": [
        {
          "indexed": false,
          "internalType": "uint256",
          "name": "roundNumber",
          "type": "uint256"
        },
        {
          "indexed": false,
          "internalType": "address",
          "name": "oracleAddress",
          "type": "address"
        },
        {
          "indexed": false,
          "internalType": "address",
          "name": "toOwnerAddress",
          "type": "address"
        },
        {
          "indexed": false,
          "internalType": "uint256",
          "name": "amount",
          "type": "uint256"
        }
      ],
      "name": "OracleRewardTransfer",
      "type": "event"
    },
    {
      "anonymous": false,
      "inputs": [
        {
          "indexed": false,
          "internalType": "address",
          "name": "sender",
          "type": "address"
        },
        {
          "indexed": false,
          "internalType": "uint256",
          "name": "price",
          "type": "uint256"
        },
        {
          "indexed": false,
          "internalType": "address",
          "name": "votedOracle",
          "type": "address"
        },
        {
          "indexed": false,
          "internalType": "uint256",
          "name": "blockNumber",
          "type": "uint256"
        }
      ],
      "name": "PricePublished",
      "type": "event"
    },
    {
      "inputs": [
        {
          "internalType": "contract IGovernor",
          "name": "newIGovernor",
          "type": "address"
        }
      ],
      "name": "changeIGovernor",
      "outputs": [],
      "stateMutability": "nonpayable",
      "type": "function"
    },
    {
      "inputs": [],
      "name": "coinPair",
      "outputs": [
        {
          "internalType": "bytes32",
          "name": "",
          "type": "bytes32"
        }
      ],
      "stateMutability": "view",
      "type": "function"
    },
    {
      "inputs": [
        {
          "internalType": "bytes",
          "name": "data",
          "type": "bytes"
        }
      ],
      "name": "delegateCallToChanger",
      "outputs": [],
      "stateMutability": "nonpayable",
      "type": "function"
    },
    {
      "inputs": [],
      "name": "emergencyPublishingPeriodInBlocks",
      "outputs": [
        {
          "internalType": "uint256",
          "name": "",
          "type": "uint256"
        }
      ],
      "stateMutability": "view",
      "type": "function"
    },
    {
      "inputs": [],
      "name": "governor",
      "outputs": [
        {
          "internalType": "contract IGovernor",
          "name": "",
          "type": "address"
        }
      ],
      "stateMutability": "view",
      "type": "function"
    },
    {
      "inputs": [],
      "name": "lastPublicationBlock",
      "outputs": [
        {
          "internalType": "uint256",
          "name": "",
          "type": "uint256"
        }
      ],
      "stateMutability": "view",
      "type": "function"
    },
    {
      "inputs": [],
      "name": "oracleManager",
      "outputs": [
        {
          "internalType": "contract OracleManager",
          "name": "",
          "type": "address"
        }
      ],
      "stateMutability": "view",
      "type": "function"
    },
    {
      "inputs": [],
      "name": "token",
      "outputs": [
        {
          "internalType": "contract IERC20",
          "name": "",
          "type": "address"
        }
      ],
      "stateMutability": "view",
      "type": "function"
    },
    {
      "inputs": [],
      "name": "validPricePeriodInBlocks",
      "outputs": [
        {
          "internalType": "uint256",
          "name": "",
          "type": "uint256"
        }
      ],
      "stateMutability": "view",
      "type": "function"
    },
    {
      "inputs": [
        {
          "internalType": "contract IGovernor",
          "name": "_governor",
          "type": "address"
        },
        {
          "internalType": "address[]",
          "name": "_wlist",
          "type": "address[]"
        },
        {
          "internalType": "bytes32",
          "name": "_coinPair",
          "type": "bytes32"
        },
        {
          "internalType": "address",
          "name": "_tokenAddress",
          "type": "address"
        },
        {
          "internalType": "uint256",
          "name": "_maxOraclesPerRound",
          "type": "uint256"
        },
        {
          "internalType": "uint256",
          "name": "_roundLockPeriodInBlocks",
          "type": "uint256"
        },
        {
          "internalType": "uint256",
          "name": "_validPricePeriodInBlocks",
          "type": "uint256"
        },
        {
          "internalType": "uint256",
          "name": "_emergencyPublishingPeriodInBlocks",
          "type": "uint256"
        },
        {
          "internalType": "uint256",
          "name": "_bootstrapPrice",
          "type": "uint256"
        },
        {
          "internalType": "uint8",
          "name": "_numIdleRounds",
          "type": "uint8"
        },
        {
          "internalType": "contract OracleManager",
          "name": "_oracleManager",
          "type": "address"
        }
      ],
      "name": "initialize",
      "outputs": [],
      "stateMutability": "nonpayable",
      "type": "function"
    },
    {
      "inputs": [],
      "name": "getPriceProviderType",
      "outputs": [
        {
          "internalType": "enum IPriceProviderRegisterEntry.IPriceProviderType",
          "name": "",
          "type": "uint8"
        }
      ],
      "stateMutability": "pure",
      "type": "function"
    },
    {
      "inputs": [
        {
          "internalType": "address",
          "name": "oracleAddr",
          "type": "address"
        }
      ],
      "name": "subscribe",
      "outputs": [],
      "stateMutability": "nonpayable",
      "type": "function"
    },
    {
      "inputs": [
        {
          "internalType": "address",
          "name": "oracleAddr",
          "type": "address"
        }
      ],
      "name": "unsubscribe",
      "outputs": [],
      "stateMutability": "nonpayable",
      "type": "function"
    },
    {
      "inputs": [
        {
          "internalType": "address",
          "name": "oracleAddr",
          "type": "address"
        }
      ],
      "name": "isSubscribed",
      "outputs": [
        {
          "internalType": "bool",
          "name": "",
          "type": "bool"
        }
      ],
      "stateMutability": "view",
      "type": "function"
    },
    {
      "inputs": [
        {
          "internalType": "address",
          "name": "oracleAddr",
          "type": "address"
        }
      ],
      "name": "canRemoveOracle",
      "outputs": [
        {
          "internalType": "bool",
          "name": "",
          "type": "bool"
        }
      ],
      "stateMutability": "view",
      "type": "function"
    },
    {
      "inputs": [],
      "name": "getAvailableRewardFees",
      "outputs": [
        {
          "internalType": "uint256",
          "name": "",
          "type": "uint256"
        }
      ],
      "stateMutability": "view",
      "type": "function"
    },
    {
      "inputs": [
        {
          "internalType": "uint256",
          "name": "_version",
          "type": "uint256"
        },
        {
          "internalType": "bytes32",
          "name": "_coinpair",
          "type": "bytes32"
        },
        {
          "internalType": "uint256",
          "name": "_price",
          "type": "uint256"
        },
        {
          "internalType": "address",
          "name": "_votedOracle",
          "type": "address"
        },
        {
          "internalType": "uint256",
          "name": "_blockNumber",
          "type": "uint256"
        },
        {
          "internalType": "uint8[]",
          "name": "_sig_v",
          "type": "uint8[]"
        },
        {
          "internalType": "bytes32[]",
          "name": "_sig_r",
          "type": "bytes32[]"
        },
        {
          "internalType": "bytes32[]",
          "name": "_sig_s",
          "type": "bytes32[]"
        }
      ],
      "name": "publishPrice",
      "outputs": [],
      "stateMutability": "nonpayable",
      "type": "function"
    },
    {
      "inputs": [
        {
          "internalType": "uint256",
          "name": "_price",
          "type": "uint256"
        }
      ],
      "name": "emergencyPublish",
      "outputs": [],
      "stateMutability": "nonpayable",
      "type": "function"
    },
    {
      "inputs": [],
      "name": "peek",
      "outputs": [
        {
          "internalType": "bytes32",
          "name": "",
          "type": "bytes32"
        },
        {
          "internalType": "bool",
          "name": "",
          "type": "bool"
        }
      ],
      "stateMutability": "view",
      "type": "function"
    },
    {
      "inputs": [],
      "name": "getPrice",
      "outputs": [
        {
          "internalType": "uint256",
          "name": "",
          "type": "uint256"
        }
      ],
      "stateMutability": "view",
      "type": "function"
    },
    {
      "inputs": [],
      "name": "getRoundInfo",
      "outputs": [
        {
          "internalType": "uint256",
          "name": "round",
          "type": "uint256"
        },
        {
          "internalType": "uint256",
          "name": "startBlock",
          "type": "uint256"
        },
        {
          "internalType": "uint256",
          "name": "lockPeriodEndBlock",
          "type": "uint256"
        },
        {
          "internalType": "uint256",
          "name": "totalPoints",
          "type": "uint256"
        },
        {
          "internalType": "address[]",
          "name": "selectedOracles",
          "type": "address[]"
        }
      ],
      "stateMutability": "view",
      "type": "function"
    },
    {
      "inputs": [
        {
          "internalType": "address",
          "name": "addr",
          "type": "address"
        }
      ],
      "name": "getOracleRoundInfo",
      "outputs": [
        {
          "internalType": "uint256",
          "name": "points",
          "type": "uint256"
        },
        {
          "internalType": "uint256",
          "name": "selectedInRound",
          "type": "uint256"
        },
        {
          "internalType": "bool",
          "name": "selectedInCurrentRound",
          "type": "bool"
        }
      ],
      "stateMutability": "view",
      "type": "function"
    },
    {
      "inputs": [],
      "name": "switchRound",
      "outputs": [],
      "stateMutability": "nonpayable",
      "type": "function"
    },
    {
      "inputs": [],
      "name": "maxOraclesPerRound",
      "outputs": [
        {
          "internalType": "uint256",
          "name": "",
          "type": "uint256"
        }
      ],
      "stateMutability": "view",
      "type": "function"
    },
    {
      "inputs": [],
      "name": "roundLockPeriodInBlocks",
      "outputs": [
        {
          "internalType": "uint256",
          "name": "",
          "type": "uint256"
        }
      ],
      "stateMutability": "view",
      "type": "function"
    },
    {
      "inputs": [],
      "name": "numIdleRounds",
      "outputs": [
        {
          "internalType": "uint8",
          "name": "",
          "type": "uint8"
        }
      ],
      "stateMutability": "view",
      "type": "function"
    }
  ],
  "bytecode": "0x6080604052612be8806100136000396000f3fe608060405234801561001057600080fd5b506004361061018e5760003560e01c806398d5fdca116100de578063cc53a00511610097578063dc8990e111610071578063dc8990e1146105f4578063f0cf1db914610698578063f375b47f146106a0578063fc0c546a146106cc5761018e565b8063cc53a00514610526578063d3daa3731461052e578063d820c063146105365761018e565b806398d5fdca1461038b5780639a5b378114610393578063b6e083301461039b578063b92ae87c146103c1578063bb0d18bc146103e7578063cbf83a04146103ef5761018e565b806359e02dd71161014b5780637262561c116101255780637262561c1461028a57806378bf6dad146102b05780638458c1dd146102cd57806384bc76a6146103135761018e565b806359e02dd7146102435780635c6779c2146102645780636ef57341146102825761018e565b80630c340a241461019357806334c1e5b5146101b7578063375e2729146101d15780633aacdc99146101db57806341a7726a14610215578063565d878c1461023b575b600080fd5b61019b6106d4565b604080516001600160a01b039092168252519081900360200190f35b6101bf6106e3565b60408051918252519081900360200190f35b6101d96106e9565b005b610201600480360360208110156101f157600080fd5b50356001600160a01b0316610823565b604080519115158252519081900360200190f35b6101d96004803603602081101561022b57600080fd5b50356001600160a01b031661083c565b61019b61093e565b61024b61094d565b6040805192835290151560208301528051918290030190f35b61026c610a23565b6040805160ff9092168252519081900360200190f35b6101bf610a2d565b6101d9600480360360208110156102a057600080fd5b50356001600160a01b0316610a33565b6101d9600480360360208110156102c657600080fd5b5035610af9565b6102f3600480360360208110156102e357600080fd5b50356001600160a01b0316610c36565b604080519384526020840192909252151582820152519081900360600190f35b61031b610c58565b6040518086815260200185815260200184815260200183815260200180602001828103825283818151815260200191508051906020019060200280838360005b8381101561037357818101518382015260200161035b565b50505050905001965050505050505060405180910390f35b6101bf610c7b565b6101bf610ceb565b6101d9600480360360208110156103b157600080fd5b50356001600160a01b0316610cf1565b610201600480360360208110156103d757600080fd5b50356001600160a01b0316610e41565b6101bf610e5f565b6101d9600480360361010081101561040657600080fd5b8135916020810135916040820135916001600160a01b03606082013516916080820135919081019060c0810160a0820135600160201b81111561044857600080fd5b82018360208201111561045a57600080fd5b803590602001918460208302840111600160201b8311171561047b57600080fd5b919390929091602081019035600160201b81111561049857600080fd5b8201836020820111156104aa57600080fd5b803590602001918460208302840111600160201b831117156104cb57600080fd5b919390929091602081019035600160201b8111156104e857600080fd5b8201836020820111156104fa57600080fd5b803590602001918460208302840111600160201b8311171561051b57600080fd5b509092509050610edb565b6101bf61148c565b6101bf611492565b6101d9600480360361016081101561054d57600080fd5b6001600160a01b038235169190810190604081016020820135600160201b81111561057757600080fd5b82018360208201111561058957600080fd5b803590602001918460208302840111600160201b831117156105aa57600080fd5b91935091508035906001600160a01b03602082013581169160408101359160608201359160808101359160a08201359160c08101359160ff60e08301351691610100013516611498565b6101d96004803603602081101561060a57600080fd5b810190602081018135600160201b81111561062457600080fd5b82018360208201111561063657600080fd5b803590602001918460018302840111600160201b8311171561065757600080fd5b91908080601f016020809104026020016040519081016040528093929190818152602001838380828437600092019190915250929550611797945050505050565b6101bf611a1b565b6106a8611a21565b604051808260028111156106b857fe5b60ff16815260200191505060405180910390f35b61019b611a26565b6033546001600160a01b031681565b60755481565b6066541561073e576106fb6066611a35565b6107365760405162461bcd60e51b81526004018080602001828103825260278152602001806127d56027913960400191505060405180910390fd5b61073e611a3e565b6107486066611dc2565b610750611e42565b7fbaa39f5ccab881896722a002855fefb557ddeb6b65f492d869c5e411fb6d982233606660000154606660010154606660020154606660030154606660070160405180876001600160a01b03166001600160a01b0316815260200186815260200185815260200184815260200183815260200180602001828103825283818154815260200191508054801561080e57602002820191906000526020600020905b81546001600160a01b031681526001909101906020018083116107f0575b505097505050505050505060405180910390a1565b600061083660668363ffffffff611f9616565b92915050565b6079546001600160a01b031633146108855760405162461bcd60e51b81526004018080602001828103825260228152602001806128626022913960400191505060405180910390fd5b6001600160a01b0381166000908152606f602052604090205460ff16156108dd5760405162461bcd60e51b815260040180806020018281038252602e815260200180612926602e913960400191505060405180910390fd5b6001600160a01b0381166000908152606f60205260409020805460ff1916600117905561090a6066611fe4565b158015610925575061092360668263ffffffff611ff416565b155b1561093b5761093b60668263ffffffff61202916565b50565b6079546001600160a01b031681565b600080607033600114806109665750610966813361207c565b6109b4576040805162461bcd60e51b815260206004820152601a6024820152791059191c995cdcc81a5cc81b9bdd081dda1a5d195b1a5cdd195960321b604482015290519081900360640190fd5b607654431015610a0b576040805162461bcd60e51b815260206004820152601a60248201527f57726f6e67206c6173745075626c69636174696f6e426c6f636b000000000000604482015290519081900360640190fd5b60745460001b60775460765443031092509250509091565b606c5460ff165b90565b606a5490565b6079546001600160a01b03163314610a7c5760405162461bcd60e51b81526004018080602001828103825260228152602001806128626022913960400191505060405180910390fd5b6001600160a01b0381166000908152606f602052604090205460ff161515600114610ad85760405162461bcd60e51b815260040180806020018281038252602a815260200180612954602a913960400191505060405180910390fd5b6001600160a01b03166000908152606f60205260409020805460ff19169055565b60723360011480610b0f5750610b0f813361207c565b610b5d576040805162461bcd60e51b815260206004820152601a6024820152791059191c995cdcc81a5cc81b9bdd081dda1a5d195b1a5cdd195960321b604482015290519081900360640190fd5b60008211610b9c5760405162461bcd60e51b81526004018080602001828103825260238152602001806128b76023913960400191505060405180910390fd5b607854607654014311610be05760405162461bcd60e51b81526004018080602001828103825260278152602001806127ae6027913960400191505060405180910390fd5b610be9826120f6565b607654604080513380825260208201869052818301526060810192909252517f2d34955e4dd793c757a5db9d2209461764efa369e205ceeaf4013d10bed7cc199181900360800190a15050565b60008080610c4b60668563ffffffff6120ff16565b9250925092509193909250565b6000806000806060610c6a606661212a565b945094509450945094509091929394565b600060703360011480610c935750610c93813361207c565b610ce1576040805162461bcd60e51b815260206004820152601a6024820152791059191c995cdcc81a5cc81b9bdd081dda1a5d195b1a5cdd195960321b604482015290519081900360640190fd5b60745491505b5090565b60775481565b6033546040805163d994d6d560e01b815233600482015290516001600160a01b039092169163d994d6d591602480820192602092909190829003018186803b158015610d3c57600080fd5b505afa158015610d50573d6000803e3d6000fd5b505050506040513d6020811015610d6657600080fd5b50516040805180820190915260168152753737ba2fb0baba3437b934bd32b22fb1b430b733b2b960511b602082015290610e1e5760405162461bcd60e51b81526004018080602001828103825283818151815260200191508051906020019080838360005b83811015610de3578181015183820152602001610dcb565b50505050905090810190601f168015610e105780820380516001836020036101000a031916815260200191505b509250505060405180910390fd5b50603380546001600160a01b0319166001600160a01b0392909216919091179055565b6001600160a01b03166000908152606f602052604090205460ff1690565b607a54604080516370a0823160e01b815230600482015290516000926001600160a01b0316916370a08231916024808301926020929190829003018186803b158015610eaa57600080fd5b505afa158015610ebe573d6000803e3d6000fd5b505050506040513d6020811015610ed457600080fd5b5051905090565b606654610f20576040805162461bcd60e51b815260206004820152600e60248201526d2937bab732103737ba1037b832b760911b604482015290519081900360640190fd5b336000908152606f602052604090205460ff16610f84576040805162461bcd60e51b815260206004820152601c60248201527f53656e646572206f7261636c65206e6f74207375627363726962656400000000604482015290519081900360640190fd5b610f9560663363ffffffff611ff416565b610fd05760405162461bcd60e51b81526004018080602001828103825260268152602001806129fc6026913960400191505060405180910390fd5b336001600160a01b038916146110175760405162461bcd60e51b815260040180806020018281038252602c81526020018061297e602c913960400191505060405180910390fd5b60038b146110565760405162461bcd60e51b81526004018080602001828103825260248152602001806129026024913960400191505060405180910390fd5b600089116110955760405162461bcd60e51b81526004018080602001828103825260238152602001806128b76023913960400191505060405180910390fd5b60765487146110d55760405162461bcd60e51b8152600401808060200182810382526035815260200180612aad6035913960400191505060405180910390fd5b6075548a1461112b576040805162461bcd60e51b815260206004820152601d60248201527f436f696e2070616972202d20636f6e7472616374206d69736d61746368000000604482015290519081900360640190fd5b808314801561113957508285145b61118a576040805162461bcd60e51b815260206004820152601c60248201527f496e636f6e73697374656e74207369676e617475726520636f756e7400000000604482015290519081900360640190fd5b606d546002900481116111ce5760405162461bcd60e51b81526004018080602001828103825260318152602001806129cb6031913960400191505060405180910390fd5b604080517f19457468657265756d205369676e6564204d6573736167653a0a313438000000602080830191909152603d82018e9052605d82018d9052607d82018c90526bffffffffffffffffffffffff1960608c901b16609d83015260b18083018b90528351808403909101815260d19092019092528051918101919091206000805b848110156114105760006112a08b8b8481811061126a57fe5b9050602002013560ff168a8a8581811061128057fe5b9050602002013589898681811061129357fe5b90506020020135876121b9565b90506001600160a01b0381166112fd576040805162461bcd60e51b815260206004820152601860248201527f43616e6e6f74207265636f766572207369676e61747572650000000000000000604482015290519081900360640190fd5b6001600160a01b0381166000908152606f602052604090205460ff1661136a576040805162461bcd60e51b815260206004820152601d60248201527f5369676e696e67206f7261636c65206e6f742073756273637269626564000000604482015290519081900360640190fd5b61137b60668263ffffffff611ff416565b6113b65760405162461bcd60e51b81526004018080602001828103825260288152602001806128da6028913960400191505060405180910390fd5b806001600160a01b0316836001600160a01b0316106114065760405162461bcd60e51b81526004018080602001828103825260338152602001806127fc6033913960400191505060405180910390fd5b9150600101611251565b50611424606633600163ffffffff61226016565b61142d8c6120f6565b60408051338152602081018e90526001600160a01b038d1681830152606081018c905290517f3a383add96d332943cbe603b4dc1055154e63668959b8d8517ae06c46be462189181900360800190a15050505050505050505050505050565b60765481565b606b5490565b600054610100900460ff16806114b157506114b161229a565b806114bf575060005460ff16155b6114fa5760405162461bcd60e51b815260040180806020018281038252602e815260200180612a22602e913960400191505060405180910390fd5b600054610100900460ff16158015611525576000805460ff1961ff0019909116610100171660011790555b8a6115615760405162461bcd60e51b8152600401808060200182810382526028815260200180612b1f6028913960400191505060405180910390fd5b896115b3576040805162461bcd60e51b815260206004820152601760248201527f436f696e2070616972206d7573742062652076616c6964000000000000000000604482015290519081900360640190fd5b6001600160a01b0389166115f85760405162461bcd60e51b8152600401808060200182810382526035815260200180612a506035913960400191505060405180910390fd5b600086116116375760405162461bcd60e51b8152600401808060200182810382526034815260200180612b7f6034913960400191505060405180910390fd5b600085116116765760405162461bcd60e51b815260040180806020018281038252603d815260200180612ae2603d913960400191505060405180910390fd5b61167f8d6122a0565b60005b8b8110156116c1576116b98d8d8381811061169957fe5b905060200201356001600160a01b031660706122c290919063ffffffff16565b600101611682565b5060778690556078859055607a80546001600160a01b03808c166001600160a01b03199283161790925560758c9055607980549285169290911691909117905561170c8888856123be565b80516066908155602080830151606755604083015160685560608301516069556080830151606a5560a0830151606b5560c0830151606c805460ff191660ff90921691909117905560e0830151805161176992606d9201906126a8565b50905050611776846120f6565b8015611788576000805461ff00191690555b50505050505050505050505050565b6033546040805163d994d6d560e01b815233600482015290516001600160a01b039092169163d994d6d591602480820192602092909190829003018186803b1580156117e257600080fd5b505afa1580156117f6573d6000803e3d6000fd5b505050506040513d602081101561180c57600080fd5b50516040805180820190915260168152753737ba2fb0baba3437b934bd32b22fb1b430b733b2b960511b6020820152906118875760405162461bcd60e51b8152602060048201818152835160248401528351909283926044909101919085019080838360008315610de3578181015183820152602001610dcb565b5060003390506000816001600160a01b0316836040516024018080602001828103825283818151815260200191508051906020019080838360005b838110156118da5781810151838201526020016118c2565b50505050905090810190601f1680156119075780820380516001836020036101000a031916815260200191505b5060408051601f198184030181529181526020820180516001600160e01b03166350b113e560e11b178152905182519295509350839250908083835b602083106119625780518252601f199092019160209182019101611943565b6001836020036101000a038019825116818451168082178552505050505050905001915050600060405180830381855af49150503d80600081146119c2576040519150601f19603f3d011682016040523d82523d6000602084013e6119c7565b606091505b5050905080611a16576040805162461bcd60e51b8152602060048201526016602482015275115c9c9bdc881a5b8819195b1959d85d194818d85b1b60521b604482015290519081900360640190fd5b505050565b60785481565b600190565b607a546001600160a01b031681565b60030154431190565b606754611a4a57611dc0565b607a54604080516370a0823160e01b815230600482015290516000926001600160a01b0316916370a08231916024808301926020929190829003018186803b158015611a9557600080fd5b505afa158015611aa9573d6000803e3d6000fd5b505050506040513d6020811015611abf57600080fd5b5051905080611ace5750611dc0565b6000805b606d54811015611a1657600060666007018281548110611aee57fe5b60009182526020822001546001600160a01b03169150611b1560668363ffffffff6124fa16565b606754909150600090611b3e90611b32848963ffffffff61251916565b9063ffffffff61257216565b60795460408051634a49ca7f60e11b81526001600160a01b0387811660048301529151939450600093919092169163949394fe9160248083019286929190829003018186803b158015611b9057600080fd5b505afa158015611ba4573d6000803e3d6000fd5b505050506040513d6000823e601f3d908101601f191682016040526060811015611bcd57600080fd5b8101908080516040519392919084600160201b821115611bec57600080fd5b908301906020820185811115611c0157600080fd5b8251600160201b811182820188101715611c1a57600080fd5b82525081516020918201929091019080838360005b83811015611c47578181015183820152602001611c2f565b50505050905090810190601f168015611c745780820380516001836020036101000a031916815260200191505b50604081815291820151607a5463a9059cbb60e01b83526001600160a01b038083166004850152602484018a9052935191975092909216945063a9059cbb935060448082019350602092918290030181600087803b158015611cd557600080fd5b505af1158015611ce9573d6000803e3d6000fd5b505050506040513d6020811015611cff57600080fd5b5051611d4a576040805162461bcd60e51b8152602060048201526015602482015274151bdad95b881d1c985b9cd9995c8819985a5b1959605a1b604482015290519081900360640190fd5b611d5a868363ffffffff6125b416565b606654604080519182526001600160a01b03808816602084015284168282015260608201859052519197507f27084250b484355b65cb33c62c64ac793324a1026770765b85817409a2b22e4d919081900360800190a1505060019092019150611ad29050565b565b60005b6007820154811015611e1a57611e12826008016000846007018481548110611de957fe5b60009182526020808320909101546001600160a01b03168352820192909252604001902061260e565b600101611dc5565b5080546001908101825560008183015543808201600284015560058301540101600390910155565b611e4c6066612614565b60795460408051635fdfb01760e11b815290516000926001600160a01b03169163bfbf602e916004808301926020929190829003018186803b158015611e9157600080fd5b505afa158015611ea5573d6000803e3d6000fd5b505050506040513d6020811015611ebb57600080fd5b505190505b6001600160a01b03811615801590611edf5750611edd6066611fe4565b155b1561093b576001600160a01b0381166000908152606f602052604090205460ff1615611f1657611f1660668263ffffffff61202916565b6079546040805163d92779cf60e01b81526001600160a01b0384811660048301529151919092169163d92779cf916024808301926020929190829003018186803b158015611f6357600080fd5b505afa158015611f77573d6000803e3d6000fd5b505050506040513d6020811015611f8d57600080fd5b50519050611ec0565b6001600160a01b038116600090815260088301602052604081208190611fbb90612622565b905080611fcc576001915050610836565b6006840154935460ff90941601929092111592915050565b6004810154600790910154101590565b81546001600160a01b038216600090815260088401602052604081209091612022919063ffffffff61262916565b9392505050565b6007820180546001810182556000918252602080832090910180546001600160a01b0319166001600160a01b038516908117909155845490835260088501909152604090912061207891612634565b5050565b60006001600160a01b0382166120d3576040805162461bcd60e51b815260206004820152601760248201527604163636f756e74206d757374206e6f742062652030783604c1b604482015290519081900360640190fd5b506001600160a01b03166000908152600191909101602052604090205460ff1690565b43607655607455565b6001600160a01b03166000908152600882016020526040902080546001909101549154909290821490565b60008060008060608560000154866002015487600301548860010154896007018080548060200260200160405190810160405280929190818152602001828054801561219f57602002820191906000526020600020905b81546001600160a01b03168152600190910190602001808311612181575b505050505090509450945094509450945091939590929450565b600084601b60ff821610156121cc57601b015b8060ff16601b141580156121e457508060ff16601c14155b156121f3576000915050612258565b6040805160008152602080820180845286905260ff8416828401526060820188905260808201879052915160019260a0808401939192601f1981019281900390910190855afa15801561224a573d6000803e3d6000fd5b505050602060405103519150505b949350505050565b6001600160a01b0382166000908152600884016020526040902061228a908263ffffffff61263c16565b6001909201805490920190915550565b303b1590565b603380546001600160a01b0319166001600160a01b0392909216919091179055565b6122cc828261207c565b6122fc5781546001810183556000838152602090200180546001600160a01b0319166001600160a01b0383161790555b6001600160a01b038116612351576040805162461bcd60e51b815260206004820152601760248201527604163636f756e74206d757374206e6f742062652030783604c1b604482015290519081900360640190fd5b61235b828261207c565b156123975760405162461bcd60e51b815260040180806020018281038252603381526020018061282f6033913960400191505060405180910390fd5b6001600160a01b03166000908152600191820160205260409020805460ff19169091179055565b6123c6612709565b600084116124055760405162461bcd60e51b8152600401808060200182810382526028815260200180612a856028913960400191505060405180910390fd5b600083116124445760405162461bcd60e51b81526004018080602001828103825260338152602001806128846033913960400191505060405180910390fd5b60018260ff1610156124875760405162461bcd60e51b8152600401808060200182810382526038815260200180612b476038913960400191505060405180910390fd5b604051806101000160405280600081526020016000815260200160008152602001600081526020018581526020018481526020018360ff16815260200160006040519080825280602002602001820160405280156124ef578160200160208202803883390190505b509052949350505050565b6001600160a01b03166000908152600891909101602052604090205490565b60008261252857506000610836565b8282028284828161253557fe5b04146120225760405162461bcd60e51b81526004018080602001828103825260218152602001806129aa6021913960400191505060405180910390fd5b600061202283836040518060400160405280601a81526020017f536166654d6174683a206469766973696f6e206279207a65726f000000000000815250612643565b600082820183811015612022576040805162461bcd60e51b815260206004820152601b60248201527f536166654d6174683a206164646974696f6e206f766572666c6f770000000000604482015290519081900360640190fd5b60009055565b61093b600782016000612751565b6001015490565b600191909101541490565b600190910155565b8154019055565b600081836126925760405162461bcd60e51b8152602060048201818152835160248401528351909283926044909101919085019080838360008315610de3578181015183820152602001610dcb565b50600083858161269e57fe5b0495945050505050565b8280548282559060005260206000209081019282156126fd579160200282015b828111156126fd57825182546001600160a01b0319166001600160a01b039091161782556020909201916001909101906126c8565b50610ce792915061276f565b604051806101000160405280600081526020016000815260200160008152602001600081526020016000815260200160008152602001600060ff168152602001606081525090565b508054600082559060005260206000209081019061093b9190612793565b610a2a91905b80821115610ce75780546001600160a01b0319168155600101612775565b610a2a91905b80821115610ce7576000815560010161279956fe456d657267656e6379207075626c69736820706572696f64206469646e277420737461727465645468652063757272656e7420726f756e64206c6f636b20706572696f64206973206163746976655369676e61747572657320617265206e6f7420756e69717565206f72206e6f74206f72646572656420627920616464726573734163636f756e74206e6f7420616c6c6f77656420746f20616464206163636f756e747320696e746f207768697465206c6973744d7573742062652063616c6c65642066726f6d204f7261636c65206d616e6167657254686520726f756e64206c6f636b20706572696f64206d75737420626520706f73697469766520616e64206e6f6e207a65726f5072696365206d75737420626520706f73697469766520616e64206e6f6e2d7a65726f41646472657373206f66207369676e6572206e6f742070617274206f66207468697320726f756e645468697320636f6e74726163742061636365707473206f6e6c7920563320666f726d61744f7261636c6520697320616c7265616479207375627363726962656420746f207468697320636f696e20706169724f7261636c65206973206e6f74207375627363726962656420746f207468697320636f696e2070616972596f7572206164647265737320646f6573206e6f74206d617463682074686520766f746564206f7261636c65536166654d6174683a206d756c7469706c69636174696f6e206f766572666c6f775369676e617475726520636f756e74206d7573742065786365656420353025206f6620616374697665206f7261636c6573566f746572206f7261636c65206973206e6f742070617274206f66207468697320726f756e64436f6e747261637420696e7374616e63652068617320616c7265616479206265656e20696e697469616c697a6564546865204d4f4320746f6b656e2061646472657373206d7573742062652070726f766964656420696e20636f6e7374727563746f72546865206d6178696d756d206f7261636c65732070657220726f756e64206d757374206265203e30426c6f636b6e756d62657220646f6573206e6f74206d6174636820746865206c617374207075626c69636174696f6e20626c6f636b54686520656d657267656e6379207075626c697368696e6720706572696f64206d75737420626520706f73697469766520616e64206e6f6e207a65726f57686974656c697374206d7573742068617665206174206c65617374206f6e6520656c656d656e74546865206e756d626572206f6620726f756e647320616e206f7261636c65206d7573742062652069646c65206d757374206265203e3d20315468652076616c696420707269636520706572696f64206d75737420626520706f73697469766520616e64206e6f6e207a65726fa26469706673582212205783f529e2772c51dfeb4cdf6e9ae02c35559e53fee36274cef27d959f3e201f64736f6c63430006000033",
  "source": "pragma solidity 0.6.0;\r\n\r\nimport {SafeMath} from \"./openzeppelin/math/SafeMath.sol\";\r\nimport {IERC20} from \"./openzeppelin/token/ERC20/IERC20.sol\";\r\nimport {IGovernor} from \"./moc-gobernanza/Governance/IGovernor.sol\";\r\nimport {Governed} from \"./moc-gobernanza/Governance/Governed.sol\";\r\nimport {IPriceProvider} from \"./libs/IPriceProvider.sol\";\r\nimport {IPriceProviderRegisterEntry} from \"./libs/IPriceProviderRegisterEntry.sol\";\r\nimport {RoundInfoLib} from \"./libs/RoundInfoLib.sol\";\r\nimport {OracleManager} from \"./OracleManager.sol\";\r\nimport {IterableWhitelistLib} from \"./libs/IterableWhitelistLib.sol\";\r\nimport {CoinPairPriceStorage} from \"./CoinPairPriceStorage.sol\";\r\n\r\n/// @title This contract provides an interface for feeding prices from oracles, and\r\n///        get the current price. One contract must be instanced per supported coin pair,\r\n///        and registered through OracleManager global contract.\r\ncontract CoinPairPrice is CoinPairPriceStorage, IPriceProvider, IPriceProviderRegisterEntry {\r\n    using SafeMath for uint;\r\n\r\n    event OracleRewardTransfer(uint256 roundNumber, address oracleAddress, address toOwnerAddress, uint256 amount);\r\n    event PricePublished(address sender, uint256 price, address votedOracle, uint256 blockNumber);\r\n    event EmergencyPricePublished(address sender, uint256 price, address votedOracle, uint256 blockNumber);\r\n    event NewRound(address caller, uint256 number, uint256 totalPoints, uint256 startBlock, uint256 lockPeriodEndBlock,\r\n        address[] selectedOracles);\r\n\r\n\r\n    /// @notice Construct a new contract\r\n    /// @param _governor The governor address.\r\n    /// @param _wlist List of whitelisted contracts (those that can get the price).\r\n    /// @param _coinPair The coinpair, ex: USDBTC.\r\n    /// @param _tokenAddress The address of the MOC token to use.\r\n    /// @param _maxOraclesPerRound The maximum count of oracles selected to participate each round\r\n    /// @param _roundLockPeriodInBlocks The minimum time span for each round before a new one can be started, in blocks.\r\n    /// @param _validPricePeriodInBlocks The time span for which the last published price is valid.\r\n    /// @param _emergencyPublishingPeriodInBlocks The number of blocks that must pass after a publication after which\r\n    //          an emergency publishing must be enabled\r\n    /// @param _bootstrapPrice A price to be set as a bootstraping value for this block\r\n    /// @param _numIdleRounds The number of rounds an oracle must be idle (not participating) before a removal\r\n    /// @param _oracleManager The contract of the oracle manager.\r\n    function initialize(\r\n        IGovernor _governor,\r\n        address[] calldata _wlist,\r\n        bytes32 _coinPair,\r\n        address _tokenAddress,\r\n        uint256 _maxOraclesPerRound,\r\n        uint256 _roundLockPeriodInBlocks,\r\n        uint256 _validPricePeriodInBlocks,\r\n        uint256 _emergencyPublishingPeriodInBlocks,\r\n        uint256 _bootstrapPrice,\r\n        uint8 _numIdleRounds,\r\n        OracleManager _oracleManager\r\n    ) external initializer\r\n    {\r\n        require(_wlist.length != 0, \"Whitelist must have at least one element\");\r\n        require(_coinPair != bytes32(0), \"Coin pair must be valid\");\r\n        require(_tokenAddress != address(0), \"The MOC token address must be provided in constructor\");\r\n        require(_validPricePeriodInBlocks > 0, \"The valid price period must be positive and non zero\");\r\n        require(_emergencyPublishingPeriodInBlocks > 0, \"The emergency publishing period must be positive and non zero\");\r\n\r\n        Governed._initialize(_governor);\r\n\r\n        for (uint256 i = 0; i < _wlist.length; i++) {\r\n            pricePeekWhitelistData._addToWhitelist(_wlist[i]);\r\n        }\r\n        validPricePeriodInBlocks = _validPricePeriodInBlocks;\r\n        emergencyPublishingPeriodInBlocks = _emergencyPublishingPeriodInBlocks;\r\n        token = IERC20(_tokenAddress);\r\n        coinPair = _coinPair;\r\n        oracleManager = _oracleManager;\r\n        roundInfo = RoundInfoLib.initRoundInfo(_maxOraclesPerRound, _roundLockPeriodInBlocks, _numIdleRounds);\r\n        _publish(_bootstrapPrice);\r\n    }\r\n\r\n    /// @notice return the type of provider\r\n    function getPriceProviderType() external override pure returns (IPriceProviderType) {\r\n        return IPriceProviderType.Published;\r\n    }\r\n\r\n    /// @notice subscribe an oracle to this coin pair , allowing it to be selected in rounds.\r\n    /// @param oracleAddr the oracle address to subscribe to this coin pair.\r\n    /// @dev This is designed to be called from OracleManager.\r\n    function subscribe(address oracleAddr) external {\r\n        require(msg.sender == address(oracleManager), \"Must be called from Oracle manager\");\r\n        require(subscribedOracles[oracleAddr] == false, \"Oracle is already subscribed to this coin pair\");\r\n\r\n        subscribedOracles[oracleAddr] = true;\r\n        if (!roundInfo.isFull() && !roundInfo.isInCurrentRound(oracleAddr)) {\r\n            roundInfo.addOracleToRound(oracleAddr);\r\n        }\r\n    }\r\n\r\n    /// @notice Unsubscribe an oracle from this coin pair , disallowing it to be selected in rounds.\r\n    /// @param oracleAddr the oracle address to subscribe to this coin pair.\r\n    /// @dev This is designed to be called from OracleManager.\r\n    function unsubscribe(address oracleAddr) external {\r\n        require(msg.sender == address(oracleManager), \"Must be called from Oracle manager\");\r\n        require(subscribedOracles[oracleAddr] == true, \"Oracle is not subscribed to this coin pair\");\r\n\r\n        subscribedOracles[oracleAddr] = false;\r\n    }\r\n\r\n    /// @notice Returns true if an oracle is subscribed to this contract' coin pair\r\n    /// @param oracleAddr the oracle address to lookup.\r\n    /// @dev This is designed to be called from OracleManager.\r\n    function isSubscribed(address oracleAddr) external view returns (bool) {\r\n        return subscribedOracles[oracleAddr];\r\n    }\r\n\r\n    /// @notice Returns true if an oracle satisfies conditions to be removed from system.\r\n    /// @param oracleAddr the oracle address to lookup.\r\n    function canRemoveOracle(address oracleAddr) external view returns (bool) {\r\n        return roundInfo.canRemoveOracle(oracleAddr);\r\n    }\r\n\r\n    /// @notice Return the available reward fees\r\n    ///\r\n    function getAvailableRewardFees() external view returns (uint256) {\r\n        return token.balanceOf(address(this));\r\n    }\r\n\r\n    /// @notice Publish a price.\r\n    /// @param _version Version number of message format (3)\r\n    /// @param _coinpair The coin pair to report (must match this contract)\r\n    /// @param _price Price to report.\r\n    /// @param _votedOracle The address of the oracle voted as a publisher by the network.\r\n    /// @param _blockNumber The blocknumber acting as nonce to prevent replay attacks.\r\n    /// @param _sig_v The array of V-component of Oracle signatures.\r\n    /// @param _sig_r The array of R-component of Oracle signatures.\r\n    /// @param _sig_s The array of S-component of Oracle signatures.\r\n    function publishPrice(uint256 _version,\r\n        bytes32 _coinpair,\r\n        uint256 _price,\r\n        address _votedOracle,\r\n        uint256 _blockNumber,\r\n        uint8[]  calldata _sig_v,\r\n        bytes32[] calldata _sig_r,\r\n        bytes32[] calldata _sig_s) external {\r\n\r\n        require(roundInfo.number > 0, \"Round not open\");\r\n        require(subscribedOracles[msg.sender], \"Sender oracle not subscribed\");\r\n        require(roundInfo.isInCurrentRound(msg.sender), \"Voter oracle is not part of this round\");\r\n        require(msg.sender == _votedOracle, \"Your address does not match the voted oracle\");\r\n        require(_version == PUBLISH_MESSAGE_VERSION, \"This contract accepts only V3 format\");\r\n        require(_price > 0, \"Price must be positive and non-zero\");\r\n        require(_blockNumber == lastPublicationBlock, \"Blocknumber does not match the last publication block\");\r\n        require(_coinpair == coinPair, \"Coin pair - contract mismatch\");\r\n\r\n        // Verify signatures\r\n        require(_sig_s.length == _sig_r.length && _sig_r.length == _sig_v.length, \"Inconsistent signature count\");\r\n        require(_sig_s.length > roundInfo.selectedOracles.length / 2,\r\n            \"Signature count must exceed 50% of active oracles\");\r\n\r\n        //\r\n        // NOTE: Message Size is 148 = sizeof(uint256) +\r\n        // sizeof(uint256) + sizeof(uint256) + sizeof(address) +sizeof(uint256)\r\n        //\r\n\r\n        bytes memory hData = abi.encodePacked(\"\\x19Ethereum Signed Message:\\n148\",\r\n            _version, _coinpair, _price, _votedOracle, _blockNumber);\r\n        bytes32 messageHash = keccak256(hData);\r\n\r\n        address lastAddr = address(0);\r\n        for (uint i = 0; i < _sig_s.length; i++) {\r\n            address rec = _recoverSigner(_sig_v[i], _sig_r[i], _sig_s[i], messageHash);\r\n            require(rec != address(0), \"Cannot recover signature\");\r\n            require(subscribedOracles[rec], \"Signing oracle not subscribed\");\r\n            require(roundInfo.isInCurrentRound(rec), \"Address of signer not part of this round\");\r\n            require(lastAddr < rec, \"Signatures are not unique or not ordered by address\");\r\n            lastAddr = rec;\r\n        }\r\n\r\n        roundInfo.addPoints(msg.sender, 1);\r\n        _publish(_price);\r\n\r\n        emit PricePublished(msg.sender, _price, _votedOracle, _blockNumber);\r\n    }\r\n\r\n    /// @notice Publish a price without signature validation (when there is an emergecy!!!).\r\n    /// @param _price Price to report.\r\n    function emergencyPublish(uint256 _price) external whitelistedOrExternal(emergencyPublishWhitelistData) {\r\n        require(_price > 0, \"Price must be positive and non-zero\");\r\n        require(block.number > lastPublicationBlock + emergencyPublishingPeriodInBlocks,\r\n            \"Emergency publish period didn't started\");\r\n\r\n        _publish(_price);\r\n\r\n        emit EmergencyPricePublished(msg.sender, _price, msg.sender, lastPublicationBlock);\r\n    }\r\n\r\n\r\n    /// @notice Return the current price, compatible with old MOC Oracle\r\n    function peek() external override view whitelistedOrExternal(pricePeekWhitelistData) returns (bytes32, bool) {\r\n        require(block.number >= lastPublicationBlock, \"Wrong lastPublicationBlock\");\r\n\r\n        return (bytes32(currentPrice), (block.number - lastPublicationBlock) < validPricePeriodInBlocks);\r\n    }\r\n\r\n    /// @notice Return the current price\r\n    function getPrice() external view whitelistedOrExternal(pricePeekWhitelistData) returns (uint256) {\r\n        return currentPrice;\r\n    }\r\n\r\n    /// @notice Return current round information\r\n    function getRoundInfo() external view returns (uint256 round,\r\n        uint256 startBlock,\r\n        uint256 lockPeriodEndBlock,\r\n        uint256 totalPoints,\r\n        address[] memory selectedOracles) {\r\n        return roundInfo.getRoundInfo();\r\n    }\r\n\r\n    /// @notice Return round information for specific oracle\r\n    function getOracleRoundInfo(address addr) external view returns (uint points, uint256 selectedInRound,\r\n        bool selectedInCurrentRound) {\r\n        return roundInfo.getOracleRoundInfo(addr);\r\n    }\r\n\r\n    /// @notice Switch contract context to a new round. With the objective of\r\n    /// being a decentralized solution, this can be called by *anyone* if current\r\n    /// round lock period is expired.\r\n    function switchRound() external {\r\n        if (roundInfo.number > 0) {\r\n            // Not before the first round\r\n            require(roundInfo.isReadyToSwitch(), \"The current round lock period is active\");\r\n            _distributeRewards();\r\n        }\r\n\r\n        // Setup new round parameters\r\n        roundInfo.switchRound();\r\n\r\n        // Select top stake oracles to participate on this round\r\n        _selectOraclesForRound();\r\n\r\n        emit NewRound(msg.sender, roundInfo.number, roundInfo.totalPoints, roundInfo.startBlock,\r\n            roundInfo.lockPeriodEndBlock, roundInfo.selectedOracles);\r\n    }\r\n\r\n    // The maximum count of oracles selected to participate each round\r\n    function maxOraclesPerRound() external view returns (uint256) {\r\n        return roundInfo.maxOraclesPerRound;\r\n    }\r\n\r\n    // The maximum count of oracles selected to participate each round\r\n    function roundLockPeriodInBlocks() external view returns (uint256) {\r\n        return roundInfo.roundLockPeriodInBlocks;\r\n    }\r\n\r\n    // The number of rounds an oracle must be idle (not participating) before a removal\r\n    function numIdleRounds() external view returns (uint8) {\r\n        return roundInfo.numIdleRounds;\r\n    }\r\n\r\n\r\n    // ----------------------------------------------------------------------------------------------------------------\r\n    // Internal functions\r\n    // ----------------------------------------------------------------------------------------------------------------\r\n\r\n    /// @notice Distribute rewards to oracles, taking fees from this smart contract.\r\n    function _distributeRewards() private {\r\n        if (roundInfo.totalPoints == 0)\r\n            return;\r\n        uint256 availableRewardFees = token.balanceOf(address(this));\r\n        if (availableRewardFees == 0)\r\n            return;\r\n\r\n        // Distribute according to points/TotalPoints ratio\r\n        uint256 distSum = 0;\r\n        for (uint i = 0; i < roundInfo.selectedOracles.length; i++) {\r\n            address oracleAddr = roundInfo.selectedOracles[i];\r\n            uint256 points = roundInfo.getPoints(oracleAddr);\r\n            uint256 distAmount = ((points).mul(availableRewardFees)).div(roundInfo.totalPoints);\r\n            (,, address owneraddr) = oracleManager.getOracleRegistrationInfo(oracleAddr);\r\n\r\n            require(token.transfer(owneraddr, distAmount), \"Token transfer failed\");\r\n            distSum = distSum.add(distAmount);\r\n            emit OracleRewardTransfer(roundInfo.number, oracleAddr, owneraddr, distAmount);\r\n        }\r\n    }\r\n\r\n    /// @notice Select top-stakers for the current round. Only subscribed oracles to this contract are\r\n    /// considered for selection.\r\n    function _selectOraclesForRound() private {\r\n\r\n        roundInfo.clearSelectedOracles();\r\n        for (address addr = oracleManager.getRegisteredOracleHead();\r\n            addr != address(0) && !roundInfo.isFull();\r\n            addr = oracleManager.getRegisteredOracleNext(addr)) {\r\n            if (subscribedOracles[addr]) {\r\n                roundInfo.addOracleToRound(addr);\r\n            }\r\n        }\r\n    }\r\n\r\n    // @notice publish a price, called only after verification.\r\n    function _publish(uint256 _price) private {\r\n        lastPublicationBlock = block.number;\r\n        currentPrice = _price;\r\n    }\r\n\r\n    /// @notice Recover signer address from v,r,s signature components and hash\r\n    ///\r\n    function _recoverSigner(uint8 v, bytes32 r, bytes32 s, bytes32 hash) private pure returns (address) {\r\n        uint8 v0 = v;\r\n\r\n        // Version of signature should be 27 or 28, but 0 and 1 are also possible versions\r\n        if (v0 < 27) {\r\n            v0 += 27;\r\n        }\r\n\r\n        // If the version is correct return the signer address\r\n        if (v0 != 27 && v0 != 28) {\r\n            return (address(0));\r\n        } else {\r\n            return ecrecover(hash, v0, r, s);\r\n        }\r\n    }\r\n}\r\n",
  "sourcePath": "/home/adji/Desktop/work/coinfabrik/OMoC-Decentralized-Oracle/contracts/contracts/CoinPairPrice.sol",
  "compiler": {
    "name": "solc",
    "version": "0.6.0+commit.26b70077.Emscripten.clang"
  },
  "schemaVersion": "3.2.0",
  "updatedAt": "2020-06-29T21:30:43.065Z",
  "devdoc": {
    "methods": {
      "canRemoveOracle(address)": {
        "params": {
          "oracleAddr": "the oracle address to lookup."
        }
      },
      "changeIGovernor(address)": {
        "params": {
          "newIGovernor": "New governor address"
        }
      },
      "emergencyPublish(uint256)": {
        "params": {
          "_price": "Price to report."
        }
      },
      "initialize(address,address[],bytes32,address,uint256,uint256,uint256,uint256,uint256,uint8,address)": {
        "params": {
          "_bootstrapPrice": "A price to be set as a bootstraping value for this block",
          "_numIdleRounds": "The number of rounds an oracle must be idle (not participating) before a removal",
          "_oracleManager": "The contract of the oracle manager."
        }
      },
      "isSubscribed(address)": {
        "details": "This is designed to be called from OracleManager.",
        "params": {
          "oracleAddr": "the oracle address to lookup."
        }
      },
      "publishPrice(uint256,bytes32,uint256,address,uint256,uint8[],bytes32[],bytes32[])": {
        "params": {
          "_blockNumber": "The blocknumber acting as nonce to prevent replay attacks.",
          "_coinpair": "The coin pair to report (must match this contract)",
          "_price": "Price to report.",
          "_sig_r": "The array of R-component of Oracle signatures.",
          "_sig_s": "The array of S-component of Oracle signatures.",
          "_sig_v": "The array of V-component of Oracle signatures.",
          "_version": "Version number of message format (3)",
          "_votedOracle": "The address of the oracle voted as a publisher by the network."
        }
      },
      "subscribe(address)": {
        "details": "This is designed to be called from OracleManager.",
        "params": {
          "oracleAddr": "the oracle address to subscribe to this coin pair."
        }
      },
      "unsubscribe(address)": {
        "details": "This is designed to be called from OracleManager.",
        "params": {
          "oracleAddr": "the oracle address to subscribe to this coin pair."
        }
      }
    },
    "title": "This contract provides an interface for feeding prices from oracles, and        get the current price. One contract must be instanced per supported coin pair,        and registered through OracleManager global contract."
  },
  "userdoc": {
    "methods": {
      "canRemoveOracle(address)": {
        "notice": "Returns true if an oracle satisfies conditions to be removed from system."
      },
      "changeIGovernor(address)": {
        "notice": "Change the contract's governor. Should be called through the old governance system"
      },
      "emergencyPublish(uint256)": {
        "notice": "Publish a price without signature validation (when there is an emergecy!!!)."
      },
      "getAvailableRewardFees()": {
        "notice": "Return the available reward fees \r"
      },
      "getOracleRoundInfo(address)": {
        "notice": "Return round information for specific oracle"
      },
      "getPrice()": {
        "notice": "Return the current price"
      },
      "getPriceProviderType()": {
        "notice": "return the type of provider"
      },
      "getRoundInfo()": {
        "notice": "Return current round information"
      },
      "isSubscribed(address)": {
        "notice": "Returns true if an oracle is subscribed to this contract' coin pair"
      },
      "peek()": {
        "notice": "Return the current price, compatible with old MOC Oracle"
      },
      "publishPrice(uint256,bytes32,uint256,address,uint256,uint8[],bytes32[],bytes32[])": {
        "notice": "Publish a price."
      },
      "subscribe(address)": {
        "notice": "subscribe an oracle to this coin pair , allowing it to be selected in rounds."
      },
      "switchRound()": {
        "notice": "Switch contract context to a new round. With the objective of being a decentralized solution, this can be called by *anyone* if current round lock period is expired."
      },
      "unsubscribe(address)": {
        "notice": "Unsubscribe an oracle from this coin pair , disallowing it to be selected in rounds."
      }
    }
  }
}