{
  "contractName": "EternalStorageGobernanza",
  "abi": [
    {
      "inputs": [
        {
          "internalType": "contract IGovernor",
          "name": "newIGovernor",
          "type": "address"
        }
      ],
      "name": "changeIGovernor",
      "outputs": [],
      "stateMutability": "nonpayable",
      "type": "function"
    },
    {
      "inputs": [
        {
          "internalType": "bytes",
          "name": "data",
          "type": "bytes"
        }
      ],
      "name": "delegateCallToChanger",
      "outputs": [],
      "stateMutability": "nonpayable",
      "type": "function"
    },
    {
      "inputs": [],
      "name": "governor",
      "outputs": [
        {
          "internalType": "contract IGovernor",
          "name": "",
          "type": "address"
        }
      ],
      "stateMutability": "view",
      "type": "function"
    },
    {
      "inputs": [
        {
          "internalType": "contract IGovernor",
          "name": "_governor",
          "type": "address"
        }
      ],
      "name": "initialize",
      "outputs": [],
      "stateMutability": "nonpayable",
      "type": "function"
    },
    {
      "inputs": [
        {
          "internalType": "bytes32",
          "name": "_key",
          "type": "bytes32"
        }
      ],
      "name": "getDecimal",
      "outputs": [
        {
          "internalType": "int232",
          "name": "base",
          "type": "int232"
        },
        {
          "internalType": "int16",
          "name": "exp",
          "type": "int16"
        }
      ],
      "stateMutability": "view",
      "type": "function"
    },
    {
      "inputs": [
        {
          "internalType": "bytes32",
          "name": "_key",
          "type": "bytes32"
        }
      ],
      "name": "getUint",
      "outputs": [
        {
          "internalType": "uint248",
          "name": "",
          "type": "uint248"
        }
      ],
      "stateMutability": "view",
      "type": "function"
    },
    {
      "inputs": [
        {
          "internalType": "bytes32",
          "name": "_key",
          "type": "bytes32"
        }
      ],
      "name": "getString",
      "outputs": [
        {
          "internalType": "string",
          "name": "",
          "type": "string"
        }
      ],
      "stateMutability": "view",
      "type": "function"
    },
    {
      "inputs": [
        {
          "internalType": "bytes32",
          "name": "_key",
          "type": "bytes32"
        }
      ],
      "name": "getAddress",
      "outputs": [
        {
          "internalType": "address",
          "name": "",
          "type": "address"
        }
      ],
      "stateMutability": "view",
      "type": "function"
    },
    {
      "inputs": [
        {
          "internalType": "bytes32",
          "name": "_key",
          "type": "bytes32"
        }
      ],
      "name": "getBytes",
      "outputs": [
        {
          "internalType": "bytes",
          "name": "",
          "type": "bytes"
        }
      ],
      "stateMutability": "view",
      "type": "function"
    },
    {
      "inputs": [
        {
          "internalType": "bytes32",
          "name": "_key",
          "type": "bytes32"
        }
      ],
      "name": "getBool",
      "outputs": [
        {
          "internalType": "bool",
          "name": "",
          "type": "bool"
        }
      ],
      "stateMutability": "view",
      "type": "function"
    },
    {
      "inputs": [
        {
          "internalType": "bytes32",
          "name": "_key",
          "type": "bytes32"
        }
      ],
      "name": "getInt",
      "outputs": [
        {
          "internalType": "int248",
          "name": "",
          "type": "int248"
        }
      ],
      "stateMutability": "view",
      "type": "function"
    },
    {
      "inputs": [
        {
          "internalType": "bytes32",
          "name": "_key",
          "type": "bytes32"
        },
        {
          "internalType": "int232",
          "name": "_base",
          "type": "int232"
        },
        {
          "internalType": "int16",
          "name": "_exp",
          "type": "int16"
        }
      ],
      "name": "setDecimal",
      "outputs": [],
      "stateMutability": "nonpayable",
      "type": "function"
    },
    {
      "inputs": [
        {
          "internalType": "bytes32",
          "name": "_key",
          "type": "bytes32"
        },
        {
          "internalType": "uint248",
          "name": "_value",
          "type": "uint248"
        }
      ],
      "name": "setUint",
      "outputs": [],
      "stateMutability": "nonpayable",
      "type": "function"
    },
    {
      "inputs": [
        {
          "internalType": "bytes32",
          "name": "_key",
          "type": "bytes32"
        },
        {
          "internalType": "string",
          "name": "_value",
          "type": "string"
        }
      ],
      "name": "setString",
      "outputs": [],
      "stateMutability": "nonpayable",
      "type": "function"
    },
    {
      "inputs": [
        {
          "internalType": "bytes32",
          "name": "_key",
          "type": "bytes32"
        },
        {
          "internalType": "address",
          "name": "_value",
          "type": "address"
        }
      ],
      "name": "setAddress",
      "outputs": [],
      "stateMutability": "nonpayable",
      "type": "function"
    },
    {
      "inputs": [
        {
          "internalType": "bytes32",
          "name": "_key",
          "type": "bytes32"
        },
        {
          "internalType": "bytes",
          "name": "_value",
          "type": "bytes"
        }
      ],
      "name": "setBytes",
      "outputs": [],
      "stateMutability": "nonpayable",
      "type": "function"
    },
    {
      "inputs": [
        {
          "internalType": "bytes32",
          "name": "_key",
          "type": "bytes32"
        },
        {
          "internalType": "bool",
          "name": "_value",
          "type": "bool"
        }
      ],
      "name": "setBool",
      "outputs": [],
      "stateMutability": "nonpayable",
      "type": "function"
    },
    {
      "inputs": [
        {
          "internalType": "bytes32",
          "name": "_key",
          "type": "bytes32"
        },
        {
          "internalType": "int248",
          "name": "_value",
          "type": "int248"
        }
      ],
      "name": "setInt",
      "outputs": [],
      "stateMutability": "nonpayable",
      "type": "function"
    },
    {
      "inputs": [
        {
          "internalType": "bytes32",
          "name": "_key",
          "type": "bytes32"
        }
      ],
      "name": "deleteDecimal",
      "outputs": [],
      "stateMutability": "nonpayable",
      "type": "function"
    },
    {
      "inputs": [
        {
          "internalType": "bytes32",
          "name": "_key",
          "type": "bytes32"
        }
      ],
      "name": "deleteUint",
      "outputs": [],
      "stateMutability": "nonpayable",
      "type": "function"
    },
    {
      "inputs": [
        {
          "internalType": "bytes32",
          "name": "_key",
          "type": "bytes32"
        }
      ],
      "name": "deleteString",
      "outputs": [],
      "stateMutability": "nonpayable",
      "type": "function"
    },
    {
      "inputs": [
        {
          "internalType": "bytes32",
          "name": "_key",
          "type": "bytes32"
        }
      ],
      "name": "deleteAddress",
      "outputs": [],
      "stateMutability": "nonpayable",
      "type": "function"
    },
    {
      "inputs": [
        {
          "internalType": "bytes32",
          "name": "_key",
          "type": "bytes32"
        }
      ],
      "name": "deleteBytes",
      "outputs": [],
      "stateMutability": "nonpayable",
      "type": "function"
    },
    {
      "inputs": [
        {
          "internalType": "bytes32",
          "name": "_key",
          "type": "bytes32"
        }
      ],
      "name": "deleteBool",
      "outputs": [],
      "stateMutability": "nonpayable",
      "type": "function"
    },
    {
      "inputs": [
        {
          "internalType": "bytes32",
          "name": "_key",
          "type": "bytes32"
        }
      ],
      "name": "deleteInt",
      "outputs": [],
      "stateMutability": "nonpayable",
      "type": "function"
    }
  ],
  "bytecode": "0x608060405234801561001057600080fd5b506120b0806100206000396000f3fe608060405234801561001057600080fd5b50600436106101735760003560e01c80638c160095116100de578063c031a18011610097578063dc8990e111610071578063dc8990e1146105b7578063dc97d9621461065d578063e2b202bf14610693578063f6bb3cc4146106b057610173565b8063c031a18014610548578063c4d66de814610565578063ca446dd91461058b57610173565b80638c160095146103e9578063986e791a146104065780639ed4402214610498578063abfdcced146104c4578063b6e08330146104e9578063bd02d0f51461050f57610173565b8063616b59f611610130578063616b59f61461029b578063631bf8ab146102b85780636e899550146102d55780637ae1cfca1461034c5780637e58e51b1461037d5780638a1b2d5c146103a357610173565b80630c340a24146101785780630e14a3761461019c57806321f8a721146101bb5780632c62ff2d146101d85780632e28d084146101f55780634259bac31461026c575b600080fd5b6101806106cd565b604080516001600160a01b039092168252519081900360200190f35b6101b9600480360360208110156101b257600080fd5b50356106dc565b005b610180600480360360208110156101d157600080fd5b503561081d565b6101b9600480360360208110156101ee57600080fd5b503561088c565b6101b96004803603604081101561020b57600080fd5b8135919081019060408101602082013564010000000081111561022d57600080fd5b82018360208201111561023f57600080fd5b8035906020019184600183028401116401000000008311171561026157600080fd5b50909250905061098b565b6101b96004803603606081101561028257600080fd5b508035906020810135601c0b906040013560010b610ad2565b6101b9600480360360208110156102b157600080fd5b5035610c3b565b6101b9600480360360208110156102ce57600080fd5b5035610d3b565b6101b9600480360360408110156102eb57600080fd5b8135919081019060408101602082013564010000000081111561030d57600080fd5b82018360208201111561031f57600080fd5b8035906020019184600183028401116401000000008311171561034157600080fd5b509092509050610e32565b6103696004803603602081101561036257600080fd5b5035610f73565b604080519115158252519081900360200190f35b6101b96004803603604081101561039357600080fd5b5080359060200135601e0b610fdb565b6103c0600480360360208110156103b957600080fd5b5035611110565b6040518083601c0b601c0b81526020018260010b60010b81526020019250505060405180910390f35b6101b9600480360360208110156103ff57600080fd5b5035611187565b6104236004803603602081101561041c57600080fd5b503561127e565b6040805160208082528351818301528351919283929083019185019080838360005b8381101561045d578181015183820152602001610445565b50505050905090810190601f16801561048a5780820380516001836020036101000a031916815260200191505b509250505060405180910390f35b6101b9600480360360408110156104ae57600080fd5b50803590602001356001600160f81b031661137d565b6101b9600480360360408110156104da57600080fd5b508035906020013515156114af565b6101b9600480360360208110156104ff57600080fd5b50356001600160a01b03166115de565b61052c6004803603602081101561052557600080fd5b50356116e6565b604080516001600160f81b039092168252519081900360200190f35b6104236004803603602081101561055e57600080fd5b5035611754565b6101b96004803603602081101561057b57600080fd5b50356001600160a01b031661181c565b6101b9600480360360408110156105a157600080fd5b50803590602001356001600160a01b03166118c8565b6101b9600480360360208110156105cd57600080fd5b8101906020810181356401000000008111156105e857600080fd5b8201836020820111156105fa57600080fd5b8035906020019184600183028401116401000000008311171561061c57600080fd5b91908080601f016020809104026020016040519081016040528093929190818152602001838380828437600092019190915250929550611a27945050505050565b61067a6004803603602081101561067357600080fd5b5035611ca0565b60408051601e92830b90920b8252519081900360200190f35b6101b9600480360360208110156106a957600080fd5b5035611d08565b6101b9600480360360208110156106c657600080fd5b5035611dff565b6033546001600160a01b031681565b6033546040805163d994d6d560e01b815233600482015290516001600160a01b039092169163d994d6d591602480820192602092909190829003018186803b15801561072757600080fd5b505afa15801561073b573d6000803e3d6000fd5b505050506040513d602081101561075157600080fd5b5051604080518082019091526016815260008051602061205b8339815191526020820152906107fe5760405162461bcd60e51b81526004018080602001828103825283818151815260200191508051906020019080838360005b838110156107c35781810151838201526020016107ab565b50505050905090810190601f1680156107f05780820380516001836020036101000a031916815260200191505b509250505060405180910390fd5b50600090815260696020526040902080546001600160a01b0319169055565b6000818152606960205260408120546001600160a01b03166108705760405162461bcd60e51b815260040180806020018281038252602f81526020018061202c602f913960400191505060405180910390fd5b506000908152606960205260409020546001600160a01b031690565b6033546040805163d994d6d560e01b815233600482015290516001600160a01b039092169163d994d6d591602480820192602092909190829003018186803b1580156108d757600080fd5b505afa1580156108eb573d6000803e3d6000fd5b505050506040513d602081101561090157600080fd5b5051604080518082019091526016815260008051602061205b8339815191526020820152906109715760405162461bcd60e51b81526020600482018181528351602484015283519092839260449091019190850190808383600083156107c35781810151838201526020016107ab565b506000908152606b60205260409020805461ffff19169055565b6033546040805163d994d6d560e01b815233600482015290516001600160a01b039092169163d994d6d591602480820192602092909190829003018186803b1580156109d657600080fd5b505afa1580156109ea573d6000803e3d6000fd5b505050506040513d6020811015610a0057600080fd5b5051604080518082019091526016815260008051602061205b833981519152602082015290610a705760405162461bcd60e51b81526020600482018181528351602484015283519092839260449091019190850190808383600083156107c35781810151838201526020016107ab565b5080610ab3576040805162461bcd60e51b815260206004820152600d60248201526c496e76616c69642076616c756560981b604482015290519081900360640190fd5b6000838152606a60205260409020610acc908383611f25565b50505050565b6033546040805163d994d6d560e01b815233600482015290516001600160a01b039092169163d994d6d591602480820192602092909190829003018186803b158015610b1d57600080fd5b505afa158015610b31573d6000803e3d6000fd5b505050506040513d6020811015610b4757600080fd5b5051604080518082019091526016815260008051602061205b833981519152602082015290610bb75760405162461bcd60e51b81526020600482018181528351602484015283519092839260449091019190850190808383600083156107c35781810151838201526020016107ab565b50604080516060810182526001808252601c94850b602080840191825294820b8385019081526000978852606690955292909520905181549251935190950b61ffff16600160f01b026001600160f01b039390940b6001600160e81b031661010002610100600160f01b031995151560ff1990931692909217949094161716179055565b6033546040805163d994d6d560e01b815233600482015290516001600160a01b039092169163d994d6d591602480820192602092909190829003018186803b158015610c8657600080fd5b505afa158015610c9a573d6000803e3d6000fd5b505050506040513d6020811015610cb057600080fd5b5051604080518082019091526016815260008051602061205b833981519152602082015290610d205760405162461bcd60e51b81526020600482018181528351602484015283519092839260449091019190850190808383600083156107c35781810151838201526020016107ab565b506000818152606a60205260408120610d3891611fa3565b50565b6033546040805163d994d6d560e01b815233600482015290516001600160a01b039092169163d994d6d591602480820192602092909190829003018186803b158015610d8657600080fd5b505afa158015610d9a573d6000803e3d6000fd5b505050506040513d6020811015610db057600080fd5b5051604080518082019091526016815260008051602061205b833981519152602082015290610e205760405162461bcd60e51b81526020600482018181528351602484015283519092839260449091019190850190808383600083156107c35781810151838201526020016107ab565b50600090815260666020526040812055565b6033546040805163d994d6d560e01b815233600482015290516001600160a01b039092169163d994d6d591602480820192602092909190829003018186803b158015610e7d57600080fd5b505afa158015610e91573d6000803e3d6000fd5b505050506040513d6020811015610ea757600080fd5b5051604080518082019091526016815260008051602061205b833981519152602082015290610f175760405162461bcd60e51b81526020600482018181528351602484015283519092839260449091019190850190808383600083156107c35781810151838201526020016107ab565b5080610f5a576040805162461bcd60e51b815260206004820152600d60248201526c496e76616c69642076616c756560981b604482015290519081900360640190fd5b6000838152606860205260409020610acc908383611f25565b6000818152606b602052604081205460ff16610fc05760405162461bcd60e51b815260040180806020018281038252602f81526020018061202c602f913960400191505060405180910390fd5b506000908152606b6020526040902054610100900460ff1690565b6033546040805163d994d6d560e01b815233600482015290516001600160a01b039092169163d994d6d591602480820192602092909190829003018186803b15801561102657600080fd5b505afa15801561103a573d6000803e3d6000fd5b505050506040513d602081101561105057600080fd5b5051604080518082019091526016815260008051602061205b8339815191526020820152906110c05760405162461bcd60e51b81526020600482018181528351602484015283519092839260449091019190850190808383600083156107c35781810151838201526020016107ab565b5060408051808201825260018152601e92830b60208083019182526000958652606c90529190932092518354915190920b6001600160f81b03166101000291151560ff199091161760ff16179055565b600081815260666020526040812054819060ff1661115f5760405162461bcd60e51b815260040180806020018281038252602f81526020018061202c602f913960400191505060405180910390fd5b50506000908152606660205260409020546101008104601c0b91600160f01b90910460010b90565b6033546040805163d994d6d560e01b815233600482015290516001600160a01b039092169163d994d6d591602480820192602092909190829003018186803b1580156111d257600080fd5b505afa1580156111e6573d6000803e3d6000fd5b505050506040513d60208110156111fc57600080fd5b5051604080518082019091526016815260008051602061205b83398151915260208201529061126c5760405162461bcd60e51b81526020600482018181528351602484015283519092839260449091019190850190808383600083156107c35781810151838201526020016107ab565b506000908152606c6020526040812055565b600081815260686020526040902054606090600260001961010060018416150201909116046112de5760405162461bcd60e51b815260040180806020018281038252602f81526020018061202c602f913960400191505060405180910390fd5b60008281526068602090815260409182902080548351601f6002600019610100600186161502019093169290920491820184900484028101840190945280845290918301828280156113715780601f1061134657610100808354040283529160200191611371565b820191906000526020600020905b81548152906001019060200180831161135457829003601f168201915b50505050509050919050565b6033546040805163d994d6d560e01b815233600482015290516001600160a01b039092169163d994d6d591602480820192602092909190829003018186803b1580156113c857600080fd5b505afa1580156113dc573d6000803e3d6000fd5b505050506040513d60208110156113f257600080fd5b5051604080518082019091526016815260008051602061205b8339815191526020820152906114625760405162461bcd60e51b81526020600482018181528351602484015283519092839260449091019190850190808383600083156107c35781810151838201526020016107ab565b50604080518082018252600181526001600160f81b039283166020808301918252600095865260679052919093209251835491519092166101000291151560ff199091161760ff16179055565b6033546040805163d994d6d560e01b815233600482015290516001600160a01b039092169163d994d6d591602480820192602092909190829003018186803b1580156114fa57600080fd5b505afa15801561150e573d6000803e3d6000fd5b505050506040513d602081101561152457600080fd5b5051604080518082019091526016815260008051602061205b8339815191526020820152906115945760405162461bcd60e51b81526020600482018181528351602484015283519092839260449091019190850190808383600083156107c35781810151838201526020016107ab565b506040805180820182526001815291151560208084019182526000948552606b9052922090518154925115156101000261ff001991151560ff199094169390931716919091179055565b6033546040805163d994d6d560e01b815233600482015290516001600160a01b039092169163d994d6d591602480820192602092909190829003018186803b15801561162957600080fd5b505afa15801561163d573d6000803e3d6000fd5b505050506040513d602081101561165357600080fd5b5051604080518082019091526016815260008051602061205b8339815191526020820152906116c35760405162461bcd60e51b81526020600482018181528351602484015283519092839260449091019190850190808383600083156107c35781810151838201526020016107ab565b50603380546001600160a01b0319166001600160a01b0392909216919091179055565b60008181526067602052604081205460ff166117335760405162461bcd60e51b815260040180806020018281038252602f81526020018061202c602f913960400191505060405180910390fd5b5060009081526067602052604090205461010090046001600160f81b031690565b6000818152606a6020526040902054606090600260001961010060018416150201909116046117b45760405162461bcd60e51b815260040180806020018281038252602f81526020018061202c602f913960400191505060405180910390fd5b6000828152606a602090815260409182902080548351601f6002600019610100600186161502019093169290920491820184900484028101840190945280845290918301828280156113715780601f1061134657610100808354040283529160200191611371565b600054610100900460ff16806118355750611835611efc565b80611843575060005460ff16155b61187e5760405162461bcd60e51b815260040180806020018281038252602e815260200180611ffe602e913960400191505060405180910390fd5b600054610100900460ff161580156118a9576000805460ff1961ff0019909116610100171660011790555b6118b282611f03565b80156118c4576000805461ff00191690555b5050565b6033546040805163d994d6d560e01b815233600482015290516001600160a01b039092169163d994d6d591602480820192602092909190829003018186803b15801561191357600080fd5b505afa158015611927573d6000803e3d6000fd5b505050506040513d602081101561193d57600080fd5b5051604080518082019091526016815260008051602061205b8339815191526020820152906119ad5760405162461bcd60e51b81526020600482018181528351602484015283519092839260449091019190850190808383600083156107c35781810151838201526020016107ab565b506001600160a01b0381166119f9576040805162461bcd60e51b815260206004820152600d60248201526c496e76616c69642076616c756560981b604482015290519081900360640190fd5b60009182526069602052604090912080546001600160a01b0319166001600160a01b03909216919091179055565b6033546040805163d994d6d560e01b815233600482015290516001600160a01b039092169163d994d6d591602480820192602092909190829003018186803b158015611a7257600080fd5b505afa158015611a86573d6000803e3d6000fd5b505050506040513d6020811015611a9c57600080fd5b5051604080518082019091526016815260008051602061205b833981519152602082015290611b0c5760405162461bcd60e51b81526020600482018181528351602484015283519092839260449091019190850190808383600083156107c35781810151838201526020016107ab565b5060003390506000816001600160a01b0316836040516024018080602001828103825283818151815260200191508051906020019080838360005b83811015611b5f578181015183820152602001611b47565b50505050905090810190601f168015611b8c5780820380516001836020036101000a031916815260200191505b5060408051601f198184030181529181526020820180516001600160e01b03166350b113e560e11b178152905182519295509350839250908083835b60208310611be75780518252601f199092019160209182019101611bc8565b6001836020036101000a038019825116818451168082178552505050505050905001915050600060405180830381855af49150503d8060008114611c47576040519150601f19603f3d011682016040523d82523d6000602084013e611c4c565b606091505b5050905080611c9b576040805162461bcd60e51b8152602060048201526016602482015275115c9c9bdc881a5b8819195b1959d85d194818d85b1b60521b604482015290519081900360640190fd5b505050565b6000818152606c602052604081205460ff16611ced5760405162461bcd60e51b815260040180806020018281038252602f81526020018061202c602f913960400191505060405180910390fd5b506000908152606c60205260409020546101009004601e0b90565b6033546040805163d994d6d560e01b815233600482015290516001600160a01b039092169163d994d6d591602480820192602092909190829003018186803b158015611d5357600080fd5b505afa158015611d67573d6000803e3d6000fd5b505050506040513d6020811015611d7d57600080fd5b5051604080518082019091526016815260008051602061205b833981519152602082015290611ded5760405162461bcd60e51b81526020600482018181528351602484015283519092839260449091019190850190808383600083156107c35781810151838201526020016107ab565b50600090815260676020526040812055565b6033546040805163d994d6d560e01b815233600482015290516001600160a01b039092169163d994d6d591602480820192602092909190829003018186803b158015611e4a57600080fd5b505afa158015611e5e573d6000803e3d6000fd5b505050506040513d6020811015611e7457600080fd5b5051604080518082019091526016815260008051602061205b833981519152602082015290611ee45760405162461bcd60e51b81526020600482018181528351602484015283519092839260449091019190850190808383600083156107c35781810151838201526020016107ab565b506000818152606860205260408120610d3891611fa3565b303b155b90565b603380546001600160a01b0319166001600160a01b0392909216919091179055565b828054600181600116156101000203166002900490600052602060002090601f016020900481019282601f10611f665782800160ff19823516178555611f93565b82800160010185558215611f93579182015b82811115611f93578235825591602001919060010190611f78565b50611f9f929150611fe3565b5090565b50805460018160011615610100020316600290046000825580601f10611fc95750610d38565b601f016020900490600052602060002090810190610d3891905b611f0091905b80821115611f9f5760008155600101611fe956fe436f6e747261637420696e7374616e63652068617320616c7265616479206265656e20696e697469616c697a65644b657920646f6573206e6f74206d617463682077697468206578697374656e74206b65792f76616c756520706169726e6f745f617574686f72697a65645f6368616e67657200000000000000000000a26469706673582212202bd8f34a56c857bb263f83526028649af749ae2b93e9cfde8b2fc0960fce72f864736f6c63430006000033",
  "source": "pragma solidity 0.6.0;\n\nimport {GovernedAbstract} from \"./libs/GovernedAbstract.sol\";\nimport {IGovernor} from \"./moc-gobernanza/Governance/IGovernor.sol\";\nimport {Governed} from \"./moc-gobernanza/Governance/Governed.sol\";\nimport {Initializable} from \"./openzeppelin/Initializable.sol\";\n\n// Based on https://github.com/fravoll/solidity-patterns EternalStorage\ncontract EternalStorageGobernanza is Initializable, GovernedAbstract {\n    struct UIntVal {bool b; uint248 v;}\n\n    struct BoolVal {bool b; bool v;}\n\n    struct IntVal {bool b; int248 v;}\n\n    struct DecimalVal {bool b; int232 base; int16 exp;}\n\n\n    mapping(bytes32 => DecimalVal) internal decimalStorage;\n    mapping(bytes32 => UIntVal) internal uIntStorage;\n    mapping(bytes32 => string) internal stringStorage;\n    mapping(bytes32 => address) internal addressStorage;\n    mapping(bytes32 => bytes) internal bytesStorage;\n    mapping(bytes32 => BoolVal) internal boolStorage;\n    mapping(bytes32 => IntVal) internal intStorage;\n\n    /**\n      @notice Initialize the contract with the basic settings\n      @dev This initialize replaces the constructor but it is not called automatically.\n      It is necessary because of the upgradeability of the contracts\n      @param _governor Governor address\n     */\n    function initialize(IGovernor _governor) external initializer {\n        Governed._initialize(_governor);\n    }\n\n    // *** Getter Methods ***\n    function getDecimal(bytes32 _key) external view returns (int232 base, int16 exp) {\n        require(decimalStorage[_key].b, \"Key does not match with existent key/value pair\");\n        return (decimalStorage[_key].base, decimalStorage[_key].exp);\n    }\n\n    function getUint(bytes32 _key) external view returns (uint248) {\n        require(uIntStorage[_key].b, \"Key does not match with existent key/value pair\");\n        return uIntStorage[_key].v;\n    }\n\n    function getString(bytes32 _key) external view returns (string memory) {\n        require(bytes(stringStorage[_key]).length != 0, \"Key does not match with existent key/value pair\");\n        return stringStorage[_key];\n    }\n\n    function getAddress(bytes32 _key) external view returns (address) {\n        require(addressStorage[_key] != address(0), \"Key does not match with existent key/value pair\");\n        return addressStorage[_key];\n    }\n\n    function getBytes(bytes32 _key) external view returns (bytes memory) {\n        require(bytesStorage[_key].length != 0, \"Key does not match with existent key/value pair\");\n        return bytesStorage[_key];\n    }\n\n    function getBool(bytes32 _key) external view returns (bool) {\n        require(boolStorage[_key].b, \"Key does not match with existent key/value pair\");\n        return boolStorage[_key].v;\n    }\n\n    function getInt(bytes32 _key) external view returns (int248) {\n        require(intStorage[_key].b, \"Key does not match with existent key/value pair\");\n        return intStorage[_key].v;\n    }\n\n    // *** Setter Methods ***\n    function setDecimal(bytes32 _key, int232 _base, int16 _exp) onlyAuthorizedChanger external {\n        decimalStorage[_key] = DecimalVal(true, _base, _exp);\n    }\n\n    function setUint(bytes32 _key, uint248 _value) onlyAuthorizedChanger external {\n        uIntStorage[_key] = UIntVal(true, _value);\n    }\n\n    function setString(bytes32 _key, string calldata _value) onlyAuthorizedChanger external {\n        require(bytes(_value).length != 0, \"Invalid value\");\n        stringStorage[_key] = _value;\n    }\n\n    function setAddress(bytes32 _key, address _value) onlyAuthorizedChanger external {\n        require(_value != address(0), \"Invalid value\");\n        addressStorage[_key] = _value;\n    }\n\n    function setBytes(bytes32 _key, bytes calldata _value) onlyAuthorizedChanger external {\n        require(_value.length != 0, \"Invalid value\");\n        bytesStorage[_key] = _value;\n    }\n\n    function setBool(bytes32 _key, bool _value) onlyAuthorizedChanger external {\n        boolStorage[_key] = BoolVal(true, _value);\n    }\n\n    function setInt(bytes32 _key, int248 _value) onlyAuthorizedChanger external {\n        intStorage[_key] = IntVal(true, _value);\n    }\n\n    // *** Delete Methods ***\n    function deleteDecimal(bytes32 _key) onlyAuthorizedChanger external {\n        delete decimalStorage[_key];\n    }\n\n    function deleteUint(bytes32 _key) onlyAuthorizedChanger external {\n        delete uIntStorage[_key];\n    }\n\n    function deleteString(bytes32 _key) onlyAuthorizedChanger external {\n        delete stringStorage[_key];\n    }\n\n    function deleteAddress(bytes32 _key) onlyAuthorizedChanger external {\n        delete addressStorage[_key];\n    }\n\n    function deleteBytes(bytes32 _key) onlyAuthorizedChanger external {\n        delete bytesStorage[_key];\n    }\n\n    function deleteBool(bytes32 _key) onlyAuthorizedChanger external {\n        delete boolStorage[_key];\n    }\n\n    function deleteInt(bytes32 _key) onlyAuthorizedChanger external {\n        delete intStorage[_key];\n    }\n}",
  "sourcePath": "/home/adji/Desktop/work/coinfabrik/OMoC-Decentralized-Oracle/contracts/contracts/EternalStorageGobernanza.sol",
  "compiler": {
    "name": "solc",
    "version": "0.6.0+commit.26b70077.Emscripten.clang"
  },
  "schemaVersion": "3.2.0",
  "updatedAt": "2020-06-29T21:30:43.075Z",
  "devdoc": {
    "methods": {
      "changeIGovernor(address)": {
        "params": {
          "newIGovernor": "New governor address"
        }
      },
      "initialize(address)": {
        "details": "This initialize replaces the constructor but it is not called automatically. It is necessary because of the upgradeability of the contracts",
        "params": {
          "_governor": "Governor address"
        }
      }
    }
  },
  "userdoc": {
    "methods": {
      "changeIGovernor(address)": {
        "notice": "Change the contract's governor. Should be called through the old governance system"
      },
      "initialize(address)": {
        "notice": "Initialize the contract with the basic settings"
      }
    }
  }
}