{
  "contractName": "GovernedAbstract",
  "abi": [
    {
      "inputs": [
        {
          "internalType": "contract IGovernor",
          "name": "newIGovernor",
          "type": "address"
        }
      ],
      "name": "changeIGovernor",
      "outputs": [],
      "stateMutability": "nonpayable",
      "type": "function"
    },
    {
      "inputs": [],
      "name": "governor",
      "outputs": [
        {
          "internalType": "contract IGovernor",
          "name": "",
          "type": "address"
        }
      ],
      "stateMutability": "view",
      "type": "function"
    },
    {
      "inputs": [
        {
          "internalType": "bytes",
          "name": "data",
          "type": "bytes"
        }
      ],
      "name": "delegateCallToChanger",
      "outputs": [],
      "stateMutability": "nonpayable",
      "type": "function"
    }
  ],
  "bytecode": "0x608060405234801561001057600080fd5b50610551806100206000396000f3fe608060405234801561001057600080fd5b50600436106100415760003560e01c80630c340a2414610046578063b6e083301461006a578063dc8990e114610092575b600080fd5b61004e610138565b604080516001600160a01b039092168252519081900360200190f35b6100906004803603602081101561008057600080fd5b50356001600160a01b0316610147565b005b610090600480360360208110156100a857600080fd5b8101906020810181356401000000008111156100c357600080fd5b8201836020820111156100d557600080fd5b803590602001918460018302840111640100000000831117156100f757600080fd5b91908080601f016020809104026020016040519081016040528093929190818152602001838380828437600092019190915250929550610297945050505050565b6000546001600160a01b031681565b6000546040805163d994d6d560e01b815233600482015290516001600160a01b039092169163d994d6d591602480820192602092909190829003018186803b15801561019257600080fd5b505afa1580156101a6573d6000803e3d6000fd5b505050506040513d60208110156101bc57600080fd5b50516040805180820190915260168152753737ba2fb0baba3437b934bd32b22fb1b430b733b2b960511b6020820152906102745760405162461bcd60e51b81526004018080602001828103825283818151815260200191508051906020019080838360005b83811015610239578181015183820152602001610221565b50505050905090810190601f1680156102665780820380516001836020036101000a031916815260200191505b509250505060405180910390fd5b50600080546001600160a01b0319166001600160a01b0392909216919091179055565b6000546040805163d994d6d560e01b815233600482015290516001600160a01b039092169163d994d6d591602480820192602092909190829003018186803b1580156102e257600080fd5b505afa1580156102f6573d6000803e3d6000fd5b505050506040513d602081101561030c57600080fd5b50516040805180820190915260168152753737ba2fb0baba3437b934bd32b22fb1b430b733b2b960511b6020820152906103875760405162461bcd60e51b8152602060048201818152835160248401528351909283926044909101919085019080838360008315610239578181015183820152602001610221565b5060003390506000816001600160a01b0316836040516024018080602001828103825283818151815260200191508051906020019080838360005b838110156103da5781810151838201526020016103c2565b50505050905090810190601f1680156104075780820380516001836020036101000a031916815260200191505b5060408051601f198184030181529181526020820180516001600160e01b03166350b113e560e11b178152905182519295509350839250908083835b602083106104625780518252601f199092019160209182019101610443565b6001836020036101000a038019825116818451168082178552505050505050905001915050600060405180830381855af49150503d80600081146104c2576040519150601f19603f3d011682016040523d82523d6000602084013e6104c7565b606091505b5050905080610516576040805162461bcd60e51b8152602060048201526016602482015275115c9c9bdc881a5b8819195b1959d85d194818d85b1b60521b604482015290519081900360640190fd5b50505056fea2646970667358221220c41fa9351c967596b3e3c6fa000499ff9d96984b62fd544845f21947e827efad64736f6c63430006000033",
  "source": "pragma solidity 0.6.0;\n\nimport {Governed} from \"../moc-gobernanza/Governance/Governed.sol\";\nimport {IGovernor} from \"../moc-gobernanza/Governance/IGovernor.sol\";\n\n/**\n  @title GovernedAbstract\n  @notice Base contract to be inherited by governed contracts\n  @dev This contract is not usable on its own since it does not have any _productive useful_ behaviour\n  The only purpose of this contract is to define some useful modifiers and functions to be used on the\n  governance aspect of the child contract.\n  This contract add the posibility to do a delegate call to any change contract so it can change anything in the\n  storage.\n  */\ncontract GovernedAbstract is Governed {\n\n    function delegateCallToChanger(bytes memory data) public onlyAuthorizedChanger() {\n        address changerContrat = msg.sender;\n        (bool success,) = changerContrat.delegatecall(abi.encodeWithSignature(\"impersonate(bytes)\", data));\n        require(success, \"Error in delegate call\");\n    }\n}\n",
  "sourcePath": "/home/adji/Desktop/work/coinfabrik/OMoC-Decentralized-Oracle/contracts/contracts/libs/GovernedAbstract.sol",
  "compiler": {
    "name": "solc",
    "version": "0.6.0+commit.26b70077.Emscripten.clang"
  },
  "schemaVersion": "3.2.0",
  "updatedAt": "2020-06-29T21:30:43.145Z",
  "devdoc": {
    "details": "This contract is not usable on its own since it does not have any _productive useful_ behaviour The only purpose of this contract is to define some useful modifiers and functions to be used on the governance aspect of the child contract. This contract add the posibility to do a delegate call to any change contract so it can change anything in the storage.",
    "methods": {
      "changeIGovernor(address)": {
        "params": {
          "newIGovernor": "New governor address"
        }
      }
    },
    "title": "GovernedAbstract"
  },
  "userdoc": {
    "methods": {
      "changeIGovernor(address)": {
        "notice": "Change the contract's governor. Should be called through the old governance system"
      }
    },
    "notice": "Base contract to be inherited by governed contracts"
  }
}