{
  "contractName": "Governed",
  "abi": [
    {
      "inputs": [],
      "name": "governor",
      "outputs": [
        {
          "internalType": "contract IGovernor",
          "name": "",
          "type": "address"
        }
      ],
      "stateMutability": "view",
      "type": "function"
    },
    {
      "inputs": [
        {
          "internalType": "contract IGovernor",
          "name": "newIGovernor",
          "type": "address"
        }
      ],
      "name": "changeIGovernor",
      "outputs": [],
      "stateMutability": "nonpayable",
      "type": "function"
    }
  ],
  "bytecode": "0x608060405234801561001057600080fd5b5061021c806100206000396000f3fe608060405234801561001057600080fd5b50600436106100365760003560e01c80630c340a241461003b578063b6e083301461005f575b600080fd5b610043610087565b604080516001600160a01b039092168252519081900360200190f35b6100856004803603602081101561007557600080fd5b50356001600160a01b0316610096565b005b6000546001600160a01b031681565b6000546040805163d994d6d560e01b815233600482015290516001600160a01b039092169163d994d6d591602480820192602092909190829003018186803b1580156100e157600080fd5b505afa1580156100f5573d6000803e3d6000fd5b505050506040513d602081101561010b57600080fd5b50516040805180820190915260168152753737ba2fb0baba3437b934bd32b22fb1b430b733b2b960511b6020820152906101c35760405162461bcd60e51b81526004018080602001828103825283818151815260200191508051906020019080838360005b83811015610188578181015183820152602001610170565b50505050905090810190601f1680156101b55780820380516001836020036101000a031916815260200191505b509250505060405180910390fd5b50600080546001600160a01b0319166001600160a01b039290921691909117905556fea264697066735822122039aab2cb82f507f39dd20161cd6ae373862059d4cd9961a5de2e35ff895e429164736f6c63430006000033",
  "source": "pragma solidity 0.6.0;\n\nimport {IGovernor} from \"./IGovernor.sol\";\n\n/**\n  @title Governed\n  @notice Base contract to be inherited by governed contracts\n  @dev This contract is not usable on its own since it does not have any _productive useful_ behaviour\n  The only purpose of this contract is to define some useful modifiers and functions to be used on the\n  governance aspect of the child contract\n  */\ncontract Governed {\n\n    /**\n      @notice The address of the contract which governs this one\n     */\n    IGovernor public governor;\n\n    string constant private NOT_AUTHORIZED_CHANGER = \"not_authorized_changer\";\n\n    /**\n      @notice Modifier that protects the function\n      @dev You should use this modifier in any function that should be called through\n      the governance system\n     */\n    modifier onlyAuthorizedChanger() {\n        require(governor.isAuthorizedChanger(msg.sender), NOT_AUTHORIZED_CHANGER);\n        _;\n    }\n\n    /**\n      @notice Initialize the contract with the basic settings\n      @dev This initialize replaces the constructor but it is not called automatically.\n      It is necessary because of the upgradeability of the contracts\n      @param _governor Governor address\n     */\n    function _initialize(IGovernor _governor) internal {\n        governor = _governor;\n    }\n\n    /**\n      @notice Change the contract's governor. Should be called through the old governance system\n      @param newIGovernor New governor address\n     */\n    function changeIGovernor(IGovernor newIGovernor) external onlyAuthorizedChanger {\n        governor = newIGovernor;\n    }\n\n    // Leave a gap betweeen inherited contracts variables in order to be\n    // able to add more variables in them later\n    uint256[50] private upgradeGap;\n}\n",
  "sourcePath": "/home/adji/Desktop/work/coinfabrik/OMoC-Decentralized-Oracle/contracts/contracts/moc-gobernanza/Governance/Governed.sol",
  "compiler": {
    "name": "solc",
    "version": "0.6.0+commit.26b70077.Emscripten.clang"
  },
  "schemaVersion": "3.2.0",
  "updatedAt": "2020-06-29T21:30:43.174Z",
  "devdoc": {
    "details": "This contract is not usable on its own since it does not have any _productive useful_ behaviour The only purpose of this contract is to define some useful modifiers and functions to be used on the governance aspect of the child contract",
    "methods": {
      "changeIGovernor(address)": {
        "params": {
          "newIGovernor": "New governor address"
        }
      }
    },
    "title": "Governed"
  },
  "userdoc": {
    "methods": {
      "changeIGovernor(address)": {
        "notice": "Change the contract's governor. Should be called through the old governance system"
      }
    },
    "notice": "Base contract to be inherited by governed contracts"
  }
}