{
  "contractName": "GovernedRegistry",
  "abi": [
    {
      "inputs": [
        {
          "internalType": "contract IGovernor",
          "name": "newIGovernor",
          "type": "address"
        }
      ],
      "name": "changeIGovernor",
      "outputs": [],
      "stateMutability": "nonpayable",
      "type": "function"
    },
    {
      "inputs": [
        {
          "internalType": "bytes",
          "name": "data",
          "type": "bytes"
        }
      ],
      "name": "delegateCallToChanger",
      "outputs": [],
      "stateMutability": "nonpayable",
      "type": "function"
    },
    {
      "inputs": [],
      "name": "governor",
      "outputs": [
        {
          "internalType": "contract IGovernor",
          "name": "",
          "type": "address"
        }
      ],
      "stateMutability": "view",
      "type": "function"
    },
    {
      "inputs": [
        {
          "internalType": "contract IGovernor",
          "name": "_governor",
          "type": "address"
        }
      ],
      "name": "initialize",
      "outputs": [],
      "stateMutability": "nonpayable",
      "type": "function"
    },
    {
      "inputs": [
        {
          "internalType": "bytes32",
          "name": "_key",
          "type": "bytes32"
        }
      ],
      "name": "getDecimal",
      "outputs": [
        {
          "internalType": "int232",
          "name": "base",
          "type": "int232"
        },
        {
          "internalType": "int16",
          "name": "exp",
          "type": "int16"
        }
      ],
      "stateMutability": "view",
      "type": "function"
    },
    {
      "inputs": [
        {
          "internalType": "bytes32",
          "name": "_key",
          "type": "bytes32"
        }
      ],
      "name": "getUint",
      "outputs": [
        {
          "internalType": "uint248",
          "name": "",
          "type": "uint248"
        }
      ],
      "stateMutability": "view",
      "type": "function"
    },
    {
      "inputs": [
        {
          "internalType": "bytes32",
          "name": "_key",
          "type": "bytes32"
        }
      ],
      "name": "getString",
      "outputs": [
        {
          "internalType": "string",
          "name": "",
          "type": "string"
        }
      ],
      "stateMutability": "view",
      "type": "function"
    },
    {
      "inputs": [
        {
          "internalType": "bytes32",
          "name": "_key",
          "type": "bytes32"
        }
      ],
      "name": "getAddress",
      "outputs": [
        {
          "internalType": "address",
          "name": "",
          "type": "address"
        }
      ],
      "stateMutability": "view",
      "type": "function"
    },
    {
      "inputs": [
        {
          "internalType": "bytes32",
          "name": "_key",
          "type": "bytes32"
        }
      ],
      "name": "getBytes",
      "outputs": [
        {
          "internalType": "bytes",
          "name": "",
          "type": "bytes"
        }
      ],
      "stateMutability": "view",
      "type": "function"
    },
    {
      "inputs": [
        {
          "internalType": "bytes32",
          "name": "_key",
          "type": "bytes32"
        }
      ],
      "name": "getBool",
      "outputs": [
        {
          "internalType": "bool",
          "name": "",
          "type": "bool"
        }
      ],
      "stateMutability": "view",
      "type": "function"
    },
    {
      "inputs": [
        {
          "internalType": "bytes32",
          "name": "_key",
          "type": "bytes32"
        }
      ],
      "name": "getInt",
      "outputs": [
        {
          "internalType": "int248",
          "name": "",
          "type": "int248"
        }
      ],
      "stateMutability": "view",
      "type": "function"
    },
    {
      "inputs": [
        {
          "internalType": "bytes32",
          "name": "_key",
          "type": "bytes32"
        },
        {
          "internalType": "int232",
          "name": "_base",
          "type": "int232"
        },
        {
          "internalType": "int16",
          "name": "_exp",
          "type": "int16"
        }
      ],
      "name": "setDecimal",
      "outputs": [],
      "stateMutability": "nonpayable",
      "type": "function"
    },
    {
      "inputs": [
        {
          "internalType": "bytes32",
          "name": "_key",
          "type": "bytes32"
        },
        {
          "internalType": "uint248",
          "name": "_value",
          "type": "uint248"
        }
      ],
      "name": "setUint",
      "outputs": [],
      "stateMutability": "nonpayable",
      "type": "function"
    },
    {
      "inputs": [
        {
          "internalType": "bytes32",
          "name": "_key",
          "type": "bytes32"
        },
        {
          "internalType": "string",
          "name": "_value",
          "type": "string"
        }
      ],
      "name": "setString",
      "outputs": [],
      "stateMutability": "nonpayable",
      "type": "function"
    },
    {
      "inputs": [
        {
          "internalType": "bytes32",
          "name": "_key",
          "type": "bytes32"
        },
        {
          "internalType": "address",
          "name": "_value",
          "type": "address"
        }
      ],
      "name": "setAddress",
      "outputs": [],
      "stateMutability": "nonpayable",
      "type": "function"
    },
    {
      "inputs": [
        {
          "internalType": "bytes32",
          "name": "_key",
          "type": "bytes32"
        },
        {
          "internalType": "bytes",
          "name": "_value",
          "type": "bytes"
        }
      ],
      "name": "setBytes",
      "outputs": [],
      "stateMutability": "nonpayable",
      "type": "function"
    },
    {
      "inputs": [
        {
          "internalType": "bytes32",
          "name": "_key",
          "type": "bytes32"
        },
        {
          "internalType": "bool",
          "name": "_value",
          "type": "bool"
        }
      ],
      "name": "setBool",
      "outputs": [],
      "stateMutability": "nonpayable",
      "type": "function"
    },
    {
      "inputs": [
        {
          "internalType": "bytes32",
          "name": "_key",
          "type": "bytes32"
        },
        {
          "internalType": "int248",
          "name": "_value",
          "type": "int248"
        }
      ],
      "name": "setInt",
      "outputs": [],
      "stateMutability": "nonpayable",
      "type": "function"
    },
    {
      "inputs": [
        {
          "internalType": "bytes32",
          "name": "_key",
          "type": "bytes32"
        }
      ],
      "name": "deleteDecimal",
      "outputs": [],
      "stateMutability": "nonpayable",
      "type": "function"
    },
    {
      "inputs": [
        {
          "internalType": "bytes32",
          "name": "_key",
          "type": "bytes32"
        }
      ],
      "name": "deleteUint",
      "outputs": [],
      "stateMutability": "nonpayable",
      "type": "function"
    },
    {
      "inputs": [
        {
          "internalType": "bytes32",
          "name": "_key",
          "type": "bytes32"
        }
      ],
      "name": "deleteString",
      "outputs": [],
      "stateMutability": "nonpayable",
      "type": "function"
    },
    {
      "inputs": [
        {
          "internalType": "bytes32",
          "name": "_key",
          "type": "bytes32"
        }
      ],
      "name": "deleteAddress",
      "outputs": [],
      "stateMutability": "nonpayable",
      "type": "function"
    },
    {
      "inputs": [
        {
          "internalType": "bytes32",
          "name": "_key",
          "type": "bytes32"
        }
      ],
      "name": "deleteBytes",
      "outputs": [],
      "stateMutability": "nonpayable",
      "type": "function"
    },
    {
      "inputs": [
        {
          "internalType": "bytes32",
          "name": "_key",
          "type": "bytes32"
        }
      ],
      "name": "deleteBool",
      "outputs": [],
      "stateMutability": "nonpayable",
      "type": "function"
    },
    {
      "inputs": [
        {
          "internalType": "bytes32",
          "name": "_key",
          "type": "bytes32"
        }
      ],
      "name": "deleteInt",
      "outputs": [],
      "stateMutability": "nonpayable",
      "type": "function"
    }
  ],
  "bytecode": "0x608060405234801561001057600080fd5b50612014806100206000396000f3fe608060405234801561001057600080fd5b50600436106101735760003560e01c80638c160095116100de578063c031a18011610097578063dc8990e111610071578063dc8990e1146105b1578063dc97d96214610621578063e2b202bf14610655578063f6bb3cc41461067257610173565b8063c031a18014610542578063c4d66de81461055f578063ca446dd91461058557610173565b80638c160095146103e3578063986e791a146104005780639ed4402214610492578063abfdcced146104be578063b6e08330146104e3578063bd02d0f51461050957610173565b8063616b59f611610130578063616b59f61461029b578063631bf8ab146102b85780636e899550146102d55780637ae1cfca1461034c5780637e58e51b1461037d5780638a1b2d5c146103a357610173565b80630c340a24146101785780630e14a3761461019c57806321f8a721146101bb5780632c62ff2d146101d85780632e28d084146101f55780634259bac31461026c575b600080fd5b61018061068f565b604080516001600160a01b039092168252519081900360200190f35b6101b9600480360360208110156101b257600080fd5b503561069e565b005b610180600480360360208110156101d157600080fd5b50356107df565b6101b9600480360360208110156101ee57600080fd5b5035610852565b6101b96004803603604081101561020b57600080fd5b8135919081019060408101602082013564010000000081111561022d57600080fd5b82018360208201111561023f57600080fd5b8035906020019184600183028401116401000000008311171561026157600080fd5b509092509050610951565b6101b96004803603606081101561028257600080fd5b508035906020810135601c0b906040013560010b610a98565b6101b9600480360360208110156102b157600080fd5b5035610c01565b6101b9600480360360208110156102ce57600080fd5b5035610d01565b6101b9600480360360408110156102eb57600080fd5b8135919081019060408101602082013564010000000081111561030d57600080fd5b82018360208201111561031f57600080fd5b8035906020019184600183028401116401000000008311171561034157600080fd5b509092509050610df8565b6103696004803603602081101561036257600080fd5b5035610f39565b604080519115158252519081900360200190f35b6101b96004803603604081101561039357600080fd5b5080359060200135601e0b610fa5565b6103c0600480360360208110156103b957600080fd5b50356110da565b6040518083601c0b81526020018260010b81526020019250505060405180910390f35b6101b9600480360360208110156103f957600080fd5b5035611155565b61041d6004803603602081101561041657600080fd5b503561124c565b6040805160208082528351818301528351919283929083019185019080838360005b8381101561045757818101518382015260200161043f565b50505050905090810190601f1680156104845780820380516001836020036101000a031916815260200191505b509250505060405180910390f35b6101b9600480360360408110156104a857600080fd5b50803590602001356001600160f81b031661134f565b6101b9600480360360408110156104d457600080fd5b50803590602001351515611481565b6101b9600480360360208110156104f957600080fd5b50356001600160a01b03166115b0565b6105266004803603602081101561051f57600080fd5b50356116b8565b604080516001600160f81b039092168252519081900360200190f35b61041d6004803603602081101561055857600080fd5b503561172a565b6101b96004803603602081101561057557600080fd5b50356001600160a01b03166117f6565b6101b96004803603604081101561059b57600080fd5b50803590602001356001600160a01b03166118a2565b6101b9600480360360208110156105c757600080fd5b8101906020810181356401000000008111156105e257600080fd5b8201836020820111156105f457600080fd5b8035906020019184600183028401116401000000008311171561061657600080fd5b509092509050611a01565b61063e6004803603602081101561063757600080fd5b5035611c35565b60408051601e9290920b8252519081900360200190f35b6101b96004803603602081101561066b57600080fd5b5035611ca1565b6101b96004803603602081101561068857600080fd5b5035611d98565b6033546001600160a01b031681565b6033546040805163d994d6d560e01b815233600482015290516001600160a01b039092169163d994d6d591602480820192602092909190829003018186803b1580156106e957600080fd5b505afa1580156106fd573d6000803e3d6000fd5b505050506040513d602081101561071357600080fd5b50516040805180820190915260168152600080516020611fbf8339815191526020820152906107c05760405162461bcd60e51b81526004018080602001828103825283818151815260200191508051906020019080838360005b8381101561078557818101518382015260200161076d565b50505050905090810190601f1680156107b25780820380516001836020036101000a031916815260200191505b509250505060405180910390fd5b50600090815260696020526040902080546001600160a01b0319169055565b6000818152606960205260408120546001600160a01b0316610836576040805162461bcd60e51b815260206004820152600b60248201526a496e76616c6964206b657960a81b604482015290519081900360640190fd5b506000908152606960205260409020546001600160a01b031690565b6033546040805163d994d6d560e01b815233600482015290516001600160a01b039092169163d994d6d591602480820192602092909190829003018186803b15801561089d57600080fd5b505afa1580156108b1573d6000803e3d6000fd5b505050506040513d60208110156108c757600080fd5b50516040805180820190915260168152600080516020611fbf8339815191526020820152906109375760405162461bcd60e51b815260206004820181815283516024840152835190928392604490910191908501908083836000831561078557818101518382015260200161076d565b506000908152606b60205260409020805461ffff19169055565b6033546040805163d994d6d560e01b815233600482015290516001600160a01b039092169163d994d6d591602480820192602092909190829003018186803b15801561099c57600080fd5b505afa1580156109b0573d6000803e3d6000fd5b505050506040513d60208110156109c657600080fd5b50516040805180820190915260168152600080516020611fbf833981519152602082015290610a365760405162461bcd60e51b815260206004820181815283516024840152835190928392604490910191908501908083836000831561078557818101518382015260200161076d565b5080610a79576040805162461bcd60e51b815260206004820152600d60248201526c496e76616c69642076616c756560981b604482015290519081900360640190fd5b6000838152606a60205260409020610a92908383611ebd565b50505050565b6033546040805163d994d6d560e01b815233600482015290516001600160a01b039092169163d994d6d591602480820192602092909190829003018186803b158015610ae357600080fd5b505afa158015610af7573d6000803e3d6000fd5b505050506040513d6020811015610b0d57600080fd5b50516040805180820190915260168152600080516020611fbf833981519152602082015290610b7d5760405162461bcd60e51b815260206004820181815283516024840152835190928392604490910191908501908083836000831561078557818101518382015260200161076d565b50604080516060810182526001808252601c94850b602080840191825294820b8385019081526000978852606690955292909520905181549251935190950b61ffff16600160f01b026001600160f01b039390940b6001600160e81b031661010002610100600160f01b031995151560ff1990931692909217949094161716179055565b6033546040805163d994d6d560e01b815233600482015290516001600160a01b039092169163d994d6d591602480820192602092909190829003018186803b158015610c4c57600080fd5b505afa158015610c60573d6000803e3d6000fd5b505050506040513d6020811015610c7657600080fd5b50516040805180820190915260168152600080516020611fbf833981519152602082015290610ce65760405162461bcd60e51b815260206004820181815283516024840152835190928392604490910191908501908083836000831561078557818101518382015260200161076d565b506000818152606a60205260408120610cfe91611f3b565b50565b6033546040805163d994d6d560e01b815233600482015290516001600160a01b039092169163d994d6d591602480820192602092909190829003018186803b158015610d4c57600080fd5b505afa158015610d60573d6000803e3d6000fd5b505050506040513d6020811015610d7657600080fd5b50516040805180820190915260168152600080516020611fbf833981519152602082015290610de65760405162461bcd60e51b815260206004820181815283516024840152835190928392604490910191908501908083836000831561078557818101518382015260200161076d565b50600090815260666020526040812055565b6033546040805163d994d6d560e01b815233600482015290516001600160a01b039092169163d994d6d591602480820192602092909190829003018186803b158015610e4357600080fd5b505afa158015610e57573d6000803e3d6000fd5b505050506040513d6020811015610e6d57600080fd5b50516040805180820190915260168152600080516020611fbf833981519152602082015290610edd5760405162461bcd60e51b815260206004820181815283516024840152835190928392604490910191908501908083836000831561078557818101518382015260200161076d565b5080610f20576040805162461bcd60e51b815260206004820152600d60248201526c496e76616c69642076616c756560981b604482015290519081900360640190fd5b6000838152606860205260409020610a92908383611ebd565b6000818152606b602052604081205460ff16610f8a576040805162461bcd60e51b815260206004820152600b60248201526a496e76616c6964206b657960a81b604482015290519081900360640190fd5b506000908152606b6020526040902054610100900460ff1690565b6033546040805163d994d6d560e01b815233600482015290516001600160a01b039092169163d994d6d591602480820192602092909190829003018186803b158015610ff057600080fd5b505afa158015611004573d6000803e3d6000fd5b505050506040513d602081101561101a57600080fd5b50516040805180820190915260168152600080516020611fbf83398151915260208201529061108a5760405162461bcd60e51b815260206004820181815283516024840152835190928392604490910191908501908083836000831561078557818101518382015260200161076d565b5060408051808201825260018152601e92830b60208083019182526000958652606c90529190932092518354915190920b6001600160f81b03166101000291151560ff199091161760ff16179055565b600081815260666020526040812054819060ff1661112d576040805162461bcd60e51b815260206004820152600b60248201526a496e76616c6964206b657960a81b604482015290519081900360640190fd5b50506000908152606660205260409020546101008104601c0b91600160f01b90910460010b90565b6033546040805163d994d6d560e01b815233600482015290516001600160a01b039092169163d994d6d591602480820192602092909190829003018186803b1580156111a057600080fd5b505afa1580156111b4573d6000803e3d6000fd5b505050506040513d60208110156111ca57600080fd5b50516040805180820190915260168152600080516020611fbf83398151915260208201529061123a5760405162461bcd60e51b815260206004820181815283516024840152835190928392604490910191908501908083836000831561078557818101518382015260200161076d565b506000908152606c6020526040812055565b600081815260686020526040902054606090600260001961010060018416150201909116046112b0576040805162461bcd60e51b815260206004820152600b60248201526a496e76616c6964206b657960a81b604482015290519081900360640190fd5b60008281526068602090815260409182902080548351601f6002600019610100600186161502019093169290920491820184900484028101840190945280845290918301828280156113435780601f1061131857610100808354040283529160200191611343565b820191906000526020600020905b81548152906001019060200180831161132657829003601f168201915b50505050509050919050565b6033546040805163d994d6d560e01b815233600482015290516001600160a01b039092169163d994d6d591602480820192602092909190829003018186803b15801561139a57600080fd5b505afa1580156113ae573d6000803e3d6000fd5b505050506040513d60208110156113c457600080fd5b50516040805180820190915260168152600080516020611fbf8339815191526020820152906114345760405162461bcd60e51b815260206004820181815283516024840152835190928392604490910191908501908083836000831561078557818101518382015260200161076d565b50604080518082018252600181526001600160f81b039283166020808301918252600095865260679052919093209251835491519092166101000291151560ff199091161760ff16179055565b6033546040805163d994d6d560e01b815233600482015290516001600160a01b039092169163d994d6d591602480820192602092909190829003018186803b1580156114cc57600080fd5b505afa1580156114e0573d6000803e3d6000fd5b505050506040513d60208110156114f657600080fd5b50516040805180820190915260168152600080516020611fbf8339815191526020820152906115665760405162461bcd60e51b815260206004820181815283516024840152835190928392604490910191908501908083836000831561078557818101518382015260200161076d565b506040805180820182526001815291151560208084019182526000948552606b9052922090518154925115156101000261ff001991151560ff199094169390931716919091179055565b6033546040805163d994d6d560e01b815233600482015290516001600160a01b039092169163d994d6d591602480820192602092909190829003018186803b1580156115fb57600080fd5b505afa15801561160f573d6000803e3d6000fd5b505050506040513d602081101561162557600080fd5b50516040805180820190915260168152600080516020611fbf8339815191526020820152906116955760405162461bcd60e51b815260206004820181815283516024840152835190928392604490910191908501908083836000831561078557818101518382015260200161076d565b50603380546001600160a01b0319166001600160a01b0392909216919091179055565b60008181526067602052604081205460ff16611709576040805162461bcd60e51b815260206004820152600b60248201526a496e76616c6964206b657960a81b604482015290519081900360640190fd5b5060009081526067602052604090205461010090046001600160f81b031690565b6000818152606a60205260409020546060906002600019610100600184161502019091160461178e576040805162461bcd60e51b815260206004820152600b60248201526a496e76616c6964206b657960a81b604482015290519081900360640190fd5b6000828152606a602090815260409182902080548351601f6002600019610100600186161502019093169290920491820184900484028101840190945280845290918301828280156113435780601f1061131857610100808354040283529160200191611343565b600054610100900460ff168061180f575061180f611e95565b8061181d575060005460ff16155b6118585760405162461bcd60e51b815260040180806020018281038252602e815260200180611f91602e913960400191505060405180910390fd5b600054610100900460ff16158015611883576000805460ff1961ff0019909116610100171660011790555b61188c82611e9b565b801561189e576000805461ff00191690555b5050565b6033546040805163d994d6d560e01b815233600482015290516001600160a01b039092169163d994d6d591602480820192602092909190829003018186803b1580156118ed57600080fd5b505afa158015611901573d6000803e3d6000fd5b505050506040513d602081101561191757600080fd5b50516040805180820190915260168152600080516020611fbf8339815191526020820152906119875760405162461bcd60e51b815260206004820181815283516024840152835190928392604490910191908501908083836000831561078557818101518382015260200161076d565b506001600160a01b0381166119d3576040805162461bcd60e51b815260206004820152600d60248201526c496e76616c69642076616c756560981b604482015290519081900360640190fd5b60009182526069602052604090912080546001600160a01b0319166001600160a01b03909216919091179055565b6033546040805163d994d6d560e01b815233600482015290516001600160a01b039092169163d994d6d591602480820192602092909190829003018186803b158015611a4c57600080fd5b505afa158015611a60573d6000803e3d6000fd5b505050506040513d6020811015611a7657600080fd5b50516040805180820190915260168152600080516020611fbf833981519152602082015290611ae65760405162461bcd60e51b815260206004820181815283516024840152835190928392604490910191908501908083836000831561078557818101518382015260200161076d565b50604051602060248201908152604482018390523391600091839186918691819060640184848082843760008382015260408051601f909201601f1990811690940182810390940182529283526020810180516001600160e01b03166350b113e560e11b17815292518151919750955085945091925081905083835b60208310611b815780518252601f199092019160209182019101611b62565b6001836020036101000a038019825116818451168082178552505050505050905001915050600060405180830381855af49150503d8060008114611be1576040519150601f19603f3d011682016040523d82523d6000602084013e611be6565b606091505b5050905080610a92576040805162461bcd60e51b8152602060048201526016602482015275115c9c9bdc881a5b8819195b1959d85d194818d85b1b60521b604482015290519081900360640190fd5b6000818152606c602052604081205460ff16611c86576040805162461bcd60e51b815260206004820152600b60248201526a496e76616c6964206b657960a81b604482015290519081900360640190fd5b506000908152606c60205260409020546101009004601e0b90565b6033546040805163d994d6d560e01b815233600482015290516001600160a01b039092169163d994d6d591602480820192602092909190829003018186803b158015611cec57600080fd5b505afa158015611d00573d6000803e3d6000fd5b505050506040513d6020811015611d1657600080fd5b50516040805180820190915260168152600080516020611fbf833981519152602082015290611d865760405162461bcd60e51b815260206004820181815283516024840152835190928392604490910191908501908083836000831561078557818101518382015260200161076d565b50600090815260676020526040812055565b6033546040805163d994d6d560e01b815233600482015290516001600160a01b039092169163d994d6d591602480820192602092909190829003018186803b158015611de357600080fd5b505afa158015611df7573d6000803e3d6000fd5b505050506040513d6020811015611e0d57600080fd5b50516040805180820190915260168152600080516020611fbf833981519152602082015290611e7d5760405162461bcd60e51b815260206004820181815283516024840152835190928392604490910191908501908083836000831561078557818101518382015260200161076d565b506000818152606860205260408120610cfe91611f3b565b303b1590565b603380546001600160a01b0319166001600160a01b0392909216919091179055565b828054600181600116156101000203166002900490600052602060002090601f016020900481019282601f10611efe5782800160ff19823516178555611f2b565b82800160010185558215611f2b579182015b82811115611f2b578235825591602001919060010190611f10565b50611f37929150611f7b565b5090565b50805460018160011615610100020316600290046000825580601f10611f615750610cfe565b601f016020900490600052602060002090810190610cfe91905b5b80821115611f375760008155600101611f7c56fe436f6e747261637420696e7374616e63652068617320616c7265616479206265656e20696e697469616c697a65646e6f745f617574686f72697a65645f6368616e67657200000000000000000000a2646970667358221220cddcc493b8e1f39359d18a36dab71a6528e525c140391a8a15ae17cb5647794564736f6c634300060c0033",
  "immutableReferences": {},
  "source": "// SPDX-License-Identifier: UNLICENSED\npragma solidity ^0.6.0;\n\nimport {Governed} from \"./moc-governance/Governance/Governed.sol\";\nimport {IGovernor} from \"./moc-governance/Governance/IGovernor.sol\";\nimport {Initializable} from \"@openzeppelin/contracts-ethereum-package/contracts/Initializable.sol\";\n\n// Based on https://github.com/fravoll/solidity-patterns EternalStorage\ncontract GovernedRegistry is Initializable, Governed {\n    struct UIntVal {\n        bool b;\n        uint248 v;\n    }\n\n    struct BoolVal {\n        bool b;\n        bool v;\n    }\n\n    struct IntVal {\n        bool b;\n        int248 v;\n    }\n\n    struct DecimalVal {\n        bool b;\n        int232 base;\n        int16 exp;\n    }\n\n    mapping(bytes32 => DecimalVal) internal decimalStorage;\n    mapping(bytes32 => UIntVal) internal uIntStorage;\n    mapping(bytes32 => string) internal stringStorage;\n    mapping(bytes32 => address) internal addressStorage;\n    mapping(bytes32 => bytes) internal bytesStorage;\n    mapping(bytes32 => BoolVal) internal boolStorage;\n    mapping(bytes32 => IntVal) internal intStorage;\n\n    /**\n      @notice Initialize the contract with the basic settings\n      @dev This initialize replaces the constructor but it is not called automatically.\n      It is necessary because of the upgradeability of the contracts\n      @param _governor Governor address\n     */\n    function initialize(IGovernor _governor) external initializer {\n        Governed._initialize(_governor);\n    }\n\n    // *** Getter Methods ***\n    function getDecimal(bytes32 _key) external view returns (int232 base, int16 exp) {\n        require(decimalStorage[_key].b, \"Invalid key\");\n        return (decimalStorage[_key].base, decimalStorage[_key].exp);\n    }\n\n    function getUint(bytes32 _key) external view returns (uint248) {\n        require(uIntStorage[_key].b, \"Invalid key\");\n        return uIntStorage[_key].v;\n    }\n\n    function getString(bytes32 _key) external view returns (string memory) {\n        require(bytes(stringStorage[_key]).length != 0, \"Invalid key\");\n        return stringStorage[_key];\n    }\n\n    function getAddress(bytes32 _key) external view returns (address) {\n        require(addressStorage[_key] != address(0), \"Invalid key\");\n        return addressStorage[_key];\n    }\n\n    function getBytes(bytes32 _key) external view returns (bytes memory) {\n        require(bytesStorage[_key].length != 0, \"Invalid key\");\n        return bytesStorage[_key];\n    }\n\n    function getBool(bytes32 _key) external view returns (bool) {\n        require(boolStorage[_key].b, \"Invalid key\");\n        return boolStorage[_key].v;\n    }\n\n    function getInt(bytes32 _key) external view returns (int248) {\n        require(intStorage[_key].b, \"Invalid key\");\n        return intStorage[_key].v;\n    }\n\n    // *** Setter Methods ***\n    function setDecimal(\n        bytes32 _key,\n        int232 _base,\n        int16 _exp\n    ) external onlyAuthorizedChanger {\n        decimalStorage[_key] = DecimalVal(true, _base, _exp);\n    }\n\n    function setUint(bytes32 _key, uint248 _value) external onlyAuthorizedChanger {\n        uIntStorage[_key] = UIntVal(true, _value);\n    }\n\n    function setString(bytes32 _key, string calldata _value) external onlyAuthorizedChanger {\n        require(bytes(_value).length != 0, \"Invalid value\");\n        stringStorage[_key] = _value;\n    }\n\n    function setAddress(bytes32 _key, address _value) external onlyAuthorizedChanger {\n        require(_value != address(0), \"Invalid value\");\n        addressStorage[_key] = _value;\n    }\n\n    function setBytes(bytes32 _key, bytes calldata _value) external onlyAuthorizedChanger {\n        require(_value.length != 0, \"Invalid value\");\n        bytesStorage[_key] = _value;\n    }\n\n    function setBool(bytes32 _key, bool _value) external onlyAuthorizedChanger {\n        boolStorage[_key] = BoolVal(true, _value);\n    }\n\n    function setInt(bytes32 _key, int248 _value) external onlyAuthorizedChanger {\n        intStorage[_key] = IntVal(true, _value);\n    }\n\n    // *** Delete Methods ***\n    function deleteDecimal(bytes32 _key) external onlyAuthorizedChanger {\n        delete decimalStorage[_key];\n    }\n\n    function deleteUint(bytes32 _key) external onlyAuthorizedChanger {\n        delete uIntStorage[_key];\n    }\n\n    function deleteString(bytes32 _key) external onlyAuthorizedChanger {\n        delete stringStorage[_key];\n    }\n\n    function deleteAddress(bytes32 _key) external onlyAuthorizedChanger {\n        delete addressStorage[_key];\n    }\n\n    function deleteBytes(bytes32 _key) external onlyAuthorizedChanger {\n        delete bytesStorage[_key];\n    }\n\n    function deleteBool(bytes32 _key) external onlyAuthorizedChanger {\n        delete boolStorage[_key];\n    }\n\n    function deleteInt(bytes32 _key) external onlyAuthorizedChanger {\n        delete intStorage[_key];\n    }\n}\n",
  "sourcePath": "/home/adji/Desktop/work/coinfabrik/moc-shared/contracts/GovernedRegistry.sol",
  "compiler": {
    "name": "solc",
    "version": "0.6.12+commit.27d51765.Emscripten.clang"
  },
  "schemaVersion": "3.2.5",
  "updatedAt": "2020-10-01T22:39:15.354Z",
  "devdoc": {
    "kind": "dev",
    "methods": {
      "changeIGovernor(address)": {
        "params": {
          "newIGovernor": "New governor address"
        }
      },
      "delegateCallToChanger(bytes)": {
        "params": {
          "data": "the serialized function arguments"
        }
      },
      "initialize(address)": {
        "details": "This initialize replaces the constructor but it is not called automatically. It is necessary because of the upgradeability of the contracts",
        "params": {
          "_governor": "Governor address"
        }
      }
    },
    "version": 1
  },
  "userdoc": {
    "kind": "user",
    "methods": {
      "changeIGovernor(address)": {
        "notice": "Change the contract's governor. Should be called through the old governance system"
      },
      "delegateCallToChanger(bytes)": {
        "notice": "This method is used by a change contract to access the storage freely even without a setter."
      },
      "governor()": {
        "notice": "The address of the contract which governs this one"
      },
      "initialize(address)": {
        "notice": "Initialize the contract with the basic settings"
      }
    },
    "version": 1
  }
}