{
  "contractName": "Governor",
  "abi": [
    {
      "anonymous": false,
      "inputs": [
        {
          "indexed": true,
          "internalType": "address",
          "name": "previousOwner",
          "type": "address"
        },
        {
          "indexed": true,
          "internalType": "address",
          "name": "newOwner",
          "type": "address"
        }
      ],
      "name": "OwnershipTransferred",
      "type": "event"
    },
    {
      "inputs": [],
      "name": "isOwner",
      "outputs": [
        {
          "internalType": "bool",
          "name": "",
          "type": "bool"
        }
      ],
      "stateMutability": "view",
      "type": "function",
      "constant": true
    },
    {
      "inputs": [],
      "name": "owner",
      "outputs": [
        {
          "internalType": "address",
          "name": "",
          "type": "address"
        }
      ],
      "stateMutability": "view",
      "type": "function",
      "constant": true
    },
    {
      "inputs": [],
      "name": "renounceOwnership",
      "outputs": [],
      "stateMutability": "nonpayable",
      "type": "function"
    },
    {
      "inputs": [
        {
          "internalType": "address",
          "name": "newOwner",
          "type": "address"
        }
      ],
      "name": "transferOwnership",
      "outputs": [],
      "stateMutability": "nonpayable",
      "type": "function"
    },
    {
      "inputs": [],
      "name": "initialize",
      "outputs": [],
      "stateMutability": "nonpayable",
      "type": "function"
    },
    {
      "inputs": [
        {
          "internalType": "address",
          "name": "sender",
          "type": "address"
        }
      ],
      "name": "initialize",
      "outputs": [],
      "stateMutability": "nonpayable",
      "type": "function"
    },
    {
      "inputs": [
        {
          "internalType": "contract ChangeContract",
          "name": "changeContract",
          "type": "address"
        }
      ],
      "name": "executeChange",
      "outputs": [],
      "stateMutability": "nonpayable",
      "type": "function"
    },
    {
      "inputs": [
        {
          "internalType": "address",
          "name": "_changer",
          "type": "address"
        }
      ],
      "name": "isAuthorizedChanger",
      "outputs": [
        {
          "internalType": "bool",
          "name": "",
          "type": "bool"
        }
      ],
      "stateMutability": "view",
      "type": "function",
      "constant": true
    }
  ],
  "bytecode": "0x608060405234801561001057600080fd5b5061060a806100206000396000f3fe608060405234801561001057600080fd5b50600436106100885760003560e01c80638f32d59b1161005b5780638f32d59b146100e9578063c4d66de814610105578063d994d6d51461012b578063f2fde38b1461015157610088565b8063715018a61461008d5780638129fc1c146100975780638c777e821461009f5780638da5cb5b146100c5575b600080fd5b610095610177565b005b6100956101d2565b610095600480360360208110156100b557600080fd5b50356001600160a01b0316610279565b6100cd61030b565b604080516001600160a01b039092168252519081900360200190f35b6100f161031a565b604080519115158252519081900360200190f35b6100956004803603602081101561011b57600080fd5b50356001600160a01b031661032b565b6100f16004803603602081101561014157600080fd5b50356001600160a01b03166103de565b6100956004803603602081101561016757600080fd5b50356001600160a01b03166103f2565b61017f61031a565b61018857600080fd5b6066546040516000916001600160a01b0316907f8be0079c531659141344cd1fd0a4f28419497f9722a3daafe3b4186f6b6457e0908390a3606680546001600160a01b0319169055565b600054610100900460ff16806101eb57506101eb61040c565b806101f9575060005460ff16155b6102345760405162461bcd60e51b815260040180806020018281038252602e8152602001806105a7602e913960400191505060405180910390fd5b600054610100900460ff1615801561025f576000805460ff1961ff0019909116610100171660011790555b60016033558015610276576000805461ff00191690555b50565b603380546001019081905561028c61031a565b61029557600080fd5b61029e82610412565b816001600160a01b031663614619546040518163ffffffff1660e01b8152600401600060405180830381600087803b1580156102d957600080fd5b505af11580156102ed573d6000803e3d6000fd5b505050506102f9610434565b603354811461030757600080fd5b5050565b6066546001600160a01b031690565b6066546001600160a01b0316331490565b600054610100900460ff1680610344575061034461040c565b80610352575060005460ff16155b61038d5760405162461bcd60e51b815260040180806020018281038252602e8152602001806105a7602e913960400191505060405180910390fd5b600054610100900460ff161580156103b8576000805460ff1961ff0019909116610100171660011790555b6103c182610446565b6103c96101d2565b8015610307576000805461ff00191690555050565b6099546001600160a01b0391821691161490565b6103fa61031a565b61040357600080fd5b61027681610537565b303b1590565b609980546001600160a01b0319166001600160a01b0392909216919091179055565b609980546001600160a01b0319169055565b600054610100900460ff168061045f575061045f61040c565b8061046d575060005460ff16155b6104a85760405162461bcd60e51b815260040180806020018281038252602e8152602001806105a7602e913960400191505060405180910390fd5b600054610100900460ff161580156104d3576000805460ff1961ff0019909116610100171660011790555b606680546001600160a01b0319166001600160a01b0384811691909117918290556040519116906000907f8be0079c531659141344cd1fd0a4f28419497f9722a3daafe3b4186f6b6457e0908290a38015610307576000805461ff00191690555050565b6001600160a01b03811661054a57600080fd5b6066546040516001600160a01b038084169216907f8be0079c531659141344cd1fd0a4f28419497f9722a3daafe3b4186f6b6457e090600090a3606680546001600160a01b0319166001600160a01b039290921691909117905556fe436f6e747261637420696e7374616e63652068617320616c7265616479206265656e20696e697469616c697a6564a2646970667358221220b2f9ec253e17bae884c77adb0213c7b99fde4432d1b739d7a4d6feb066fc08c164736f6c63430006000033",
  "source": "pragma solidity 0.6.0;\n\nimport \"../../openzeppelin/ownership/Ownable.sol\";\nimport \"../../openzeppelin/utils/ReentrancyGuard.sol\";\nimport \"../../openzeppelin/Initializable.sol\";\n\nimport \"./ChangeContract.sol\";\nimport \"./IGovernor.sol\";\n\n/**\n  @title Governor\n  @notice Basic governor that handles its governed contracts changes\n  through trusting an external address\n  */\ncontract Governor is Initializable, ReentrancyGuard, Ownable, IGovernor {\n\n    address private currentChangeContract;\n\n    function initialize(address sender) initializer public override {\n        Ownable.initialize(sender);\n        ReentrancyGuard.initialize();\n    }\n\n    /**\n      @notice Function to be called to make the changes in changeContract\n      @param changeContract Address of the contract that will execute the changes\n     */\n    function executeChange(ChangeContract changeContract) external nonReentrant onlyOwner override {\n        enableChangeContract(changeContract);\n        changeContract.execute();\n        disableChangeContract();\n    }\n\n    /**\n      @notice Returns true if the _changer address is currently authorized to make\n      changes within the system\n      @param _changer Address of the contract that will be tested\n     */\n    function isAuthorizedChanger(address _changer) external view override returns (bool)  {\n        return currentChangeContract == _changer;\n    }\n\n    /**\n      @notice Authorize the changeContract address to make changes\n      @param changeContract Address of the contract that will be authorized\n     */\n    function enableChangeContract(ChangeContract changeContract) internal {\n        currentChangeContract = address(changeContract);\n    }\n\n    /**\n      @notice UNAuthorize the currentChangeContract address to make changes\n     */\n    function disableChangeContract() internal {\n        currentChangeContract = address(0x0);\n    }\n\n    // Leave a gap betweeen inherited contracts variables in order to be\n    // able to add more variables in them later\n    uint256[50] private upgradeGap;\n}\n",
  "sourcePath": "/home/adji/Desktop/work/coinfabrik/OMoC-Decentralized-Oracle/contracts/contracts/moc-gobernanza/Governance/Governor.sol",
  "compiler": {
    "name": "solc",
    "version": "0.6.0+commit.26b70077.Emscripten.clang"
  },
  "schemaVersion": "3.2.0",
  "updatedAt": "2020-06-29T22:16:42.420Z",
  "networkType": "ethereum",
  "devdoc": {
    "methods": {
      "executeChange(address)": {
        "params": {
          "changeContract": "Address of the contract that will execute the changes"
        }
      },
      "isAuthorizedChanger(address)": {
        "params": {
          "_changer": "Address of the contract that will be tested"
        }
      },
      "renounceOwnership()": {
        "details": "Allows the current owner to relinquish control of the contract."
      },
      "transferOwnership(address)": {
        "details": "Allows the current owner to transfer control of the contract to a newOwner.",
        "params": {
          "newOwner": "The address to transfer ownership to."
        }
      }
    },
    "title": "Governor"
  },
  "userdoc": {
    "methods": {
      "executeChange(address)": {
        "notice": "Function to be called to make the changes in changeContract"
      },
      "isAuthorizedChanger(address)": {
        "notice": "Returns true if the _changer address is currently authorized to make changes within the system"
      },
      "renounceOwnership()": {
        "notice": "Renouncing to ownership will leave the contract without an owner. It will not be possible to call the functions with the `onlyOwner` modifier anymore."
      }
    },
    "notice": "Basic governor that handles its governed contracts changes through trusting an external address"
  }
}