{
  "contractName": "InfoGetter",
  "abi": [
    {
      "inputs": [
        {
          "internalType": "contract IGovernor",
          "name": "newIGovernor",
          "type": "address"
        }
      ],
      "name": "changeIGovernor",
      "outputs": [],
      "stateMutability": "nonpayable",
      "type": "function"
    },
    {
      "inputs": [
        {
          "internalType": "bytes",
          "name": "data",
          "type": "bytes"
        }
      ],
      "name": "delegateCallToChanger",
      "outputs": [],
      "stateMutability": "nonpayable",
      "type": "function"
    },
    {
      "inputs": [],
      "name": "governor",
      "outputs": [
        {
          "internalType": "contract IGovernor",
          "name": "",
          "type": "address"
        }
      ],
      "stateMutability": "view",
      "type": "function",
      "constant": true
    },
    {
      "inputs": [
        {
          "internalType": "contract IGovernor",
          "name": "_governor",
          "type": "address"
        }
      ],
      "name": "initialize",
      "outputs": [],
      "stateMutability": "nonpayable",
      "type": "function"
    },
    {
      "inputs": [
        {
          "internalType": "contract CoinPairPrice",
          "name": "_coinPairPrice",
          "type": "address"
        }
      ],
      "name": "getCoinPairUIInfo",
      "outputs": [
        {
          "components": [
            {
              "internalType": "uint256",
              "name": "round",
              "type": "uint256"
            },
            {
              "internalType": "uint256",
              "name": "startBlock",
              "type": "uint256"
            },
            {
              "internalType": "uint256",
              "name": "lockPeriodEndBlock",
              "type": "uint256"
            },
            {
              "internalType": "uint256",
              "name": "totalPoints",
              "type": "uint256"
            },
            {
              "components": [
                {
                  "internalType": "uint256",
                  "name": "points",
                  "type": "uint256"
                },
                {
                  "internalType": "uint256",
                  "name": "selectedInRound",
                  "type": "uint256"
                },
                {
                  "internalType": "address",
                  "name": "addr",
                  "type": "address"
                }
              ],
              "internalType": "struct InfoGetter.CoinPairUIOracleRoundInfo[]",
              "name": "info",
              "type": "tuple[]"
            },
            {
              "internalType": "uint256",
              "name": "currentBlock",
              "type": "uint256"
            },
            {
              "internalType": "uint256",
              "name": "lastPubBlock",
              "type": "uint256"
            },
            {
              "internalType": "bytes32",
              "name": "lastPubBlockHash",
              "type": "bytes32"
            },
            {
              "internalType": "uint256",
              "name": "validPricePeriodInBlocks",
              "type": "uint256"
            },
            {
              "internalType": "uint256",
              "name": "availableRewards",
              "type": "uint256"
            }
          ],
          "internalType": "struct InfoGetter.CoinPairPriceUIInfo",
          "name": "coinPairPriceUIInfo",
          "type": "tuple"
        }
      ],
      "stateMutability": "view",
      "type": "function",
      "constant": true
    },
    {
      "inputs": [
        {
          "internalType": "contract OracleManager",
          "name": "_oracleManager",
          "type": "address"
        },
        {
          "internalType": "uint256",
          "name": "_offset",
          "type": "uint256"
        },
        {
          "internalType": "uint256",
          "name": "_limit",
          "type": "uint256"
        }
      ],
      "name": "getManagerUICoinPairInfo",
      "outputs": [
        {
          "components": [
            {
              "internalType": "address",
              "name": "addr",
              "type": "address"
            },
            {
              "internalType": "bytes32",
              "name": "coinPair",
              "type": "bytes32"
            }
          ],
          "internalType": "struct InfoGetter.ManagerUICoinPairInfo[]",
          "name": "info",
          "type": "tuple[]"
        }
      ],
      "stateMutability": "view",
      "type": "function",
      "constant": true
    },
    {
      "inputs": [
        {
          "internalType": "contract OracleManager",
          "name": "_oracleManager",
          "type": "address"
        },
        {
          "internalType": "address",
          "name": "_prevEntry",
          "type": "address"
        },
        {
          "internalType": "uint256",
          "name": "_cant",
          "type": "uint256"
        }
      ],
      "name": "getManagerUIOracleInfo",
      "outputs": [
        {
          "components": [
            {
              "internalType": "uint256",
              "name": "stake",
              "type": "uint256"
            },
            {
              "internalType": "uint256",
              "name": "mocsBalance",
              "type": "uint256"
            },
            {
              "internalType": "uint256",
              "name": "basecoinBalance",
              "type": "uint256"
            },
            {
              "internalType": "address",
              "name": "addr",
              "type": "address"
            },
            {
              "internalType": "address",
              "name": "owner",
              "type": "address"
            },
            {
              "internalType": "string",
              "name": "name",
              "type": "string"
            }
          ],
          "internalType": "struct InfoGetter.ManagerUIOracleInfo[]",
          "name": "info",
          "type": "tuple[]"
        },
        {
          "internalType": "address",
          "name": "nextEntry",
          "type": "address"
        }
      ],
      "stateMutability": "view",
      "type": "function",
      "constant": true
    },
    {
      "inputs": [
        {
          "internalType": "contract OracleManager",
          "name": "_oracleManager",
          "type": "address"
        },
        {
          "internalType": "contract CoinPairPrice",
          "name": "_coinPairPrice",
          "type": "address"
        }
      ],
      "name": "getOracleServerInfo",
      "outputs": [
        {
          "components": [
            {
              "internalType": "uint256",
              "name": "round",
              "type": "uint256"
            },
            {
              "internalType": "uint256",
              "name": "startBlock",
              "type": "uint256"
            },
            {
              "internalType": "uint256",
              "name": "lockPeriodEndBlock",
              "type": "uint256"
            },
            {
              "internalType": "uint256",
              "name": "totalPoints",
              "type": "uint256"
            },
            {
              "components": [
                {
                  "internalType": "uint256",
                  "name": "stake",
                  "type": "uint256"
                },
                {
                  "internalType": "uint256",
                  "name": "points",
                  "type": "uint256"
                },
                {
                  "internalType": "address",
                  "name": "addr",
                  "type": "address"
                },
                {
                  "internalType": "address",
                  "name": "owner",
                  "type": "address"
                },
                {
                  "internalType": "string",
                  "name": "name",
                  "type": "string"
                }
              ],
              "internalType": "struct InfoGetter.FullOracleRoundInfo[]",
              "name": "info",
              "type": "tuple[]"
            },
            {
              "internalType": "uint256",
              "name": "price",
              "type": "uint256"
            },
            {
              "internalType": "uint256",
              "name": "currentBlock",
              "type": "uint256"
            },
            {
              "internalType": "uint256",
              "name": "lastPubBlock",
              "type": "uint256"
            },
            {
              "internalType": "bytes32",
              "name": "lastPubBlockHash",
              "type": "bytes32"
            },
            {
              "internalType": "uint256",
              "name": "validPricePeriodInBlocks",
              "type": "uint256"
            }
          ],
          "internalType": "struct InfoGetter.OracleServerInfo",
          "name": "oracleServerInfo",
          "type": "tuple"
        }
      ],
      "stateMutability": "view",
      "type": "function",
      "constant": true
    }
  ],
  "bytecode": "0x608060405234801561001057600080fd5b50611b40806100206000396000f3fe608060405234801561001057600080fd5b50600436106100885760003560e01c8063ad314b2e1161005b578063ad314b2e1461010c578063b6e083301461012c578063c4d66de814610141578063dc8990e11461015457610088565b8063072b89d81461008d5780630c340a24146100b657806364911422146100cb5780636a324068146100eb575b600080fd5b6100a061009b3660046114ca565b610167565b6040516100ad91906117e4565b60405180910390f35b6100be61038c565b6040516100ad91906117d0565b6100de6100d9366004611441565b61039b565b6040516100ad9190611994565b6100fe6100f936600461145d565b610706565b6040516100ad92919061183c565b61011f61011a36600461149d565b610a43565b6040516100ad9190611a22565b61013f61013a366004611441565b610c8f565b005b61013f61014f366004611441565b610d88565b61013f6101623660046113c5565b610e15565b60606000846001600160a01b03166363adb1a26040518163ffffffff1660e01b815260040160206040518083038186803b1580156101a457600080fd5b505afa1580156101b8573d6000803e3d6000fd5b505050506040513d601f19601f820116820180604052506101dc919081019061137e565b9050808311806101ea575082155b156101f3578092505b828411156101ff578293505b60408051858503808252602080820283010190925281801561023b57816020015b6102286111be565b8152602001906001900390816102205790505b50925060005b818110156103825760405163df1810f960e01b81526000906001600160a01b0389169063df1810f99061027a90858b01906004016118fa565b60206040518083038186803b15801561029257600080fd5b505afa1580156102a6573d6000803e3d6000fd5b505050506040513d601f19601f820116820180604052506102ca919081019061137e565b6040805180820191829052630d2020dd60e01b909152909150806001600160a01b038a16630d2020dd61030085604485016118fa565b60206040518083038186803b15801561031857600080fd5b505afa15801561032c573d6000803e3d6000fd5b505050506040513d601f19601f82011682018060405250610350919081019061133f565b6001600160a01b031681526020018281525085838151811061036e57fe5b602090810291909101015250600101610241565b5050509392505050565b6033546001600160a01b031681565b6103a36111d5565b6000806000806060866001600160a01b03166384bc76a66040518163ffffffff1660e01b815260040160006040518083038186803b1580156103e457600080fd5b505afa1580156103f8573d6000803e3d6000fd5b505050506040513d6000823e601f3d908101601f1916820160405261042091908101906115c1565b9450945094509450945060008151905060608160405190808252806020026020018201604052801561046c57816020015b61045961122b565b8152602001906001900390816104515790505b50905060005b8281101561055c57600084828151811061048857fe5b602002602001015190506000808c6001600160a01b0316638458c1dd846040518263ffffffff1660e01b81526004016104c191906117d0565b60606040518083038186803b1580156104d957600080fd5b505afa1580156104ed573d6000803e3d6000fd5b505050506040513d601f19601f820116820180604052506105119190810190611594565b50915091506040518060600160405280838152602001828152602001846001600160a01b031681525085858151811061054657fe5b6020908102919091010152505050600101610472565b506000896001600160a01b031663cc53a0056040518163ffffffff1660e01b815260040160206040518083038186803b15801561059857600080fd5b505afa1580156105ac573d6000803e3d6000fd5b505050506040513d601f19601f820116820180604052506105d0919081019061137e565b9050604051806101400160405280898152602001888152602001878152602001868152602001838152602001438152602001828152602001824081526020018b6001600160a01b0316639a5b37816040518163ffffffff1660e01b815260040160206040518083038186803b15801561064857600080fd5b505afa15801561065c573d6000803e3d6000fd5b505050506040513d601f19601f82011682018060405250610680919081019061137e565b81526020018b6001600160a01b031663bb0d18bc6040518163ffffffff1660e01b815260040160206040518083038186803b1580156106be57600080fd5b505afa1580156106d2573d6000803e3d6000fd5b505050506040513d601f19601f820116820180604052506106f6919081019061137e565b90529a9950505050505050505050565b60606000806001600160a01b03851661078d57856001600160a01b031663bfbf602e6040518163ffffffff1660e01b815260040160206040518083038186803b15801561075257600080fd5b505afa158015610766573d6000803e3d6000fd5b505050506040513d601f19601f8201168201806040525061078a919081019061133f565b90505b836040519080825280602002602001820160405280156107c757816020015b6107b4611255565b8152602001906001900390816107ac5790505b50925060005b6001600160a01b038216158015906107e457508481105b15610a36576060600080896001600160a01b031663949394fe866040518263ffffffff1660e01b815260040161081a91906117d0565b60006040518083038186803b15801561083257600080fd5b505afa158015610846573d6000803e3d6000fd5b505050506040513d6000823e601f3d908101601f1916820160405261086e91908101906114fe565b9250925092506040518060c001604052808381526020018b6001600160a01b031663fc0c546a6040518163ffffffff1660e01b815260040160206040518083038186803b1580156108be57600080fd5b505afa1580156108d2573d6000803e3d6000fd5b505050506040513d601f19601f820116820180604052506108f6919081019061133f565b6001600160a01b03166370a08231886040518263ffffffff1660e01b815260040161092191906117d0565b60206040518083038186803b15801561093957600080fd5b505afa15801561094d573d6000803e3d6000fd5b505050506040513d601f19601f82011682018060405250610971919081019061137e565b81526001600160a01b038088168031602084015260408301528316606082015260800184905287518890869081106109a557fe5b6020908102919091010152505060405163d92779cf60e01b81526001600160a01b038916915063d92779cf906109df9085906004016117d0565b60206040518083038186803b1580156109f757600080fd5b505afa158015610a0b573d6000803e3d6000fd5b505050506040513d601f19601f82011682018060405250610a2f919081019061133f565b91506107cd565b5080915050935093915050565b610a4b61129d565b6000826001600160a01b031663cc53a0056040518163ffffffff1660e01b815260040160206040518083038186803b158015610a8657600080fd5b505afa158015610a9a573d6000803e3d6000fd5b505050506040513d601f19601f82011682018060405250610abe919081019061137e565b90506000836001600160a01b03166359e02dd76040518163ffffffff1660e01b8152600401604080518083038186803b158015610afa57600080fd5b505afa158015610b0e573d6000803e3d6000fd5b505050506040513d601f19601f82011682018060405250610b329190810190611396565b5090506000806000806060886001600160a01b03166384bc76a66040518163ffffffff1660e01b815260040160006040518083038186803b158015610b7657600080fd5b505afa158015610b8a573d6000803e3d6000fd5b505050506040513d6000823e601f3d908101601f19168201604052610bb291908101906115c1565b94509450945094509450604051806101400160405280868152602001858152602001848152602001838152602001610beb8c8c85610f96565b81526020018760001c8152602001438152602001888152602001884081526020018a6001600160a01b0316639a5b37816040518163ffffffff1660e01b815260040160206040518083038186803b158015610c4557600080fd5b505afa158015610c59573d6000803e3d6000fd5b505050506040513d601f19601f82011682018060405250610c7d919081019061137e565b90529750505050505050505b92915050565b60335460405163d994d6d560e01b81526001600160a01b039091169063d994d6d590610cbf9033906004016117d0565b60206040518083038186803b158015610cd757600080fd5b505afa158015610ceb573d6000803e3d6000fd5b505050506040513d601f19601f82011682018060405250610d0f9190810190611362565b604051806040016040528060168152602001753737ba2fb0baba3437b934bd32b22fb1b430b733b2b960511b81525090610d655760405162461bcd60e51b8152600401610d5c9190611903565b60405180910390fd5b50603380546001600160a01b0319166001600160a01b0392909216919091179055565b600054610100900460ff1680610da15750610da1611196565b80610daf575060005460ff16155b610dcb5760405162461bcd60e51b8152600401610d5c90611916565b600054610100900460ff16158015610df6576000805460ff1961ff0019909116610100171660011790555b610dff8261119c565b8015610e11576000805461ff00191690555b5050565b60335460405163d994d6d560e01b81526001600160a01b039091169063d994d6d590610e459033906004016117d0565b60206040518083038186803b158015610e5d57600080fd5b505afa158015610e71573d6000803e3d6000fd5b505050506040513d601f19601f82011682018060405250610e959190810190611362565b604051806040016040528060168152602001753737ba2fb0baba3437b934bd32b22fb1b430b733b2b960511b81525090610ee25760405162461bcd60e51b8152600401610d5c9190611903565b5060405133906000908290610efb908590602401611903565b60408051601f198184030181529181526020820180516001600160e01b03166350b113e560e11b17905251610f3091906117b4565b600060405180830381855af49150503d8060008114610f6b576040519150601f19603f3d011682016040523d82523d6000602084013e610f70565b606091505b5050905080610f915760405162461bcd60e51b8152600401610d5c90611964565b505050565b606060008251905080604051908082528060200260200182016040528015610fd857816020015b610fc56112f3565b815260200190600190039081610fbd5790505b50915060005b8181101561118d576060600080886001600160a01b031663949394fe88868151811061100657fe5b60200260200101516040518263ffffffff1660e01b815260040161102a91906117d0565b60006040518083038186803b15801561104257600080fd5b505afa158015611056573d6000803e3d6000fd5b505050506040513d6000823e601f3d908101601f1916820160405261107e91908101906114fe565b9250925092506000886001600160a01b0316638458c1dd8987815181106110a157fe5b60200260200101516040518263ffffffff1660e01b81526004016110c591906117d0565b60606040518083038186803b1580156110dd57600080fd5b505afa1580156110f1573d6000803e3d6000fd5b505050506040513d601f19601f820116820180604052506111159190810190611594565b505090506040518060a0016040528084815260200182815260200189878151811061113c57fe5b60200260200101516001600160a01b03168152602001836001600160a01b031681526020018581525087868151811061117157fe5b6020026020010181905250505050508080600101915050610fde565b50509392505050565b303b1590565b603380546001600160a01b0319166001600160a01b0392909216919091179055565b604080518082019091526000808252602082015290565b604051806101400160405280600081526020016000815260200160008152602001600081526020016060815260200160008152602001600081526020016000801916815260200160008152602001600081525090565b6040518060600160405280600081526020016000815260200160006001600160a01b031681525090565b6040518060c0016040528060008152602001600081526020016000815260200160006001600160a01b0316815260200160006001600160a01b03168152602001606081525090565b604051806101400160405280600081526020016000815260200160008152602001600081526020016060815260200160008152602001600081526020016000815260200160008019168152602001600081525090565b6040518060a00160405280600081526020016000815260200160006001600160a01b0316815260200160006001600160a01b03168152602001606081525090565b8051610c8981611ae4565b600060208284031215611350578081fd5b815161135b81611ae4565b9392505050565b600060208284031215611373578081fd5b815161135b81611afc565b60006020828403121561138f578081fd5b5051919050565b600080604083850312156113a8578081fd5b8251915060208301516113ba81611afc565b809150509250929050565b6000602082840312156113d6578081fd5b813567ffffffffffffffff8111156113ec578182fd5b80830184601f8201126113fd578283fd5b8035915061141261140d83611a90565b611a69565b828152856020848401011115611426578384fd5b82602083016020830137918201602001929092529392505050565b600060208284031215611452578081fd5b813561135b81611ae4565b600080600060608486031215611471578081fd5b833561147c81611ae4565b9250602084013561148c81611ae4565b929592945050506040919091013590565b600080604083850312156114af578182fd5b82356114ba81611ae4565b915060208301356113ba81611ae4565b6000806000606084860312156114de578283fd5b83356114e981611ae4565b95602085013595506040909401359392505050565b600080600060608486031215611512578283fd5b835167ffffffffffffffff811115611528578384fd5b80850186601f820112611539578485fd5b8051915061154961140d83611a90565b82815287602084840101111561155d578586fd5b61156e836020830160208501611ab4565b80955050505060208401519150604084015161158981611ae4565b809150509250925092565b6000806000606084860312156115a8578081fd5b8351925060208401519150604084015161158981611afc565b600080600080600060a086880312156115d8578283fd5b8551945060208087015194506040870151935060608701519250608087015167ffffffffffffffff8082111561160c578384fd5b8189018a601f82011261161d578485fd5b805192508183111561162d578485fd5b838302915061163d848301611a69565b8381528481019082860184840187018e1015611657578788fd5b8794505b858510156116815761166d8e82611334565b83526001949094019391860191860161165b565b508096505050505050509295509295909350565b6000815180845260208401935060208301825b828110156116e857815180518752602080820151818901526040918201516001600160a01b031691880191909152606090960195909101906001016116a8565b5093949350505050565b60008282518085526020808601955080818302840101818601855b8481101561177b57601f198684030189528151805184528481015185850152604081015160018060a01b0380821660408701528060608401511660608701525050608081015160a0608086015261176760a0860182611788565b9a86019a945050509083019060010161170d565b5090979650505050505050565b600081518084526117a0816020860160208601611ab4565b601f01601f19169290920160200192915050565b600082516117c6818460208701611ab4565b9190910192915050565b6001600160a01b0391909116815260200190565b6020808252825182820181905260009190848201906040850190845b8181101561183057835180516001600160a01b031684528501518584015292840192604090920191600101611800565b50909695505050505050565b60006040820160408352808551808352606085019150602092506060838202860101838801855b838110156118db57605f19888403018552815180518452868101518785015260408101516040850152606081015160018060a01b038082166060870152806080840151166080870152505060a081015160c060a08601526118c760c0860182611788565b968801969450505090850190600101611863565b50506001600160a01b0396909616949092019390935250919392505050565b90815260200190565b60006020825261135b6020830184611788565b6020808252602e908201527f436f6e747261637420696e7374616e63652068617320616c726561647920626560408201526d195b881a5b9a5d1a585b1a5e995960921b606082015260800190565b602080825260169082015275115c9c9bdc881a5b8819195b1959d85d194818d85b1b60521b604082015260600190565b6000602082528251602083015260208301516040830152604083015160608301526060830151608083015260808301516101408060a08501526119db610160850183611695565b60a086015160c086015260c086015160e086015260e08601519250610100838187015280870151935050610120838187015280870151838701525080935050505092915050565b6000602082528251602083015260208301516040830152604083015160608301526060830151608083015260808301516101408060a08501526119db6101608501836116f2565b60405181810167ffffffffffffffff81118282101715611a8857600080fd5b604052919050565b600067ffffffffffffffff821115611aa6578081fd5b50601f01601f191660200190565b60005b83811015611acf578181015183820152602001611ab7565b83811115611ade576000848401525b50505050565b6001600160a01b0381168114611af957600080fd5b50565b8015158114611af957600080fdfea2646970667358221220a13195923ff74b1ff5b8d3241c42a24c5e644c1d0c3bc8e017b8620da5a1bd4e64736f6c63430006000033",
  "source": "pragma solidity 0.6.0;\npragma experimental ABIEncoderV2;\n\nimport {Initializable} from  \"./openzeppelin/Initializable.sol\";\nimport {CoinPairPrice} from \"./CoinPairPrice.sol\";\nimport {OracleManager} from \"./OracleManager.sol\";\nimport {GovernedAbstract} from \"./libs/GovernedAbstract.sol\";\nimport {IGovernor} from \"./moc-gobernanza/Governance/IGovernor.sol\";\nimport {Governed} from \"./moc-gobernanza/Governance/Governed.sol\";\n\n/// @title This contract provides an interface for feeding prices from oracles, and\n///        get the current price. One contract must be instanced per supported coin pair,\n///        and registered through OracleManager global contract.\ncontract InfoGetter is Initializable, GovernedAbstract {\n\n    struct FullOracleRoundInfo {\n        uint256 stake;\n        uint256 points;\n        address addr;\n        address owner;\n        string name;\n    }\n\n    struct OracleServerInfo {\n        uint256 round;\n        uint256 startBlock;\n        uint256 lockPeriodEndBlock;\n        uint256 totalPoints;\n        FullOracleRoundInfo[] info;\n        uint256 price;\n        uint256 currentBlock;\n        uint256 lastPubBlock;\n        bytes32 lastPubBlockHash;\n        uint256 validPricePeriodInBlocks;\n    }\n\n\n    struct ManagerUIOracleInfo {\n        uint256 stake;\n        uint256 mocsBalance;\n        uint256 basecoinBalance;\n        address addr;\n        address owner;\n        string name;\n    }\n\n    struct ManagerUICoinPairInfo {\n        address addr;\n        bytes32 coinPair;\n    }\n\n    struct CoinPairUIOracleRoundInfo {\n        uint256 points;\n        uint256 selectedInRound;\n        address addr;\n    }\n\n    struct CoinPairPriceUIInfo {\n        uint256 round;\n        uint256 startBlock;\n        uint256 lockPeriodEndBlock;\n        uint256 totalPoints;\n        CoinPairUIOracleRoundInfo[] info;\n        uint256 currentBlock;\n        uint256 lastPubBlock;\n        bytes32 lastPubBlockHash;\n        uint256 validPricePeriodInBlocks;\n        uint256 availableRewards;\n    }\n\n    /**\n      @notice Initialize the contract with the basic settings\n      @dev This initialize replaces the constructor but it is not called automatically.\n      It is necessary because of the upgradeability of the contracts\n      @param _governor Governor address\n     */\n    function initialize(IGovernor _governor) external initializer {\n        Governed._initialize(_governor);\n    }\n\n\n\n    /**\n        Return all the information needed by the ui (one call, to avoid a lot of rpc)\n\n        @param _coinPairPrice coinPairPrice contract\n    */\n    function getCoinPairUIInfo(CoinPairPrice _coinPairPrice)\n    external view returns (CoinPairPriceUIInfo memory coinPairPriceUIInfo) {\n        (uint256 round,uint256 startBlock, uint256 lockPeriodEndBlock,uint256 totalPoints, address[] memory selectedOracles) = _coinPairPrice.getRoundInfo();\n        uint256 len = selectedOracles.length;\n        CoinPairUIOracleRoundInfo[] memory info = new CoinPairUIOracleRoundInfo[](len);\n        for (uint i = 0; i < len; i++) {\n            address addr = selectedOracles[i];\n            (uint points, uint256 selectedInRound,) = _coinPairPrice.getOracleRoundInfo(addr);\n            info[i] = CoinPairUIOracleRoundInfo(points, selectedInRound, addr);\n        }\n        uint256 lastPublicationBlock = _coinPairPrice.lastPublicationBlock();\n        return CoinPairPriceUIInfo(round, startBlock, lockPeriodEndBlock, totalPoints,\n            info, block.number, lastPublicationBlock, blockhash(lastPublicationBlock),\n            _coinPairPrice.validPricePeriodInBlocks(), _coinPairPrice.getAvailableRewardFees());\n    }\n\n    /**\n        Return all the information needed by the ui (one call, to avoid a lot of rpc)\n\n        @param _oracleManager oracleManager contract\n        @param _offset take from this offset\n        @param _limit take to this limit, limit == 0 => take all\n    */\n    function getManagerUICoinPairInfo(OracleManager _oracleManager, uint _offset, uint _limit)\n    external view returns (ManagerUICoinPairInfo[] memory info) {\n        uint total = _oracleManager.getCoinPairCount();\n        if (_limit > total || _limit == 0) {\n            _limit = total;\n        }\n        if (_offset > _limit) {\n            _offset = _limit;\n        }\n        uint cant = (_limit - _offset);\n        info = new ManagerUICoinPairInfo[](cant);\n        for (uint256 i = 0; i < cant; i++) {\n            bytes32 cp = _oracleManager.getCoinPairAtIndex(i + _offset);\n            info[i] = ManagerUICoinPairInfo(_oracleManager.getContractAddress(cp), cp);\n        }\n    }\n\n    /**\n        Return all the information needed by the ui (one call, to avoid a lot of rpc)\n\n        @param _oracleManager oracleManager contract\n        @param _prevEntry The address the entry to start iterating.\n        @param _cant Number of items to return.\n    */\n    function getManagerUIOracleInfo(OracleManager _oracleManager, address _prevEntry, uint _cant)\n    external view returns (ManagerUIOracleInfo[] memory info, address nextEntry) {\n        address addr;\n        if (_prevEntry == address(0)) {\n            addr = _oracleManager.getRegisteredOracleHead();\n        }\n\n        info = new ManagerUIOracleInfo[](_cant);\n        for (uint256 i = 0; addr != address(0) && i < _cant; addr = _oracleManager.getRegisteredOracleNext(addr)) {\n            (string memory name, uint stake, address owner) = _oracleManager.getOracleRegistrationInfo(addr);\n            info[i] = ManagerUIOracleInfo(stake, _oracleManager.token().balanceOf(addr), addr.balance, addr, owner, name);\n        }\n        nextEntry = addr;\n    }\n\n    /**\n        Return all the information needed by the oracle server (one call, to avoid a lot of rpc)\n\n        @param _oracleManager oracleManager contract\n        @param _coinPairPrice coinPairPrice contract\n    */\n    function getOracleServerInfo(OracleManager _oracleManager, CoinPairPrice _coinPairPrice)\n    external view returns (OracleServerInfo memory oracleServerInfo) {\n        uint256 lastPubBlock = _coinPairPrice.lastPublicationBlock();\n        (bytes32 currentPrice,) = _coinPairPrice.peek();\n\n        (uint256 round, uint256  startBlock, uint256  lockPeriodEndBlock, uint256  totalPoints, address[] memory selectedOracles) = _coinPairPrice.getRoundInfo();\n\n        return OracleServerInfo(round, startBlock, lockPeriodEndBlock, totalPoints,\n            _createFullRoundInfo(_oracleManager, _coinPairPrice, selectedOracles),\n            uint256(currentPrice), block.number, lastPubBlock, blockhash(lastPubBlock), _coinPairPrice.validPricePeriodInBlocks());\n    }\n\n    /**\n        Create the FullOracleRoundInfo array from slected oracles\n        @param _oracleManager oracleManager contract\n        @param _coinPairPrice coinPairPrice contract\n        @param _selectedOracles selected oracles addresses\n    */\n    function _createFullRoundInfo(OracleManager _oracleManager, CoinPairPrice _coinPairPrice,\n        address[] memory _selectedOracles) private view returns (FullOracleRoundInfo[] memory info)\n {\n        uint256 len = _selectedOracles.length;\n        info = new FullOracleRoundInfo[](len);\n        for (uint i = 0; i < len; i++) {\n            (string memory name, uint stake, address owner) = _oracleManager.getOracleRegistrationInfo(_selectedOracles[i]);\n            (uint points,,) = _coinPairPrice.getOracleRoundInfo(_selectedOracles[i]);\n            info[i] = FullOracleRoundInfo(\n                stake,\n                points,\n                _selectedOracles[i],\n                owner,\n                name);\n        }\n        return info;\n    }\n}\n",
  "sourcePath": "/home/adji/Desktop/work/coinfabrik/OMoC-Decentralized-Oracle/contracts/contracts/InfoGetter.sol",
  "compiler": {
    "name": "solc",
    "version": "0.6.0+commit.26b70077.Emscripten.clang"
  },
  "schemaVersion": "3.2.0",
  "updatedAt": "2020-06-29T22:06:08.770Z",
  "networkType": "ethereum",
  "devdoc": {
    "methods": {
      "changeIGovernor(address)": {
        "params": {
          "newIGovernor": "New governor address"
        }
      },
      "getCoinPairUIInfo(address)": {
        "params": {
          "_coinPairPrice": "coinPairPrice contract"
        }
      },
      "getManagerUICoinPairInfo(address,uint256,uint256)": {
        "params": {
          "_limit": "take to this limit, limit == 0 => take all",
          "_offset": "take from this offset",
          "_oracleManager": "oracleManager contract"
        }
      },
      "getManagerUIOracleInfo(address,address,uint256)": {
        "params": {
          "_cant": "Number of items to return.",
          "_oracleManager": "oracleManager contract",
          "_prevEntry": "The address the entry to start iterating."
        }
      },
      "getOracleServerInfo(address,address)": {
        "params": {
          "_coinPairPrice": "coinPairPrice contract",
          "_oracleManager": "oracleManager contract"
        }
      },
      "initialize(address)": {
        "details": "This initialize replaces the constructor but it is not called automatically. It is necessary because of the upgradeability of the contracts",
        "params": {
          "_governor": "Governor address"
        }
      }
    },
    "title": "This contract provides an interface for feeding prices from oracles, and        get the current price. One contract must be instanced per supported coin pair,        and registered through OracleManager global contract."
  },
  "userdoc": {
    "methods": {
      "changeIGovernor(address)": {
        "notice": "Change the contract's governor. Should be called through the old governance system"
      },
      "getCoinPairUIInfo(address)": {
        "notice": "Return all the information needed by the ui (one call, to avoid a lot of rpc)"
      },
      "getManagerUICoinPairInfo(address,uint256,uint256)": {
        "notice": "Return all the information needed by the ui (one call, to avoid a lot of rpc)"
      },
      "getManagerUIOracleInfo(address,address,uint256)": {
        "notice": "Return all the information needed by the ui (one call, to avoid a lot of rpc)"
      },
      "getOracleServerInfo(address,address)": {
        "notice": "Return all the information needed by the oracle server (one call, to avoid a lot of rpc)"
      },
      "initialize(address)": {
        "notice": "Initialize the contract with the basic settings"
      }
    }
  }
}