{
  "contractName": "Migrations",
  "abi": [
    {
      "inputs": [],
      "stateMutability": "nonpayable",
      "type": "constructor"
    },
    {
      "inputs": [],
      "name": "lastCompletedMigration",
      "outputs": [
        {
          "internalType": "uint256",
          "name": "",
          "type": "uint256"
        }
      ],
      "stateMutability": "view",
      "type": "function",
      "constant": true
    },
    {
      "inputs": [],
      "name": "owner",
      "outputs": [
        {
          "internalType": "address",
          "name": "",
          "type": "address"
        }
      ],
      "stateMutability": "view",
      "type": "function",
      "constant": true
    },
    {
      "inputs": [
        {
          "internalType": "uint256",
          "name": "completed",
          "type": "uint256"
        }
      ],
      "name": "setCompleted",
      "outputs": [],
      "stateMutability": "nonpayable",
      "type": "function"
    }
  ],
  "bytecode": "0x608060405234801561001057600080fd5b50600080546001600160a01b0319163317905560fd806100316000396000f3fe6080604052348015600f57600080fd5b5060043610603c5760003560e01c80638da5cb5b146041578063fbdbad3c146063578063fdacd57614607b575b600080fd5b60476097565b604080516001600160a01b039092168252519081900360200190f35b606960a6565b60408051918252519081900360200190f35b609560048036036020811015608f57600080fd5b503560ac565b005b6000546001600160a01b031681565b60015481565b6000546001600160a01b031633141560c45760018190555b5056fea2646970667358221220d68ae04fa53fe29a4ac11b05db8600051c76e23227896ea5fc9cfa93c98ea6b164736f6c634300060c0033",
  "immutableReferences": {},
  "source": "// SPDX-License-Identifier: MIT\npragma solidity 0.6.12;\n\ncontract Migrations {\n    address public owner;\n    uint256 public lastCompletedMigration;\n\n    constructor() public {\n        owner = msg.sender;\n    }\n\n    modifier restricted() {\n        if (msg.sender == owner) _;\n    }\n\n    function setCompleted(uint256 completed) public restricted {\n        lastCompletedMigration = completed;\n    }\n}\n",
  "sourcePath": "/home/adji/Desktop/work/coinfabrik/moc-shared/contracts/Migrations.sol",
  "compiler": {
    "name": "solc",
    "version": "0.6.12+commit.27d51765.Emscripten.clang"
  },
  "schemaVersion": "3.2.5",
  "updatedAt": "2020-10-02T00:00:28.413Z",
  "networkType": "ethereum",
  "devdoc": {
    "kind": "dev",
    "methods": {},
    "version": 1
  },
  "userdoc": {
    "kind": "user",
    "methods": {},
    "version": 1
  }
}