{
  "contractName": "MockGovernor",
  "abi": [
    {
      "inputs": [
        {
          "internalType": "address",
          "name": "_changer",
          "type": "address"
        }
      ],
      "stateMutability": "nonpayable",
      "type": "constructor"
    },
    {
      "inputs": [],
      "name": "changer",
      "outputs": [
        {
          "internalType": "address",
          "name": "",
          "type": "address"
        }
      ],
      "stateMutability": "view",
      "type": "function"
    },
    {
      "inputs": [
        {
          "internalType": "contract ChangeContract",
          "name": "",
          "type": "address"
        }
      ],
      "name": "executeChange",
      "outputs": [],
      "stateMutability": "nonpayable",
      "type": "function"
    },
    {
      "inputs": [
        {
          "internalType": "address",
          "name": "_changer",
          "type": "address"
        }
      ],
      "name": "isAuthorizedChanger",
      "outputs": [
        {
          "internalType": "bool",
          "name": "",
          "type": "bool"
        }
      ],
      "stateMutability": "view",
      "type": "function"
    }
  ],
  "bytecode": "0x608060405234801561001057600080fd5b506040516102103803806102108339818101604052602081101561003357600080fd5b5051600080546001600160a01b039092166001600160a01b03199092169190911790556101ab806100656000396000f3fe608060405234801561001057600080fd5b50600436106100415760003560e01c806311b0ea16146100465780638c777e821461006a578063d994d6d514610092575b600080fd5b61004e6100cc565b604080516001600160a01b039092168252519081900360200190f35b6100906004803603602081101561008057600080fd5b50356001600160a01b03166100db565b005b6100b8600480360360208110156100a857600080fd5b50356001600160a01b0316610118565b604080519115158252519081900360200190f35b6000546001600160a01b031681565b6040805162461bcd60e51b815260206004820152600d60248201526c155b9a5b5c1b195b595b9d1959609a1b604482015290519081900360640190fd5b600080546001600160a01b0383811691161461016d576040805162461bcd60e51b815260206004820152600f60248201526e24b73b30b634b21031b430b733b2b960891b604482015290519081900360640190fd5b50600191905056fea2646970667358221220079fed2b13a87237f4a514e8d90b1c8cbc3eb54e718b15ca2143a6d6424b6b7a64736f6c634300060c0033",
  "immutableReferences": {},
  "source": "// SPDX-License-Identifier: UNLICENSED\npragma solidity ^0.6.0;\n\nimport {ChangeContract} from \"../moc-governance/Governance/ChangeContract.sol\";\nimport {IGovernor} from \"../moc-governance/Governance/IGovernor.sol\";\n\n/**\n  @title MockGovernor\n  @notice This contract is not intended to be used in a production system\n          It was designed to be using in a testing environment only\n          A mock governor that let any address do anything.\n  */\ncontract MockGovernor is IGovernor {\n    address public changer;\n\n    constructor(address _changer) public {\n        changer = _changer;\n    }\n\n    /**\n      @notice Function to be called to make the changes in changeContract\n     */\n    function executeChange(ChangeContract) external override {\n        require(false, \"Unimplemented\");\n    }\n\n    /**\n      @notice Returns true if the _changer address is currently authorized to make\n      changes within the system\n      @param _changer Address of the contract that will be tested\n     */\n    function isAuthorizedChanger(address _changer) external override view returns (bool) {\n        require(changer == _changer, \"Invalid changer\");\n        return true;\n    }\n}\n",
  "sourcePath": "/home/adji/Desktop/work/coinfabrik/moc-shared/contracts/testing_mocks/MockGovernor.sol",
  "compiler": {
    "name": "solc",
    "version": "0.6.12+commit.27d51765.Emscripten.clang"
  },
  "schemaVersion": "3.2.5",
  "updatedAt": "2020-10-01T22:39:15.400Z",
  "devdoc": {
    "kind": "dev",
    "methods": {
      "isAuthorizedChanger(address)": {
        "params": {
          "_changer": "Address of the contract that will be tested"
        }
      }
    },
    "title": "MockGovernor",
    "version": 1
  },
  "userdoc": {
    "kind": "user",
    "methods": {
      "executeChange(address)": {
        "notice": "Function to be called to make the changes in changeContract"
      },
      "isAuthorizedChanger(address)": {
        "notice": "Returns true if the _changer address is currently authorized to make changes within the system"
      }
    },
    "notice": "This contract is not intended to be used in a production system It was designed to be using in a testing environment only A mock governor that let any address do anything.",
    "version": 1
  }
}