{
  "contractName": "MockIPriceProvider",
  "abi": [
    {
      "inputs": [
        {
          "internalType": "uint256",
          "name": "_price",
          "type": "uint256"
        },
        {
          "internalType": "bool",
          "name": "_fail",
          "type": "bool"
        }
      ],
      "stateMutability": "nonpayable",
      "type": "constructor"
    },
    {
      "inputs": [],
      "name": "fail",
      "outputs": [
        {
          "internalType": "bool",
          "name": "",
          "type": "bool"
        }
      ],
      "stateMutability": "view",
      "type": "function"
    },
    {
      "inputs": [],
      "name": "price",
      "outputs": [
        {
          "internalType": "bytes32",
          "name": "",
          "type": "bytes32"
        }
      ],
      "stateMutability": "view",
      "type": "function"
    },
    {
      "inputs": [],
      "name": "peek",
      "outputs": [
        {
          "internalType": "bytes32",
          "name": "",
          "type": "bytes32"
        },
        {
          "internalType": "bool",
          "name": "",
          "type": "bool"
        }
      ],
      "stateMutability": "view",
      "type": "function"
    }
  ],
  "bytecode": "0x608060405234801561001057600080fd5b506040516101453803806101458339818101604052604081101561003357600080fd5b50805160209091015160009182556001805460ff191691151591909117905560e490819061006190396000f3fe6080604052348015600f57600080fd5b5060043610603c5760003560e01c806359e02dd7146041578063a035b1fe146060578063a9cc4718146078575b600080fd5b60476092565b6040805192835290151560208301528051918290030190f35b6066609f565b60408051918252519081900360200190f35b607e60a5565b604080519115158252519081900360200190f35b60005460015460ff169091565b60005481565b60015460ff168156fea26469706673582212209190adb7169681835e8266ffc0f5f1a979023488d685d7110fc2e6958f5a6b4a64736f6c63430006000033",
  "source": "pragma solidity ^0.6.0;\n\nimport \"../libs/IPriceProvider.sol\";\n\n/**\n  @title MockIPriceProvider\n  @notice This contract is not intended to be used in a production system\n          It was designed to be using in a testing environment only\n          A mock ipriceprovider that return a fixed price and fail status.\n  */\ncontract MockIPriceProvider is IPriceProvider {\n\n    bytes32 public price;\n    bool public fail;\n\n    constructor (uint256 _price, bool _fail) public {\n        price = bytes32(_price);\n        fail = _fail;\n    }\n\n    function peek() external override view returns (bytes32, bool) {\n        return (price, fail);\n    }\n}\n",
  "sourcePath": "/home/adji/Desktop/work/coinfabrik/OMoC-Decentralized-Oracle/contracts/contracts/testing_mocks/MockIPriceProvider.sol",
  "compiler": {
    "name": "solc",
    "version": "0.6.0+commit.26b70077.Emscripten.clang"
  },
  "schemaVersion": "3.2.0",
  "updatedAt": "2020-06-29T21:30:43.192Z",
  "devdoc": {
    "methods": {},
    "title": "MockIPriceProvider"
  },
  "userdoc": {
    "methods": {},
    "notice": "This contract is not intended to be used in a production system It was designed to be using in a testing environment only A mock ipriceprovider that return a fixed price and fail status."
  }
}