{
  "contractName": "MocRegistryInitChange",
  "abi": [
    {
      "inputs": [
        {
          "internalType": "contract EternalStorageGobernanza",
          "name": "_registry",
          "type": "address"
        },
        {
          "internalType": "address",
          "name": "_oracle_manager",
          "type": "address"
        },
        {
          "internalType": "address",
          "name": "_supporters_vested",
          "type": "address"
        },
        {
          "internalType": "address",
          "name": "_supporters_whitelisted",
          "type": "address"
        },
        {
          "internalType": "address",
          "name": "_info_getter",
          "type": "address"
        }
      ],
      "stateMutability": "nonpayable",
      "type": "constructor"
    },
    {
      "inputs": [],
      "name": "info_getter",
      "outputs": [
        {
          "internalType": "address",
          "name": "",
          "type": "address"
        }
      ],
      "stateMutability": "view",
      "type": "function",
      "constant": true
    },
    {
      "inputs": [],
      "name": "oracle_manager",
      "outputs": [
        {
          "internalType": "address",
          "name": "",
          "type": "address"
        }
      ],
      "stateMutability": "view",
      "type": "function",
      "constant": true
    },
    {
      "inputs": [],
      "name": "registry",
      "outputs": [
        {
          "internalType": "contract EternalStorageGobernanza",
          "name": "",
          "type": "address"
        }
      ],
      "stateMutability": "view",
      "type": "function",
      "constant": true
    },
    {
      "inputs": [],
      "name": "supporters_vested",
      "outputs": [
        {
          "internalType": "address",
          "name": "",
          "type": "address"
        }
      ],
      "stateMutability": "view",
      "type": "function",
      "constant": true
    },
    {
      "inputs": [],
      "name": "supporters_whitelisted",
      "outputs": [
        {
          "internalType": "address",
          "name": "",
          "type": "address"
        }
      ],
      "stateMutability": "view",
      "type": "function",
      "constant": true
    },
    {
      "inputs": [],
      "name": "execute",
      "outputs": [],
      "stateMutability": "nonpayable",
      "type": "function"
    }
  ],
  "bytecode": "0x608060405234801561001057600080fd5b50604051611213380380611213833981810160405260a081101561003357600080fd5b508051602082015160408301516060840151608090940151600080546001600160a01b039586166001600160a01b0319918216179091556001805494861694821694909417909355600280549285169284169290921790915560038054948416948316949094179093556004805492909316911617905561115a806100b96000396000f3fe608060405234801561001057600080fd5b50600436106100625760003560e01c80630db09fb214610067578063590be8221461008b57806361461954146100935780637b1039991461009d5780639b32ad85146100a5578063f196566b146100ad575b600080fd5b61006f6100b5565b604080516001600160a01b039092168252519081900360200190f35b61006f6100c4565b61009b6100d3565b005b61006f610fb9565b61006f610fc8565b61006f610fd7565b6004546001600160a01b031681565b6001546001600160a01b031681565b6000546001600160a01b031661011b576040805162461bcd60e51b8152602060048201526008602482015267557365206f6e636560c01b604482015290519081900360640190fd5b60005460408051808201909152601381527227a920a1a622afa6a0a720a3a2a92fa0a2222960691b60208201526001600160a01b039091169063ca446dd99061016390610fe6565b600154604080516001600160e01b031960e086901b16815260048101939093526001600160a01b03909116602483015251604480830192600092919082900301818387803b1580156101b457600080fd5b505af11580156101c8573d6000803e3d6000fd5b505060005460408051808201909152601681527529aaa82827a92a22a929afab22a9aa22a22fa0a2222960511b60208201526001600160a01b03909116925063ca446dd9915061021790610fe6565b600254604080516001600160e01b031960e086901b16815260048101939093526001600160a01b03909116602483015251604480830192600092919082900301818387803b15801561026857600080fd5b505af115801561027c573d6000803e3d6000fd5b505060005460408051808201909152600f81526e29aaa82827a92a22a929afa0a2222960891b60208201526001600160a01b03909116925063ca446dd991506102c490610fe6565b600354604080516001600160e01b031960e086901b16815260048101939093526001600160a01b03909116602483015251604480830192600092919082900301818387803b15801561031557600080fd5b505af1158015610329573d6000803e3d6000fd5b505060005460408051808201909152600981526824a72327afa0a2222960b91b60208201526001600160a01b03909116925063ca446dd9915061036b90610fe6565b60048054604080516001600160e01b031960e087901b168152928301939093526001600160a01b031660248201529051604480830192600092919082900301818387803b1580156103bb57600080fd5b505af11580156103cf573d6000803e3d6000fd5b505060005460408051808201909152601781527f4f5241434c455f50524943455f46455443485f5241544500000000000000000060208201526001600160a01b039091169250639ed44022915061042590610fe6565b60056040518363ffffffff1660e01b815260040180838152602001826001600160f81b0316815260200192505050600060405180830381600087803b15801561046d57600080fd5b505af1158015610481573d6000803e3d6000fd5b505060005460408051808201909152601f81527f4f5241434c455f424c4f434b434841494e5f494e464f5f494e54455256414c0060208201526001600160a01b039091169250639ed4402291506104d790610fe6565b60036040518363ffffffff1660e01b815260040180838152602001826001600160f81b0316815260200192505050600060405180830381600087803b15801561051f57600080fd5b505af1158015610533573d6000803e3d6000fd5b5050600054604080516060810190915260238082526001600160a01b039092169350639ed44022925061056d916111026020830139610fe6565b60056040518363ffffffff1660e01b815260040180838152602001826001600160f81b0316815260200192505050600060405180830381600087803b1580156105b557600080fd5b505af11580156105c9573d6000803e3d6000fd5b505060005460408051808201909152601e81527f4f5241434c455f4d41494e5f4c4f4f505f5441534b5f494e54455256414c000060208201526001600160a01b039091169250639ed44022915061061f90610fe6565b60786040518363ffffffff1660e01b815260040180838152602001826001600160f81b0316815260200192505050600060405180830381600087803b15801561066757600080fd5b505af115801561067b573d6000803e3d6000fd5b505060005460408051808201909152601d81527f4f5241434c455f50524943455f52454a4543545f44454c54415f50435400000060208201526001600160a01b039091169250634259bac391506106d190610fe6565b604080516001600160e01b031960e085901b1681526004810192909252600560248301526001604483015251606480830192600092919082900301818387803b15801561071d57600080fd5b505af1158015610731573d6000803e3d6000fd5b5050600054604080516060810190915260228082526001600160a01b039092169350639ed44022925061076b916110bf6020830139610fe6565b60f06040518363ffffffff1660e01b815260040180838152602001826001600160f81b0316815260200192505050600060405180830381600087803b1580156107b357600080fd5b505af11580156107c7573d6000803e3d6000fd5b505060005460408051808201909152601f81527f4f5241434c455f4741544845525f5349474e41545552455f54494d454f55540060208201526001600160a01b039091169250639ed44022915061081d90610fe6565b603c6040518363ffffffff1660e01b815260040180838152602001826001600160f81b0316815260200192505050600060405180830381600087803b15801561086557600080fd5b505af1158015610879573d6000803e3d6000fd5b5050600054604080516060810190915260228082526001600160a01b039092169350639ed4402292506108b3916110766020830139610fe6565b60146040518363ffffffff1660e01b815260040180838152602001826001600160f81b0316815260200192505050600060405180830381600087803b1580156108fb57600080fd5b505af115801561090f573d6000803e3d6000fd5b50506000546040805180820190915260148152735343484544554c45525f504f4f4c5f44454c415960601b60208201526001600160a01b039091169250639ed44022915061095c90610fe6565b603c6040518363ffffffff1660e01b815260040180838152602001826001600160f81b0316815260200192505050600060405180830381600087803b1580156109a457600080fd5b505af11580156109b8573d6000803e3d6000fd5b50506000546040805180820190915260158152745343484544554c45525f524f554e445f44454c415960581b60208201526001600160a01b039091169250639ed440229150610a0690610fe6565b6107086040518363ffffffff1660e01b815260040180838152602001826001600160f81b0316815260200192505050600060405180830381600087803b158015610a4f57600080fd5b505af1158015610a63573d6000803e3d6000fd5b50506000546040805180820190915260138152724f5241434c455f50524943455f44494749545360681b60208201526001600160a01b039091169250639ed440229150610aaf90610fe6565b60126040518363ffffffff1660e01b815260040180838152602001826001600160f81b0316815260200192505050600060405180830381600087803b158015610af757600080fd5b505af1158015610b0b573d6000803e3d6000fd5b505060005460408051808201909152601081526f27a920a1a622afa8aaa2aaa2afa622a760811b60208201526001600160a01b039091169250639ed440229150610b5490610fe6565b601e6040518363ffffffff1660e01b815260040180838152602001826001600160f81b0316815260200192505050600060405180830381600087803b158015610b9c57600080fd5b505af1158015610bb0573d6000803e3d6000fd5b505060005460408051808201909152600f81526e26a2a9a9a0a3a2afab22a929a4a7a760891b60208201526001600160a01b039091169250639ed440229150610bf890610fe6565b60036040518363ffffffff1660e01b815260040180838152602001826001600160f81b0316815260200192505050600060405180830381600087803b158015610c4057600080fd5b505af1158015610c54573d6000803e3d6000fd5b50506000546040805180820190915260208082527f4f5241434c455f5354414b455f4c494d49545f4d554c5449504c494341544f52908201526001600160a01b039091169250639ed440229150610caa90610fe6565b60026040518363ffffffff1660e01b815260040180838152602001826001600160f81b0316815260200192505050600060405180830381600087803b158015610cf257600080fd5b505af1158015610d06573d6000803e3d6000fd5b505060005460408051808201909152601681527513d49050d31157d4149250d157d11153151057d410d560521b60208201526001600160a01b039091169250634259bac39150610d5590610fe6565b604080516001600160e01b031960e085901b168152600481019290925260056024830152600119604483015251606480830192600092919082900301818387803b158015610da257600080fd5b505af1158015610db6573d6000803e3d6000fd5b505060005460408051808201909152601b81527f4f5241434c455f50524943455f5055424c4953485f424c4f434b53000000000060208201526001600160a01b039091169250639ed440229150610e0c90610fe6565b60006040518363ffffffff1660e01b815260040180838152602001826001600160f81b0316815260200192505050600060405180830381600087803b158015610e5457600080fd5b505af1158015610e68573d6000803e3d6000fd5b5050600054604080516060810190915260218082526001600160a01b039092169350632e28d0849250610ea2916110e16020830139610fe6565b6040518263ffffffff1660e01b815260040180828152602001806020018281038252600581526020018064010203040560d91b81525060200192505050600060405180830381600087803b158015610ef957600080fd5b505af1158015610f0d573d6000803e3d6000fd5b5050600054604080516060810190915260278082526001600160a01b039092169350639ed440229250610f47916110986020830139610fe6565b601e6040518363ffffffff1660e01b815260040180838152602001826001600160f81b0316815260200192505050600060405180830381600087803b158015610f8f57600080fd5b505af1158015610fa3573d6000803e3d6000fd5b5050600080546001600160a01b03191690555050565b6000546001600160a01b031681565b6002546001600160a01b031681565b6003546001600160a01b031681565b60008160405160200180806c1353d0d7d3d49050d311570c57609a1b815250600d0182805190602001908083835b602083106110335780518252601f199092019160209182019101611014565b6001836020036101000a03801982511681845116808217855250505050505090500191505060405160208183030381529060405280519060200120905091905056fe4f5241434c455f4d41494e5f4558454355544f525f5441534b5f494e54455256414c4f5241434c455f545249474745525f56414c49445f5055424c49434154494f4e5f424c4f434b534f5241434c455f434f4e46494755524154494f4e5f5441534b5f494e54455256414c4f5241434c455f454e544552494e475f46414c4c4241434b535f414d4f554e54534f5241434c455f434f494e5f504149525f4c4f4f505f5441534b5f494e54455256414ca2646970667358221220c5d855ad6109ab23cd8e9b156a62b2d5918de36ddefdeee28a783a9f594e188264736f6c63430006000033",
  "source": "pragma solidity 0.6.0;\n\nimport {ChangeContract} from \"../moc-gobernanza/Governance/ChangeContract.sol\";\nimport {EternalStorageGobernanza} from \"../EternalStorageGobernanza.sol\";\n\n/**\n  @title MocRegistryInitChange\n  @notice This contract is a ChangeContract intended to initialize all the MOC registry values\n */\ncontract MocRegistryInitChange is ChangeContract {\n\n    EternalStorageGobernanza public registry;\n    address public oracle_manager;\n    address public supporters_vested;\n    address public supporters_whitelisted;\n    address public info_getter;\n\n\n    /**\n      @notice Constructor\n    */\n    constructor(EternalStorageGobernanza _registry,\n        address _oracle_manager,\n        address _supporters_vested,\n        address _supporters_whitelisted,\n        address _info_getter) public\n {\n        registry = _registry;\n        oracle_manager = _oracle_manager;\n        supporters_vested = _supporters_vested;\n        supporters_whitelisted = _supporters_whitelisted;\n        info_getter = _info_getter;\n    }\n\n    /**\n      @notice Execute the changes.\n      @dev Should be called by the governor, but this contract does not check that explicitly because it is\n      not its responsability in the current architecture\n     */\n    function execute() external override {\n        require(address(registry) != address(0), \"Use once\");\n\n        registry.setAddress(get_keccak(\"ORACLE_MANAGER_ADDR\"), oracle_manager);\n        registry.setAddress(get_keccak(\"SUPPORTERS_VESTED_ADDR\"), supporters_vested);\n        registry.setAddress(get_keccak(\"SUPPORTERS_ADDR\"), supporters_whitelisted);\n        registry.setAddress(get_keccak(\"INFO_ADDR\"), info_getter);\n\n        registry.setUint(get_keccak(\"ORACLE_PRICE_FETCH_RATE\"), 5);\n        registry.setUint(get_keccak(\"ORACLE_BLOCKCHAIN_INFO_INTERVAL\"), 3);\n        registry.setUint(get_keccak(\"ORACLE_COIN_PAIR_LOOP_TASK_INTERVAL\"), 5);\n        registry.setUint(get_keccak(\"ORACLE_MAIN_LOOP_TASK_INTERVAL\"), 120);\n        registry.setDecimal(get_keccak(\"ORACLE_PRICE_REJECT_DELTA_PCT\"), 5, 1);\n        registry.setUint(get_keccak(\"ORACLE_CONFIGURATION_TASK_INTERVAL\"), 240);\n        registry.setUint(get_keccak(\"ORACLE_GATHER_SIGNATURE_TIMEOUT\"), 60);\n        registry.setUint(get_keccak(\"ORACLE_MAIN_EXECUTOR_TASK_INTERVAL\"), 20);\n        registry.setUint(get_keccak(\"SCHEDULER_POOL_DELAY\"), 1 * 60);\n        registry.setUint(get_keccak(\"SCHEDULER_ROUND_DELAY\"), 30 * 60);\n        registry.setUint(get_keccak(\"ORACLE_PRICE_DIGITS\"), 18);\n        registry.setUint(get_keccak(\"ORACLE_QUEUE_LEN\"), 30);\n        registry.setUint(get_keccak(\"MESSAGE_VERSION\"), 3);\n        registry.setUint(get_keccak(\"ORACLE_STAKE_LIMIT_MULTIPLICATOR\"), 2);\n        registry.setDecimal(get_keccak(\"ORACLE_PRICE_DELTA_PCT\"), 5, - 2);\n        registry.setUint(get_keccak(\"ORACLE_PRICE_PUBLISH_BLOCKS\"), 0);\n        registry.setBytes(get_keccak(\"ORACLE_ENTERING_FALLBACKS_AMOUNTS\"), hex\"020406080a\");\n        registry.setUint(get_keccak(\"ORACLE_TRIGGER_VALID_PUBLICATION_BLOCKS\"), 30);\n        // usable just once!!!\n        registry = EternalStorageGobernanza(0);\n    }\n\n    function get_keccak(string memory k) internal pure returns (bytes32) {\n        return keccak256(abi.encodePacked(\"MOC_ORACLE\\\\1\\\\\", k));\n    }\n}\n",
  "sourcePath": "/home/adji/Desktop/work/coinfabrik/OMoC-Decentralized-Oracle/contracts/contracts/change/MocRegistryInitChange.sol",
  "compiler": {
    "name": "solc",
    "version": "0.6.0+commit.26b70077.Emscripten.clang"
  },
  "schemaVersion": "3.2.0",
  "updatedAt": "2020-06-29T22:06:08.779Z",
  "networkType": "ethereum",
  "devdoc": {
    "methods": {
      "execute()": {
        "details": "Should be called by the governor, but this contract does not check that explicitly because it is not its responsability in the current architecture"
      }
    },
    "title": "MocRegistryInitChange"
  },
  "userdoc": {
    "methods": {
      "constructor": "Constructor",
      "execute()": {
        "notice": "Execute the changes."
      }
    },
    "notice": "This contract is a ChangeContract intended to initialize all the MOC registry values"
  }
}