{
  "contractName": "OracleManagerPairChange",
  "abi": [
    {
      "inputs": [
        {
          "internalType": "contract OracleManager",
          "name": "_oracleManager",
          "type": "address"
        },
        {
          "internalType": "bytes32",
          "name": "_coinPair",
          "type": "bytes32"
        },
        {
          "internalType": "address",
          "name": "_contractAddr",
          "type": "address"
        }
      ],
      "stateMutability": "nonpayable",
      "type": "constructor"
    },
    {
      "inputs": [],
      "name": "coinPair",
      "outputs": [
        {
          "internalType": "bytes32",
          "name": "",
          "type": "bytes32"
        }
      ],
      "stateMutability": "view",
      "type": "function",
      "constant": true
    },
    {
      "inputs": [],
      "name": "contractAddr",
      "outputs": [
        {
          "internalType": "address",
          "name": "",
          "type": "address"
        }
      ],
      "stateMutability": "view",
      "type": "function",
      "constant": true
    },
    {
      "inputs": [],
      "name": "oracleManager",
      "outputs": [
        {
          "internalType": "contract OracleManager",
          "name": "",
          "type": "address"
        }
      ],
      "stateMutability": "view",
      "type": "function",
      "constant": true
    },
    {
      "inputs": [],
      "name": "execute",
      "outputs": [],
      "stateMutability": "nonpayable",
      "type": "function"
    }
  ],
  "bytecode": "0x608060405234801561001057600080fd5b506040516101ee3803806101ee8339818101604052606081101561003357600080fd5b5080516020820151604090920151600080546001600160a01b039384166001600160a01b03199182161790915560019390935560028054929091169190921617905561016a806100846000396000f3fe608060405234801561001057600080fd5b506004361061004c5760003560e01c806315a5d9d81461005157806334c1e5b514610075578063565d878c1461008f5780636146195414610097575b600080fd5b6100596100a1565b604080516001600160a01b039092168252519081900360200190f35b61007d6100b0565b60408051918252519081900360200190f35b6100596100b6565b61009f6100c5565b005b6002546001600160a01b031681565b60015481565b6000546001600160a01b031681565b60008054600154600254604080516347020c8f60e11b815260048101939093526001600160a01b03918216602484015251921692638e04191e9260448084019382900301818387803b15801561011a57600080fd5b505af115801561012e573d6000803e3d6000fd5b5050505056fea26469706673582212200f72b8e604e06d934f96a28ca2b04d114d8d9c32404af0e0c459d6bce6fbc67a64736f6c63430006000033",
  "source": "pragma solidity 0.6.0;\n\nimport {ChangeContract} from \"../moc-gobernanza/Governance/ChangeContract.sol\";\nimport {OracleManager} from \"../OracleManager.sol\";\n\n/**\n  @title UpgraderTemplate\n  @notice This contract is a ChangeContract intended to be used when\n  upgrading any contract upgradeable through the zos-lib upgradeability\n  system. This doesn't initialize the upgraded contract, that should be done extending\n  this one or taking it as a guide\n */\ncontract OracleManagerPairChange is ChangeContract {\n\n    OracleManager public oracleManager;\n    bytes32 public coinPair;\n    address public contractAddr;\n\n    /**\n      @notice Constructor\n      @param _oracleManager Address of oracle manager used to register the coin pair\n      @param _coinPair The coinpair to register\n      @param _contractAddr The coinpair contract implementation address\n    */\n    constructor(OracleManager _oracleManager, bytes32 _coinPair, address _contractAddr) public {\n        oracleManager = _oracleManager;\n        coinPair = _coinPair;\n        contractAddr = _contractAddr;\n    }\n\n    /**\n      @notice Execute the changes.\n      @dev Should be called by the governor, but this contract does not check that explicitly because\n      it is not its responsability in the current architecture\n      IMPORTANT: This function should not be overriden, you should only\n      redefine the _beforeUpgrade and _afterUpgrade to use this template\n     */\n    function execute() external override {\n        oracleManager.registerCoinPair(coinPair, contractAddr);\n        // TODO: Make it usable just once.\n    }\n\n}\n",
  "sourcePath": "/home/adji/Desktop/work/coinfabrik/OMoC-Decentralized-Oracle/contracts/contracts/change/OracleManagerPairChange.sol",
  "compiler": {
    "name": "solc",
    "version": "0.6.0+commit.26b70077.Emscripten.clang"
  },
  "schemaVersion": "3.2.0",
  "updatedAt": "2020-06-29T22:01:03.553Z",
  "networkType": "ethereum",
  "devdoc": {
    "methods": {
      "constructor": {
        "params": {
          "_coinPair": "The coinpair to register",
          "_contractAddr": "The coinpair contract implementation address",
          "_oracleManager": "Address of oracle manager used to register the coin pair"
        }
      },
      "execute()": {
        "details": "Should be called by the governor, but this contract does not check that explicitly because it is not its responsability in the current architecture IMPORTANT: This function should not be overriden, you should only redefine the _beforeUpgrade and _afterUpgrade to use this template"
      }
    },
    "title": "UpgraderTemplate"
  },
  "userdoc": {
    "methods": {
      "constructor": "Constructor",
      "execute()": {
        "notice": "Execute the changes."
      }
    },
    "notice": "This contract is a ChangeContract intended to be used when upgrading any contract upgradeable through the zos-lib upgradeability system. This doesn't initialize the upgraded contract, that should be done extending this one or taking it as a guide"
  }
}