{
  "contractName": "OracleManagerRemoveChange",
  "abi": [
    {
      "inputs": [
        {
          "internalType": "contract OracleManager",
          "name": "_oracleManager",
          "type": "address"
        },
        {
          "internalType": "address",
          "name": "_oracleAddr",
          "type": "address"
        }
      ],
      "stateMutability": "nonpayable",
      "type": "constructor"
    },
    {
      "inputs": [],
      "name": "oracleAddr",
      "outputs": [
        {
          "internalType": "address",
          "name": "",
          "type": "address"
        }
      ],
      "stateMutability": "view",
      "type": "function"
    },
    {
      "inputs": [],
      "name": "oracleManager",
      "outputs": [
        {
          "internalType": "contract OracleManager",
          "name": "",
          "type": "address"
        }
      ],
      "stateMutability": "view",
      "type": "function"
    },
    {
      "inputs": [],
      "name": "execute",
      "outputs": [],
      "stateMutability": "nonpayable",
      "type": "function"
    }
  ],
  "bytecode": "0x608060405234801561001057600080fd5b506040516101c23803806101c28339818101604052604081101561003357600080fd5b508051602090910151600080546001600160a01b039384166001600160a01b031991821617909155600180549390921692169190911790556101488061007a6000396000f3fe608060405234801561001057600080fd5b50600436106100415760003560e01c8063565d878c14610046578063614619541461006a5780637e4e61d714610074575b600080fd5b61004e61007c565b604080516001600160a01b039092168252519081900360200190f35b61007261008b565b005b61004e610103565b6000546001600160a01b031681565b6000805460015460408051633f7217f160e21b81526001600160a01b0392831660048201529051919092169263fdc85fc4926024808201939182900301818387803b1580156100d957600080fd5b505af11580156100ed573d6000803e3d6000fd5b5050600080546001600160a01b03191690555050565b6001546001600160a01b03168156fea26469706673582212207c59de61d64c80924d2349fcc45992e556a585c5710405fd9a3748c037e05a7564736f6c63430006000033",
  "source": "pragma solidity 0.6.0;\n\nimport {ChangeContract} from \"../moc-gobernanza/Governance/ChangeContract.sol\";\nimport {OracleManager} from \"../OracleManager.sol\";\n\n/**\n  @title UpgraderTemplate\n  @notice This contract is a ChangeContract intended to be used when\n  upgrading any contract upgradeable through the zos-lib upgradeability\n  system. This doesn't initialize the upgraded contract, that should be done extending\n  this one or taking it as a guide\n */\ncontract OracleManagerRemoveChange is ChangeContract {\n\n    OracleManager public oracleManager;\n    address public oracleAddr;\n\n    /**\n      @notice Constructor\n      @param _oracleManager Address of oracle manager used to register the coin pair\n      @param _oracleAddr The coinpair contract implementation address\n    */\n    constructor(OracleManager _oracleManager, address _oracleAddr) public {\n        oracleManager = _oracleManager;\n        oracleAddr = _oracleAddr;\n    }\n\n    /**\n      @notice Execute the changes.\n      */\n    function execute() external override {\n        oracleManager.removeOracle(oracleAddr);\n        oracleManager = OracleManager(0);\n    }\n\n}\n",
  "sourcePath": "/home/adji/Desktop/work/coinfabrik/OMoC-Decentralized-Oracle/contracts/contracts/change/OracleManagerRemoveChange.sol",
  "compiler": {
    "name": "solc",
    "version": "0.6.0+commit.26b70077.Emscripten.clang"
  },
  "schemaVersion": "3.2.0",
  "updatedAt": "2020-06-29T21:30:43.133Z",
  "devdoc": {
    "methods": {
      "constructor": {
        "params": {
          "_oracleAddr": "The coinpair contract implementation address",
          "_oracleManager": "Address of oracle manager used to register the coin pair"
        }
      }
    },
    "title": "UpgraderTemplate"
  },
  "userdoc": {
    "methods": {
      "constructor": "Constructor",
      "execute()": {
        "notice": "Execute the changes."
      }
    },
    "notice": "This contract is a ChangeContract intended to be used when upgrading any contract upgradeable through the zos-lib upgradeability system. This doesn't initialize the upgraded contract, that should be done extending this one or taking it as a guide"
  }
}