{
  "contractName": "OracleManager",
  "abi": [
    {
      "anonymous": false,
      "inputs": [
        {
          "indexed": false,
          "internalType": "address",
          "name": "caller",
          "type": "address"
        },
        {
          "indexed": false,
          "internalType": "address",
          "name": "addr",
          "type": "address"
        },
        {
          "indexed": false,
          "internalType": "string",
          "name": "internetName",
          "type": "string"
        },
        {
          "indexed": false,
          "internalType": "uint256",
          "name": "stake",
          "type": "uint256"
        }
      ],
      "name": "OracleRegistered",
      "type": "event"
    },
    {
      "anonymous": false,
      "inputs": [
        {
          "indexed": false,
          "internalType": "address",
          "name": "caller",
          "type": "address"
        },
        {
          "indexed": false,
          "internalType": "address",
          "name": "addr",
          "type": "address"
        }
      ],
      "name": "OracleRemoved",
      "type": "event"
    },
    {
      "anonymous": false,
      "inputs": [
        {
          "indexed": false,
          "internalType": "address",
          "name": "caller",
          "type": "address"
        },
        {
          "indexed": false,
          "internalType": "address",
          "name": "addr",
          "type": "address"
        },
        {
          "indexed": false,
          "internalType": "uint256",
          "name": "stake",
          "type": "uint256"
        }
      ],
      "name": "OracleStakeAdded",
      "type": "event"
    },
    {
      "anonymous": false,
      "inputs": [
        {
          "indexed": false,
          "internalType": "address",
          "name": "caller",
          "type": "address"
        },
        {
          "indexed": false,
          "internalType": "address",
          "name": "addr",
          "type": "address"
        },
        {
          "indexed": false,
          "internalType": "bytes32",
          "name": "coinpair",
          "type": "bytes32"
        }
      ],
      "name": "OracleSubscribed",
      "type": "event"
    },
    {
      "anonymous": false,
      "inputs": [
        {
          "indexed": false,
          "internalType": "address",
          "name": "caller",
          "type": "address"
        },
        {
          "indexed": false,
          "internalType": "address",
          "name": "addr",
          "type": "address"
        },
        {
          "indexed": false,
          "internalType": "bytes32",
          "name": "coinpair",
          "type": "bytes32"
        }
      ],
      "name": "OracleUnsubscribed",
      "type": "event"
    },
    {
      "inputs": [
        {
          "internalType": "contract IGovernor",
          "name": "newIGovernor",
          "type": "address"
        }
      ],
      "name": "changeIGovernor",
      "outputs": [],
      "stateMutability": "nonpayable",
      "type": "function"
    },
    {
      "inputs": [
        {
          "internalType": "bytes",
          "name": "data",
          "type": "bytes"
        }
      ],
      "name": "delegateCallToChanger",
      "outputs": [],
      "stateMutability": "nonpayable",
      "type": "function"
    },
    {
      "inputs": [],
      "name": "governor",
      "outputs": [
        {
          "internalType": "contract IGovernor",
          "name": "",
          "type": "address"
        }
      ],
      "stateMutability": "view",
      "type": "function",
      "constant": true
    },
    {
      "inputs": [],
      "name": "minOracleOwnerStake",
      "outputs": [
        {
          "internalType": "uint256",
          "name": "",
          "type": "uint256"
        }
      ],
      "stateMutability": "view",
      "type": "function",
      "constant": true
    },
    {
      "inputs": [],
      "name": "supportersContract",
      "outputs": [
        {
          "internalType": "contract SupportersWhitelisted",
          "name": "",
          "type": "address"
        }
      ],
      "stateMutability": "view",
      "type": "function",
      "constant": true
    },
    {
      "inputs": [],
      "name": "token",
      "outputs": [
        {
          "internalType": "contract IERC20",
          "name": "",
          "type": "address"
        }
      ],
      "stateMutability": "view",
      "type": "function",
      "constant": true
    },
    {
      "inputs": [
        {
          "internalType": "contract IGovernor",
          "name": "_governor",
          "type": "address"
        },
        {
          "internalType": "uint256",
          "name": "_minOracleOwnerStake",
          "type": "uint256"
        },
        {
          "internalType": "contract SupportersWhitelisted",
          "name": "_supportersContract",
          "type": "address"
        }
      ],
      "name": "initialize",
      "outputs": [],
      "stateMutability": "nonpayable",
      "type": "function"
    },
    {
      "inputs": [
        {
          "internalType": "bytes32",
          "name": "coinPair",
          "type": "bytes32"
        },
        {
          "internalType": "address",
          "name": "addr",
          "type": "address"
        }
      ],
      "name": "registerCoinPair",
      "outputs": [],
      "stateMutability": "nonpayable",
      "type": "function"
    },
    {
      "inputs": [
        {
          "internalType": "address",
          "name": "oracleAddr",
          "type": "address"
        },
        {
          "internalType": "string",
          "name": "internetName",
          "type": "string"
        },
        {
          "internalType": "uint256",
          "name": "stake",
          "type": "uint256"
        }
      ],
      "name": "registerOracle",
      "outputs": [],
      "stateMutability": "nonpayable",
      "type": "function"
    },
    {
      "inputs": [
        {
          "internalType": "address",
          "name": "oracleAddr",
          "type": "address"
        },
        {
          "internalType": "string",
          "name": "internetName",
          "type": "string"
        },
        {
          "internalType": "uint256",
          "name": "stake",
          "type": "uint256"
        },
        {
          "internalType": "address",
          "name": "prevEntry",
          "type": "address"
        }
      ],
      "name": "registerOracleWithHint",
      "outputs": [],
      "stateMutability": "nonpayable",
      "type": "function"
    },
    {
      "inputs": [
        {
          "internalType": "address",
          "name": "oracleAddr",
          "type": "address"
        },
        {
          "internalType": "uint256",
          "name": "stake",
          "type": "uint256"
        }
      ],
      "name": "addStake",
      "outputs": [],
      "stateMutability": "nonpayable",
      "type": "function"
    },
    {
      "inputs": [
        {
          "internalType": "address",
          "name": "oracleAddr",
          "type": "address"
        },
        {
          "internalType": "uint256",
          "name": "stake",
          "type": "uint256"
        },
        {
          "internalType": "address",
          "name": "removePrevEntry",
          "type": "address"
        },
        {
          "internalType": "address",
          "name": "addPrevEntry",
          "type": "address"
        }
      ],
      "name": "addStakeWithHint",
      "outputs": [],
      "stateMutability": "nonpayable",
      "type": "function"
    },
    {
      "inputs": [
        {
          "internalType": "address",
          "name": "oracleAddr",
          "type": "address"
        },
        {
          "internalType": "bytes32",
          "name": "coinPair",
          "type": "bytes32"
        }
      ],
      "name": "subscribeCoinPair",
      "outputs": [],
      "stateMutability": "nonpayable",
      "type": "function"
    },
    {
      "inputs": [
        {
          "internalType": "address",
          "name": "oracleAddr",
          "type": "address"
        },
        {
          "internalType": "bytes32",
          "name": "coinPair",
          "type": "bytes32"
        }
      ],
      "name": "unsubscribeCoinPair",
      "outputs": [],
      "stateMutability": "nonpayable",
      "type": "function"
    },
    {
      "inputs": [
        {
          "internalType": "address",
          "name": "oracleAddr",
          "type": "address"
        }
      ],
      "name": "stop",
      "outputs": [],
      "stateMutability": "nonpayable",
      "type": "function"
    },
    {
      "inputs": [
        {
          "internalType": "address",
          "name": "oracleAddr",
          "type": "address"
        },
        {
          "internalType": "bytes32",
          "name": "coinPair",
          "type": "bytes32"
        }
      ],
      "name": "isSubscribed",
      "outputs": [
        {
          "internalType": "bool",
          "name": "",
          "type": "bool"
        }
      ],
      "stateMutability": "view",
      "type": "function",
      "constant": true
    },
    {
      "inputs": [
        {
          "internalType": "address",
          "name": "oracleAddr",
          "type": "address"
        }
      ],
      "name": "getSubscribedCoinPairAddresses",
      "outputs": [
        {
          "internalType": "contract CoinPairPrice[]",
          "name": "addresses",
          "type": "address[]"
        },
        {
          "internalType": "uint256",
          "name": "count",
          "type": "uint256"
        }
      ],
      "stateMutability": "view",
      "type": "function",
      "constant": true
    },
    {
      "inputs": [],
      "name": "getRegisteredOracleHead",
      "outputs": [
        {
          "internalType": "address",
          "name": "",
          "type": "address"
        }
      ],
      "stateMutability": "view",
      "type": "function",
      "constant": true
    },
    {
      "inputs": [
        {
          "internalType": "address",
          "name": "oracleAddr",
          "type": "address"
        }
      ],
      "name": "getRegisteredOracleNext",
      "outputs": [
        {
          "internalType": "address",
          "name": "",
          "type": "address"
        }
      ],
      "stateMutability": "view",
      "type": "function",
      "constant": true
    },
    {
      "inputs": [
        {
          "internalType": "address",
          "name": "oracleAddr",
          "type": "address"
        }
      ],
      "name": "getPrevByAddr",
      "outputs": [
        {
          "internalType": "address",
          "name": "",
          "type": "address"
        }
      ],
      "stateMutability": "view",
      "type": "function",
      "constant": true
    },
    {
      "inputs": [
        {
          "internalType": "address",
          "name": "oracleAddr",
          "type": "address"
        },
        {
          "internalType": "address",
          "name": "prevEntry",
          "type": "address"
        }
      ],
      "name": "getPrevByAddrWithHint",
      "outputs": [
        {
          "internalType": "address",
          "name": "",
          "type": "address"
        }
      ],
      "stateMutability": "view",
      "type": "function",
      "constant": true
    },
    {
      "inputs": [
        {
          "internalType": "uint256",
          "name": "stake",
          "type": "uint256"
        }
      ],
      "name": "getPrevByStake",
      "outputs": [
        {
          "internalType": "address",
          "name": "",
          "type": "address"
        }
      ],
      "stateMutability": "view",
      "type": "function",
      "constant": true
    },
    {
      "inputs": [
        {
          "internalType": "uint256",
          "name": "stake",
          "type": "uint256"
        },
        {
          "internalType": "address",
          "name": "prevEntry",
          "type": "address"
        }
      ],
      "name": "getPrevByStakeWithHint",
      "outputs": [
        {
          "internalType": "address",
          "name": "",
          "type": "address"
        }
      ],
      "stateMutability": "view",
      "type": "function",
      "constant": true
    },
    {
      "inputs": [
        {
          "internalType": "address",
          "name": "oracleAddr",
          "type": "address"
        },
        {
          "internalType": "string",
          "name": "name",
          "type": "string"
        }
      ],
      "name": "setOracleName",
      "outputs": [],
      "stateMutability": "nonpayable",
      "type": "function"
    },
    {
      "inputs": [
        {
          "internalType": "address",
          "name": "oracleAddr",
          "type": "address"
        }
      ],
      "name": "isOracleRegistered",
      "outputs": [
        {
          "internalType": "bool",
          "name": "",
          "type": "bool"
        }
      ],
      "stateMutability": "view",
      "type": "function",
      "constant": true
    },
    {
      "inputs": [
        {
          "internalType": "address",
          "name": "oracleAddr",
          "type": "address"
        }
      ],
      "name": "getOracleRegistrationInfo",
      "outputs": [
        {
          "internalType": "string",
          "name": "internetName",
          "type": "string"
        },
        {
          "internalType": "uint256",
          "name": "stake",
          "type": "uint256"
        },
        {
          "internalType": "address",
          "name": "_owner",
          "type": "address"
        }
      ],
      "stateMutability": "view",
      "type": "function",
      "constant": true
    },
    {
      "inputs": [
        {
          "internalType": "address",
          "name": "oracleAddr",
          "type": "address"
        },
        {
          "internalType": "bytes32",
          "name": "coinpair",
          "type": "bytes32"
        }
      ],
      "name": "getOracleRoundInfo",
      "outputs": [
        {
          "internalType": "uint256",
          "name": "points",
          "type": "uint256"
        },
        {
          "internalType": "uint256",
          "name": "selectedInRound",
          "type": "uint256"
        },
        {
          "internalType": "bool",
          "name": "selectedInCurrentRound",
          "type": "bool"
        }
      ],
      "stateMutability": "view",
      "type": "function",
      "constant": true
    },
    {
      "inputs": [
        {
          "internalType": "address",
          "name": "oracleAddr",
          "type": "address"
        }
      ],
      "name": "removeOracle",
      "outputs": [],
      "stateMutability": "nonpayable",
      "type": "function"
    },
    {
      "inputs": [
        {
          "internalType": "address",
          "name": "oracleAddr",
          "type": "address"
        },
        {
          "internalType": "address",
          "name": "prevEntry",
          "type": "address"
        }
      ],
      "name": "removeOracleWithHint",
      "outputs": [],
      "stateMutability": "nonpayable",
      "type": "function"
    },
    {
      "inputs": [
        {
          "internalType": "address",
          "name": "oracleAddr",
          "type": "address"
        }
      ],
      "name": "canRemoveOracle",
      "outputs": [
        {
          "internalType": "bool",
          "name": "",
          "type": "bool"
        }
      ],
      "stateMutability": "view",
      "type": "function",
      "constant": true
    },
    {
      "inputs": [
        {
          "internalType": "address",
          "name": "oracleAddr",
          "type": "address"
        }
      ],
      "name": "getStake",
      "outputs": [
        {
          "internalType": "uint256",
          "name": "balance",
          "type": "uint256"
        }
      ],
      "stateMutability": "view",
      "type": "function",
      "constant": true
    },
    {
      "inputs": [
        {
          "internalType": "address",
          "name": "oracleAddr",
          "type": "address"
        }
      ],
      "name": "vestingInfoOf",
      "outputs": [
        {
          "internalType": "uint256",
          "name": "balance",
          "type": "uint256"
        },
        {
          "internalType": "uint256",
          "name": "stoppedInblock",
          "type": "uint256"
        }
      ],
      "stateMutability": "view",
      "type": "function",
      "constant": true
    },
    {
      "inputs": [],
      "name": "getCoinPairCount",
      "outputs": [
        {
          "internalType": "uint256",
          "name": "",
          "type": "uint256"
        }
      ],
      "stateMutability": "view",
      "type": "function",
      "constant": true
    },
    {
      "inputs": [
        {
          "internalType": "uint256",
          "name": "i",
          "type": "uint256"
        }
      ],
      "name": "getCoinPairAtIndex",
      "outputs": [
        {
          "internalType": "bytes32",
          "name": "",
          "type": "bytes32"
        }
      ],
      "stateMutability": "view",
      "type": "function",
      "constant": true
    },
    {
      "inputs": [
        {
          "internalType": "bytes32",
          "name": "coinpair",
          "type": "bytes32"
        }
      ],
      "name": "getContractAddress",
      "outputs": [
        {
          "internalType": "address",
          "name": "",
          "type": "address"
        }
      ],
      "stateMutability": "view",
      "type": "function",
      "constant": true
    },
    {
      "inputs": [
        {
          "internalType": "bytes32",
          "name": "coinPair",
          "type": "bytes32"
        },
        {
          "internalType": "uint256",
          "name": "hint",
          "type": "uint256"
        }
      ],
      "name": "getCoinPairIndex",
      "outputs": [
        {
          "internalType": "uint256",
          "name": "",
          "type": "uint256"
        }
      ],
      "stateMutability": "view",
      "type": "function",
      "constant": true
    }
  ],
  "bytecode": "0x608060405261346d806100136000396000f3fe608060405234801561001057600080fd5b506004361061021c5760003560e01c8063b9b55c9a11610125578063df1810f9116100ad578063fac3c1f41161007c578063fac3c1f414610852578063fc0c546a146108d0578063fc3a7642146108d8578063fdc85fc41461099a578063fedfe6bc146109c05761021c565b8063df1810f9146107b8578063e99a6a16146107d5578063efee913f14610801578063eff360981461082f5761021c565b8063cdb8bedd116100f4578063cdb8bedd14610648578063d682260414610694578063d92779cf146106c2578063da3e1726146106e8578063dc8990e1146107145761021c565b8063b9b55c9a146105dc578063bfbf602e14610602578063c350a1b51461060a578063ccd98862146106405761021c565b80637f680b24116101a8578063a105184811610177578063a1051848146104ed578063a48dcf5c14610513578063a8c752a014610591578063b6e08330146105ae578063b8923b83146105d45761021c565b80637f680b24146103ab57806380eea1ee146103d75780638e04191e14610403578063949394fe1461042f5761021c565b80633aacdc99116101ef5780633aacdc99146102df5780636374299e1461031957806363adb1a214610345578063656cb0bc1461035f5780637a766460146103855761021c565b80630c340a24146102215780630d2020dd146102455780631dc2e602146102625780632efc7aa4146102a1575b600080fd5b610229610a41565b604080516001600160a01b039092168252519081900360200190f35b6102296004803603602081101561025b57600080fd5b5035610a50565b6102886004803603602081101561027857600080fd5b50356001600160a01b0316610a69565b6040805192835260208301919091528051918290030190f35b6102dd600480360360808110156102b757600080fd5b506001600160a01b03813581169160208101359160408201358116916060013516610af9565b005b610305600480360360208110156102f557600080fd5b50356001600160a01b0316610c0b565b604080519115158252519081900360200190f35b6102dd6004803603604081101561032f57600080fd5b506001600160a01b038135169060200135610cc2565b61034d610cd3565b60408051918252519081900360200190f35b6102dd6004803603602081101561037557600080fd5b50356001600160a01b0316610ce5565b61034d6004803603602081101561039b57600080fd5b50356001600160a01b0316610dfd565b610229600480360360408110156103c157600080fd5b50803590602001356001600160a01b0316610e86565b610305600480360360408110156103ed57600080fd5b506001600160a01b038135169060200135610e9a565b6102dd6004803603604081101561041957600080fd5b50803590602001356001600160a01b0316610f90565b6104556004803603602081101561044557600080fd5b50356001600160a01b03166110d0565b6040518080602001848152602001836001600160a01b03166001600160a01b03168152602001828103825285818151815260200191508051906020019080838360005b838110156104b0578181015183820152602001610498565b50505050905090810190601f1680156104dd5780820380516001836020036101000a031916815260200191505b5094505050505060405180910390f35b6102296004803603602081101561050357600080fd5b50356001600160a01b0316611163565b6102dd6004803603606081101561052957600080fd5b6001600160a01b038235169190810190604081016020820135600160201b81111561055357600080fd5b82018360208201111561056557600080fd5b803590602001918460018302840111600160201b8311171561058657600080fd5b919350915035611177565b610229600480360360208110156105a757600080fd5b50356111bf565b6102dd600480360360208110156105c457600080fd5b50356001600160a01b03166111d3565b6102296112e6565b610305600480360360208110156105f257600080fd5b50356001600160a01b03166112f5565b610229611314565b6102dd6004803603606081101561062057600080fd5b506001600160a01b03813581169160208101359160409091013516611320565b61034d611604565b6106746004803603604081101561065e57600080fd5b506001600160a01b03813516906020013561160a565b604080519384526020840192909252151582820152519081900360600190f35b6102dd600480360360408110156106aa57600080fd5b506001600160a01b03813581169160200135166116b7565b610229600480360360208110156106d857600080fd5b50356001600160a01b0316611941565b6102dd600480360360408110156106fe57600080fd5b506001600160a01b038135169060200135611954565b6102dd6004803603602081101561072a57600080fd5b810190602081018135600160201b81111561074457600080fd5b82018360208201111561075657600080fd5b803590602001918460018302840111600160201b8311171561077757600080fd5b91908080601f016020809104026020016040519081016040528093929190818152602001838380828437600092019190915250929550611ac5945050505050565b61034d600480360360208110156107ce57600080fd5b5035611d49565b6102dd600480360360408110156107eb57600080fd5b506001600160a01b038135169060200135611d5c565b6102296004803603604081101561081757600080fd5b506001600160a01b0381358116916020013516611ecd565b61034d6004803603604081101561084557600080fd5b5080359060200135611ee1565b6102dd6004803603604081101561086857600080fd5b6001600160a01b038235169190810190604081016020820135600160201b81111561089257600080fd5b8201836020820111156108a457600080fd5b803590602001918460018302840111600160201b831117156108c557600080fd5b509092509050611ef5565b610229611fe8565b6102dd600480360360808110156108ee57600080fd5b6001600160a01b038235169190810190604081016020820135600160201b81111561091857600080fd5b82018360208201111561092a57600080fd5b803590602001918460018302840111600160201b8311171561094b57600080fd5b91908080601f01602080910402602001604051908101604052809392919081815260200183838082843760009201919091525092955050823593505050602001356001600160a01b0316611ff7565b6102dd600480360360208110156109b057600080fd5b50356001600160a01b03166121f6565b6109e6600480360360208110156109d657600080fd5b50356001600160a01b0316612204565b6040518080602001838152602001828103825284818151815260200191508051906020019060200280838360005b83811015610a2c578181015183820152602001610a14565b50505050905001935050505060405180910390f35b6033546001600160a01b031681565b6000610a6360668363ffffffff6122ca16565b92915050565b606a54604080516308fc63c760e41b81523060048201526001600160a01b03848116602483015282516000948594921692638fc63c70926044808301939192829003018186803b158015610abc57600080fd5b505afa158015610ad0573d6000803e3d6000fd5b505050506040513d6040811015610ae657600080fd5b5080516020909101519092509050915091565b6000610b0c60688663ffffffff6122e616565b9050610b1781612301565b610b56576040805162461bcd60e51b815260206004820152601860248201526000805160206133c3833981519152604482015290519081900360640190fd5b610b5f81612313565b610b9e576040805162461bcd60e51b815260206004820152601e6024820152600080516020613329833981519152604482015290519081900360640190fd5b610ba9338686612376565b610bbc606886858563ffffffff61258416565b604080513381526001600160a01b038716602082015280820186905290517f35bfb7c2c354944aeeb5fc58aa0896da5def1caf32a09dc53dc12a32c250a4b69181900360600190a15050505050565b600080610c1f60688463ffffffff6122e616565b9050610c2a81612301565b8015610c3a5750610c3a8361259a565b8015610cbb5750606a546040805163019262d360e41b81526001600160a01b038681166004830152915191909216916319262d30916024808301926020929190829003018186803b158015610c8e57600080fd5b505afa158015610ca2573d6000803e3d6000fd5b505050506040513d6020811015610cb857600080fd5b50515b9392505050565b610ccf8282600080610af9565b5050565b6000610cdf606661267a565b90505b90565b6000610cf860688363ffffffff6122e616565b9050610d0381612301565b610d42576040805162461bcd60e51b815260206004820152601860248201526000805160206133c3833981519152604482015290519081900360640190fd5b610d4b81612313565b610d8a576040805162461bcd60e51b815260206004820152601e6024820152600080516020613329833981519152604482015290519081900360640190fd5b610d9382612681565b606a546040805163195b2c2f60e21b81526001600160a01b0385811660048301529151919092169163656cb0bc91602480830192600092919082900301818387803b158015610de157600080fd5b505af1158015610df5573d6000803e3d6000fd5b505050505050565b606a546040805163b25147e360e01b81523060048201526001600160a01b0384811660248301529151600093929092169163b25147e391604480820192602092909190829003018186803b158015610e5457600080fd5b505afa158015610e68573d6000803e3d6000fd5b505050506040513d6020811015610e7e57600080fd5b505192915050565b6000610cbb6068838563ffffffff6127d916565b600080610eae60688563ffffffff6122e616565b9050610eb981612301565b610ef8576040805162461bcd60e51b815260206004820152601860248201526000805160206133c3833981519152604482015290519081900360640190fd5b6000610f0384610a50565b9050806001600160a01b031663b92ae87c866040518263ffffffff1660e01b815260040180826001600160a01b03166001600160a01b0316815260200191505060206040518083038186803b158015610f5b57600080fd5b505afa158015610f6f573d6000803e3d6000fd5b505050506040513d6020811015610f8557600080fd5b505195945050505050565b6033546040805163d994d6d560e01b815233600482015290516001600160a01b039092169163d994d6d591602480820192602092909190829003018186803b158015610fdb57600080fd5b505afa158015610fef573d6000803e3d6000fd5b505050506040513d602081101561100557600080fd5b50516040805180820190915260168152753737ba2fb0baba3437b934bd32b22fb1b430b733b2b960511b6020820152906110bd5760405162461bcd60e51b81526004018080602001828103825283818151815260200191508051906020019080838360005b8381101561108257818101518382015260200161106a565b50505050905090810190601f1680156110af5780820380516001836020036101000a031916815260200191505b509250505060405180910390fd5b50610ccf6066838363ffffffff6127ee16565b6060600080806110e760688663ffffffff6122e616565b90506110f281612301565b61113b576040805162461bcd60e51b815260206004820152601560248201527413dc9858db19481b9bdd081c9959da5cdd195c9959605a1b604482015290519081900360640190fd5b611144816128d8565b935061114f85610dfd565b925061115a8161296d565b93959294505050565b6000610a636068828463ffffffff61297d16565b6111b98484848080601f01602080910402602001604051908101604052809392919081815260200183838082843760009201829052508793509150611ff79050565b50505050565b6000610a636068828463ffffffff6127d916565b6033546040805163d994d6d560e01b815233600482015290516001600160a01b039092169163d994d6d591602480820192602092909190829003018186803b15801561121e57600080fd5b505afa158015611232573d6000803e3d6000fd5b505050506040513d602081101561124857600080fd5b50516040805180820190915260168152753737ba2fb0baba3437b934bd32b22fb1b430b733b2b960511b6020820152906112c35760405162461bcd60e51b815260206004820181815283516024840152835190928392604490910191908501908083836000831561108257818101518382015260200161106a565b50603380546001600160a01b0319166001600160a01b0392909216919091179055565b606a546001600160a01b031681565b60008061130960688463ffffffff6122e616565b9050610cbb81612301565b6000610cdf606861298a565b600054610100900460ff168061133957506113396129a1565b80611347575060005460ff16155b6113825760405162461bcd60e51b815260040180806020018281038252602e81526020018061336d602e913960400191505060405180910390fd5b600054610100900460ff161580156113ad576000805460ff1961ff0019909116610100171660011790555b6001600160a01b0382166113f25760405162461bcd60e51b815260040180806020018281038252602881526020018061339b6028913960400191505060405180910390fd5b60006001600160a01b0316826001600160a01b03166372015d1a6040518163ffffffff1660e01b815260040160206040518083038186803b15801561143657600080fd5b505afa15801561144a573d6000803e3d6000fd5b505050506040513d602081101561146057600080fd5b50516001600160a01b031614156114a85760405162461bcd60e51b81526004018080602001828103825260238152602001806133066023913960400191505060405180910390fd5b600083116114e75760405162461bcd60e51b81526004018080602001828103825260348152602001806132ad6034913960400191505060405180910390fd5b6114f0846129a7565b606a80546001600160a01b0319166001600160a01b03841690811790915560408051633900ae8d60e11b815290516372015d1a91600480820192602092909190829003018186803b15801561154457600080fd5b505afa158015611558573d6000803e3d6000fd5b505050506040513d602081101561156e57600080fd5b5051606c80546001600160a01b0319166001600160a01b03909216919091179055606b83905561159f610dfd6129c9565b8051606980546020909301516001600160a01b0316600160401b02600160401b600160e01b031967ffffffffffffffff90931667ffffffffffffffff19909416939093179190911691909117905580156111b9576000805461ff001916905550505050565b606b5481565b60008060008061161985610a50565b9050806001600160a01b0316638458c1dd876040518263ffffffff1660e01b815260040180826001600160a01b03166001600160a01b0316815260200191505060606040518083038186803b15801561167157600080fd5b505afa158015611685573d6000803e3d6000fd5b505050506040513d606081101561169b57600080fd5b5080516020820151604090920151909891975095509350505050565b60006116ca60688463ffffffff6122e616565b90506116d581612301565b61171e576040805162461bcd60e51b815260206004820152601560248201527413dc9858db19481b9bdd081c9959da5cdd195c9959605a1b604482015290519081900360640190fd5b61172781612313565b6117625760405162461bcd60e51b81526004018080602001828103825260278152602001806134116027913960400191505060405180910390fd5b61176b8361259a565b6117a65760405162461bcd60e51b81526004018080602001828103825260258152602001806132e16025913960400191505060405180910390fd5b6117af83612681565b606a5460408051633b2b978560e01b81523060048201526001600160a01b03868116602483015291516000939290921691633b2b978591604480820192602092909190829003018186803b15801561180657600080fd5b505afa15801561181a573d6000803e3d6000fd5b505050506040513d602081101561183057600080fd5b5051606a549091506001600160a01b0316630941808182866118518661296d565b6040518463ffffffff1660e01b815260040180848152602001836001600160a01b03166001600160a01b03168152602001826001600160a01b03166001600160a01b031681526020019350505050602060405180830381600087803b1580156118b957600080fd5b505af11580156118cd573d6000803e3d6000fd5b505050506040513d60208110156118e357600080fd5b506118f890506068858563ffffffff6129f516565b604080513381526001600160a01b038616602082015281517f6dc84b66cc948d847632b9d829f7cb1cb904fbf2c084554a9bc22ad9d8453340929181900390910190a150505050565b6000610a6360688363ffffffff612a4e16565b600061196760688463ffffffff6122e616565b905061197281612301565b6119b1576040805162461bcd60e51b815260206004820152601860248201526000805160206133c3833981519152604482015290519081900360640190fd5b6119ba81612313565b6119f9576040805162461bcd60e51b815260206004820152601e6024820152600080516020613329833981519152604482015290519081900360640190fd5b6000611a0483610a50565b9050806001600160a01b0316637262561c856040518263ffffffff1660e01b815260040180826001600160a01b03166001600160a01b03168152602001915050600060405180830381600087803b158015611a5e57600080fd5b505af1158015611a72573d6000803e3d6000fd5b5050604080513381526001600160a01b038816602082015280820187905290517f091a14a39a70febfcb85545997937e43a4141e264a5a144f44b623f57e5b943e9350908190036060019150a150505050565b6033546040805163d994d6d560e01b815233600482015290516001600160a01b039092169163d994d6d591602480820192602092909190829003018186803b158015611b1057600080fd5b505afa158015611b24573d6000803e3d6000fd5b505050506040513d6020811015611b3a57600080fd5b50516040805180820190915260168152753737ba2fb0baba3437b934bd32b22fb1b430b733b2b960511b602082015290611bb55760405162461bcd60e51b815260206004820181815283516024840152835190928392604490910191908501908083836000831561108257818101518382015260200161106a565b5060003390506000816001600160a01b0316836040516024018080602001828103825283818151815260200191508051906020019080838360005b83811015611c08578181015183820152602001611bf0565b50505050905090810190601f168015611c355780820380516001836020036101000a031916815260200191505b5060408051601f198184030181529181526020820180516001600160e01b03166350b113e560e11b178152905182519295509350839250908083835b60208310611c905780518252601f199092019160209182019101611c71565b6001836020036101000a038019825116818451168082178552505050505050905001915050600060405180830381855af49150503d8060008114611cf0576040519150601f19603f3d011682016040523d82523d6000602084013e611cf5565b606091505b5050905080611d44576040805162461bcd60e51b8152602060048201526016602482015275115c9c9bdc881a5b8819195b1959d85d194818d85b1b60521b604482015290519081900360640190fd5b505050565b6000610a6360668363ffffffff612a7116565b6000611d6f60688463ffffffff6122e616565b9050611d7a81612301565b611db9576040805162461bcd60e51b815260206004820152601860248201526000805160206133c3833981519152604482015290519081900360640190fd5b611dc281612313565b611e01576040805162461bcd60e51b815260206004820152601e6024820152600080516020613329833981519152604482015290519081900360640190fd5b6000611e0c83610a50565b9050806001600160a01b03166341a7726a856040518263ffffffff1660e01b815260040180826001600160a01b03166001600160a01b03168152602001915050600060405180830381600087803b158015611e6657600080fd5b505af1158015611e7a573d6000803e3d6000fd5b5050604080513381526001600160a01b038816602082015280820187905290517fb4ddff4018fa47916848f1fd29a5cb5ee7fc7db1af513bb39c62a9828b99a7649350908190036060019150a150505050565b6000610cbb6068838563ffffffff61297d16565b6000610cbb6066848463ffffffff612ade16565b6000611f0860688563ffffffff6122e616565b9050611f1381612301565b611f5c576040805162461bcd60e51b815260206004820152601560248201527413dc9858db19481b9bdd081c9959da5cdd195c9959605a1b604482015290519081900360640190fd5b611f6581612313565b611fa05760405162461bcd60e51b81526004018080602001828103825260278152602001806134116027913960400191505060405180910390fd5b6111b983838080601f016020809104026020016040519081016040528093929190818152602001838380828437600092019190915250859392505063ffffffff612b72169050565b606c546001600160a01b031681565b600061200a60688663ffffffff6122e616565b905061201581612301565b15612067576040805162461bcd60e51b815260206004820152601960248201527f4f7261636c6520616c7265616479207265676973746572656400000000000000604482015290519081900360640190fd5b6001600160a01b0385166120bb576040805162461bcd60e51b8152602060048201526016602482015275416464726573732063616e6e6f74206265207a65726f60501b604482015290519081900360640190fd5b606b548310156120fc5760405162461bcd60e51b815260040180806020018281038252602e8152602001806133e3602e913960400191505060405180910390fd5b612107338685612376565b61211a606886868563ffffffff612b8416565b7f1ab6061686619c51e38ddb8eef56838e81c135e72509424cf1ee567fe1a8b57f3386868660405180856001600160a01b03166001600160a01b03168152602001846001600160a01b03166001600160a01b0316815260200180602001838152602001828103825284818151815260200191508051906020019080838360005b838110156121b257818101518382015260200161219a565b50505050905090810190601f1680156121df5780820380516001836020036101000a031916815260200191505b509550505050505060405180910390a15050505050565b6122018160006116b7565b50565b6060600080612213606661267a565b9050606081604051908082528060200260200182016040528015612241578160200160208202803883390190505b5090506000805b838110156122be57600061226360668363ffffffff612a7116565b905061226f8882610e9a565b156122b55761227d81610a50565b84838151811061228957fe5b6001600160a01b03909216602092830291909101909101526122b283600163ffffffff612c1c16565b92505b50600101612248565b50909350915050915091565b600090815260209190915260409020546001600160a01b031690565b6001600160a01b031660009081526020919091526040902090565b600101546001600160a01b0316151590565b6000612325823363ffffffff612c7616565b80610a6357506033546040805163d994d6d560e01b815233600482015290516001600160a01b039092169163d994d6d591602480820192602092909190829003018186803b158015610e5457600080fd5b606c54604080516323b872dd60e01b81526001600160a01b03868116600483015230602483015260448201859052915191909216916323b872dd9160648083019260209291908290030181600087803b1580156123d257600080fd5b505af11580156123e6573d6000803e3d6000fd5b505050506040513d60208110156123fc57600080fd5b5051612443576040805162461bcd60e51b815260206004820152601160248201527022b93937b91034b7103a3930b739b332b960791b604482015290519081900360640190fd5b606c54606a546040805163095ea7b360e01b81526001600160a01b039283166004820152602481018590529051919092169163095ea7b39160448083019260209291908290030181600087803b15801561249c57600080fd5b505af11580156124b0573d6000803e3d6000fd5b505050506040513d60208110156124c657600080fd5b505161250c576040805162461bcd60e51b815260206004820152601060248201526f4572726f7220696e20617070726f766560801b604482015290519081900360640190fd5b606a54604080516341c4034b60e11b8152600481018490526001600160a01b03858116602483015230604483015291519190921691638388069691606480830192600092919082900301818387803b15801561256757600080fd5b505af115801561257b573d6000803e3d6000fd5b50505050505050565b61258f848484612c8e565b6111b9848483612d5e565b6000806125a7606661267a565b9050600160005b82811080156125ba5750815b156126725760006125da6125d560668463ffffffff612a7116565b610a50565b90508280156126675750806001600160a01b0316633aacdc99876040518263ffffffff1660e01b815260040180826001600160a01b03166001600160a01b0316815260200191505060206040518083038186803b15801561263a57600080fd5b505afa15801561264e573d6000803e3d6000fd5b505050506040513d602081101561266457600080fd5b50515b9250506001016125ae565b509392505050565b6001015490565b600061269460688363ffffffff6122e616565b905061269f81612301565b6126de576040805162461bcd60e51b815260206004820152601860248201526000805160206133c3833981519152604482015290519081900360640190fd5b6126e781612313565b612726576040805162461bcd60e51b815260206004820152601e6024820152600080516020613329833981519152604482015290519081900360640190fd5b6060600061273384612204565b909250905060005b818110156127d25782818151811061274f57fe5b60200260200101516001600160a01b0316637262561c866040518263ffffffff1660e01b815260040180826001600160a01b03166001600160a01b03168152602001915050600060405180830381600087803b1580156127ae57600080fd5b505af11580156127c2573d6000803e3d6000fd5b50506001909201915061273b9050565b5050505050565b60006127e6848484612d95565b949350505050565b6001600160a01b038116612842576040805162461bcd60e51b8152602060048201526016602482015275416464726573732063616e6e6f74206265207a65726f60501b604482015290519081900360640190fd5b6000828152602084905260409020546001600160a01b0316156128965760405162461bcd60e51b81526004018080602001828103825260248152602001806133496024913960400191505060405180910390fd5b600082815260208481526040822080546001600160a01b0319166001600160a01b03949094169390931790925560019384018054948501815581522090910155565b805460408051602060026001851615610100026000190190941693909304601f8101849004840282018401909252818152606092909184918301828280156129615780601f1061293657610100808354040283529160200191612961565b820191906000526020600020905b81548152906001019060200180831161294457829003601f168201915b50505050509050919050565b600101546001600160a01b031690565b60006127e6848484612f01565b60010154600160401b90046001600160a01b031690565b303b1590565b603380546001600160a01b0319166001600160a01b0392909216919091179055565b6129d161319d565b506040805180820190915267ffffffffffffffff8216815260006020820152919050565b612a00838383612c8e565b6001600160a01b0382166000908152602084905260408120908181612a2582826131b6565b5060010180546001600160a01b0319908116909155600292909201805490921690915550505050565b6001600160a01b0390811660009081526020929092526040909120600201541690565b60018201546000908210612abc576040805162461bcd60e51b815260206004820152600d60248201526c092d8d8cacec2d840d2dcc8caf609b1b604482015290519081900360640190fd5b826001018281548110612acb57fe5b9060005260206000200154905092915050565b60018301546000908210612b29576040805162461bcd60e51b815260206004820152600d60248201526c092d8d8cacec2d840d2dcc8caf609b1b604482015290519081900360640190fd5b815b6001850154811015612b675783856001018281548110612b4757fe5b90600052602060002001541415612b5f579050610cbb565b600101612b2b565b505050506001015490565b8051611d4490839060208401906131fa565b6040518060400160405280612b993385613023565b8152600060209182018190526001600160a01b038616815286825260409020825180518051929391928492612bd29284929101906131fa565b5060209182015160019190910180546001600160a01b03199081166001600160a01b03938416179091559390910151600292909201805490931691161790556111b9848483612d5e565b600082820183811015610cbb576040805162461bcd60e51b815260206004820152601b60248201527f536166654d6174683a206164646974696f6e206f766572666c6f770000000000604482015290519081900360640190fd5b600191909101546001600160a01b0391821691161490565b6001600160a01b038216612cdb576040805162461bcd60e51b815260206004820152600f60248201526e496e76616c6964206164647265737360881b604482015290519081900360640190fd5b6001600160a01b0382166000908152602084905260409020612cfc90612301565b612d45576040805162461bcd60e51b815260206004820152601560248201527413dc9858db19481b9bdd081c9959da5cdd195c9959605a1b604482015290519081900360640190fd5b6000612d52848385612f01565b90506111b9848261304d565b6001830154600090612d889085908490612d839087908015613278021763ffffffff16565b612d95565b90506111b98482856130e3565b6000826001600160a01b038116612e15576001850154600160401b90046001600160a01b03161580612def575060018501548390612ded90600160401b81046001600160a01b0316908015613278021763ffffffff16565b105b15612dfe576000915050610cbb565b506001840154600160401b90046001600160a01b03165b60018501548390612e319083908015613278021763ffffffff16565b1015612e7d576040805162461bcd60e51b815260206004820152601660248201527557726f6e67207072657620656e747279207374616b6560501b604482015290519081900360640190fd5b6001600160a01b03808216600090815260208790526040902060020154165b6001600160a01b03811615612ef85760018601548490612ec79083908015613278021763ffffffff16565b1015612ed257612ef8565b6001600160a01b0380821660009081526020889052604090206002015491925016612e9c565b50949350505050565b60006001600160a01b038316158015612f30575060018401546001600160a01b03838116600160401b90920416145b15612f3d57506000610cbb565b826001600160a01b038116612f6357506001840154600160401b90046001600160a01b03165b805b6001600160a01b03811615612fb957836001600160a01b0316816001600160a01b03161415612f9357612fb9565b6001600160a01b0380821660009081526020889052604090206002015491925016612f65565b506001600160a01b038181166000908152602087905260409020600201548116908416146127e6576040805162461bcd60e51b8152602060048201526012602482015271496e76616c6964207072657620656e74727960701b604482015290519081900360640190fd5b61302b61327a565b50604080518082019091529081526001600160a01b0391909116602082015290565b6001600160a01b0381166130a0576001820180546001600160a01b03600160401b808304821660009081526020879052604090206002015490911602600160401b600160e01b0319909116179055610ccf565b6001600160a01b039081166000818152602093909352604080842060029081018054808616875292862090910154929094526001600160a01b0319169116179055565b6001600160a01b03821661314d576001830180546001600160a01b0383811660008181526020889052604090206002018054600160401b948590049093166001600160a01b0319909316929092179091558254600160401b600160e01b0319169102179055611d44565b6001600160a01b0391821660008181526020949094526040808520600290810180549486168088529287209091018054949095166001600160a01b03199485161790945593528154169091179055565b6040805180820190915261327881526000602082015290565b50805460018160011615610100020316600290046000825580601f106131dc5750612201565b601f0160209004906000526020600020908101906122019190613292565b828054600181600116156101000203166002900490600052602060002090601f016020900481019282601f1061323b57805160ff1916838001178555613268565b82800160010185558215613268579182015b8281111561326857825182559160200191906001019061324d565b50613274929150613292565b5090565bfe5b60408051808201909152606081526000602082015290565b610ce291905b80821115613274576000815560010161329856fe546865206d696e696d756d206f7261636c65206f776e6572207374616b6520616d6f756e742063616e6e6f74206265207a65726f4f7261636c652063616e6e6f742062652072656d6f76656420617420746869732074696d65546f6b656e20636f6e74726163742061646472657373206d75737420626520213d20304d7573742062652063616c6c6564206279206f7261636c65206f776e657200005468697320636f696e207061697220697320616c72656164792072656769737465726564436f6e747261637420696e7374616e63652068617320616c7265616479206265656e20696e697469616c697a6564537570706f727465727320636f6e74726163742061646472657373206d75737420626520213d20304f7261636c65206973206e6f74207265676973746572656400000000000000005374616b65206e6f74206174206c6561737420746865206d696e696d756d20726571756972656420616d6f756e74546869732063616e2062652063616c6c6564206279206f7261636c65206f776e6572206f6e6c79a2646970667358221220a2e80eaa12b8d4369d467b2f694bdb54bfa20d1d469b592b439ffb4fde9c3a0964736f6c63430006000033",
  "source": "pragma solidity 0.6.0;\n\nimport {SafeMath} from \"./openzeppelin/math/SafeMath.sol\";\nimport {IERC20} from \"./openzeppelin/token/ERC20/IERC20.sol\";\nimport {IGovernor} from \"./moc-gobernanza/Governance/IGovernor.sol\";\nimport {Governed} from \"./moc-gobernanza/Governance/Governed.sol\";\nimport {RegisteredOraclesLib} from \"./libs/RegisteredOraclesLib.sol\";\nimport {OracleInfoLib} from \"./libs/OracleInfoLib.sol\";\nimport {SupportersWhitelisted} from \"./SupportersWhitelisted.sol\";\nimport {CoinPairPrice} from \"./CoinPairPrice.sol\";\nimport {OracleManagerStorage} from \"./OracleManagerStorage.sol\";\n\ncontract OracleManager is OracleManagerStorage {\n    using SafeMath for uint;\n\n    event OracleRegistered(address caller, address addr, string internetName, uint stake);\n    event OracleStakeAdded(address caller, address addr, uint stake);\n    event OracleSubscribed(address caller, address addr, bytes32 coinpair);\n    event OracleUnsubscribed(address caller, address addr, bytes32 coinpair);\n    event OracleRemoved(address caller, address addr);\n\n    // -------------------------------------------------------------------------------------------------------------\n    //\n    //   Public interface\n    //\n    // -------------------------------------------------------------------------------------------------------------\n\n    /// @notice Construct this contract.\n    /// @param _minOracleOwnerStake The minimum amount of tokens required as stake by oracle owners.\n    /// @param _supportersContract the Supporters contract contract address.\n    function initialize(IGovernor _governor, uint256 _minOracleOwnerStake, SupportersWhitelisted _supportersContract)\n    external initializer {\n        require(address(_supportersContract) != address(0), \"Supporters contract address must be != 0\");\n        require(address(_supportersContract.mocToken()) != address(0), \"Token contract address must be != 0\");\n        require(_minOracleOwnerStake > 0, \"The minimum oracle owner stake amount cannot be zero\");\n\n        Governed._initialize(_governor);\n        supportersContract = _supportersContract;\n        token = _supportersContract.mocToken();\n\n        minOracleOwnerStake = _minOracleOwnerStake;\n        registeredOracles = RegisteredOraclesLib.initRegisteredOracles(getStake);\n    }\n\n    /// @notice Register a new coin pair contract.\n    /// @param coinPair The bytes32-encoded coinpair string (e.g. BTCUSD)\n    /// @param addr The contract address associated to the coinpair.\n    function registerCoinPair(bytes32 coinPair, address addr) external onlyAuthorizedChanger() {\n        coinPairRegisterData._registerCoinPair(coinPair, addr);\n    }\n\n    /// Register an oracle in the system with an initial stake.\n    /// @notice Registers the oracle and transfer the specified caller's MOC token stake.\n    /// @param oracleAddr Address of the Oracle to register.\n    /// @param internetName Public Internet name of this Oracle.\n    /// @param stake The amount that the oracle owner (the caller) will put at stake. This will be transferred\n///                 immediately if conditions apply.\n    function registerOracle(address oracleAddr, string calldata internetName, uint stake) external {\n        registerOracleWithHint(oracleAddr, internetName, stake, address(0));\n    }\n\n    /// @notice Registers the oracle and transfer the specified caller's MOC token stake. Using a hint to sort it\n    /// @param oracleAddr Address of the Oracle to register.\n    /// @param internetName Public Internet name of this Oracle.\n    /// @param stake The amount that the oracle owner (the caller) will put at stake. This will be transferred immediately\n    ///              if conditions apply.\n    /// @param prevEntry Place in the single-linked-list in which this oracle must be inserted\n    function registerOracleWithHint(address oracleAddr, string memory internetName, uint stake, address prevEntry)\n    public {\n        OracleInfoLib.OracleRegisterInfo storage data = registeredOracles.getByAddr(oracleAddr);\n        require(!data.isRegistered(), \"Oracle already registered\");\n        require(oracleAddr != address(0), \"Address cannot be zero\");\n        require(stake >= minOracleOwnerStake, \"Stake not at least the minimum required amount\");\n\n        _addStake(msg.sender, oracleAddr, stake);\n        registeredOracles.add(oracleAddr, internetName, prevEntry);\n        emit OracleRegistered(msg.sender, oracleAddr, internetName, stake);\n    }\n\n    /// @notice Add stake from owner account\n    /// @param oracleAddr Address of oracle\n    /// @param stake Stake to transfer from owner account\n    function addStake(address oracleAddr, uint stake) external {\n        addStakeWithHint(oracleAddr, stake, address(0), address(0));\n    }\n\n    /// @notice Add stake from owner account using a hint to locate it\n    /// @param oracleAddr Address of oracle\n    /// @param stake Stake to transfer from owner account\n    /// @param removePrevEntry Place in the single-linked-list from which this oracle must be removed\n    /// @param addPrevEntry Place in the single-linked-list in which this oracle must be inserted after stake change\n    function addStakeWithHint(address oracleAddr, uint stake, address removePrevEntry, address addPrevEntry) public {\n        OracleInfoLib.OracleRegisterInfo storage data = registeredOracles.getByAddr(oracleAddr);\n        require(data.isRegistered(), \"Oracle is not registered\");\n        require(_isOwner(data), \"Must be called by oracle owner\");\n\n        // Transfer stake [should be approved by oracle owner first]\n        _addStake(msg.sender, oracleAddr, stake);\n        registeredOracles.modify(oracleAddr, removePrevEntry, addPrevEntry);\n        emit OracleStakeAdded(msg.sender, oracleAddr, stake);\n    }\n\n    /// @notice Subscribe a registered oracle to participate in rounds of a registered coin-pair\n    /// @param oracleAddr Address of oracle\n    function subscribeCoinPair(address oracleAddr, bytes32 coinPair) external {\n        OracleInfoLib.OracleRegisterInfo storage data = registeredOracles.getByAddr(oracleAddr);\n        require(data.isRegistered(), \"Oracle is not registered\");\n        require(_isOwner(data), \"Must be called by oracle owner\");\n\n        CoinPairPrice ctAddr = _getCoinPairAddress(coinPair);\n        ctAddr.subscribe(oracleAddr);\n\n        emit OracleSubscribed(msg.sender, oracleAddr, coinPair);\n    }\n\n    /// @notice Unsubscribe a registered oracle from participating in rounds of a registered coin-pair\n    /// @param oracleAddr Address of oracle\n    function unsubscribeCoinPair(address oracleAddr, bytes32 coinPair) external {\n        OracleInfoLib.OracleRegisterInfo storage data = registeredOracles.getByAddr(oracleAddr);\n        require(data.isRegistered(), \"Oracle is not registered\");\n        require(_isOwner(data), \"Must be called by oracle owner\");\n\n        CoinPairPrice ctAddr = _getCoinPairAddress(coinPair);\n        ctAddr.unsubscribe(oracleAddr);\n\n        emit OracleUnsubscribed(msg.sender, oracleAddr, coinPair);\n    }\n\n    /// @notice stop the supporters part of oracle stake\n    /// @param oracleAddr Address of oracle\n    function stop(address oracleAddr) external {\n        OracleInfoLib.OracleRegisterInfo storage data = registeredOracles.getByAddr(oracleAddr);\n        require(data.isRegistered(), \"Oracle is not registered\");\n        require(_isOwner(data), \"Must be called by oracle owner\");\n        _unsubscribeAll(oracleAddr);\n        supportersContract.stop(oracleAddr);\n    }\n\n    /// @notice Returns true if an oracle is subscribed to a coin pair\n    function isSubscribed(address oracleAddr, bytes32 coinPair) public view returns (bool) {\n        OracleInfoLib.OracleRegisterInfo storage data = registeredOracles.getByAddr(oracleAddr);\n        require(data.isRegistered(), \"Oracle is not registered\");\n\n        CoinPairPrice ctAddr = _getCoinPairAddress(coinPair);\n        return ctAddr.isSubscribed(oracleAddr);\n    }\n\n    /// @notice Returns the list of subscribed coinpair contract address for an oracle\n    /// @return addresses Array of subscribed coin pairs addresses.\n    /// @return count The count of valid entries in the addresses param.\n    function getSubscribedCoinPairAddresses(address oracleAddr)\n    public view returns (CoinPairPrice[] memory addresses, uint count) {\n        uint coinPairCount = coinPairRegisterData._getCoinPairCount();\n        CoinPairPrice[] memory subscribedCoinpairs = new CoinPairPrice[](coinPairCount);\n        uint256 valid = 0;\n        for (uint256 i = 0; i < coinPairCount; i++)\n        {\n            bytes32 cp = coinPairRegisterData._getCoinPairAtIndex(i);\n            if (isSubscribed(oracleAddr, cp))\n            {\n                subscribedCoinpairs[i] = _getCoinPairAddress(cp);\n                valid = valid.add(1);\n            }\n        }\n\n        return (subscribedCoinpairs, valid);\n    }\n\n    /// @notice Returns the registered Oracle list head to start iteration.\n    function getRegisteredOracleHead() external view returns (address) {\n        return registeredOracles.getHead();\n    }\n\n    /// @notice Returns the registered Oracle list next entry.\n    /// @param oracleAddr The address of previous oracle.\n    function getRegisteredOracleNext(address oracleAddr) external view returns (address) {\n        return registeredOracles.getNext(oracleAddr);\n    }\n\n    /// @notice Search the Oracle list for the previous address of an entry.\n    /// @param oracleAddr The address to search for.\n    function getPrevByAddr(address oracleAddr) external view returns (address) {\n        return registeredOracles.getPrevByAddr(address(0), oracleAddr);\n    }\n\n    /// @notice Search the Oracle list for the previous address of an entry.\n    /// @param oracleAddr The address to search for.\n    function getPrevByAddrWithHint(address oracleAddr, address prevEntry) external view returns (address) {\n        return registeredOracles.getPrevByAddr(prevEntry, oracleAddr);\n    }\n\n    /// @notice Search the Oracle list for the previous address of an entry.\n    /// @param stake The stake to search for.\n    function getPrevByStake(uint stake) external view returns (address) {\n        return registeredOracles.getPrevByStake(address(0), stake);\n    }\n\n    /// @notice Search the Oracle list for the previous address of an entry.\n    /// @param stake The stake to search for.\n    function getPrevByStakeWithHint(uint stake, address prevEntry) external view returns (address) {\n        return registeredOracles.getPrevByStake(prevEntry, stake);\n    }\n\n    /// @notice Change the oracle \"internet\" name (URI)\n    /// @param oracleAddr Address of the oracle to change\n    /// @param name The new name to set.\n    function setOracleName(address oracleAddr, string calldata name) external {\n        OracleInfoLib.OracleRegisterInfo storage data = registeredOracles.getByAddr(oracleAddr);\n        require(data.isRegistered(), \"Oracle not registered\");\n        require(_isOwner(data), \"This can be called by oracle owner only\");\n        data.setName(name);\n    }\n\n    /// @notice Return true if the oracle is registered on this coin-pair\n    /// @param oracleAddr addr The address of the Oracle check for.\n    function isOracleRegistered(address oracleAddr) external view returns (bool) {\n        OracleInfoLib.OracleRegisterInfo storage data = registeredOracles.getByAddr(oracleAddr);\n        return data.isRegistered();\n    }\n\n    /// @notice Returns registration information for a registered Oracle.\n    /// @param oracleAddr addr The address of the Oracle to query for.\n    function getOracleRegistrationInfo(address oracleAddr)\n    external view returns (string memory internetName, uint stake, address _owner) {\n        OracleInfoLib.OracleRegisterInfo storage data = registeredOracles.getByAddr(oracleAddr);\n        require(data.isRegistered(), \"Oracle not registered\");\n\n        internetName = data.getName();\n        stake = getStake(oracleAddr);\n        _owner = data.getOwner();\n    }\n\n    /// @notice Returns round information for a registered oracle in a specific coin-pair.\n    /// @param oracleAddr address of the oracle to query for.\n    /// @param coinpair The coin pair to lookup.\n    function getOracleRoundInfo(address oracleAddr, bytes32 coinpair)\n    external view returns (uint points, uint selectedInRound, bool selectedInCurrentRound) {\n        CoinPairPrice ctAddr = _getCoinPairAddress(coinpair);\n        (points, selectedInRound, selectedInCurrentRound) = ctAddr.getOracleRoundInfo(oracleAddr);\n    }\n\n    /// @notice Removes an oracle from the system if conditions in\n    ///         contract he is participating apply, returning it's stake.\n    /// @param oracleAddr The address of the oracle to remove from system.\n    function removeOracle(address oracleAddr) external {\n        removeOracleWithHint(oracleAddr, address(0));\n    }\n\n    /// @notice Removes an oracle from the system if conditions in\n    ///         contract he is participating apply, returning it's stake.\n    /// @param oracleAddr The address of the oracle to remove from system.\n    /// @param prevEntry Place in the single-linked-list from which this oracle must be removed\n    function removeOracleWithHint(address oracleAddr, address prevEntry) public {\n        OracleInfoLib.OracleRegisterInfo storage data = registeredOracles.getByAddr(oracleAddr);\n        require(data.isRegistered(), \"Oracle not registered\");\n        require(_isOwner(data), \"This can be called by oracle owner only\");\n\n        require(_canRemoveOracle(oracleAddr), \"Oracle cannot be removed at this time\");\n\n        _unsubscribeAll(oracleAddr);\n        uint256 tokens = supportersContract.getBalanceAt(address(this), oracleAddr);\n        supportersContract.withdrawFromTo(tokens, oracleAddr, data.getOwner());\n        registeredOracles.remove(oracleAddr, prevEntry);\n        emit OracleRemoved(msg.sender, oracleAddr);\n    }\n\n    /// @notice Returns true if an oracle satisfies conditions to be removed from system.\n    /// @param oracleAddr the oracle address to lookup.\n    function canRemoveOracle(address oracleAddr) external view returns (bool) {\n        OracleInfoLib.OracleRegisterInfo storage data = registeredOracles.getByAddr(oracleAddr);\n        return data.isRegistered() && _canRemoveOracle(oracleAddr) && supportersContract.canWithdraw(oracleAddr);\n    }\n\n\n    /// @notice Get the stake in MOCs that an oracle has.\n    /// @param oracleAddr The address of the oracle.\n    function getStake(address oracleAddr) public view returns (uint256 balance) {\n        return supportersContract.getMOCBalanceAt(address(this), oracleAddr);\n    }\n\n    /// @notice Vesting information for account.\n    /// @param oracleAddr The address of the oracle.\n    function vestingInfoOf(address oracleAddr)\n    external view returns (uint256 balance, uint256 stoppedInblock) {\n        return supportersContract.vestingInfoOf(address(this), oracleAddr);\n    }\n\n    /// @notice Returns the count of registered coin pairs.\n    /// Keep in mind that Deleted coin-pairs will contain zeroed addresses.\n    function getCoinPairCount() external view returns (uint) {\n        return coinPairRegisterData._getCoinPairCount();\n    }\n\n    /// @notice Returns the coin pair at index.\n    /// @param i index to query.\n    function getCoinPairAtIndex(uint256 i) external view returns (bytes32) {\n        return coinPairRegisterData._getCoinPairAtIndex(i);\n    }\n\n    /// @notice Return the contract address for a specified registered coin pair.\n    /// @param coinpair Coin-pair string to lookup (e.g: BTCUSD)\n    /// @return address Address of contract or zero if does not exist or was deleted.\n    function getContractAddress(bytes32 coinpair) external view returns (address) {\n        return coinPairRegisterData._getContractAddress(coinpair);\n    }\n\n    /// @notice Searches a coinpair in coinPairList\n    /// @param coinPair The bytes32-encoded coinpair string (e.g. BTCUSD)\n    /// @param hint Optional hint to start traversing the coinPairList array, zero is to search all the array.\n    function getCoinPairIndex(bytes32 coinPair, uint256 hint) external view returns (uint256) {\n        return coinPairRegisterData._getCoinPairIndex(coinPair, hint);\n    }\n\n    /// @notice Returns true if an oracle satisfies conditions to be removed from system.\n    /// @param oracleAddr the oracle address to lookup.\n    function _canRemoveOracle(address oracleAddr) private view returns (bool) {\n        uint coinPairCount = coinPairRegisterData._getCoinPairCount();\n        bool canRemove = true;\n        for (uint i = 0; i < coinPairCount && canRemove; i++) {\n            CoinPairPrice cp = _getCoinPairAddress(coinPairRegisterData._getCoinPairAtIndex(i));\n            canRemove = canRemove && cp.canRemoveOracle(oracleAddr);\n        }\n        return canRemove;\n    }\n\n    /// @dev Add stake internal\n    function _addStake(address oracleOwner, address oracleAddr, uint256 stake) private {\n        // Transfer stake [should be approved by oracle owner first]\n        require(token.transferFrom(oracleOwner, address(this), stake), \"Error in transfer\");\n\n        // Stake at supportersContract contract\n        require(token.approve(address(supportersContract), stake), \"Error in approve\");\n        supportersContract.stakeAtFrom(stake, oracleAddr, address(this));\n    }\n\n\n    /// @dev Unsubscribe a registered oracle from participating in all registered coin-pairs\n    /// @param oracleAddr Address of oracle\n    function _unsubscribeAll(address oracleAddr) private\n    {\n        OracleInfoLib.OracleRegisterInfo storage data = registeredOracles.getByAddr(oracleAddr);\n        require(data.isRegistered(), \"Oracle is not registered\");\n        require(_isOwner(data), \"Must be called by oracle owner\");\n\n        (CoinPairPrice[] memory coinpairs, uint count) = getSubscribedCoinPairAddresses(oracleAddr);\n        for (uint i = 0; i < count; i++) {\n            coinpairs[i].unsubscribe(oracleAddr);\n        }\n    }\n\n    // A change contract can act as the owner of an Oracle\n    function _isOwner(OracleInfoLib.OracleRegisterInfo storage data) private view returns (bool) {\n        return data.isOwner(msg.sender) || governor.isAuthorizedChanger(msg.sender);\n    }\n\n    /// @notice Return the contract address for a specified registered coin pair.\n    /// @param coinpair Coin-pair string to lookup (e.g: BTCUSD)\n    /// @return address Address of contract or zero if does not exist or was deleted.\n    function _getCoinPairAddress(bytes32 coinpair) private view returns (CoinPairPrice) {\n        return CoinPairPrice(coinPairRegisterData._getContractAddress(coinpair));\n    }\n\n}\n",
  "sourcePath": "/home/adji/Desktop/work/coinfabrik/OMoC-Decentralized-Oracle/contracts/contracts/OracleManager.sol",
  "compiler": {
    "name": "solc",
    "version": "0.6.0+commit.26b70077.Emscripten.clang"
  },
  "schemaVersion": "3.2.0",
  "updatedAt": "2020-06-29T22:10:40.377Z",
  "networkType": "ethereum",
  "devdoc": {
    "methods": {
      "addStake(address,uint256)": {
        "params": {
          "oracleAddr": "Address of oracle",
          "stake": "Stake to transfer from owner account"
        }
      },
      "addStakeWithHint(address,uint256,address,address)": {
        "params": {
          "addPrevEntry": "Place in the single-linked-list in which this oracle must be inserted after stake change",
          "oracleAddr": "Address of oracle",
          "removePrevEntry": "Place in the single-linked-list from which this oracle must be removed",
          "stake": "Stake to transfer from owner account"
        }
      },
      "canRemoveOracle(address)": {
        "params": {
          "oracleAddr": "the oracle address to lookup."
        }
      },
      "changeIGovernor(address)": {
        "params": {
          "newIGovernor": "New governor address"
        }
      },
      "getCoinPairAtIndex(uint256)": {
        "params": {
          "i": "index to query."
        }
      },
      "getCoinPairIndex(bytes32,uint256)": {
        "params": {
          "coinPair": "The bytes32-encoded coinpair string (e.g. BTCUSD)",
          "hint": "Optional hint to start traversing the coinPairList array, zero is to search all the array."
        }
      },
      "getContractAddress(bytes32)": {
        "params": {
          "coinpair": "Coin-pair string to lookup (e.g: BTCUSD)"
        },
        "returns": {
          "_0": "address Address of contract or zero if does not exist or was deleted."
        }
      },
      "getOracleRegistrationInfo(address)": {
        "params": {
          "oracleAddr": "addr The address of the Oracle to query for."
        }
      },
      "getOracleRoundInfo(address,bytes32)": {
        "params": {
          "coinpair": "The coin pair to lookup.",
          "oracleAddr": "address of the oracle to query for."
        }
      },
      "getPrevByAddr(address)": {
        "params": {
          "oracleAddr": "The address to search for."
        }
      },
      "getPrevByAddrWithHint(address,address)": {
        "params": {
          "oracleAddr": "The address to search for."
        }
      },
      "getPrevByStake(uint256)": {
        "params": {
          "stake": "The stake to search for."
        }
      },
      "getPrevByStakeWithHint(uint256,address)": {
        "params": {
          "stake": "The stake to search for."
        }
      },
      "getRegisteredOracleNext(address)": {
        "params": {
          "oracleAddr": "The address of previous oracle."
        }
      },
      "getStake(address)": {
        "params": {
          "oracleAddr": "The address of the oracle."
        }
      },
      "initialize(address,uint256,address)": {
        "params": {
          "_minOracleOwnerStake": "The minimum amount of tokens required as stake by oracle owners.",
          "_supportersContract": "the Supporters contract contract address."
        }
      },
      "isOracleRegistered(address)": {
        "params": {
          "oracleAddr": "addr The address of the Oracle check for."
        }
      },
      "registerCoinPair(bytes32,address)": {
        "params": {
          "addr": "The contract address associated to the coinpair.",
          "coinPair": "The bytes32-encoded coinpair string (e.g. BTCUSD)"
        }
      },
      "registerOracle(address,string,uint256)": {
        "params": {
          "internetName": "Public Internet name of this Oracle.",
          "oracleAddr": "Address of the Oracle to register.",
          "stake": "The amount that the oracle owner (the caller) will put at stake. This will be transferred                 immediately if conditions apply."
        }
      },
      "registerOracleWithHint(address,string,uint256,address)": {
        "params": {
          "internetName": "Public Internet name of this Oracle.",
          "oracleAddr": "Address of the Oracle to register.",
          "prevEntry": "Place in the single-linked-list in which this oracle must be inserted",
          "stake": "The amount that the oracle owner (the caller) will put at stake. This will be transferred immediately              if conditions apply."
        }
      },
      "removeOracle(address)": {
        "params": {
          "oracleAddr": "The address of the oracle to remove from system."
        }
      },
      "removeOracleWithHint(address,address)": {
        "params": {
          "oracleAddr": "The address of the oracle to remove from system.",
          "prevEntry": "Place in the single-linked-list from which this oracle must be removed"
        }
      },
      "setOracleName(address,string)": {
        "params": {
          "name": "The new name to set.",
          "oracleAddr": "Address of the oracle to change"
        }
      },
      "stop(address)": {
        "params": {
          "oracleAddr": "Address of oracle"
        }
      },
      "subscribeCoinPair(address,bytes32)": {
        "params": {
          "oracleAddr": "Address of oracle"
        }
      },
      "unsubscribeCoinPair(address,bytes32)": {
        "params": {
          "oracleAddr": "Address of oracle"
        }
      },
      "vestingInfoOf(address)": {
        "params": {
          "oracleAddr": "The address of the oracle."
        }
      }
    }
  },
  "userdoc": {
    "methods": {
      "addStake(address,uint256)": {
        "notice": "Add stake from owner account"
      },
      "addStakeWithHint(address,uint256,address,address)": {
        "notice": "Add stake from owner account using a hint to locate it"
      },
      "canRemoveOracle(address)": {
        "notice": "Returns true if an oracle satisfies conditions to be removed from system."
      },
      "changeIGovernor(address)": {
        "notice": "Change the contract's governor. Should be called through the old governance system"
      },
      "getCoinPairAtIndex(uint256)": {
        "notice": "Returns the coin pair at index."
      },
      "getCoinPairCount()": {
        "notice": "Returns the count of registered coin pairs. Keep in mind that Deleted coin-pairs will contain zeroed addresses."
      },
      "getCoinPairIndex(bytes32,uint256)": {
        "notice": "Searches a coinpair in coinPairList"
      },
      "getContractAddress(bytes32)": {
        "notice": "Return the contract address for a specified registered coin pair."
      },
      "getOracleRegistrationInfo(address)": {
        "notice": "Returns registration information for a registered Oracle."
      },
      "getOracleRoundInfo(address,bytes32)": {
        "notice": "Returns round information for a registered oracle in a specific coin-pair."
      },
      "getPrevByAddr(address)": {
        "notice": "Search the Oracle list for the previous address of an entry."
      },
      "getPrevByAddrWithHint(address,address)": {
        "notice": "Search the Oracle list for the previous address of an entry."
      },
      "getPrevByStake(uint256)": {
        "notice": "Search the Oracle list for the previous address of an entry."
      },
      "getPrevByStakeWithHint(uint256,address)": {
        "notice": "Search the Oracle list for the previous address of an entry."
      },
      "getRegisteredOracleHead()": {
        "notice": "Returns the registered Oracle list head to start iteration."
      },
      "getRegisteredOracleNext(address)": {
        "notice": "Returns the registered Oracle list next entry."
      },
      "getStake(address)": {
        "notice": "Get the stake in MOCs that an oracle has."
      },
      "getSubscribedCoinPairAddresses(address)": {
        "notice": "Returns the list of subscribed coinpair contract address for an oracle"
      },
      "initialize(address,uint256,address)": {
        "notice": "Construct this contract."
      },
      "isOracleRegistered(address)": {
        "notice": "Return true if the oracle is registered on this coin-pair"
      },
      "isSubscribed(address,bytes32)": {
        "notice": "Returns true if an oracle is subscribed to a coin pair"
      },
      "registerCoinPair(bytes32,address)": {
        "notice": "Register a new coin pair contract."
      },
      "registerOracle(address,string,uint256)": {
        "notice": "Register an oracle in the system with an initial stake.Registers the oracle and transfer the specified caller's MOC token stake."
      },
      "registerOracleWithHint(address,string,uint256,address)": {
        "notice": "Registers the oracle and transfer the specified caller's MOC token stake. Using a hint to sort it"
      },
      "removeOracle(address)": {
        "notice": "Removes an oracle from the system if conditions in         contract he is participating apply, returning it's stake."
      },
      "removeOracleWithHint(address,address)": {
        "notice": "Removes an oracle from the system if conditions in         contract he is participating apply, returning it's stake."
      },
      "setOracleName(address,string)": {
        "notice": "Change the oracle \"internet\" name (URI)"
      },
      "stop(address)": {
        "notice": "stop the supporters part of oracle stake"
      },
      "subscribeCoinPair(address,bytes32)": {
        "notice": "Subscribe a registered oracle to participate in rounds of a registered coin-pair"
      },
      "unsubscribeCoinPair(address,bytes32)": {
        "notice": "Unsubscribe a registered oracle from participating in rounds of a registered coin-pair"
      },
      "vestingInfoOf(address)": {
        "notice": "Vesting information for account."
      }
    }
  }
}