{
  "contractName": "OracleManagerUnsubscribeChange",
  "abi": [
    {
      "inputs": [
        {
          "internalType": "contract OracleManager",
          "name": "_oracleManager",
          "type": "address"
        },
        {
          "internalType": "address",
          "name": "_oracleAddr",
          "type": "address"
        },
        {
          "internalType": "bytes32",
          "name": "_coinPair",
          "type": "bytes32"
        }
      ],
      "stateMutability": "nonpayable",
      "type": "constructor"
    },
    {
      "inputs": [],
      "name": "coinPair",
      "outputs": [
        {
          "internalType": "bytes32",
          "name": "",
          "type": "bytes32"
        }
      ],
      "stateMutability": "view",
      "type": "function"
    },
    {
      "inputs": [],
      "name": "oracleAddr",
      "outputs": [
        {
          "internalType": "address",
          "name": "",
          "type": "address"
        }
      ],
      "stateMutability": "view",
      "type": "function"
    },
    {
      "inputs": [],
      "name": "oracleManager",
      "outputs": [
        {
          "internalType": "contract OracleManager",
          "name": "",
          "type": "address"
        }
      ],
      "stateMutability": "view",
      "type": "function"
    },
    {
      "inputs": [],
      "name": "execute",
      "outputs": [],
      "stateMutability": "nonpayable",
      "type": "function"
    }
  ],
  "bytecode": "0x608060405234801561001057600080fd5b506040516102003803806102008339818101604052606081101561003357600080fd5b5080516020820151604090920151600080546001600160a01b039384166001600160a01b031991821617909155600180549390941692169190911790915560025561017d806100836000396000f3fe608060405234801561001057600080fd5b506004361061004c5760003560e01c806334c1e5b514610051578063565d878c1461006b578063614619541461008f5780637e4e61d714610099575b600080fd5b6100596100a1565b60408051918252519081900360200190f35b6100736100a7565b604080516001600160a01b039092168252519081900360200190f35b6100976100b6565b005b610073610138565b60025481565b6000546001600160a01b031681565b6000805460015460025460408051636d1f0b9360e11b81526001600160a01b039384166004820152602481019290925251919092169263da3e1726926044808201939182900301818387803b15801561010e57600080fd5b505af1158015610122573d6000803e3d6000fd5b5050600080546001600160a01b03191690555050565b6001546001600160a01b03168156fea264697066735822122083d5404645e6f06283e99adccadb23dac6044a294e2597593838898565626a7364736f6c63430006000033",
  "source": "pragma solidity 0.6.0;\n\nimport {ChangeContract} from \"../moc-gobernanza/Governance/ChangeContract.sol\";\nimport {OracleManager} from \"../OracleManager.sol\";\n\n/**\n  @title UpgraderTemplate\n  @notice This contract is a ChangeContract intended to be used when\n  upgrading any contract upgradeable through the zos-lib upgradeability\n  system. This doesn't initialize the upgraded contract, that should be done extending\n  this one or taking it as a guide\n */\ncontract OracleManagerUnsubscribeChange is ChangeContract {\n\n    OracleManager public oracleManager;\n    address public oracleAddr;\n    bytes32 public coinPair;\n\n    /**\n      @notice Constructor\n      @param _oracleManager Address of oracle manager used to register the coin pair\n      @param _oracleAddr The coinpair contract implementation address\n      @param _coinPair The coinpair to register\n    */\n    constructor(OracleManager _oracleManager, address _oracleAddr, bytes32 _coinPair) public {\n        oracleManager = _oracleManager;\n        oracleAddr = _oracleAddr;\n        coinPair = _coinPair;\n    }\n\n    /**\n      @notice Execute the changes.\n      */\n    function execute() external override {\n        oracleManager.unsubscribeCoinPair(oracleAddr, coinPair);\n        oracleManager = OracleManager(0);\n    }\n\n}\n",
  "sourcePath": "/home/adji/Desktop/work/coinfabrik/OMoC-Decentralized-Oracle/contracts/contracts/change/OracleManagerUnsubscribeChange.sol",
  "compiler": {
    "name": "solc",
    "version": "0.6.0+commit.26b70077.Emscripten.clang"
  },
  "schemaVersion": "3.2.0",
  "updatedAt": "2020-06-29T21:30:43.134Z",
  "devdoc": {
    "methods": {
      "constructor": {
        "params": {
          "_coinPair": "The coinpair to register",
          "_oracleAddr": "The coinpair contract implementation address",
          "_oracleManager": "Address of oracle manager used to register the coin pair"
        }
      }
    },
    "title": "UpgraderTemplate"
  },
  "userdoc": {
    "methods": {
      "constructor": "Constructor",
      "execute()": {
        "notice": "Execute the changes."
      }
    },
    "notice": "This contract is a ChangeContract intended to be used when upgrading any contract upgradeable through the zos-lib upgradeability system. This doesn't initialize the upgraded contract, that should be done extending this one or taking it as a guide"
  }
}