{
  "contractName": "PriceProviderRegisterPairChange",
  "abi": [
    {
      "inputs": [
        {
          "internalType": "contract PriceProviderRegister",
          "name": "_priceProviderRegister",
          "type": "address"
        },
        {
          "internalType": "bytes32",
          "name": "_coinPair",
          "type": "bytes32"
        },
        {
          "internalType": "contract IPriceProviderRegisterEntry",
          "name": "_contractAddr",
          "type": "address"
        }
      ],
      "stateMutability": "nonpayable",
      "type": "constructor"
    },
    {
      "inputs": [],
      "name": "coinPair",
      "outputs": [
        {
          "internalType": "bytes32",
          "name": "",
          "type": "bytes32"
        }
      ],
      "stateMutability": "view",
      "type": "function",
      "constant": true
    },
    {
      "inputs": [],
      "name": "contractAddr",
      "outputs": [
        {
          "internalType": "contract IPriceProviderRegisterEntry",
          "name": "",
          "type": "address"
        }
      ],
      "stateMutability": "view",
      "type": "function",
      "constant": true
    },
    {
      "inputs": [],
      "name": "priceProviderRegister",
      "outputs": [
        {
          "internalType": "contract PriceProviderRegister",
          "name": "",
          "type": "address"
        }
      ],
      "stateMutability": "view",
      "type": "function",
      "constant": true
    },
    {
      "inputs": [],
      "name": "execute",
      "outputs": [],
      "stateMutability": "nonpayable",
      "type": "function"
    }
  ],
  "bytecode": "0x608060405234801561001057600080fd5b506040516101ee3803806101ee8339818101604052606081101561003357600080fd5b5080516020820151604090920151600080546001600160a01b039384166001600160a01b03199182161790915560019390935560028054929091169190921617905561016a806100846000396000f3fe608060405234801561001057600080fd5b506004361061004c5760003560e01c806315a5d9d81461005157806334c1e5b514610075578063614619541461008f578063dafa637114610099575b600080fd5b6100596100a1565b604080516001600160a01b039092168252519081900360200190f35b61007d6100b0565b60408051918252519081900360200190f35b6100976100b6565b005b610059610125565b6002546001600160a01b031681565b60015481565b60008054600154600254604080516347020c8f60e11b815260048101939093526001600160a01b03918216602484015251921692638e04191e9260448084019382900301818387803b15801561010b57600080fd5b505af115801561011f573d6000803e3d6000fd5b50505050565b6000546001600160a01b03168156fea2646970667358221220f1c91dd65462dac4f84b135f0d0380327359161228fe0f81da428bbc6e3e48f664736f6c63430006000033",
  "source": "pragma solidity 0.6.0;\n\nimport {ChangeContract} from \"../moc-gobernanza/Governance/ChangeContract.sol\";\nimport {OracleManager} from \"../OracleManager.sol\";\nimport {CoinPairPrice} from \"../CoinPairPrice.sol\";\nimport {PriceProviderRegister} from \"../PriceProviderRegister.sol\";\nimport {IPriceProviderRegisterEntry} from \"../libs/IPriceProviderRegisterEntry.sol\";\n\n/**\n  @title UpgraderTemplate\n  @notice This contract is a ChangeContract intended to be used when\n  upgrading any contract upgradeable through the zos-lib upgradeability\n  system. This doesn't initialize the upgraded contract, that should be done extending\n  this one or taking it as a guide\n */\ncontract PriceProviderRegisterPairChange is ChangeContract {\n    PriceProviderRegister public priceProviderRegister;\n    bytes32 public coinPair;\n    IPriceProviderRegisterEntry public contractAddr;\n\n    /**\n      @notice Constructor\n      @param _priceProviderRegister Address of register contract used to register the coin pairs\n      @param _coinPair Coinpair to register\n      @param _contractAddr Address to register\n    */\n    constructor(PriceProviderRegister _priceProviderRegister, bytes32 _coinPair,\n        IPriceProviderRegisterEntry _contractAddr) public {\n        priceProviderRegister = _priceProviderRegister;\n        coinPair = _coinPair;\n        contractAddr = _contractAddr;\n    }\n\n    /**\n      @notice Execute the changes.\n      @dev Should be called by the governor, but this contract does not check that explicitly because\n      it is not its responsability in the current architecture\n      IMPORTANT: This function should not be overriden, you should only redefine\n      the _beforeUpgrade and _afterUpgrade to use this template\n     */\n    function execute() external override {\n        priceProviderRegister.registerCoinPair(coinPair, contractAddr);\n        // OVERRIDE THE OLD ONE !!!\n        // priceProviderRegister.setCoinPair(coinPair,contractAddr);\n        // TODO: Make it usable just once.\n    }\n\n}\n",
  "sourcePath": "/home/adji/Desktop/work/coinfabrik/OMoC-Decentralized-Oracle/contracts/contracts/change/PriceProviderRegisterPairChange.sol",
  "compiler": {
    "name": "solc",
    "version": "0.6.0+commit.26b70077.Emscripten.clang"
  },
  "schemaVersion": "3.2.0",
  "updatedAt": "2020-06-29T22:16:42.443Z",
  "networkType": "ethereum",
  "devdoc": {
    "methods": {
      "constructor": {
        "params": {
          "_coinPair": "Coinpair to register",
          "_contractAddr": "Address to register",
          "_priceProviderRegister": "Address of register contract used to register the coin pairs"
        }
      },
      "execute()": {
        "details": "Should be called by the governor, but this contract does not check that explicitly because it is not its responsability in the current architecture IMPORTANT: This function should not be overriden, you should only redefine the _beforeUpgrade and _afterUpgrade to use this template"
      }
    },
    "title": "UpgraderTemplate"
  },
  "userdoc": {
    "methods": {
      "constructor": "Constructor",
      "execute()": {
        "notice": "Execute the changes."
      }
    },
    "notice": "This contract is a ChangeContract intended to be used when upgrading any contract upgradeable through the zos-lib upgradeability system. This doesn't initialize the upgraded contract, that should be done extending this one or taking it as a guide"
  }
}