{
  "contractName": "ReentrancyGuard",
  "abi": [
    {
      "inputs": [],
      "name": "initialize",
      "outputs": [],
      "stateMutability": "nonpayable",
      "type": "function"
    }
  ],
  "bytecode": "0x608060405234801561001057600080fd5b5061014b806100206000396000f3fe608060405234801561001057600080fd5b506004361061002b5760003560e01c80638129fc1c14610030575b600080fd5b61003861003a565b005b600054610100900460ff168061005357506100536100e1565b80610061575060005460ff16155b61009c5760405162461bcd60e51b815260040180806020018281038252602e8152602001806100e8602e913960400191505060405180910390fd5b600054610100900460ff161580156100c7576000805460ff1961ff0019909116610100171660011790555b600160335580156100de576000805461ff00191690555b50565b303b159056fe436f6e747261637420696e7374616e63652068617320616c7265616479206265656e20696e697469616c697a6564a2646970667358221220bf1ea10762652af81c4c8433816e071c0f0e1c61970579f31845033483c7d6c364736f6c63430006000033",
  "source": "pragma solidity 0.6.0;\n\nimport \"../Initializable.sol\";\n\n/**\n * @title Helps contracts guard against reentrancy attacks.\n * @author Remco Bloemen <remco@2π.com>, Eenae <alexey@mixbytes.io>\n * @dev If you mark a function `nonReentrant`, you should also\n * mark it `external`.\n */\ncontract ReentrancyGuard is Initializable {\n    /// @dev counter to allow mutex lock with only one SSTORE operation\n    uint256 private _guardCounter;\n\n    function initialize() public initializer virtual {\n        // The counter starts at one to prevent changing it from zero to a non-zero\n        // value, which is a more expensive operation.\n        _guardCounter = 1;\n    }\n\n    /**\n     * @dev Prevents a contract from calling itself, directly or indirectly.\n     * Calling a `nonReentrant` function from another `nonReentrant`\n     * function is not supported. It is possible to prevent this from happening\n     * by making the `nonReentrant` function external, and make it call a\n     * `private` function that does the actual work.\n     */\n    modifier nonReentrant() {\n        _guardCounter += 1;\n        uint256 localCounter = _guardCounter;\n        _;\n        require(localCounter == _guardCounter);\n    }\n\n    uint256[50] private ______gap;\n}\n",
  "sourcePath": "/home/adji/Desktop/work/coinfabrik/OMoC-Decentralized-Oracle/contracts/contracts/openzeppelin/utils/ReentrancyGuard.sol",
  "compiler": {
    "name": "solc",
    "version": "0.6.0+commit.26b70077.Emscripten.clang"
  },
  "schemaVersion": "3.2.0",
  "updatedAt": "2020-06-29T21:30:43.190Z",
  "devdoc": {
    "author": "Remco Bloemen <remco@2π.com>, Eenae <alexey@mixbytes.io>",
    "details": "If you mark a function `nonReentrant`, you should also mark it `external`.",
    "methods": {},
    "title": "Helps contracts guard against reentrancy attacks."
  },
  "userdoc": {
    "methods": {}
  }
}