{
  "contractName": "RegistryConstants",
  "abi": [
    {
      "inputs": [],
      "name": "INFO_ADDR",
      "outputs": [
        {
          "internalType": "bytes32",
          "name": "",
          "type": "bytes32"
        }
      ],
      "stateMutability": "view",
      "type": "function"
    },
    {
      "inputs": [],
      "name": "MESSAGE_VERSION",
      "outputs": [
        {
          "internalType": "bytes32",
          "name": "",
          "type": "bytes32"
        }
      ],
      "stateMutability": "view",
      "type": "function"
    },
    {
      "inputs": [],
      "name": "MOC_DELAY_MACHINE",
      "outputs": [
        {
          "internalType": "bytes32",
          "name": "",
          "type": "bytes32"
        }
      ],
      "stateMutability": "view",
      "type": "function"
    },
    {
      "inputs": [],
      "name": "MOC_STAKING_MACHINE",
      "outputs": [
        {
          "internalType": "bytes32",
          "name": "",
          "type": "bytes32"
        }
      ],
      "stateMutability": "view",
      "type": "function"
    },
    {
      "inputs": [],
      "name": "MOC_TOKEN",
      "outputs": [
        {
          "internalType": "bytes32",
          "name": "",
          "type": "bytes32"
        }
      ],
      "stateMutability": "view",
      "type": "function"
    },
    {
      "inputs": [],
      "name": "MOC_VESTING_MACHINE",
      "outputs": [
        {
          "internalType": "bytes32",
          "name": "",
          "type": "bytes32"
        }
      ],
      "stateMutability": "view",
      "type": "function"
    },
    {
      "inputs": [],
      "name": "MOC_VOTING_MACHINE",
      "outputs": [
        {
          "internalType": "bytes32",
          "name": "",
          "type": "bytes32"
        }
      ],
      "stateMutability": "view",
      "type": "function"
    },
    {
      "inputs": [],
      "name": "MOC_VOTING_MACHINE_MAX_PRE_PROPOSALS",
      "outputs": [
        {
          "internalType": "bytes32",
          "name": "",
          "type": "bytes32"
        }
      ],
      "stateMutability": "view",
      "type": "function"
    },
    {
      "inputs": [],
      "name": "MOC_VOTING_MACHINE_MIN_STAKE",
      "outputs": [
        {
          "internalType": "bytes32",
          "name": "",
          "type": "bytes32"
        }
      ],
      "stateMutability": "view",
      "type": "function"
    },
    {
      "inputs": [],
      "name": "MOC_VOTING_MACHINE_PCT_PRECISION",
      "outputs": [
        {
          "internalType": "bytes32",
          "name": "",
          "type": "bytes32"
        }
      ],
      "stateMutability": "view",
      "type": "function"
    },
    {
      "inputs": [],
      "name": "MOC_VOTING_MACHINE_PRE_VOTE_EXPIRATION_TIME_DELTA",
      "outputs": [
        {
          "internalType": "bytes32",
          "name": "",
          "type": "bytes32"
        }
      ],
      "stateMutability": "view",
      "type": "function"
    },
    {
      "inputs": [],
      "name": "MOC_VOTING_MACHINE_PRE_VOTE_MIN_PCT_TO_WIN",
      "outputs": [
        {
          "internalType": "bytes32",
          "name": "",
          "type": "bytes32"
        }
      ],
      "stateMutability": "view",
      "type": "function"
    },
    {
      "inputs": [],
      "name": "MOC_VOTING_MACHINE_VOTE_MIN_PCT_FOR_QUORUM",
      "outputs": [
        {
          "internalType": "bytes32",
          "name": "",
          "type": "bytes32"
        }
      ],
      "stateMutability": "view",
      "type": "function"
    },
    {
      "inputs": [],
      "name": "MOC_VOTING_MACHINE_VOTE_MIN_PCT_TO_ACCEPT",
      "outputs": [
        {
          "internalType": "bytes32",
          "name": "",
          "type": "bytes32"
        }
      ],
      "stateMutability": "view",
      "type": "function"
    },
    {
      "inputs": [],
      "name": "MOC_VOTING_MACHINE_VOTE_MIN_PCT_TO_VETO",
      "outputs": [
        {
          "internalType": "bytes32",
          "name": "",
          "type": "bytes32"
        }
      ],
      "stateMutability": "view",
      "type": "function"
    },
    {
      "inputs": [],
      "name": "MOC_VOTING_MACHINE_VOTING_TIME_DELTA",
      "outputs": [
        {
          "internalType": "bytes32",
          "name": "",
          "type": "bytes32"
        }
      ],
      "stateMutability": "view",
      "type": "function"
    },
    {
      "inputs": [],
      "name": "ORACLE_BLOCKCHAIN_INFO_INTERVAL",
      "outputs": [
        {
          "internalType": "bytes32",
          "name": "",
          "type": "bytes32"
        }
      ],
      "stateMutability": "view",
      "type": "function"
    },
    {
      "inputs": [],
      "name": "ORACLE_COIN_PAIR_LOOP_TASK_INTERVAL",
      "outputs": [
        {
          "internalType": "bytes32",
          "name": "",
          "type": "bytes32"
        }
      ],
      "stateMutability": "view",
      "type": "function"
    },
    {
      "inputs": [],
      "name": "ORACLE_CONFIGURATION_TASK_INTERVAL",
      "outputs": [
        {
          "internalType": "bytes32",
          "name": "",
          "type": "bytes32"
        }
      ],
      "stateMutability": "view",
      "type": "function"
    },
    {
      "inputs": [],
      "name": "ORACLE_ENTERING_FALLBACKS_AMOUNTS",
      "outputs": [
        {
          "internalType": "bytes32",
          "name": "",
          "type": "bytes32"
        }
      ],
      "stateMutability": "view",
      "type": "function"
    },
    {
      "inputs": [],
      "name": "ORACLE_GATHER_SIGNATURE_TIMEOUT",
      "outputs": [
        {
          "internalType": "bytes32",
          "name": "",
          "type": "bytes32"
        }
      ],
      "stateMutability": "view",
      "type": "function"
    },
    {
      "inputs": [],
      "name": "ORACLE_MAIN_EXECUTOR_TASK_INTERVAL",
      "outputs": [
        {
          "internalType": "bytes32",
          "name": "",
          "type": "bytes32"
        }
      ],
      "stateMutability": "view",
      "type": "function"
    },
    {
      "inputs": [],
      "name": "ORACLE_MAIN_LOOP_TASK_INTERVAL",
      "outputs": [
        {
          "internalType": "bytes32",
          "name": "",
          "type": "bytes32"
        }
      ],
      "stateMutability": "view",
      "type": "function"
    },
    {
      "inputs": [],
      "name": "ORACLE_MANAGER_ADDR",
      "outputs": [
        {
          "internalType": "bytes32",
          "name": "",
          "type": "bytes32"
        }
      ],
      "stateMutability": "view",
      "type": "function"
    },
    {
      "inputs": [],
      "name": "ORACLE_PRICE_DELTA_PCT",
      "outputs": [
        {
          "internalType": "bytes32",
          "name": "",
          "type": "bytes32"
        }
      ],
      "stateMutability": "view",
      "type": "function"
    },
    {
      "inputs": [],
      "name": "ORACLE_PRICE_DIGITS",
      "outputs": [
        {
          "internalType": "bytes32",
          "name": "",
          "type": "bytes32"
        }
      ],
      "stateMutability": "view",
      "type": "function"
    },
    {
      "inputs": [],
      "name": "ORACLE_PRICE_FETCH_RATE",
      "outputs": [
        {
          "internalType": "bytes32",
          "name": "",
          "type": "bytes32"
        }
      ],
      "stateMutability": "view",
      "type": "function"
    },
    {
      "inputs": [],
      "name": "ORACLE_PRICE_PUBLISH_BLOCKS",
      "outputs": [
        {
          "internalType": "bytes32",
          "name": "",
          "type": "bytes32"
        }
      ],
      "stateMutability": "view",
      "type": "function"
    },
    {
      "inputs": [],
      "name": "ORACLE_PRICE_REJECT_DELTA_PCT",
      "outputs": [
        {
          "internalType": "bytes32",
          "name": "",
          "type": "bytes32"
        }
      ],
      "stateMutability": "view",
      "type": "function"
    },
    {
      "inputs": [],
      "name": "ORACLE_QUEUE_LEN",
      "outputs": [
        {
          "internalType": "bytes32",
          "name": "",
          "type": "bytes32"
        }
      ],
      "stateMutability": "view",
      "type": "function"
    },
    {
      "inputs": [],
      "name": "ORACLE_STAKE_LIMIT_MULTIPLICATOR",
      "outputs": [
        {
          "internalType": "bytes32",
          "name": "",
          "type": "bytes32"
        }
      ],
      "stateMutability": "view",
      "type": "function"
    },
    {
      "inputs": [],
      "name": "ORACLE_TRIGGER_VALID_PUBLICATION_BLOCKS",
      "outputs": [
        {
          "internalType": "bytes32",
          "name": "",
          "type": "bytes32"
        }
      ],
      "stateMutability": "view",
      "type": "function"
    },
    {
      "inputs": [],
      "name": "ORACLE_WITHDRAW_LOCK_TIME",
      "outputs": [
        {
          "internalType": "bytes32",
          "name": "",
          "type": "bytes32"
        }
      ],
      "stateMutability": "view",
      "type": "function"
    },
    {
      "inputs": [],
      "name": "SCHEDULER_POOL_DELAY",
      "outputs": [
        {
          "internalType": "bytes32",
          "name": "",
          "type": "bytes32"
        }
      ],
      "stateMutability": "view",
      "type": "function"
    },
    {
      "inputs": [],
      "name": "SCHEDULER_ROUND_DELAY",
      "outputs": [
        {
          "internalType": "bytes32",
          "name": "",
          "type": "bytes32"
        }
      ],
      "stateMutability": "view",
      "type": "function"
    },
    {
      "inputs": [],
      "name": "SUPPORTERS_ADDR",
      "outputs": [
        {
          "internalType": "bytes32",
          "name": "",
          "type": "bytes32"
        }
      ],
      "stateMutability": "view",
      "type": "function"
    }
  ],
  "bytecode": "0x608060405234801561001057600080fd5b50610899806100206000396000f3fe608060405234801561001057600080fd5b506004361061021c5760003560e01c8063915e4e1011610125578063ba6fc287116100ad578063e873e2081161007c578063e873e2081461032b578063ea0e066114610333578063f13eb2d51461033b578063fa8ab4c114610343578063faf620bc1461034b5761021c565b8063ba6fc2871461030b578063d274eaff14610313578063d3f055d71461031b578063d51673fb146103235761021c565b8063a68d751e116100f4578063a68d751e146102e3578063a6c456f1146102eb578063b01f02bf146102f3578063b74ab6fc146102fb578063b90163d1146103035761021c565b8063915e4e10146102c357806394ff8ee6146102cb5780639b09d9c9146102d35780639d81ac84146102db5761021c565b8063484cae4e116101a8578063793caa6711610177578063793caa671461029b5780637c197e21146102a35780637ccc00cc146102ab5780638bc7b6f2146102b35780638da1b81d146102bb5761021c565b8063484cae4e1461027b5780634b903654146102835780634eb836f51461028b578063586dec23146102935761021c565b806328f134a4116101ef57806328f134a414610253578063296e9cc41461025b57806339e94f13146102635780633bdc39501461026b5780633f827a5a146102735761021c565b80630358faeb146102215780630fc67cec1461023b578063213fe5c014610243578063264006931461024b575b600080fd5b610229610353565b60408051918252519081900360200190f35b610229610377565b61022961039b565b6102296103bf565b6102296103e3565b610229610407565b61022961042b565b61022961044f565b610229610473565b610229610497565b6102296104bb565b6102296104df565b610229610503565b610229610527565b61022961054b565b61022961056f565b610229610593565b6102296105b7565b6102296105db565b6102296105ff565b610229610623565b610229610647565b61022961066b565b61022961068f565b6102296106b3565b6102296106d7565b6102296106fb565b61022961071f565b610229610743565b610229610767565b61022961078b565b6102296107af565b6102296107d3565b6102296107f7565b61022961081b565b61022961083f565b7fda9f12e01fc92de345bb741448d36ecb967052dd7aa1670439af833c9a3d78f181565b7f275d8a46b817572476d2d55b41c7709dee307740bad676a9693805003a48d23181565b7fb43ee0a5ee6dcc7115ce824e4e353526ad6e479afa4daeb78451070de942de3681565b7fc32b9cbc59039d297e670e7c196424308c90ba4a437fa7ccd008498c934e7dbf81565b7f4cd7e3f12ee4a2db0a6ba16e03fbc31bba1048c149bbf4fc9f3c02021ec550b881565b7f2f271dc1fa81985bda14a2d6d0d60b45191d2a2d97e636b192696a8796d654a781565b7f7dfea4fb968e2599cdb7b3028c07d0188d0f92d1d00bd95c2805523c224649dd81565b7f7a3ee46ca1bd3e19089870d8d6530b083a86da93aab52efccb32d5950e2709cf81565b7feafac1a2b4d4fdcc942cbdce334a88ec83387087978d039f1320d3639a0b59df81565b7fb324a91be1ac0d0c4888c835aee124ca1a7caf4b73ce10aa3504e2683865d7e581565b7ff646c455329c7af0436f9e95c59c90ce0e11bb4e3a1deff805807798696adf8881565b7f16986f74674f2ed21d50b6e74e6b12bb323ff4f72364542fd5de5104f3cc3ca981565b7fc0ded27704f62d8726fdbd83648113d9fd8cf32c09f80523d2ba523e0bbd5ba481565b7f5e92c359b77ace8f4933558289f577781c0713b4ff91b2d2f76c8e523e56007081565b7f51a2be29a473202678b6cf57b717ba5d7ff671f01fdbdbfcad4e1882601b889681565b7fa1e0b5b458fe661fe687da135d3340a172e262c3cb31d646a4cb5cea9b6f179081565b7fb027f2006a45346de89db4c5efc53f4e05e96532d27366aff00367a394d0abc481565b7f7d32d87d65898c3cbc7e72c59d223bf61c7811e99dafafd24fb08e0a38f1091481565b7f41a2ac05b365409628009a8091d8dda06fe52fe2f1c792e651e5df7599a7a7de81565b7ff75b08b2b912abdbb87cc459ca0b4fdc019329386ec84ab68399b0c86fed5a9581565b7f66b60892ff6e7f0da16db27046f5960fdfd6bce5c3c8c21d56ccca3236a6281b81565b7fa82bea7140872d1398fa0ab5075330ab0228f4c7e381b4b6502379ffc7cdcd9f81565b7f4bd5e7ff929fdd1ba62a33f76e0f40e97bb35e8bf126c0d9d91ce5c69a4bc52181565b7f11cfbdf601b80a575e4366f0234cc06de0c9f401fe250dd9dccfccefeedb6fc281565b7f3c557531fea67120f21bc7711270a96f1b8cff3dfe3dd798a8a9f09ce9b7797281565b7fde1ede48948567c43c504b761af8cd6af5363fafeceb1239b3083955d809714f81565b7f73ee596441ef88c207a7a9147d62f59186b4991555e37b7ce9c801f9539d105081565b7f0a1b21dfd7e4f3741529cf579e2731e847d81bbf13a82d0eba6910d7ac4c1c0a81565b7f945f72e5d44fb0ce3b1de393d19415723b79f97ad801089d8470d1c20e15ffef81565b7ffb2d33acd65c36f68a15f8fe41cb8c0dd1eda164ffa87c6882e685ccb1c1adfb81565b7f62f5dbf0c17b0df83487409f747ad2eeca5fd54c140ca59b32cf39d6f6eaf91681565b7fef9006fe6663199909dfaa4ab45e3f86d6454adb7773682f356824b6b3bc6b0e81565b7fe4f979504d2a7a24557a15195eb83131e7c4a66d33900454705435aa5a6ee08681565b7f99f83ee0c57b325f3deafb536d55596743ff112c6ac0d853d5f4f89b75dec04581565b7f6c2abc911c0fa4c73b90c7143a9f4429749be45ebfe7b81e69b86e7ca440d81181565b7f580be8e098dd1016787d59c2a534bf9df9ec679a29de4c8f92dc3807f7d7d54d8156fea2646970667358221220a078e94731cb70f67f7e020351579f49d07d7122f91f8b2d9abd3ce323ba7ffd64736f6c634300060c0033",
  "immutableReferences": {},
  "source": "// SPDX-License-Identifier: UNLICENSED\n// Autogenerated by registryConstants.js\npragma solidity ^0.6.0;\n\ncontract RegistryConstants {\n    // MOC_TOKEN = keccak256(moc.token)\n    bytes32\n        public constant MOC_TOKEN = 0x4bd5e7ff929fdd1ba62a33f76e0f40e97bb35e8bf126c0d9d91ce5c69a4bc521;\n\n    // MOC_DELAY_MACHINE = keccak256(moc.delay-machine)\n    bytes32\n        public constant MOC_DELAY_MACHINE = 0x66b60892ff6e7f0da16db27046f5960fdfd6bce5c3c8c21d56ccca3236a6281b;\n\n    // MOC_STAKING_MACHINE = keccak256(moc.staking-machine)\n    bytes32\n        public constant MOC_STAKING_MACHINE = 0x3c557531fea67120f21bc7711270a96f1b8cff3dfe3dd798a8a9f09ce9b77972;\n\n    // MOC_VESTING_MACHINE = keccak256(moc.vesting-machine)\n    bytes32\n        public constant MOC_VESTING_MACHINE = 0x7dfea4fb968e2599cdb7b3028c07d0188d0f92d1d00bd95c2805523c224649dd;\n\n    // MOC_VOTING_MACHINE = keccak256(moc.voting-machine)\n    bytes32\n        public constant MOC_VOTING_MACHINE = 0xc0ded27704f62d8726fdbd83648113d9fd8cf32c09f80523d2ba523e0bbd5ba4;\n\n    // MOC_VOTING_MACHINE_MIN_STAKE = keccak256(moc.voting-machine.minStake)\n    bytes32\n        public constant MOC_VOTING_MACHINE_MIN_STAKE = 0x580be8e098dd1016787d59c2a534bf9df9ec679a29de4c8f92dc3807f7d7d54d;\n\n    // MOC_VOTING_MACHINE_PRE_VOTE_EXPIRATION_TIME_DELTA = keccak256(moc.voting-machine.preVoteExpirationTimeDelta)\n    bytes32\n        public constant MOC_VOTING_MACHINE_PRE_VOTE_EXPIRATION_TIME_DELTA = 0x62f5dbf0c17b0df83487409f747ad2eeca5fd54c140ca59b32cf39d6f6eaf916;\n\n    // MOC_VOTING_MACHINE_MAX_PRE_PROPOSALS = keccak256(moc.voting-machine.maxPreProposals)\n    bytes32\n        public constant MOC_VOTING_MACHINE_MAX_PRE_PROPOSALS = 0xc32b9cbc59039d297e670e7c196424308c90ba4a437fa7ccd008498c934e7dbf;\n\n    // MOC_VOTING_MACHINE_PRE_VOTE_MIN_PCT_TO_WIN = keccak256(moc.voting-machine.preVoteMinPCToWin)\n    bytes32\n        public constant MOC_VOTING_MACHINE_PRE_VOTE_MIN_PCT_TO_WIN = 0x0a1b21dfd7e4f3741529cf579e2731e847d81bbf13a82d0eba6910d7ac4c1c0a;\n\n    // MOC_VOTING_MACHINE_VOTE_MIN_PCT_TO_VETO = keccak256(moc.voting-machine.voteMinPctToVeto)\n    bytes32\n        public constant MOC_VOTING_MACHINE_VOTE_MIN_PCT_TO_VETO = 0xfb2d33acd65c36f68a15f8fe41cb8c0dd1eda164ffa87c6882e685ccb1c1adfb;\n\n    // MOC_VOTING_MACHINE_VOTE_MIN_PCT_FOR_QUORUM = keccak256(moc.voting-machine.voteMinPctForQuorum)\n    bytes32\n        public constant MOC_VOTING_MACHINE_VOTE_MIN_PCT_FOR_QUORUM = 0xde1ede48948567c43c504b761af8cd6af5363fafeceb1239b3083955d809714f;\n\n    // MOC_VOTING_MACHINE_VOTE_MIN_PCT_TO_ACCEPT = keccak256(moc.voting-machine.voteMinPctToAccept)\n    bytes32\n        public constant MOC_VOTING_MACHINE_VOTE_MIN_PCT_TO_ACCEPT = 0x99f83ee0c57b325f3deafb536d55596743ff112c6ac0d853d5f4f89b75dec045;\n\n    // MOC_VOTING_MACHINE_PCT_PRECISION = keccak256(moc.voting-machine.PCTPrecision)\n    bytes32\n        public constant MOC_VOTING_MACHINE_PCT_PRECISION = 0x73ee596441ef88c207a7a9147d62f59186b4991555e37b7ce9c801f9539d1050;\n\n    // MOC_VOTING_MACHINE_VOTING_TIME_DELTA = keccak256(moc.voting-machine.votingTimeDelta)\n    bytes32\n        public constant MOC_VOTING_MACHINE_VOTING_TIME_DELTA = 0xb43ee0a5ee6dcc7115ce824e4e353526ad6e479afa4daeb78451070de942de36;\n\n    // ORACLE_MANAGER_ADDR = keccak256(MOC_ORACLE\\1\\ORACLE_MANAGER_ADDR)\n    bytes32\n        public constant ORACLE_MANAGER_ADDR = 0x16986f74674f2ed21d50b6e74e6b12bb323ff4f72364542fd5de5104f3cc3ca9;\n\n    // SUPPORTERS_ADDR = keccak256(MOC_ORACLE\\1\\SUPPORTERS_ADDR)\n    bytes32\n        public constant SUPPORTERS_ADDR = 0xe4f979504d2a7a24557a15195eb83131e7c4a66d33900454705435aa5a6ee086;\n\n    // INFO_ADDR = keccak256(MOC_ORACLE\\1\\INFO_ADDR)\n    bytes32\n        public constant INFO_ADDR = 0xda9f12e01fc92de345bb741448d36ecb967052dd7aa1670439af833c9a3d78f1;\n\n    // ORACLE_PRICE_FETCH_RATE = keccak256(MOC_ORACLE\\1\\ORACLE_PRICE_FETCH_RATE)\n    bytes32\n        public constant ORACLE_PRICE_FETCH_RATE = 0x945f72e5d44fb0ce3b1de393d19415723b79f97ad801089d8470d1c20e15ffef;\n\n    // ORACLE_BLOCKCHAIN_INFO_INTERVAL = keccak256(MOC_ORACLE\\1\\ORACLE_BLOCKCHAIN_INFO_INTERVAL)\n    bytes32\n        public constant ORACLE_BLOCKCHAIN_INFO_INTERVAL = 0x11cfbdf601b80a575e4366f0234cc06de0c9f401fe250dd9dccfccefeedb6fc2;\n\n    // ORACLE_COIN_PAIR_LOOP_TASK_INTERVAL = keccak256(MOC_ORACLE\\1\\ORACLE_COIN_PAIR_LOOP_TASK_INTERVAL)\n    bytes32\n        public constant ORACLE_COIN_PAIR_LOOP_TASK_INTERVAL = 0x2f271dc1fa81985bda14a2d6d0d60b45191d2a2d97e636b192696a8796d654a7;\n\n    // ORACLE_MAIN_LOOP_TASK_INTERVAL = keccak256(MOC_ORACLE\\1\\ORACLE_MAIN_LOOP_TASK_INTERVAL)\n    bytes32\n        public constant ORACLE_MAIN_LOOP_TASK_INTERVAL = 0x275d8a46b817572476d2d55b41c7709dee307740bad676a9693805003a48d231;\n\n    // ORACLE_PRICE_REJECT_DELTA_PCT = keccak256(MOC_ORACLE\\1\\ORACLE_PRICE_REJECT_DELTA_PCT)\n    bytes32\n        public constant ORACLE_PRICE_REJECT_DELTA_PCT = 0x7a3ee46ca1bd3e19089870d8d6530b083a86da93aab52efccb32d5950e2709cf;\n\n    // ORACLE_CONFIGURATION_TASK_INTERVAL = keccak256(MOC_ORACLE\\1\\ORACLE_CONFIGURATION_TASK_INTERVAL)\n    bytes32\n        public constant ORACLE_CONFIGURATION_TASK_INTERVAL = 0xb027f2006a45346de89db4c5efc53f4e05e96532d27366aff00367a394d0abc4;\n\n    // ORACLE_GATHER_SIGNATURE_TIMEOUT = keccak256(MOC_ORACLE\\1\\ORACLE_GATHER_SIGNATURE_TIMEOUT)\n    bytes32\n        public constant ORACLE_GATHER_SIGNATURE_TIMEOUT = 0xf75b08b2b912abdbb87cc459ca0b4fdc019329386ec84ab68399b0c86fed5a95;\n\n    // ORACLE_MAIN_EXECUTOR_TASK_INTERVAL = keccak256(MOC_ORACLE\\1\\ORACLE_MAIN_EXECUTOR_TASK_INTERVAL)\n    bytes32\n        public constant ORACLE_MAIN_EXECUTOR_TASK_INTERVAL = 0xb324a91be1ac0d0c4888c835aee124ca1a7caf4b73ce10aa3504e2683865d7e5;\n\n    // SCHEDULER_POOL_DELAY = keccak256(MOC_ORACLE\\1\\SCHEDULER_POOL_DELAY)\n    bytes32\n        public constant SCHEDULER_POOL_DELAY = 0x6c2abc911c0fa4c73b90c7143a9f4429749be45ebfe7b81e69b86e7ca440d811;\n\n    // SCHEDULER_ROUND_DELAY = keccak256(MOC_ORACLE\\1\\SCHEDULER_ROUND_DELAY)\n    bytes32\n        public constant SCHEDULER_ROUND_DELAY = 0xa82bea7140872d1398fa0ab5075330ab0228f4c7e381b4b6502379ffc7cdcd9f;\n\n    // ORACLE_PRICE_DIGITS = keccak256(MOC_ORACLE\\1\\ORACLE_PRICE_DIGITS)\n    bytes32\n        public constant ORACLE_PRICE_DIGITS = 0x4cd7e3f12ee4a2db0a6ba16e03fbc31bba1048c149bbf4fc9f3c02021ec550b8;\n\n    // ORACLE_QUEUE_LEN = keccak256(MOC_ORACLE\\1\\ORACLE_QUEUE_LEN)\n    bytes32\n        public constant ORACLE_QUEUE_LEN = 0x7d32d87d65898c3cbc7e72c59d223bf61c7811e99dafafd24fb08e0a38f10914;\n\n    // MESSAGE_VERSION = keccak256(MOC_ORACLE\\1\\MESSAGE_VERSION)\n    bytes32\n        public constant MESSAGE_VERSION = 0xeafac1a2b4d4fdcc942cbdce334a88ec83387087978d039f1320d3639a0b59df;\n\n    // ORACLE_STAKE_LIMIT_MULTIPLICATOR = keccak256(MOC_ORACLE\\1\\ORACLE_STAKE_LIMIT_MULTIPLICATOR)\n    bytes32\n        public constant ORACLE_STAKE_LIMIT_MULTIPLICATOR = 0xa1e0b5b458fe661fe687da135d3340a172e262c3cb31d646a4cb5cea9b6f1790;\n\n    // ORACLE_WITHDRAW_LOCK_TIME = keccak256(MOC_ORACLE\\1\\ORACLE_WITHDRAW_LOCK_TIME)\n    bytes32\n        public constant ORACLE_WITHDRAW_LOCK_TIME = 0x5e92c359b77ace8f4933558289f577781c0713b4ff91b2d2f76c8e523e560070;\n\n    // ORACLE_PRICE_DELTA_PCT = keccak256(MOC_ORACLE\\1\\ORACLE_PRICE_DELTA_PCT)\n    bytes32\n        public constant ORACLE_PRICE_DELTA_PCT = 0x41a2ac05b365409628009a8091d8dda06fe52fe2f1c792e651e5df7599a7a7de;\n\n    // ORACLE_PRICE_PUBLISH_BLOCKS = keccak256(MOC_ORACLE\\1\\ORACLE_PRICE_PUBLISH_BLOCKS)\n    bytes32\n        public constant ORACLE_PRICE_PUBLISH_BLOCKS = 0x51a2be29a473202678b6cf57b717ba5d7ff671f01fdbdbfcad4e1882601b8896;\n\n    // ORACLE_ENTERING_FALLBACKS_AMOUNTS = keccak256(MOC_ORACLE\\1\\ORACLE_ENTERING_FALLBACKS_AMOUNTS)\n    bytes32\n        public constant ORACLE_ENTERING_FALLBACKS_AMOUNTS = 0xf646c455329c7af0436f9e95c59c90ce0e11bb4e3a1deff805807798696adf88;\n\n    // ORACLE_TRIGGER_VALID_PUBLICATION_BLOCKS = keccak256(MOC_ORACLE\\1\\ORACLE_TRIGGER_VALID_PUBLICATION_BLOCKS)\n    bytes32\n        public constant ORACLE_TRIGGER_VALID_PUBLICATION_BLOCKS = 0xef9006fe6663199909dfaa4ab45e3f86d6454adb7773682f356824b6b3bc6b0e;\n}\n",
  "sourcePath": "/home/adji/Desktop/work/coinfabrik/moc-shared/contracts/RegistryConstants.sol",
  "compiler": {
    "name": "solc",
    "version": "0.6.12+commit.27d51765.Emscripten.clang"
  },
  "schemaVersion": "3.2.5",
  "updatedAt": "2020-10-01T22:39:15.379Z",
  "devdoc": {
    "kind": "dev",
    "methods": {},
    "version": 1
  },
  "userdoc": {
    "kind": "user",
    "methods": {},
    "version": 1
  }
}