{
  "contractName": "Staking",
  "abi": [
    {
      "inputs": [
        {
          "internalType": "contract IGovernor",
          "name": "newIGovernor",
          "type": "address"
        }
      ],
      "name": "changeIGovernor",
      "outputs": [],
      "stateMutability": "nonpayable",
      "type": "function"
    },
    {
      "inputs": [
        {
          "internalType": "bytes",
          "name": "data",
          "type": "bytes"
        }
      ],
      "name": "delegateCallToChanger",
      "outputs": [],
      "stateMutability": "nonpayable",
      "type": "function"
    },
    {
      "inputs": [],
      "name": "governor",
      "outputs": [
        {
          "internalType": "contract IGovernor",
          "name": "",
          "type": "address"
        }
      ],
      "stateMutability": "view",
      "type": "function",
      "constant": true
    },
    {
      "inputs": [
        {
          "internalType": "contract IGovernor",
          "name": "_governor",
          "type": "address"
        },
        {
          "internalType": "contract Supporters",
          "name": "_supporters",
          "type": "address"
        },
        {
          "internalType": "contract IOracleManager",
          "name": "_oracleManager",
          "type": "address"
        },
        {
          "internalType": "contract IDelayMachine",
          "name": "_delayMachine",
          "type": "address"
        },
        {
          "internalType": "address[]",
          "name": "_wlistlock",
          "type": "address[]"
        },
        {
          "internalType": "uint256",
          "name": "_withdrawLockTime",
          "type": "uint256"
        }
      ],
      "name": "initialize",
      "outputs": [],
      "stateMutability": "nonpayable",
      "type": "function"
    },
    {
      "inputs": [
        {
          "internalType": "address",
          "name": "mocHolder",
          "type": "address"
        },
        {
          "internalType": "uint256",
          "name": "untilTimestamp",
          "type": "uint256"
        }
      ],
      "name": "lockMocs",
      "outputs": [],
      "stateMutability": "nonpayable",
      "type": "function"
    },
    {
      "inputs": [
        {
          "internalType": "uint256",
          "name": "mocs",
          "type": "uint256"
        },
        {
          "internalType": "address",
          "name": "destination",
          "type": "address"
        }
      ],
      "name": "deposit",
      "outputs": [],
      "stateMutability": "nonpayable",
      "type": "function"
    },
    {
      "inputs": [
        {
          "internalType": "uint256",
          "name": "mocs",
          "type": "uint256"
        },
        {
          "internalType": "address",
          "name": "destination",
          "type": "address"
        },
        {
          "internalType": "address",
          "name": "source",
          "type": "address"
        }
      ],
      "name": "depositFrom",
      "outputs": [],
      "stateMutability": "nonpayable",
      "type": "function"
    },
    {
      "inputs": [
        {
          "internalType": "uint256",
          "name": "_mocs",
          "type": "uint256"
        }
      ],
      "name": "withdraw",
      "outputs": [],
      "stateMutability": "nonpayable",
      "type": "function"
    },
    {
      "inputs": [
        {
          "internalType": "uint256",
          "name": "tokens",
          "type": "uint256"
        }
      ],
      "name": "withdrawTokens",
      "outputs": [],
      "stateMutability": "nonpayable",
      "type": "function"
    },
    {
      "inputs": [],
      "name": "totalMoc",
      "outputs": [
        {
          "internalType": "uint256",
          "name": "",
          "type": "uint256"
        }
      ],
      "stateMutability": "view",
      "type": "function",
      "constant": true
    },
    {
      "inputs": [],
      "name": "totalToken",
      "outputs": [
        {
          "internalType": "uint256",
          "name": "",
          "type": "uint256"
        }
      ],
      "stateMutability": "view",
      "type": "function",
      "constant": true
    },
    {
      "inputs": [
        {
          "internalType": "address",
          "name": "user",
          "type": "address"
        }
      ],
      "name": "getBalance",
      "outputs": [
        {
          "internalType": "uint256",
          "name": "",
          "type": "uint256"
        }
      ],
      "stateMutability": "view",
      "type": "function",
      "constant": true
    },
    {
      "inputs": [
        {
          "internalType": "address",
          "name": "user",
          "type": "address"
        }
      ],
      "name": "getLockedBalance",
      "outputs": [
        {
          "internalType": "uint256",
          "name": "",
          "type": "uint256"
        }
      ],
      "stateMutability": "view",
      "type": "function",
      "constant": true
    },
    {
      "inputs": [],
      "name": "getRegisteredOraclesLen",
      "outputs": [
        {
          "internalType": "uint256",
          "name": "",
          "type": "uint256"
        }
      ],
      "stateMutability": "view",
      "type": "function",
      "constant": true
    },
    {
      "inputs": [
        {
          "internalType": "uint256",
          "name": "idx",
          "type": "uint256"
        }
      ],
      "name": "getRegisteredOracleAtIndex",
      "outputs": [
        {
          "internalType": "address",
          "name": "ownerAddr",
          "type": "address"
        },
        {
          "internalType": "address",
          "name": "oracleAddr",
          "type": "address"
        },
        {
          "internalType": "string",
          "name": "url",
          "type": "string"
        }
      ],
      "stateMutability": "view",
      "type": "function",
      "constant": true
    },
    {
      "inputs": [
        {
          "internalType": "address",
          "name": "oracleAddr",
          "type": "address"
        },
        {
          "internalType": "string",
          "name": "url",
          "type": "string"
        }
      ],
      "name": "registerOracle",
      "outputs": [],
      "stateMutability": "nonpayable",
      "type": "function"
    },
    {
      "inputs": [
        {
          "internalType": "string",
          "name": "url",
          "type": "string"
        }
      ],
      "name": "setOracleName",
      "outputs": [],
      "stateMutability": "nonpayable",
      "type": "function"
    },
    {
      "inputs": [
        {
          "internalType": "address",
          "name": "oracleAddr",
          "type": "address"
        }
      ],
      "name": "setOracleAddress",
      "outputs": [],
      "stateMutability": "nonpayable",
      "type": "function"
    },
    {
      "inputs": [
        {
          "internalType": "address",
          "name": "ownerAddr",
          "type": "address"
        }
      ],
      "name": "isOracleRegistered",
      "outputs": [
        {
          "internalType": "bool",
          "name": "",
          "type": "bool"
        }
      ],
      "stateMutability": "view",
      "type": "function",
      "constant": true
    },
    {
      "inputs": [
        {
          "internalType": "address",
          "name": "ownerAddr",
          "type": "address"
        }
      ],
      "name": "canRemoveOracle",
      "outputs": [
        {
          "internalType": "bool",
          "name": "",
          "type": "bool"
        }
      ],
      "stateMutability": "view",
      "type": "function",
      "constant": true
    },
    {
      "inputs": [],
      "name": "removeOracle",
      "outputs": [],
      "stateMutability": "nonpayable",
      "type": "function"
    },
    {
      "inputs": [],
      "name": "getCoinPairCount",
      "outputs": [
        {
          "internalType": "uint256",
          "name": "",
          "type": "uint256"
        }
      ],
      "stateMutability": "view",
      "type": "function",
      "constant": true
    },
    {
      "inputs": [
        {
          "internalType": "uint256",
          "name": "i",
          "type": "uint256"
        }
      ],
      "name": "getCoinPairAtIndex",
      "outputs": [
        {
          "internalType": "bytes32",
          "name": "",
          "type": "bytes32"
        }
      ],
      "stateMutability": "view",
      "type": "function",
      "constant": true
    },
    {
      "inputs": [
        {
          "internalType": "bytes32",
          "name": "coinPair",
          "type": "bytes32"
        }
      ],
      "name": "getContractAddress",
      "outputs": [
        {
          "internalType": "address",
          "name": "",
          "type": "address"
        }
      ],
      "stateMutability": "view",
      "type": "function",
      "constant": true
    },
    {
      "inputs": [
        {
          "internalType": "bytes32",
          "name": "coinPair",
          "type": "bytes32"
        },
        {
          "internalType": "uint256",
          "name": "hint",
          "type": "uint256"
        }
      ],
      "name": "getCoinPairIndex",
      "outputs": [
        {
          "internalType": "uint256",
          "name": "",
          "type": "uint256"
        }
      ],
      "stateMutability": "view",
      "type": "function",
      "constant": true
    },
    {
      "inputs": [
        {
          "internalType": "bytes32",
          "name": "coinPair",
          "type": "bytes32"
        }
      ],
      "name": "subscribeToCoinPair",
      "outputs": [],
      "stateMutability": "nonpayable",
      "type": "function"
    },
    {
      "inputs": [
        {
          "internalType": "bytes32",
          "name": "coinPair",
          "type": "bytes32"
        }
      ],
      "name": "unSubscribeFromCoinPair",
      "outputs": [],
      "stateMutability": "nonpayable",
      "type": "function"
    },
    {
      "inputs": [
        {
          "internalType": "address",
          "name": "ownerAddr",
          "type": "address"
        },
        {
          "internalType": "bytes32",
          "name": "coinPair",
          "type": "bytes32"
        }
      ],
      "name": "isSubscribed",
      "outputs": [
        {
          "internalType": "bool",
          "name": "",
          "type": "bool"
        }
      ],
      "stateMutability": "view",
      "type": "function",
      "constant": true
    },
    {
      "inputs": [
        {
          "internalType": "address[]",
          "name": "addresses",
          "type": "address[]"
        }
      ],
      "name": "getMaxBalance",
      "outputs": [
        {
          "internalType": "address",
          "name": "",
          "type": "address"
        },
        {
          "internalType": "uint256",
          "name": "",
          "type": "uint256"
        }
      ],
      "stateMutability": "view",
      "type": "function",
      "constant": true
    },
    {
      "inputs": [],
      "name": "getSupporters",
      "outputs": [
        {
          "internalType": "address",
          "name": "",
          "type": "address"
        }
      ],
      "stateMutability": "view",
      "type": "function",
      "constant": true
    },
    {
      "inputs": [],
      "name": "getOracleManager",
      "outputs": [
        {
          "internalType": "contract IOracleManager",
          "name": "",
          "type": "address"
        }
      ],
      "stateMutability": "view",
      "type": "function",
      "constant": true
    },
    {
      "inputs": [],
      "name": "getMocToken",
      "outputs": [
        {
          "internalType": "contract IERC20",
          "name": "",
          "type": "address"
        }
      ],
      "stateMutability": "view",
      "type": "function",
      "constant": true
    },
    {
      "inputs": [],
      "name": "getDelayMachine",
      "outputs": [
        {
          "internalType": "contract IDelayMachine",
          "name": "",
          "type": "address"
        }
      ],
      "stateMutability": "view",
      "type": "function",
      "constant": true
    },
    {
      "inputs": [],
      "name": "getWithdrawLockTime",
      "outputs": [
        {
          "internalType": "uint256",
          "name": "",
          "type": "uint256"
        }
      ],
      "stateMutability": "view",
      "type": "function",
      "constant": true
    }
  ],
  "bytecode": "0x608060405234801561001057600080fd5b50611f6f806100206000396000f3fe608060405234801561001057600080fd5b50600436106102065760003560e01c80639be5adb71161011a578063d602ac68116100ad578063e301502f1161007c578063e301502f1461076e578063eff360981461078b578063f2521d0c146107ae578063f620c152146107b6578063f8b2cb4f1461082457610206565b8063d602ac68146106af578063dab46553146106db578063dc8990e1146106e3578063df1810f91461075157610206565b8063b24872f3116100e9578063b24872f314610635578063b6e083301461063d578063b9b55c9a14610663578063c40868931461068957610206565b80639be5adb7146104fe578063a5cfab9a14610594578063aa265d0214610625578063b01ceccd1461062d57610206565b806343020b1a1161019d578063626be5671161016c578063626be5671461048e57806363adb1a2146104965780636e553f651461049e57806380eea1ee146104ca57806389ea1b51146104f657610206565b806343020b1a146103ae578063473c541d146103b65780634c69c00f146103ea5780635da6d08c1461041057610206565b80632ff2ae53116101d95780632ff2ae5314610288578063315a095d146102a25780633aacdc99146102bf5780633ac7c784146102f957610206565b80630c340a241461020b5780630d2020dd1461022f5780632419dc0a1461024c5780632e1a7d4d1461026b575b600080fd5b61021361084a565b604080516001600160a01b039092168252519081900360200190f35b6102136004803603602081101561024557600080fd5b5035610859565b6102696004803603602081101561026257600080fd5b50356108d7565b005b6102696004803603602081101561028157600080fd5b5035610944565b6102906109cb565b60408051918252519081900360200190f35b610269600480360360208110156102b857600080fd5b5035610a41565b6102e5600480360360208110156102d557600080fd5b50356001600160a01b0316610ca8565b604080519115158252519081900360200190f35b6103166004803603602081101561030f57600080fd5b5035610cf9565b60405180846001600160a01b03168152602001836001600160a01b0316815260200180602001828103825283818151815260200191508051906020019080838360005b83811015610371578181015183820152602001610359565b50505050905090810190601f16801561039e5780820380516001836020036101000a031916815260200191505b5094505050505060405180910390f35b610213610e4f565b610269600480360360608110156103cc57600080fd5b508035906001600160a01b0360208201358116916040013516610e5e565b6102696004803603602081101561040057600080fd5b50356001600160a01b0316611181565b6102696004803603604081101561042657600080fd5b6001600160a01b038235169190810190604081016020820135600160201b81111561045057600080fd5b82018360208201111561046257600080fd5b803590602001918460018302840111600160201b8311171561048357600080fd5b5090925090506111d5565b61029061127a565b6102906112bf565b610269600480360360408110156104b457600080fd5b50803590602001356001600160a01b0316611304565b6102e5600480360360408110156104e057600080fd5b506001600160a01b03813516906020013561130f565b61021361139c565b610269600480360360c081101561051457600080fd5b6001600160a01b03823581169260208101358216926040820135831692606083013516919081019060a081016080820135600160201b81111561055657600080fd5b82018360208201111561056857600080fd5b803590602001918460208302840111600160201b8311171561058957600080fd5b9193509150356113ab565b610602600480360360208110156105aa57600080fd5b810190602081018135600160201b8111156105c457600080fd5b8201836020820111156105d657600080fd5b803590602001918460208302840111600160201b831117156105f757600080fd5b5090925090506114c4565b604080516001600160a01b03909316835260208301919091528051918290030190f35b610290611585565b6102136115ca565b6102906115d9565b6102696004803603602081101561065357600080fd5b50356001600160a01b03166115df565b6102e56004803603602081101561067957600080fd5b50356001600160a01b031661172f565b6102906004803603602081101561069f57600080fd5b50356001600160a01b0316611780565b610269600480360360408110156106c557600080fd5b506001600160a01b0381351690602001356117d1565b610269611883565b610269600480360360208110156106f957600080fd5b810190602081018135600160201b81111561071357600080fd5b82018360208201111561072557600080fd5b803590602001918460018302840111600160201b8311171561074657600080fd5b5090925090506118e9565b6102906004803603602081101561076757600080fd5b5035611b28565b6102696004803603602081101561078457600080fd5b5035611b74565b610290600480360360408110156107a157600080fd5b5080359060200135611bc7565b610213611c1a565b610269600480360360208110156107cc57600080fd5b810190602081018135600160201b8111156107e657600080fd5b8201836020820111156107f857600080fd5b803590602001918460018302840111600160201b8311171561081957600080fd5b509092509050611c29565b6102906004803603602081101561083a57600080fd5b50356001600160a01b0316611cc5565b6033546001600160a01b031681565b60675460408051630d2020dd60e01b81526004810184905290516000926001600160a01b031691630d2020dd916024808301926020929190829003018186803b1580156108a557600080fd5b505afa1580156108b9573d6000803e3d6000fd5b505050506040513d60208110156108cf57600080fd5b505192915050565b60675460408051626f05a760e91b81523360048201526024810184905290516001600160a01b039092169163de0b4e009160448082019260009290919082900301818387803b15801561092957600080fd5b505af115801561093d573d6000803e3d6000fd5b5050505050565b60665460408051633a3b35b360e21b81526004810184905290516000926001600160a01b03169163e8ecd6cc916024808301926020929190829003018186803b15801561099057600080fd5b505afa1580156109a4573d6000803e3d6000fd5b505050506040513d60208110156109ba57600080fd5b505190506109c781610a41565b5050565b60665460408051632ff2ae5360e01b815290516000926001600160a01b031691632ff2ae53916004808301926020929190829003018186803b158015610a1057600080fd5b505afa158015610a24573d6000803e3d6000fd5b505050506040513d6020811015610a3a57600080fd5b5051905090565b60665460408051630941808160e01b81526004810184905233602482015230604482015290516000926001600160a01b031691630941808191606480830192602092919082900301818787803b158015610a9a57600080fd5b505af1158015610aae573d6000803e3d6000fd5b505050506040513d6020811015610ac457600080fd5b50516068546069546040805163095ea7b360e01b81526001600160a01b03928316600482015260248101859052905193945091169163095ea7b3916044808201926020929091908290030181600087803b158015610b2157600080fd5b505af1158015610b35573d6000803e3d6000fd5b505050506040513d6020811015610b4b57600080fd5b5051610b91576040805162461bcd60e51b815260206004820152601060248201526f6572726f7220696e20617070726f766560801b604482015290519081900360640190fd5b60675460408051633a82b50d60e01b815233600482015290516000926001600160a01b031691633a82b50d91602480830192602092919082900301818787803b158015610bdd57600080fd5b505af1158015610bf1573d6000803e3d6000fd5b505050506040513d6020811015610c0757600080fd5b5051606954606a549192506001600160a01b03169063bc157ac19084903390610c31908690611d1c565b6040518463ffffffff1660e01b815260040180848152602001836001600160a01b031681526020018281526020019350505050602060405180830381600087803b158015610c7e57600080fd5b505af1158015610c92573d6000803e3d6000fd5b505050506040513d602081101561093d57600080fd5b60675460408051633aacdc9960e01b81526001600160a01b03848116600483015291516000939290921691633aacdc9991602480820192602092909190829003018186803b1580156108a557600080fd5b60675460408051630eb1f1e160e21b815260048101849052905160009283926060926001600160a01b0390921691633ac7c784916024808201928792909190829003018186803b158015610d4c57600080fd5b505afa158015610d60573d6000803e3d6000fd5b505050506040513d6000823e601f3d908101601f191682016040526060811015610d8957600080fd5b81516020830151604080850180519151939592948301929184600160201b821115610db357600080fd5b908301906020820185811115610dc857600080fd5b8251600160201b811182820188101715610de157600080fd5b82525081516020918201929091019080838360005b83811015610e0e578181015183820152602001610df6565b50505050905090810190601f168015610e3b5780820380516001836020036101000a031916815260200191505b506040525050509250925092509193909250565b6066546001600160a01b031690565b60665460408051633a3b35b360e21b81526004810186905290516000926001600160a01b03169163e8ecd6cc916024808301926020929190829003018186803b158015610eaa57600080fd5b505afa158015610ebe573d6000803e3d6000fd5b505050506040513d6020811015610ed457600080fd5b5051905080610ee3575061117c565b60665460408051630f0a2a7360e11b81526004810184905290516000926001600160a01b031691631e1454e6916024808301926020929190829003018186803b158015610f2f57600080fd5b505afa158015610f43573d6000803e3d6000fd5b505050506040513d6020811015610f5957600080fd5b5051905080610f655750805b606854604080516323b872dd60e01b81526001600160a01b03868116600483015230602483015260448201859052915191909216916323b872dd9160648083019260209291908290030181600087803b158015610fc157600080fd5b505af1158015610fd5573d6000803e3d6000fd5b505050506040513d6020811015610feb57600080fd5b5051611036576040805162461bcd60e51b81526020600482015260156024820152746572726f7220696e207472616e7366657246726f6d60581b604482015290519081900360640190fd5b6068546066546040805163095ea7b360e01b81526001600160a01b039283166004820152602481018590529051919092169163095ea7b39160448083019260209291908290030181600087803b15801561108f57600080fd5b505af11580156110a3573d6000803e3d6000fd5b505050506040513d60208110156110b957600080fd5b50516110ff576040805162461bcd60e51b815260206004820152601060248201526f6572726f7220696e20617070726f766560801b604482015290519081900360640190fd5b6066546040805163183ba7bb60e21b815260048101859052602481018490526001600160a01b038781166044830152306064830152915191909216916360ee9eec91608480830192600092919082900301818387803b15801561116157600080fd5b505af1158015611175573d6000803e3d6000fd5b5050505050505b505050565b606754604080516323049d8760e11b81523360048201526001600160a01b038481166024830152915191909216916346093b0e91604480830192600092919082900301818387803b15801561092957600080fd5b60675460405163131d5ef160e31b815233600482018181526001600160a01b038781166024850152606060448501908152606485018790529416936398eaf78893889288928892608401848480828437600081840152601f19601f82011690508083019250505095505050505050600060405180830381600087803b15801561125d57600080fd5b505af1158015611271573d6000803e3d6000fd5b50505050505050565b6066546040805163626be56760e01b815290516000926001600160a01b03169163626be567916004808301926020929190829003018186803b158015610a1057600080fd5b606754604080516331d6d8d160e11b815290516000926001600160a01b0316916363adb1a2916004808301926020929190829003018186803b158015610a1057600080fd5b6109c7828233610e5e565b6067546040805163407750f760e11b81526001600160a01b03858116600483015260248201859052915160009392909216916380eea1ee91604480820192602092909190829003018186803b15801561136757600080fd5b505afa15801561137b573d6000803e3d6000fd5b505050506040513d602081101561139157600080fd5b505190505b92915050565b6068546001600160a01b031690565b6113b487611d7d565b606780546001600160a01b038088166001600160a01b03199283161790925560668054928916929091168217905560408051633900ae8d60e11b815290516372015d1a91600480820192602092909190829003018186803b15801561141857600080fd5b505afa15801561142c573d6000803e3d6000fd5b505050506040513d602081101561144257600080fd5b5051606880546001600160a01b03199081166001600160a01b039384161790915560698054909116918616919091179055606a81905560005b828110156114ba576114b284848381811061149257fe5b905060200201356001600160a01b0316606b611d9f90919063ffffffff16565b60010161147b565b5050505050505050565b60665460408051635423cd4960e01b81523060048201818152602483019384526044830186905260009485946001600160a01b0390911693635423cd49939289928992606401846020850280828437600081840152601f19601f820116905080830192505050945050505050604080518083038186803b15801561154757600080fd5b505afa15801561155b573d6000803e3d6000fd5b505050506040513d604081101561157157600080fd5b508051602090910151909590945092505050565b606754604080516355132e8160e11b815290516000926001600160a01b03169163aa265d02916004808301926020929190829003018186803b158015610a1057600080fd5b6067546001600160a01b031690565b606a5490565b6033546040805163d994d6d560e01b815233600482015290516001600160a01b039092169163d994d6d591602480820192602092909190829003018186803b15801561162a57600080fd5b505afa15801561163e573d6000803e3d6000fd5b505050506040513d602081101561165457600080fd5b50516040805180820190915260168152753737ba2fb0baba3437b934bd32b22fb1b430b733b2b960511b60208201529061170c5760405162461bcd60e51b81526004018080602001828103825283818151815260200191508051906020019080838360005b838110156116d15781810151838201526020016116b9565b50505050905090810190601f1680156116fe5780820380516001836020036101000a031916815260200191505b509250505060405180910390fd5b50603380546001600160a01b0319166001600160a01b0392909216919091179055565b60675460408051635cdaae4d60e11b81526001600160a01b0384811660048301529151600093929092169163b9b55c9a91602480820192602092909190829003018186803b1580156108a557600080fd5b6066546040805163c408689360e01b81526001600160a01b0384811660048301529151600093929092169163c408689391602480820192602092909190829003018186803b1580156108a557600080fd5b606b6117dd8133611e54565b61182e576040805162461bcd60e51b815260206004820152601a60248201527f41646472657373206973206e6f742077686974656c6973746564000000000000604482015290519081900360640190fd5b60665460408051631ac0558d60e31b81526001600160a01b038681166004830152602482018690529151919092169163d602ac6891604480830192600092919082900301818387803b15801561125d57600080fd5b60675460408051633f7217f160e21b815233600482015290516001600160a01b039092169163fdc85fc49160248082019260009290919082900301818387803b1580156118cf57600080fd5b505af11580156118e3573d6000803e3d6000fd5b50505050565b6033546040805163d994d6d560e01b815233600482015290516001600160a01b039092169163d994d6d591602480820192602092909190829003018186803b15801561193457600080fd5b505afa158015611948573d6000803e3d6000fd5b505050506040513d602081101561195e57600080fd5b50516040805180820190915260168152753737ba2fb0baba3437b934bd32b22fb1b430b733b2b960511b6020820152906119d95760405162461bcd60e51b81526020600482018181528351602484015283519092839260449091019190850190808383600083156116d15781810151838201526020016116b9565b50604051602060248201908152604482018390523391600091839186918691819060640184848082843760008382015260408051601f909201601f1990811690940182810390940182529283526020810180516001600160e01b03166350b113e560e11b17815292518151919750955085945091925081905083835b60208310611a745780518252601f199092019160209182019101611a55565b6001836020036101000a038019825116818451168082178552505050505050905001915050600060405180830381855af49150503d8060008114611ad4576040519150601f19603f3d011682016040523d82523d6000602084013e611ad9565b606091505b50509050806118e3576040805162461bcd60e51b8152602060048201526016602482015275115c9c9bdc881a5b8819195b1959d85d194818d85b1b60521b604482015290519081900360640190fd5b6067546040805163df1810f960e01b81526004810184905290516000926001600160a01b03169163df1810f9916024808301926020929190829003018186803b1580156108a557600080fd5b60675460408051632be46cdf60e01b81523360048201526024810184905290516001600160a01b0390921691632be46cdf9160448082019260009290919082900301818387803b15801561092957600080fd5b60675460408051631dfe6c1360e31b8152600481018590526024810184905290516000926001600160a01b03169163eff36098916044808301926020929190829003018186803b15801561136757600080fd5b6069546001600160a01b031690565b60675460408051633eb0f07d60e21b8152336004820181815260248301938452604483018690526001600160a01b039094169363fac3c1f49391928792879291606401848480828437600081840152601f19601f820116905080830192505050945050505050600060405180830381600087803b158015611ca957600080fd5b505af1158015611cbd573d6000803e3d6000fd5b505050505050565b6066546040805163b25147e360e01b81523060048201526001600160a01b0384811660248301529151600093929092169163b25147e391604480820192602092909190829003018186803b1580156108a557600080fd5b600082820183811015611d76576040805162461bcd60e51b815260206004820152601b60248201527f536166654d6174683a206164646974696f6e206f766572666c6f770000000000604482015290519081900360640190fd5b9392505050565b603380546001600160a01b0319166001600160a01b0392909216919091179055565b6001600160a01b038116611df4576040805162461bcd60e51b815260206004820152601760248201527604163636f756e74206d757374206e6f742062652030783604c1b604482015290519081900360640190fd5b6000611e008383611eb5565b90508061117c576040805162461bcd60e51b815260206004820152601b60248201527f4163636f756e7420616c72656164792077686974656c69737465640000000000604482015290519081900360640190fd5b60006001600160a01b038216611eab576040805162461bcd60e51b815260206004820152601760248201527604163636f756e74206d757374206e6f742062652030783604c1b604482015290519081900360640190fd5b611d768383611f18565b6000611ec18383611f18565b611f1057508154600180820184556000848152602080822090930180546001600160a01b0319166001600160a01b03861690811790915585549082528286019093526040902091909155611396565b506000611396565b6001600160a01b03166000908152600191909101602052604090205415159056fea26469706673582212203865bed363ae2a7d25749e78e3a356c1a4dd62fd95f0348d9ad7d8def9c823a264736f6c634300060c0033",
  "immutableReferences": {},
  "source": "// SPDX-License-Identifier: UNLICENSED\npragma solidity 0.6.12;\n\nimport {IERC20} from \"@openzeppelin/contracts-ethereum-package/contracts/token/ERC20/IERC20.sol\";\nimport {IStakingMachine, IStakingMachineOracles} from \"@moc/shared/contracts/IStakingMachine.sol\";\nimport {IDelayMachine} from \"@moc/shared/contracts/IDelayMachine.sol\";\nimport {IOracleManager} from \"@moc/shared/contracts/IOracleManager.sol\";\nimport {SafeMath} from \"@openzeppelin/contracts-ethereum-package/contracts/math/SafeMath.sol\";\nimport {IGovernor} from \"@moc/shared/contracts/moc-governance/Governance/IGovernor.sol\";\nimport {Governed} from \"@moc/shared/contracts/moc-governance/Governance/Governed.sol\";\nimport {Supporters} from \"./Supporters.sol\";\nimport {CoinPairPrice} from \"./CoinPairPrice.sol\";\nimport {StakingStorage} from \"./StakingStorage.sol\";\n\ncontract Staking is StakingStorage, IStakingMachine, IStakingMachineOracles {\n    using SafeMath for uint256;\n\n    // -----------------------------------------------------------------------\n    //\n    //   Public interface\n    //\n    // -----------------------------------------------------------------------\n\n    // -----------------------------------------------------------------------\n    //   Staking\n    // -----------------------------------------------------------------------\n\n    /// @notice Construct this contract.\n    /// @param _governor The address of the contract which governs this one\n    /// @param _supporters the Supporters contract contract address.\n    /// @param _oracleManager the Oracle Manager contract contract address.\n    /// @param _delayMachine the Delay Machine contract contract address.\n    /// @param _wlistlock Initial whitelist addresses for locking mocs\n    function initialize(\n        IGovernor _governor,\n        Supporters _supporters,\n        IOracleManager _oracleManager,\n        IDelayMachine _delayMachine,\n        address[] calldata _wlistlock,\n        uint256 _withdrawLockTime\n    ) external {\n        Governed._initialize(_governor);\n        oracleManager = _oracleManager;\n        supporters = _supporters;\n        mocToken = _supporters.mocToken();\n        delayMachine = _delayMachine;\n        withdrawLockTime = _withdrawLockTime;\n        for (uint256 i = 0; i < _wlistlock.length; i++) {\n            iterableWhitelistDataLock._addToWhitelist(_wlistlock[i]);\n        }\n    }\n\n    /// @notice Used by the voting machine to lock an amount of MOCs.\n    /// Delegates to the Supporters smart contract.\n    /// @param mocHolder the moc holder whose mocs will be locked.\n    /// @param untilTimestamp timestamp until which the mocs will be locked.\n    function lockMocs(address mocHolder, uint256 untilTimestamp)\n        external\n        override\n        onlyWhitelisted(iterableWhitelistDataLock)\n    {\n        supporters.lockMocs(mocHolder, untilTimestamp);\n    }\n\n    /// @notice Accept a deposit from an account.\n    /// Delegates to the Supporters smart contract.\n    /// @param mocs token quantity\n    /// @param destination the destination account of this deposit.\n    function deposit(uint256 mocs, address destination) external override {\n        depositFrom(mocs, destination, msg.sender);\n    }\n\n    /// @notice Accept a deposit from an account.\n    /// Delegates to the Supporters smart contract.\n    /// @param mocs token quantity\n    /// @param destination the destination account of this deposit.\n    /// @param source the address that approved the transfer\n    function depositFrom(\n        uint256 mocs,\n        address destination,\n        address source\n    ) public override {\n        // Floor(mocs * totalTokens /  totalMocs)\n        uint256 _tokens = supporters.mocToToken(mocs);\n        // require(_tokens > 0, \"Not enough mocs\");\n        if (_tokens == 0) {\n            // Not enough mocs, just return\n            return;\n        }\n\n        // Ceil(_tokens * totalMocs / totalTokens)\n        uint256 _mocs = supporters.tokenToMocUP(_tokens);\n        // This is a special case that happen when there are no mocs in the\n        // system (in this case the moc/token relation is 1/1).\n        if (_mocs == 0) {\n            _mocs = _tokens;\n        }\n\n        // Transfer stake [should be approved by owner first]\n        require(mocToken.transferFrom(source, address(this), _mocs), \"error in transferFrom\");\n        // Stake at Supporters contract\n        require(mocToken.approve(address(supporters), _mocs), \"error in approve\");\n        supporters.stakeAtFromInternal(_tokens, _mocs, destination, address(this));\n    }\n\n    /// @notice Withdraw stake, send it to the delay machine.\n    /// @param _mocs token quantity\n    function withdraw(uint256 _mocs) external override {\n        uint256 tokens = supporters.mocToToken(_mocs);\n        withdrawTokens(tokens);\n    }\n\n    /// @notice Withdraw stake, send it to the delay machine.\n    /// @param tokens token quantity\n    function withdrawTokens(uint256 tokens) public {\n        uint256 mocs = supporters.withdrawFromTo(tokens, msg.sender, address(this));\n        // Approve stake transfer for Delay Machine contract\n        require(mocToken.approve(address(delayMachine), mocs), \"error in approve\");\n        uint256 expiration = oracleManager.onWithdraw(msg.sender);\n        delayMachine.deposit(mocs, msg.sender, expiration.add(withdrawLockTime));\n    }\n\n    /// @notice Get the value of the token, withdraw and deposit can be done only in multiples of the token value.\n    function totalMoc() external view returns (uint256) {\n        return supporters.totalMoc();\n    }\n\n    function totalToken() external view returns (uint256) {\n        return supporters.totalToken();\n    }\n\n    /// @notice Reports the balance of MOCs for a specific user.\n    /// Delegates to the Supporters smart contract.\n    /// @param user user address\n    function getBalance(address user) external override view returns (uint256) {\n        return supporters.getMOCBalanceAt(address(this), user);\n    }\n\n    /// @notice Reports the balance of locked MOCs for a specific user.\n    /// Delegates to the Supporters smart contract.\n    /// @param user user address\n    function getLockedBalance(address user) external override view returns (uint256) {\n        return supporters.getLockedBalance(user);\n    }\n\n    // -----------------------------------------------------------------------\n    //   Oracles\n    // -----------------------------------------------------------------------\n\n    /// @notice Returns the amount of owners registered.\n    /// Delegates to the Oracle Manager smart contract.\n    function getRegisteredOraclesLen() external override view returns (uint256) {\n        return oracleManager.getRegisteredOraclesLen();\n    }\n\n    /// @notice Returns the oracle name and address at index.\n    /// Delegates to the Oracle Manager smart contract.\n    /// @param idx index to query.\n    function getRegisteredOracleAtIndex(uint256 idx)\n        external\n        override\n        view\n        returns (\n            address ownerAddr,\n            address oracleAddr,\n            string memory url\n        )\n    {\n        return oracleManager.getRegisteredOracleAtIndex(idx);\n    }\n\n    /// @notice Set an oracle's name (url) and address.\n    /// Delegates to the Oracle Manager smart contract.\n    /// @param oracleAddr address of the oracle (from which we publish prices)\n    /// @param url url used by the oracle server\n    function registerOracle(address oracleAddr, string calldata url) external override {\n        oracleManager.registerOracle(msg.sender, oracleAddr, url);\n    }\n\n    /// @notice Change the oracle \"internet\" name (URI)\n    /// @param url The new url to set.\n    function setOracleName(string calldata url) external override {\n        oracleManager.setOracleName(msg.sender, url);\n    }\n\n    /// @notice Change the oracle address\n    /// @param oracleAddr The new oracle address\n    function setOracleAddress(address oracleAddr) external override {\n        oracleManager.setOracleAddress(msg.sender, oracleAddr);\n    }\n\n    /// @notice Return true if the oracle is registered.\n    /// @param ownerAddr The address of the owner of the Oracle to check for.\n    function isOracleRegistered(address ownerAddr) external override view returns (bool) {\n        return oracleManager.isOracleRegistered(ownerAddr);\n    }\n\n    /// @notice Returns true if an oracle satisfies conditions to be removed from system.\n    /// @param ownerAddr the address of the owner of the oracle to lookup.\n    function canRemoveOracle(address ownerAddr) external override view returns (bool) {\n        return oracleManager.canRemoveOracle(ownerAddr);\n    }\n\n    /// @notice Remove an oracle.\n    /// Delegates to the Oracle Manager smart contract.\n    function removeOracle() external override {\n        oracleManager.removeOracle(msg.sender);\n    }\n\n    /// @notice Returns the count of registered coin pairs.\n    /// Keep in mind that Deleted coin-pairs will contain zeroed addresses.\n    function getCoinPairCount() external override view returns (uint256) {\n        return oracleManager.getCoinPairCount();\n    }\n\n    /// @notice Returns the coin pair at index.\n    /// @param i index to query.\n    function getCoinPairAtIndex(uint256 i) external override view returns (bytes32) {\n        return oracleManager.getCoinPairAtIndex(i);\n    }\n\n    /// @notice Return the contract address for a specified registered coin pair.\n    /// @param coinPair Coin-pair string to lookup (e.g: BTCUSD)\n    /// @return address Address of contract or zero if does not exist or was deleted.\n    function getContractAddress(bytes32 coinPair) external override view returns (address) {\n        return oracleManager.getContractAddress(coinPair);\n    }\n\n    /// @notice Searches a coinpair in coinPairList\n    /// @param coinPair The bytes32-encoded coinpair string (e.g. BTCUSD)\n    /// @param hint Optional hint to start traversing the coinPairList array, zero is to search all the array.\n    function getCoinPairIndex(bytes32 coinPair, uint256 hint)\n        external\n        override\n        view\n        returns (uint256)\n    {\n        return oracleManager.getCoinPairIndex(coinPair, hint);\n    }\n\n    /// @notice Subscribe an oracle to a coin pair.\n    /// Delegates to the Oracle Manager smart contract.\n    /// @param coinPair coin pair to subscribe, for example BTCUSD\n    function subscribeToCoinPair(bytes32 coinPair) external override {\n        oracleManager.subscribeToCoinPair(msg.sender, coinPair);\n    }\n\n    /// @notice Unsubscribe an oracle from a coin pair.\n    /// Delegates to the Oracle Manager smart contract.\n    /// @param coinPair coin pair to unsubscribe, for example BTCUSD\n    function unSubscribeFromCoinPair(bytes32 coinPair) external override {\n        oracleManager.unSubscribeFromCoinPair(msg.sender, coinPair);\n    }\n\n    /// @notice Returns true if an oracle is subscribed to a coin pair\n    /// @param ownerAddr address of the oracle\n    /// @param coinPair coin pair to unsubscribe, for example BTCUSD\n    function isSubscribed(address ownerAddr, bytes32 coinPair)\n        external\n        override\n        view\n        returns (bool)\n    {\n        return oracleManager.isSubscribed(ownerAddr, coinPair);\n    }\n\n    function getMaxBalance(address[] calldata addresses) external view returns (address, uint256) {\n        return supporters.getMaxMOCBalance(address(this), addresses);\n    }\n\n    // Public variable\n    function getSupporters() external override view returns (address) {\n        return address(supporters);\n    }\n\n    // Public variable\n    function getOracleManager() external override view returns (IOracleManager) {\n        return oracleManager;\n    }\n\n    // Public variable\n    function getMocToken() external override view returns (IERC20) {\n        return mocToken;\n    }\n\n    // Public variable\n    function getDelayMachine() external override view returns (IDelayMachine) {\n        return delayMachine;\n    }\n\n    // Public variable\n    function getWithdrawLockTime() external override view returns (uint256) {\n        return withdrawLockTime;\n    }\n}\n",
  "sourcePath": "/home/adji/Desktop/work/coinfabrik/moc-oraculos/contracts/Staking.sol",
  "compiler": {
    "name": "solc",
    "version": "0.6.12+commit.27d51765.Emscripten.clang"
  },
  "schemaVersion": "3.2.5",
  "updatedAt": "2020-10-01T23:58:07.219Z",
  "networkType": "ethereum",
  "devdoc": {
    "kind": "dev",
    "methods": {
      "canRemoveOracle(address)": {
        "params": {
          "ownerAddr": "the address of the owner of the oracle to lookup."
        }
      },
      "changeIGovernor(address)": {
        "params": {
          "newIGovernor": "New governor address"
        }
      },
      "delegateCallToChanger(bytes)": {
        "params": {
          "data": "the serialized function arguments"
        }
      },
      "deposit(uint256,address)": {
        "params": {
          "destination": "the destination account of this deposit.",
          "mocs": "token quantity"
        }
      },
      "depositFrom(uint256,address,address)": {
        "params": {
          "destination": "the destination account of this deposit.",
          "mocs": "token quantity",
          "source": "the address that approved the transfer"
        }
      },
      "getBalance(address)": {
        "params": {
          "user": "user address"
        }
      },
      "getCoinPairAtIndex(uint256)": {
        "params": {
          "i": "index to query."
        }
      },
      "getCoinPairIndex(bytes32,uint256)": {
        "params": {
          "coinPair": "The bytes32-encoded coinpair string (e.g. BTCUSD)",
          "hint": "Optional hint to start traversing the coinPairList array, zero is to search all the array."
        }
      },
      "getContractAddress(bytes32)": {
        "params": {
          "coinPair": "Coin-pair string to lookup (e.g: BTCUSD)"
        },
        "returns": {
          "_0": "address Address of contract or zero if does not exist or was deleted."
        }
      },
      "getLockedBalance(address)": {
        "params": {
          "user": "user address"
        }
      },
      "getRegisteredOracleAtIndex(uint256)": {
        "params": {
          "idx": "index to query."
        }
      },
      "initialize(address,address,address,address,address[],uint256)": {
        "params": {
          "_delayMachine": "the Delay Machine contract contract address.",
          "_governor": "The address of the contract which governs this one",
          "_oracleManager": "the Oracle Manager contract contract address.",
          "_supporters": "the Supporters contract contract address.",
          "_wlistlock": "Initial whitelist addresses for locking mocs"
        }
      },
      "isOracleRegistered(address)": {
        "params": {
          "ownerAddr": "The address of the owner of the Oracle to check for."
        }
      },
      "isSubscribed(address,bytes32)": {
        "params": {
          "coinPair": "coin pair to unsubscribe, for example BTCUSD",
          "ownerAddr": "address of the oracle"
        }
      },
      "lockMocs(address,uint256)": {
        "params": {
          "mocHolder": "the moc holder whose mocs will be locked.",
          "untilTimestamp": "timestamp until which the mocs will be locked."
        }
      },
      "registerOracle(address,string)": {
        "params": {
          "oracleAddr": "address of the oracle (from which we publish prices)",
          "url": "url used by the oracle server"
        }
      },
      "setOracleAddress(address)": {
        "params": {
          "oracleAddr": "The new oracle address"
        }
      },
      "setOracleName(string)": {
        "params": {
          "url": "The new url to set."
        }
      },
      "subscribeToCoinPair(bytes32)": {
        "params": {
          "coinPair": "coin pair to subscribe, for example BTCUSD"
        }
      },
      "unSubscribeFromCoinPair(bytes32)": {
        "params": {
          "coinPair": "coin pair to unsubscribe, for example BTCUSD"
        }
      },
      "withdraw(uint256)": {
        "params": {
          "_mocs": "token quantity"
        }
      },
      "withdrawTokens(uint256)": {
        "params": {
          "tokens": "token quantity"
        }
      }
    },
    "version": 1
  },
  "userdoc": {
    "kind": "user",
    "methods": {
      "canRemoveOracle(address)": {
        "notice": "Returns true if an oracle satisfies conditions to be removed from system."
      },
      "changeIGovernor(address)": {
        "notice": "Change the contract's governor. Should be called through the old governance system"
      },
      "delegateCallToChanger(bytes)": {
        "notice": "This method is used by a change contract to access the storage freely even without a setter."
      },
      "deposit(uint256,address)": {
        "notice": "Accept a deposit from an account. Delegates to the Supporters smart contract."
      },
      "depositFrom(uint256,address,address)": {
        "notice": "Accept a deposit from an account. Delegates to the Supporters smart contract."
      },
      "getBalance(address)": {
        "notice": "Reports the balance of MOCs for a specific user. Delegates to the Supporters smart contract."
      },
      "getCoinPairAtIndex(uint256)": {
        "notice": "Returns the coin pair at index."
      },
      "getCoinPairCount()": {
        "notice": "Returns the count of registered coin pairs. Keep in mind that Deleted coin-pairs will contain zeroed addresses."
      },
      "getCoinPairIndex(bytes32,uint256)": {
        "notice": "Searches a coinpair in coinPairList"
      },
      "getContractAddress(bytes32)": {
        "notice": "Return the contract address for a specified registered coin pair."
      },
      "getLockedBalance(address)": {
        "notice": "Reports the balance of locked MOCs for a specific user. Delegates to the Supporters smart contract."
      },
      "getRegisteredOracleAtIndex(uint256)": {
        "notice": "Returns the oracle name and address at index. Delegates to the Oracle Manager smart contract."
      },
      "getRegisteredOraclesLen()": {
        "notice": "Returns the amount of owners registered. Delegates to the Oracle Manager smart contract."
      },
      "governor()": {
        "notice": "The address of the contract which governs this one"
      },
      "initialize(address,address,address,address,address[],uint256)": {
        "notice": "Construct this contract."
      },
      "isOracleRegistered(address)": {
        "notice": "Return true if the oracle is registered."
      },
      "isSubscribed(address,bytes32)": {
        "notice": "Returns true if an oracle is subscribed to a coin pair"
      },
      "lockMocs(address,uint256)": {
        "notice": "Used by the voting machine to lock an amount of MOCs. Delegates to the Supporters smart contract."
      },
      "registerOracle(address,string)": {
        "notice": "Set an oracle's name (url) and address. Delegates to the Oracle Manager smart contract."
      },
      "removeOracle()": {
        "notice": "Remove an oracle. Delegates to the Oracle Manager smart contract."
      },
      "setOracleAddress(address)": {
        "notice": "Change the oracle address"
      },
      "setOracleName(string)": {
        "notice": "Change the oracle \"internet\" name (URI)"
      },
      "subscribeToCoinPair(bytes32)": {
        "notice": "Subscribe an oracle to a coin pair. Delegates to the Oracle Manager smart contract."
      },
      "totalMoc()": {
        "notice": "Get the value of the token, withdraw and deposit can be done only in multiples of the token value."
      },
      "unSubscribeFromCoinPair(bytes32)": {
        "notice": "Unsubscribe an oracle from a coin pair. Delegates to the Oracle Manager smart contract."
      },
      "withdraw(uint256)": {
        "notice": "Withdraw stake, send it to the delay machine."
      },
      "withdrawTokens(uint256)": {
        "notice": "Withdraw stake, send it to the delay machine."
      }
    },
    "version": 1
  }
}