{
  "contractName": "Supporters",
  "abi": [
    {
      "anonymous": false,
      "inputs": [
        {
          "indexed": true,
          "internalType": "address",
          "name": "user",
          "type": "address"
        },
        {
          "indexed": true,
          "internalType": "address",
          "name": "subaccount",
          "type": "address"
        },
        {
          "indexed": true,
          "internalType": "address",
          "name": "sender",
          "type": "address"
        },
        {
          "indexed": false,
          "internalType": "uint256",
          "name": "amount",
          "type": "uint256"
        },
        {
          "indexed": false,
          "internalType": "uint256",
          "name": "mocs",
          "type": "uint256"
        }
      ],
      "name": "AddStake",
      "type": "event"
    },
    {
      "anonymous": false,
      "inputs": [
        {
          "indexed": false,
          "internalType": "uint256",
          "name": "earnings",
          "type": "uint256"
        },
        {
          "indexed": false,
          "internalType": "uint256",
          "name": "start",
          "type": "uint256"
        },
        {
          "indexed": false,
          "internalType": "uint256",
          "name": "end",
          "type": "uint256"
        }
      ],
      "name": "CancelEarnings",
      "type": "event"
    },
    {
      "anonymous": false,
      "inputs": [
        {
          "indexed": false,
          "internalType": "uint256",
          "name": "earnings",
          "type": "uint256"
        },
        {
          "indexed": false,
          "internalType": "uint256",
          "name": "start",
          "type": "uint256"
        },
        {
          "indexed": false,
          "internalType": "uint256",
          "name": "end",
          "type": "uint256"
        }
      ],
      "name": "PayEarnings",
      "type": "event"
    },
    {
      "anonymous": false,
      "inputs": [
        {
          "indexed": true,
          "internalType": "address",
          "name": "user",
          "type": "address"
        },
        {
          "indexed": true,
          "internalType": "address",
          "name": "subaccount",
          "type": "address"
        },
        {
          "indexed": true,
          "internalType": "address",
          "name": "destination",
          "type": "address"
        },
        {
          "indexed": false,
          "internalType": "uint256",
          "name": "amount",
          "type": "uint256"
        },
        {
          "indexed": false,
          "internalType": "uint256",
          "name": "mocs",
          "type": "uint256"
        }
      ],
      "name": "WithdrawStake",
      "type": "event"
    },
    {
      "inputs": [
        {
          "internalType": "contract IERC20",
          "name": "_mocToken",
          "type": "address"
        },
        {
          "internalType": "uint256",
          "name": "_period",
          "type": "uint256"
        }
      ],
      "name": "initialize",
      "outputs": [],
      "stateMutability": "nonpayable",
      "type": "function"
    },
    {
      "inputs": [],
      "name": "distribute",
      "outputs": [],
      "stateMutability": "nonpayable",
      "type": "function"
    },
    {
      "inputs": [
        {
          "internalType": "uint256",
          "name": "_mocs",
          "type": "uint256"
        }
      ],
      "name": "stake",
      "outputs": [],
      "stateMutability": "nonpayable",
      "type": "function"
    },
    {
      "inputs": [
        {
          "internalType": "uint256",
          "name": "_mocs",
          "type": "uint256"
        },
        {
          "internalType": "address",
          "name": "_subaccount",
          "type": "address"
        }
      ],
      "name": "stakeAt",
      "outputs": [],
      "stateMutability": "nonpayable",
      "type": "function"
    },
    {
      "inputs": [
        {
          "internalType": "uint256",
          "name": "_tokens",
          "type": "uint256"
        }
      ],
      "name": "withdraw",
      "outputs": [
        {
          "internalType": "uint256",
          "name": "",
          "type": "uint256"
        }
      ],
      "stateMutability": "nonpayable",
      "type": "function"
    },
    {
      "inputs": [
        {
          "internalType": "uint256",
          "name": "_tokens",
          "type": "uint256"
        },
        {
          "internalType": "address",
          "name": "_subaccount",
          "type": "address"
        }
      ],
      "name": "withdrawFrom",
      "outputs": [
        {
          "internalType": "uint256",
          "name": "",
          "type": "uint256"
        }
      ],
      "stateMutability": "nonpayable",
      "type": "function"
    },
    {
      "inputs": [
        {
          "internalType": "address",
          "name": "_user",
          "type": "address"
        }
      ],
      "name": "getBalance",
      "outputs": [
        {
          "internalType": "uint256",
          "name": "",
          "type": "uint256"
        }
      ],
      "stateMutability": "view",
      "type": "function"
    },
    {
      "inputs": [
        {
          "internalType": "address",
          "name": "_user",
          "type": "address"
        },
        {
          "internalType": "address",
          "name": "_subaccount",
          "type": "address"
        }
      ],
      "name": "getBalanceAt",
      "outputs": [
        {
          "internalType": "uint256",
          "name": "",
          "type": "uint256"
        }
      ],
      "stateMutability": "view",
      "type": "function"
    },
    {
      "inputs": [
        {
          "internalType": "address",
          "name": "_user",
          "type": "address"
        }
      ],
      "name": "getMOCBalance",
      "outputs": [
        {
          "internalType": "uint256",
          "name": "",
          "type": "uint256"
        }
      ],
      "stateMutability": "view",
      "type": "function"
    },
    {
      "inputs": [
        {
          "internalType": "address",
          "name": "_user",
          "type": "address"
        },
        {
          "internalType": "address",
          "name": "_subaccount",
          "type": "address"
        }
      ],
      "name": "getMOCBalanceAt",
      "outputs": [
        {
          "internalType": "uint256",
          "name": "",
          "type": "uint256"
        }
      ],
      "stateMutability": "view",
      "type": "function"
    },
    {
      "inputs": [],
      "name": "getTokens",
      "outputs": [
        {
          "internalType": "uint256",
          "name": "",
          "type": "uint256"
        }
      ],
      "stateMutability": "view",
      "type": "function"
    },
    {
      "inputs": [],
      "name": "getAvailableMOC",
      "outputs": [
        {
          "internalType": "uint256",
          "name": "",
          "type": "uint256"
        }
      ],
      "stateMutability": "view",
      "type": "function"
    },
    {
      "inputs": [
        {
          "internalType": "uint256",
          "name": "_block",
          "type": "uint256"
        }
      ],
      "name": "getEarningsAt",
      "outputs": [
        {
          "internalType": "uint256",
          "name": "",
          "type": "uint256"
        }
      ],
      "stateMutability": "view",
      "type": "function"
    },
    {
      "inputs": [
        {
          "internalType": "uint256",
          "name": "_block",
          "type": "uint256"
        }
      ],
      "name": "getLockedAt",
      "outputs": [
        {
          "internalType": "uint256",
          "name": "",
          "type": "uint256"
        }
      ],
      "stateMutability": "view",
      "type": "function"
    },
    {
      "inputs": [],
      "name": "getEarningsInfo",
      "outputs": [
        {
          "internalType": "uint256",
          "name": "",
          "type": "uint256"
        },
        {
          "internalType": "uint256",
          "name": "",
          "type": "uint256"
        },
        {
          "internalType": "uint256",
          "name": "",
          "type": "uint256"
        }
      ],
      "stateMutability": "view",
      "type": "function"
    },
    {
      "inputs": [],
      "name": "mocToken",
      "outputs": [
        {
          "internalType": "contract IERC20",
          "name": "",
          "type": "address"
        }
      ],
      "stateMutability": "view",
      "type": "function"
    }
  ],
  "bytecode": "0x608060405234801561001057600080fd5b5061100c806100206000396000f3fe608060405234801561001057600080fd5b50600436106101005760003560e01c8063aa6ca80811610097578063d41ecc5a11610066578063d41ecc5a146102c8578063db1bfafa146102e5578063e4fc6b6d146102ed578063f8b2cb4f146102f557610100565b8063aa6ca8081461023a578063b1cbf88814610242578063b25147e31461026e578063cd6dc6871461029c57610100565b806372015d1a116100d357806372015d1a146101a55780637c5e5db0146101c9578063990ef5ed146101f7578063a694fc3a1461021d57610100565b80632e1a7d4d14610105578063385976b8146101345780633b2b97851461015a5780634e3760fb14610188575b600080fd5b6101226004803603602081101561011b57600080fd5b503561031b565b60408051918252519081900360200190f35b61013c610336565b60408051938452602084019290925282820152519081900360600190f35b6101226004803603604081101561017057600080fd5b506001600160a01b0381358116916020013516610350565b6101226004803603602081101561019e57600080fd5b503561036b565b6101ad61037e565b604080516001600160a01b039092168252519081900360200190f35b6101f5600480360360408110156101df57600080fd5b50803590602001356001600160a01b031661038d565b005b6101226004803603602081101561020d57600080fd5b50356001600160a01b03166103a4565b6101f56004803603602081101561023357600080fd5b50356103b8565b6101226103ce565b6101226004803603604081101561025857600080fd5b50803590602001356001600160a01b03166103df565b6101226004803603604081101561028457600080fd5b506001600160a01b03813581169160200135166103f4565b6101f5600480360360408110156102b257600080fd5b506001600160a01b038135169060200135610408565b610122600480360360208110156102de57600080fd5b50356104be565b6101226104d1565b6101f56104dd565b6101226004803603602081101561030b57600080fd5b50356001600160a01b03166104e9565b6000610330603383338063ffffffff6104fd16565b92915050565b60008060006103456033610673565b925092509250909192565b60006103646033848463ffffffff61072816565b9392505050565b600061033060338363ffffffff61075016565b603a546001600160a01b031690565b6103a0603383833363ffffffff6107e716565b5050565b60006103306033838063ffffffff61095416565b6103cb603382338063ffffffff6107e716565b50565b60006103da603361098d565b905090565b6000610364603384843363ffffffff6104fd16565b60006103646033848463ffffffff61095416565b600054610100900460ff16806104215750610421610994565b8061042f575060005460ff16155b61046a5760405162461bcd60e51b815260040180806020018281038252602e815260200180610fa9602e913960400191505060405180910390fd5b600054610100900460ff16158015610495576000805460ff1961ff0019909116610100171660011790555b6104a76033848463ffffffff61099a16565b80156104b9576000805461ff00191690555b505050565b600061033060338363ffffffff6109c516565b60006103da60336109e5565b6104e76033610a05565b565b60006103306033838063ffffffff61072816565b60008061050a8686610b71565b905061051886338787610bb9565b600286015461052d908263ffffffff610c3416565b600287015560078601546040805163a9059cbb60e01b81526001600160a01b038681166004830152602482018590529151919092169163a9059cbb9160448083019260209291908290030181600087803b15801561058a57600080fd5b505af115801561059e573d6000803e3d6000fd5b505050506040513d60208110156105b457600080fd5b50516105fb576040805162461bcd60e51b815260206004820152601160248201527032b93937b91034b7103a3930b739b332b960791b604482015290519081900360640190fd5b600186015461060d5761060d86610c76565b826001600160a01b0316846001600160a01b0316336001600160a01b03167f592e508b7bcb8f340f4235dc972f0eed3fb8ceec1522f7dc664c0ec3d70ccd158885604051808381526020018281526020019250505060405180910390a495945050505050565b60028101546007820154604080516370a0823160e01b8152306004820152905160009384938493849361070893926001600160a01b0316916370a08231916024808301926020929190829003018186803b1580156106d057600080fd5b505afa1580156106e4573d6000803e3d6000fd5b505050506040513d60208110156106fa57600080fd5b50519063ffffffff610c3416565b905060006107168643610750565b60059690960154969194509092505050565b6001600160a01b03918216600090815260209384526040808220929093168152925290205490565b600082600501546000141561076757506000610330565b826003015482101561077b57506000610330565b826004015482111561079257506005820154610330565b6103646107b084600301548560040154610c3490919063ffffffff16565b6107db6107ca866003015486610c3490919063ffffffff16565b60058701549063ffffffff610cd916565b9063ffffffff610d3216565b60006107f38585610d74565b600286015490915061080b908563ffffffff610daa16565b60028601556007850154604080516323b872dd60e01b81526001600160a01b03858116600483015230602483015260448201889052915191909216916323b872dd9160648083019260209291908290030181600087803b15801561086e57600080fd5b505af1158015610882573d6000803e3d6000fd5b505050506040513d602081101561089857600080fd5b50516108e4576040805162461bcd60e51b81526020600482015260166024820152756572726f7220696e207472616e736665722066726f6d60501b604482015290519081900360640190fd5b6108f085338386610e04565b816001600160a01b0316836001600160a01b0316336001600160a01b03167f3be9ba9d4cf811f0b3ae373b3afca68bd248152e6ab6090207e86237963411b08488604051808381526020018281526020019250505060405180910390a45050505050565b6001600160a01b03808316600090815260208581526040808320938516835292905290812054610985908590610b71565b949350505050565b6001015490565b303b1590565b6007830180546001600160a01b0319166001600160a01b039390931692909217909155600690910155565b60006103646109d48484610750565b60058501549063ffffffff610c3416565b60006103306109f483436109c5565b60028401549063ffffffff610c3416565b610a0e81610e71565b610a5f576040805162461bcd60e51b815260206004820152601760248201527f4e6f7420726561647920746f2064697374726962757465000000000000000000604482015290519081900360640190fd5b6007810154604080516370a0823160e01b815230600482015290516000926001600160a01b0316916370a08231916024808301926020929190829003018186803b158015610aac57600080fd5b505afa158015610ac0573d6000803e3d6000fd5b505050506040513d6020811015610ad657600080fd5b50516002830154909150610af190829063ffffffff610c3416565b600583015543600383018190556006830154610b13919063ffffffff610daa16565b6004830181905560028301829055600583015460038401546040805192835260208301919091528181019290925290517fae0d41d081163df90cb6fb9635dcfd40447a96402d60e1503b6aca171fc849379181900360600190a15050565b600080610b7d8461098d565b90506000610b8a856109e5565b905080610b9c57600092505050610330565b610bb0826107db868463ffffffff610cd916565b95945050505050565b6001600160a01b0380841660009081526020868152604080832093851683529290522054610bed908363ffffffff610c3416565b6001600160a01b03808516600090815260208781526040808320938616835292905220556001840154610c26908363ffffffff610c3416565b846001018190555050505050565b600061036483836040518060400160405280601e81526020017f536166654d6174683a207375627472616374696f6e206f766572666c6f770000815250610e8b565b60028101805460009182905560058301919091556003820154600483015460408051848152602081019390935282810191909152517f5cae2c6323e6b89af1beffd6a6dfd5a1b15ce6894280f14456b631ed380fa5119181900360600190a15050565b600082610ce857506000610330565b82820282848281610cf557fe5b04146103645760405162461bcd60e51b8152600401808060200182810382526021815260200180610f886021913960400191505060405180910390fd5b600061036483836040518060400160405280601a81526020017f536166654d6174683a206469766973696f6e206279207a65726f000000000000815250610f22565b600080610d80846109e5565b90506000610d8d8561098d565b905081158015610d9b575080155b15610b9c578392505050610330565b600082820183811015610364576040805162461bcd60e51b815260206004820152601b60248201527f536166654d6174683a206164646974696f6e206f766572666c6f770000000000604482015290519081900360640190fd5b6001600160a01b0380841660009081526020868152604080832093851683529290522054610e38908363ffffffff610daa16565b6001600160a01b03808516600090815260208781526040808320938616835292905220556001840154610c26908363ffffffff610daa16565b600080826001015411801561033057505060040154431190565b60008184841115610f1a5760405162461bcd60e51b81526004018080602001828103825283818151815260200191508051906020019080838360005b83811015610edf578181015183820152602001610ec7565b50505050905090810190601f168015610f0c5780820380516001836020036101000a031916815260200191505b509250505060405180910390fd5b505050900390565b60008183610f715760405162461bcd60e51b8152602060048201818152835160248401528351909283926044909101919085019080838360008315610edf578181015183820152602001610ec7565b506000838581610f7d57fe5b049594505050505056fe536166654d6174683a206d756c7469706c69636174696f6e206f766572666c6f77436f6e747261637420696e7374616e63652068617320616c7265616479206265656e20696e697469616c697a6564a26469706673582212208b93a953fda6a624d06d8fa3a2c221e588b2f24a270c4ee0f1d7d715cc3d8c7564736f6c63430006000033",
  "source": "pragma solidity 0.6.0;\n\nimport {IERC20} from \"../openzeppelin/token/ERC20/IERC20.sol\";\nimport {SafeMath} from \"../openzeppelin/math/SafeMath.sol\";\nimport {Initializable} from \"../openzeppelin/Initializable.sol\";\nimport {SupportersLib} from \"../libs/SupportersLib.sol\";\n\n/*\n    Original supporter contract that has no restrictions.\n*/\ncontract Supporters is Initializable {\n    SupportersLib.SupportersData internal supportersData;\n    using SupportersLib for SupportersLib.SupportersData;\n\n    // Emitted by SupportersLib\n    event PayEarnings(uint256 earnings, uint256 start, uint256 end);\n    event CancelEarnings(uint256 earnings, uint256 start, uint256 end);\n    event AddStake(address indexed user, address indexed subaccount,\n        address indexed sender, uint256 amount, uint256 mocs);\n    event WithdrawStake(address indexed user, address indexed subaccount,\n        address indexed destination, uint256 amount, uint256 mocs);\n\n    function initialize(IERC20 _mocToken, uint256 _period) external initializer {\n        supportersData._initialize(_mocToken, _period);\n    }\n\n    /**\n      Deposit earnings that will be credited to supporters.\n      Earnings will be credited periodically through several blocks.\n    */\n    function distribute() external {\n        supportersData._distribute();\n    }\n\n    /**\n      Stake MOC to receive earnings.\n\n      @param _mocs amount of MOC to stake\n    */\n    function stake(uint256 _mocs) external {\n        supportersData._stakeAtFrom(_mocs, msg.sender, msg.sender);\n    }\n\n    /**\n      Stake MOC to receive earnings on a subaccount.\n\n      @param _mocs amount of MOC to stake\n      @param _subaccount sub-account used to identify the stake\n    */\n    function stakeAt(uint256 _mocs, address _subaccount) external {\n        supportersData._stakeAtFrom(_mocs, _subaccount, msg.sender);\n    }\n\n    /**\n      Withdraw MOC for tokens.\n\n      @param _tokens amount of tokens to convert to MOC\n      @return Amount of MOC transfered\n    */\n    function withdraw(uint256 _tokens) external returns (uint256) {\n        return supportersData._withdrawFromTo(_tokens, msg.sender, msg.sender);\n    }\n\n    /**\n      Withdraw MOC for tokens for a subaccount.\n\n      @param _tokens amount of tokens to convert to MOC\n      @param _subaccount subaccount used to withdraw MOC\n      @return Amount of MOC transfered\n    */\n    function withdrawFrom(uint256 _tokens, address _subaccount) external returns (uint256) {\n        return supportersData._withdrawFromTo(_tokens, _subaccount, msg.sender);\n    }\n\n    /**\n      Amount of tokens for _user.\n\n      @param _user User address\n      @return tokens for _user\n    */\n    function getBalance(address _user) external view returns (uint256) {\n        return supportersData._getBalanceAt(_user, _user);\n    }\n\n    /**\n      Amount of tokens for _user in a _subaccount.\n\n      @param _user User address\n      @param _subaccount subaccount to get balance\n      @return tokens for _user at _subaccount\n    */\n    function getBalanceAt(address _user, address _subaccount) external view returns (uint256) {\n        return supportersData._getBalanceAt(_user, _subaccount);\n    }\n\n    /**\n      MOC available for withdrawal by _user.\n\n      @param _user User address\n      @return MOC for _user\n    */\n    function getMOCBalance(address _user) external view returns (uint256) {\n        return supportersData._getMOCBalanceAt(_user, _user);\n    }\n\n    /**\n      MOC available for withdrawal by _user.\n\n      @param _user User address\n      @param _subaccount subaccount to get MOC balance\n      @return MOC for _user\n    */\n    function getMOCBalanceAt(address _user, address _subaccount) external view returns (uint256) {\n        return supportersData._getMOCBalanceAt(_user, _subaccount);\n    }\n\n    /**\n      Total tokens created.\n\n      @return total amount of tokens\n    */\n    function getTokens() external view returns (uint256) {\n        return supportersData._getTokens();\n    }\n\n    /**\n      MOC available for withdrawal.\n\n      @return total amount of MOC\n    */\n    function getAvailableMOC() external view returns (uint256) {\n        return supportersData._getAvailableMOC();\n    }\n\n    /**\n      Calculate earnings to be paid at a block\n\n      @param _block Block used to calculate\n      @return Earnings to be paid\n    */\n    function getEarningsAt(uint256 _block) external view returns (uint256) {\n        return supportersData._getEarningsAt(_block);\n    }\n\n    /**\n      Calculate locked earnings at a block\n\n      @param _block Block used for calculations\n      @return Locked amount of earnings in MOC\n    */\n    function getLockedAt(uint256 _block) external view returns (uint256) {\n        return supportersData._getLockedAt(_block);\n    }\n\n    /**\n      @dev Return information about earnings\n\n      @return Information about earnings\n    */\n    function getEarningsInfo() external view returns (uint256, uint256, uint256) {\n        return supportersData._getEarningsInfo();\n    }\n\n    /**\n      @return The moc token address\n    */\n    function mocToken() external view returns (IERC20) {\n        return supportersData.mocToken;\n    }\n\n}\n",
  "sourcePath": "/home/adji/Desktop/work/coinfabrik/OMoC-Decentralized-Oracle/contracts/contracts/testing_mocks/Supporters.sol",
  "compiler": {
    "name": "solc",
    "version": "0.6.0+commit.26b70077.Emscripten.clang"
  },
  "schemaVersion": "3.2.0",
  "updatedAt": "2020-06-29T21:30:43.193Z",
  "devdoc": {
    "methods": {
      "getBalance(address)": {
        "params": {
          "_user": "User address"
        },
        "returns": {
          "_0": "tokens for _user"
        }
      },
      "getBalanceAt(address,address)": {
        "params": {
          "_subaccount": "subaccount to get balance",
          "_user": "User address"
        },
        "returns": {
          "_0": "tokens for _user at _subaccount"
        }
      },
      "getEarningsAt(uint256)": {
        "params": {
          "_block": "Block used to calculate"
        },
        "returns": {
          "_0": "Earnings to be paid"
        }
      },
      "getEarningsInfo()": {
        "details": "Return information about earnings",
        "returns": {
          "_0": "Information about earnings"
        }
      },
      "getLockedAt(uint256)": {
        "params": {
          "_block": "Block used for calculations"
        },
        "returns": {
          "_0": "Locked amount of earnings in MOC"
        }
      },
      "getMOCBalance(address)": {
        "params": {
          "_user": "User address"
        },
        "returns": {
          "_0": "MOC for _user"
        }
      },
      "getMOCBalanceAt(address,address)": {
        "params": {
          "_subaccount": "subaccount to get MOC balance",
          "_user": "User address"
        },
        "returns": {
          "_0": "MOC for _user"
        }
      },
      "stake(uint256)": {
        "params": {
          "_mocs": "amount of MOC to stake"
        }
      },
      "stakeAt(uint256,address)": {
        "params": {
          "_mocs": "amount of MOC to stake",
          "_subaccount": "sub-account used to identify the stake"
        }
      },
      "withdraw(uint256)": {
        "params": {
          "_tokens": "amount of tokens to convert to MOC"
        },
        "returns": {
          "_0": "Amount of MOC transfered"
        }
      },
      "withdrawFrom(uint256,address)": {
        "params": {
          "_subaccount": "subaccount used to withdraw MOC",
          "_tokens": "amount of tokens to convert to MOC"
        },
        "returns": {
          "_0": "Amount of MOC transfered"
        }
      }
    }
  },
  "userdoc": {
    "methods": {
      "distribute()": {
        "notice": "Deposit earnings that will be credited to supporters. Earnings will be credited periodically through several blocks."
      },
      "getAvailableMOC()": {
        "notice": "MOC available for withdrawal."
      },
      "getBalance(address)": {
        "notice": "Amount of tokens for _user."
      },
      "getBalanceAt(address,address)": {
        "notice": "Amount of tokens for _user in a _subaccount."
      },
      "getEarningsAt(uint256)": {
        "notice": "Calculate earnings to be paid at a block"
      },
      "getLockedAt(uint256)": {
        "notice": "Calculate locked earnings at a block"
      },
      "getMOCBalance(address)": {
        "notice": "MOC available for withdrawal by _user."
      },
      "getMOCBalanceAt(address,address)": {
        "notice": "MOC available for withdrawal by _user."
      },
      "getTokens()": {
        "notice": "Total tokens created."
      },
      "stake(uint256)": {
        "notice": "Stake MOC to receive earnings."
      },
      "stakeAt(uint256,address)": {
        "notice": "Stake MOC to receive earnings on a subaccount."
      },
      "withdraw(uint256)": {
        "notice": "Withdraw MOC for tokens."
      },
      "withdrawFrom(uint256,address)": {
        "notice": "Withdraw MOC for tokens for a subaccount."
      }
    }
  }
}