{
  "contractName": "SupportersVested",
  "abi": [
    {
      "inputs": [
        {
          "internalType": "contract IGovernor",
          "name": "newIGovernor",
          "type": "address"
        }
      ],
      "name": "changeIGovernor",
      "outputs": [],
      "stateMutability": "nonpayable",
      "type": "function"
    },
    {
      "inputs": [
        {
          "internalType": "bytes",
          "name": "data",
          "type": "bytes"
        }
      ],
      "name": "delegateCallToChanger",
      "outputs": [],
      "stateMutability": "nonpayable",
      "type": "function"
    },
    {
      "inputs": [],
      "name": "governor",
      "outputs": [
        {
          "internalType": "contract IGovernor",
          "name": "",
          "type": "address"
        }
      ],
      "stateMutability": "view",
      "type": "function",
      "constant": true
    },
    {
      "inputs": [],
      "name": "mocToken",
      "outputs": [
        {
          "internalType": "contract IERC20",
          "name": "",
          "type": "address"
        }
      ],
      "stateMutability": "view",
      "type": "function",
      "constant": true
    },
    {
      "inputs": [],
      "name": "supporters",
      "outputs": [
        {
          "internalType": "contract SupportersWhitelisted",
          "name": "",
          "type": "address"
        }
      ],
      "stateMutability": "view",
      "type": "function",
      "constant": true
    },
    {
      "inputs": [
        {
          "internalType": "contract IGovernor",
          "name": "_governor",
          "type": "address"
        },
        {
          "internalType": "contract SupportersWhitelisted",
          "name": "_supporters",
          "type": "address"
        }
      ],
      "name": "initialize",
      "outputs": [],
      "stateMutability": "nonpayable",
      "type": "function"
    },
    {
      "inputs": [],
      "name": "distribute",
      "outputs": [],
      "stateMutability": "nonpayable",
      "type": "function"
    },
    {
      "inputs": [
        {
          "internalType": "uint256",
          "name": "_mocs",
          "type": "uint256"
        }
      ],
      "name": "addStake",
      "outputs": [],
      "stateMutability": "nonpayable",
      "type": "function"
    },
    {
      "inputs": [
        {
          "internalType": "uint256",
          "name": "_mocs",
          "type": "uint256"
        }
      ],
      "name": "stakeDirectly",
      "outputs": [],
      "stateMutability": "nonpayable",
      "type": "function"
    },
    {
      "inputs": [],
      "name": "stop",
      "outputs": [],
      "stateMutability": "nonpayable",
      "type": "function"
    },
    {
      "inputs": [
        {
          "internalType": "address",
          "name": "_subaccount",
          "type": "address"
        }
      ],
      "name": "canWithdraw",
      "outputs": [
        {
          "internalType": "bool",
          "name": "",
          "type": "bool"
        }
      ],
      "stateMutability": "view",
      "type": "function",
      "constant": true
    },
    {
      "inputs": [],
      "name": "withdraw",
      "outputs": [],
      "stateMutability": "nonpayable",
      "type": "function"
    },
    {
      "inputs": [
        {
          "internalType": "address",
          "name": "_account",
          "type": "address"
        }
      ],
      "name": "balanceOf",
      "outputs": [
        {
          "internalType": "uint256",
          "name": "balance",
          "type": "uint256"
        }
      ],
      "stateMutability": "view",
      "type": "function",
      "constant": true
    },
    {
      "inputs": [
        {
          "internalType": "address",
          "name": "_account",
          "type": "address"
        }
      ],
      "name": "vestingInfoOf",
      "outputs": [
        {
          "internalType": "uint256",
          "name": "balance",
          "type": "uint256"
        },
        {
          "internalType": "uint256",
          "name": "stoppedInblock",
          "type": "uint256"
        }
      ],
      "stateMutability": "view",
      "type": "function",
      "constant": true
    },
    {
      "inputs": [],
      "name": "getMinStayBlocks",
      "outputs": [
        {
          "internalType": "uint256",
          "name": "",
          "type": "uint256"
        }
      ],
      "stateMutability": "view",
      "type": "function",
      "constant": true
    },
    {
      "inputs": [],
      "name": "getAfterStopBlocks",
      "outputs": [
        {
          "internalType": "uint256",
          "name": "",
          "type": "uint256"
        }
      ],
      "stateMutability": "view",
      "type": "function",
      "constant": true
    }
  ],
  "bytecode": "0x6080604052611240806100136000396000f3fe608060405234801561001057600080fd5b50600436106101005760003560e01c80635e66be9511610097578063dc8990e111610066578063dc8990e114610275578063e4fc6b6d1461031b578063eb4f16b514610323578063fdc31f6f1461034057610100565b80635e66be951461020457806370a082311461022157806372015d1a14610247578063b6e083301461024f57610100565b80632784b985116100d35780632784b985146101ac5780633ccfd60b146101c6578063485cc955146101ce5780634df42bf9146101fc57610100565b806307da68f5146101055780630c340a241461010f57806319262d30146101335780631dc2e6021461016d575b600080fd5b61010d610348565b005b6101176103ae565b604080516001600160a01b039092168252519081900360200190f35b6101596004803603602081101561014957600080fd5b50356001600160a01b03166103bd565b604080519115158252519081900360200190f35b6101936004803603602081101561018357600080fd5b50356001600160a01b0316610440565b6040805192835260208301919091528051918290030190f35b6101b46104d0565b60408051918252519081900360200190f35b61010d610546565b61010d600480360360408110156101e457600080fd5b506001600160a01b0381358116916020013516610650565b6101b4610896565b61010d6004803603602081101561021a57600080fd5b50356108db565b6101b46004803603602081101561023757600080fd5b50356001600160a01b0316610950565b6101176109f7565b61010d6004803603602081101561026557600080fd5b50356001600160a01b0316610a06565b61010d6004803603602081101561028b57600080fd5b8101906020810181356401000000008111156102a657600080fd5b8201836020820111156102b857600080fd5b803590602001918460018302840111640100000000831117156102da57600080fd5b91908080601f016020809104026020016040519081016040528093929190818152602001838380828437600092019190915250929550610b56945050505050565b61010d610dd5565b61010d6004803603602081101561033957600080fd5b5035610f68565b61011761115a565b6066546040805163195b2c2f60e21b815233600482015290516001600160a01b039092169163656cb0bc9160248082019260009290919082900301818387803b15801561039457600080fd5b505af11580156103a8573d6000803e3d6000fd5b50505050565b6033546001600160a01b031681565b6066546040805163019262d360e41b81526001600160a01b038481166004830152915160009392909216916319262d3091602480820192602092909190829003018186803b15801561040e57600080fd5b505afa158015610422573d6000803e3d6000fd5b505050506040513d602081101561043857600080fd5b505192915050565b606654604080516308fc63c760e41b81523060048201526001600160a01b03848116602483015282516000948594921692638fc63c70926044808301939192829003018186803b15801561049357600080fd5b505afa1580156104a7573d6000803e3d6000fd5b505050506040513d60408110156104bd57600080fd5b5080516020909101519092509050915091565b60665460408051632784b98560e01b815290516000926001600160a01b031691632784b985916004808301926020929190829003018186803b15801561051557600080fd5b505afa158015610529573d6000803e3d6000fd5b505050506040513d602081101561053f57600080fd5b5051905090565b60665460408051633b2b978560e01b815230600482015233602482015290516000926001600160a01b031691633b2b9785916044808301926020929190829003018186803b15801561059757600080fd5b505afa1580156105ab573d6000803e3d6000fd5b505050506040513d60208110156105c157600080fd5b505160665460408051630941808160e01b8152600481018490523360248201819052604482015290519293506001600160a01b03909116916309418081916064808201926020929091908290030181600087803b15801561062157600080fd5b505af1158015610635573d6000803e3d6000fd5b505050506040513d602081101561064b57600080fd5b505050565b600054610100900460ff16806106695750610669611169565b80610677575060005460ff16155b6106b25760405162461bcd60e51b815260040180806020018281038252602e8152602001806111b5602e913960400191505060405180910390fd5b600054610100900460ff161580156106dd576000805460ff1961ff0019909116610100171660011790555b6001600160a01b0382166107225760405162461bcd60e51b81526004018080602001828103825260288152602001806111e36028913960400191505060405180910390fd5b60006001600160a01b0316826001600160a01b03166372015d1a6040518163ffffffff1660e01b815260040160206040518083038186803b15801561076657600080fd5b505afa15801561077a573d6000803e3d6000fd5b505050506040513d602081101561079057600080fd5b50516001600160a01b031614156107d85760405162461bcd60e51b81526004018080602001828103825260238152602001806111926023913960400191505060405180910390fd5b6107e18361116f565b606680546001600160a01b0319166001600160a01b03841690811790915560408051633900ae8d60e11b815290516372015d1a91600480820192602092909190829003018186803b15801561083557600080fd5b505afa158015610849573d6000803e3d6000fd5b505050506040513d602081101561085f57600080fd5b5051606780546001600160a01b0319166001600160a01b03909216919091179055801561064b576000805461ff0019169055505050565b60665460408051634df42bf960e01b815290516000926001600160a01b031691634df42bf9916004808301926020929190829003018186803b15801561051557600080fd5b606654604080516341c4034b60e11b8152600481018490523360248201819052604482015290516001600160a01b039092169163838806969160648082019260009290919082900301818387803b15801561093557600080fd5b505af1158015610949573d6000803e3d6000fd5b5050505050565b60006001600160a01b0382166109a4576040805162461bcd60e51b8152602060048201526014602482015273041646472657373206d75737420626520213d20360641b604482015290519081900360640190fd5b6066546040805163b25147e360e01b81523060048201526001600160a01b0385811660248301529151919092169163b25147e3916044808301926020929190829003018186803b15801561040e57600080fd5b6067546001600160a01b031681565b6033546040805163d994d6d560e01b815233600482015290516001600160a01b039092169163d994d6d591602480820192602092909190829003018186803b158015610a5157600080fd5b505afa158015610a65573d6000803e3d6000fd5b505050506040513d6020811015610a7b57600080fd5b50516040805180820190915260168152753737ba2fb0baba3437b934bd32b22fb1b430b733b2b960511b602082015290610b335760405162461bcd60e51b81526004018080602001828103825283818151815260200191508051906020019080838360005b83811015610af8578181015183820152602001610ae0565b50505050905090810190601f168015610b255780820380516001836020036101000a031916815260200191505b509250505060405180910390fd5b50603380546001600160a01b0319166001600160a01b0392909216919091179055565b6033546040805163d994d6d560e01b815233600482015290516001600160a01b039092169163d994d6d591602480820192602092909190829003018186803b158015610ba157600080fd5b505afa158015610bb5573d6000803e3d6000fd5b505050506040513d6020811015610bcb57600080fd5b50516040805180820190915260168152753737ba2fb0baba3437b934bd32b22fb1b430b733b2b960511b602082015290610c465760405162461bcd60e51b8152602060048201818152835160248401528351909283926044909101919085019080838360008315610af8578181015183820152602001610ae0565b5060003390506000816001600160a01b0316836040516024018080602001828103825283818151815260200191508051906020019080838360005b83811015610c99578181015183820152602001610c81565b50505050905090810190601f168015610cc65780820380516001836020036101000a031916815260200191505b5060408051601f198184030181529181526020820180516001600160e01b03166350b113e560e11b178152905182519295509350839250908083835b60208310610d215780518252601f199092019160209182019101610d02565b6001836020036101000a038019825116818451168082178552505050505050905001915050600060405180830381855af49150503d8060008114610d81576040519150601f19603f3d011682016040523d82523d6000602084013e610d86565b606091505b505090508061064b576040805162461bcd60e51b8152602060048201526016602482015275115c9c9bdc881a5b8819195b1959d85d194818d85b1b60521b604482015290519081900360640190fd5b606754604080516370a0823160e01b815230600482015290516000926001600160a01b0316916370a08231916024808301926020929190829003018186803b158015610e2057600080fd5b505afa158015610e34573d6000803e3d6000fd5b505050506040513d6020811015610e4a57600080fd5b50516067546066546040805163a9059cbb60e01b81526001600160a01b03928316600482015260248101859052905193945091169163a9059cbb916044808201926020929091908290030181600087803b158015610ea757600080fd5b505af1158015610ebb573d6000803e3d6000fd5b505050506040513d6020811015610ed157600080fd5b5051610f18576040805162461bcd60e51b815260206004820152601160248201527022b93937b91034b7103a3930b739b332b960791b604482015290519081900360640190fd5b606660009054906101000a90046001600160a01b03166001600160a01b031663e4fc6b6d6040518163ffffffff1660e01b8152600401600060405180830381600087803b15801561093557600080fd5b606754604080516323b872dd60e01b81523360048201523060248201526044810184905290516001600160a01b03909216916323b872dd916064808201926020929091908290030181600087803b158015610fc257600080fd5b505af1158015610fd6573d6000803e3d6000fd5b505050506040513d6020811015610fec57600080fd5b5051611038576040805162461bcd60e51b81526020600482015260166024820152756572726f7220696e207472616e736665722066726f6d60501b604482015290519081900360640190fd5b6067546066546040805163095ea7b360e01b81526001600160a01b039283166004820152602481018590529051919092169163095ea7b39160448083019260209291908290030181600087803b15801561109157600080fd5b505af11580156110a5573d6000803e3d6000fd5b505050506040513d60208110156110bb57600080fd5b5051611101576040805162461bcd60e51b815260206004820152601060248201526f6572726f7220696e20617070726f766560801b604482015290519081900360640190fd5b606654604080516341c4034b60e11b81526004810184905233602482015230604482015290516001600160a01b039092169163838806969160648082019260009290919082900301818387803b15801561093557600080fd5b6066546001600160a01b031681565b303b1590565b603380546001600160a01b0319166001600160a01b039290921691909117905556fe546f6b656e20636f6e74726163742061646472657373206d75737420626520213d2030436f6e747261637420696e7374616e63652068617320616c7265616479206265656e20696e697469616c697a6564537570706f727465727320636f6e74726163742061646472657373206d75737420626520213d2030a2646970667358221220fd652037b359a31057061a063f8b13870429134cd67bb00aa33a54baa59c0f8b64736f6c63430006000033",
  "source": "pragma solidity 0.6.0;\n\nimport {SafeMath} from \"./openzeppelin/math/SafeMath.sol\";\nimport {IERC20} from \"./openzeppelin/token/ERC20/IERC20.sol\";\nimport {IGovernor} from \"./moc-gobernanza/Governance/IGovernor.sol\";\nimport {Governed} from \"./moc-gobernanza/Governance/Governed.sol\";\nimport {SupportersWhitelisted} from \"./SupportersWhitelisted.sol\";\nimport {SupportersVestedStorage} from \"./SupportersVestedStorage.sol\";\n\n/*\n    Implementation of SupportersVestedAbstract used by regular supporters.\n    This can be merged into SupportersWhitelisted directly, but we choose separate it so\n    we can add other contracts with different kind of restrictions to the supporters smart-contract.\n*/\ncontract SupportersVested is SupportersVestedStorage {\n    using SafeMath for uint;\n\n    function initialize(IGovernor _governor, SupportersWhitelisted _supporters) external initializer {\n        require(address(_supporters) != address(0), \"Supporters contract address must be != 0\");\n        require(address(_supporters.mocToken()) != address(0), \"Token contract address must be != 0\");\n\n        Governed._initialize(_governor);\n        supporters = _supporters;\n        mocToken = _supporters.mocToken();\n    }\n\n    /**\n      Deposit earnings that will be credited to supporters.\n      Earnings will be credited periodically through several blocks.\n      If some user moves by error some MOC to this contract address we transfer them so they are used as rewards.\n    */\n    function distribute() external {\n        // if somebody does a MOC transfer to our address, use the excess as rewards.\n        uint256 mocs = mocToken.balanceOf(address(this));\n        require(mocToken.transfer(address(supporters), mocs), \"Error in transfer\");\n        supporters.distribute();\n    }\n\n\n    /**\n      add MOCs to stake the approve must be done to this contract.\n\n      @param _mocs amount of MOC to stake\n    */\n    function addStake(uint256 _mocs) external {\n        // Transfer stake [should be approved by owner first]\n        require(mocToken.transferFrom(msg.sender, address(this), _mocs), \"error in transfer from\");\n        // Stake at Supporters contract\n        require(mocToken.approve(address(supporters), _mocs), \"error in approve\");\n        supporters.stakeAtFrom(_mocs, msg.sender, address(this));\n    }\n\n    /**\n    add MOCs to stake the approve must be done directly to the SupportersWhitelisted contract.\n\n    @param _mocs amount of MOC to stake\n    */\n    function stakeDirectly(uint256 _mocs) external {\n        supporters.stakeAtFrom(_mocs, msg.sender, msg.sender);\n    }\n\n    /**\n      Stop staking some MOCs\n    */\n    function stop() external {\n        supporters.stop(msg.sender);\n    }\n\n    /// @notice Returns true if a supporter can withdraw his money\n    //  @param _subaccount subaccount used to withdraw MOC\n    function canWithdraw(address _subaccount) external view returns (bool) {\n        return supporters.canWithdraw(_subaccount);\n    }\n\n    /**\n      Withdraw MOCs that were already stopped .\n    */\n    function withdraw() external {\n        uint256 tokens = supporters.getBalanceAt(address(this), msg.sender);\n        supporters.withdrawFromTo(tokens, msg.sender, msg.sender);\n    }\n\n    /**\n      Balance of mocs.\n\n      @param _account User address\n      @return balance the balance of the user\n    */\n    function balanceOf(address _account) external view returns (uint256 balance) {\n        require(_account != address(0), \"Address must be != 0\");\n        return supporters.getMOCBalanceAt(address(this), _account);\n    }\n\n    /**\n      Vesting information for _account.\n\n      @param _account User address\n      @return balance the balance of the user\n      @return stoppedInblock the block in which the mocs where stopped\n    */\n    function vestingInfoOf(address _account) external view returns (uint256 balance, uint256 stoppedInblock) {\n        return supporters.vestingInfoOf(address(this), _account);\n    }\n\n\n    /**\n      Get the minimum number of blocks that a user must stay staked after staking\n\n      @return the minimum number of blocks that a user must stay staked after staking\n    */\n    function getMinStayBlocks() external view returns (uint256) {\n        return supporters.getMinStayBlocks();\n    }\n\n\n    /**\n      Return the period of blocks a user have after a stop and minStayBlock to withdraw\n\n      @return the period of blocks that a user have\n    */\n    function getAfterStopBlocks() external view returns (uint256) {\n        return supporters.getAfterStopBlocks();\n    }\n}\n",
  "sourcePath": "/home/adji/Desktop/work/coinfabrik/OMoC-Decentralized-Oracle/contracts/contracts/SupportersVested.sol",
  "compiler": {
    "name": "solc",
    "version": "0.6.0+commit.26b70077.Emscripten.clang"
  },
  "schemaVersion": "3.2.0",
  "updatedAt": "2020-06-29T22:06:08.719Z",
  "networkType": "ethereum",
  "devdoc": {
    "methods": {
      "addStake(uint256)": {
        "params": {
          "_mocs": "amount of MOC to stake"
        }
      },
      "balanceOf(address)": {
        "params": {
          "_account": "User address"
        },
        "returns": {
          "balance": "the balance of the user"
        }
      },
      "changeIGovernor(address)": {
        "params": {
          "newIGovernor": "New governor address"
        }
      },
      "stakeDirectly(uint256)": {
        "params": {
          "_mocs": "amount of MOC to stake"
        }
      },
      "vestingInfoOf(address)": {
        "params": {
          "_account": "User address"
        },
        "returns": {
          "balance": "the balance of the user",
          "stoppedInblock": "the block in which the mocs where stopped"
        }
      }
    }
  },
  "userdoc": {
    "methods": {
      "addStake(uint256)": {
        "notice": "add MOCs to stake the approve must be done to this contract."
      },
      "balanceOf(address)": {
        "notice": "Balance of mocs."
      },
      "canWithdraw(address)": {
        "notice": "Returns true if a supporter can withdraw his money"
      },
      "changeIGovernor(address)": {
        "notice": "Change the contract's governor. Should be called through the old governance system"
      },
      "distribute()": {
        "notice": "Deposit earnings that will be credited to supporters. Earnings will be credited periodically through several blocks. If some user moves by error some MOC to this contract address we transfer them so they are used as rewards."
      },
      "getAfterStopBlocks()": {
        "notice": "Return the period of blocks a user have after a stop and minStayBlock to withdraw"
      },
      "getMinStayBlocks()": {
        "notice": "Get the minimum number of blocks that a user must stay staked after staking"
      },
      "stakeDirectly(uint256)": {
        "notice": "add MOCs to stake the approve must be done directly to the SupportersWhitelisted contract."
      },
      "stop()": {
        "notice": "Stop staking some MOCs"
      },
      "vestingInfoOf(address)": {
        "notice": "Vesting information for _account."
      },
      "withdraw()": {
        "notice": "Withdraw MOCs that were already stopped ."
      }
    }
  }
}