{
  "contractName": "SupportersWhitelistedPeriodChange",
  "abi": [
    {
      "inputs": [
        {
          "internalType": "contract GovernedAbstract",
          "name": "_supporters",
          "type": "address"
        },
        {
          "internalType": "uint256",
          "name": "_period",
          "type": "uint256"
        }
      ],
      "stateMutability": "nonpayable",
      "type": "constructor"
    },
    {
      "inputs": [
        {
          "internalType": "contract IGovernor",
          "name": "newIGovernor",
          "type": "address"
        }
      ],
      "name": "changeIGovernor",
      "outputs": [],
      "stateMutability": "nonpayable",
      "type": "function"
    },
    {
      "inputs": [
        {
          "internalType": "bytes",
          "name": "data",
          "type": "bytes"
        }
      ],
      "name": "delegateCallToChanger",
      "outputs": [],
      "stateMutability": "nonpayable",
      "type": "function"
    },
    {
      "inputs": [],
      "name": "encodedData",
      "outputs": [
        {
          "internalType": "bytes",
          "name": "",
          "type": "bytes"
        }
      ],
      "stateMutability": "view",
      "type": "function"
    },
    {
      "inputs": [],
      "name": "governor",
      "outputs": [
        {
          "internalType": "contract IGovernor",
          "name": "",
          "type": "address"
        }
      ],
      "stateMutability": "view",
      "type": "function"
    },
    {
      "inputs": [],
      "name": "supporters",
      "outputs": [
        {
          "internalType": "contract GovernedAbstract",
          "name": "",
          "type": "address"
        }
      ],
      "stateMutability": "view",
      "type": "function"
    },
    {
      "inputs": [],
      "name": "execute",
      "outputs": [],
      "stateMutability": "nonpayable",
      "type": "function"
    },
    {
      "inputs": [
        {
          "internalType": "bytes",
          "name": "data",
          "type": "bytes"
        }
      ],
      "name": "impersonate",
      "outputs": [],
      "stateMutability": "nonpayable",
      "type": "function"
    }
  ],
  "bytecode": "0x608060405234801561001057600080fd5b506040516109533803806109538339818101604052604081101561003357600080fd5b50805160209182015160a580546001600160a01b0319166001600160a01b038416179055604080518085018390528151808203860181529082019091528051929391926100849260a692019061008c565b505050610127565b828054600181600116156101000203166002900490600052602060002090601f016020900481019282601f106100cd57805160ff19168380011785556100fa565b828001600101855582156100fa579182015b828111156100fa5782518255916020019190600101906100df565b5061010692915061010a565b5090565b61012491905b808211156101065760008155600101610110565b90565b61081d806101366000396000f3fe608060405234801561001057600080fd5b506004361061007d5760003560e01c8063b6e083301161005b578063b6e0833014610120578063d2b0bf7c14610146578063dc8990e1146101c3578063fdc31f6f146102695761007d565b80630c340a241461008257806361461954146100a6578063a16227ca146100b0575b600080fd5b61008a610271565b604080516001600160a01b039092168252519081900360200190f35b6100ae610280565b005b6100ae600480360360208110156100c657600080fd5b8101906020810181356401000000008111156100e157600080fd5b8201836020820111156100f357600080fd5b8035906020019184600183028401116401000000008311171561011557600080fd5b50909250905061035d565b6100ae6004803603602081101561013657600080fd5b50356001600160a01b0316610376565b61014e6104c6565b6040805160208082528351818301528351919283929083019185019080838360005b83811015610188578181015183820152602001610170565b50505050905090810190601f1680156101b55780820380516001836020036101000a031916815260200191505b509250505060405180910390f35b6100ae600480360360208110156101d957600080fd5b8101906020810181356401000000008111156101f457600080fd5b82018360208201111561020657600080fd5b8035906020019184600183028401116401000000008311171561022857600080fd5b91908080601f016020809104026020016040519081016040528093929190818152602001838380828437600092019190915250929550610554945050505050565b61008a6107d8565b6033546001600160a01b031681565b60a55460405163dc8990e160e01b815260206004820190815260a6805460026000196001831615610100020190911604602484018190526001600160a01b039094169363dc8990e1939192918291604490910190849080156103235780601f106102f857610100808354040283529160200191610323565b820191906000526020600020905b81548152906001019060200180831161030657829003601f168201915b505092505050600060405180830381600087803b15801561034357600080fd5b505af1158015610357573d6000803e3d6000fd5b50505050565b8181602081101561036d57600080fd5b5035606e555050565b6033546040805163d994d6d560e01b815233600482015290516001600160a01b039092169163d994d6d591602480820192602092909190829003018186803b1580156103c157600080fd5b505afa1580156103d5573d6000803e3d6000fd5b505050506040513d60208110156103eb57600080fd5b50516040805180820190915260168152753737ba2fb0baba3437b934bd32b22fb1b430b733b2b960511b6020820152906104a35760405162461bcd60e51b81526004018080602001828103825283818151815260200191508051906020019080838360005b83811015610468578181015183820152602001610450565b50505050905090810190601f1680156104955780820380516001836020036101000a031916815260200191505b509250505060405180910390fd5b50603380546001600160a01b0319166001600160a01b0392909216919091179055565b60a6805460408051602060026001851615610100026000190190941693909304601f8101849004840282018401909252818152929183018282801561054c5780601f106105215761010080835404028352916020019161054c565b820191906000526020600020905b81548152906001019060200180831161052f57829003601f168201915b505050505081565b6033546040805163d994d6d560e01b815233600482015290516001600160a01b039092169163d994d6d591602480820192602092909190829003018186803b15801561059f57600080fd5b505afa1580156105b3573d6000803e3d6000fd5b505050506040513d60208110156105c957600080fd5b50516040805180820190915260168152753737ba2fb0baba3437b934bd32b22fb1b430b733b2b960511b6020820152906106445760405162461bcd60e51b8152602060048201818152835160248401528351909283926044909101919085019080838360008315610468578181015183820152602001610450565b5060003390506000816001600160a01b0316836040516024018080602001828103825283818151815260200191508051906020019080838360005b8381101561069757818101518382015260200161067f565b50505050905090810190601f1680156106c45780820380516001836020036101000a031916815260200191505b5060408051601f198184030181529181526020820180516001600160e01b03166350b113e560e11b178152905182519295509350839250908083835b6020831061071f5780518252601f199092019160209182019101610700565b6001836020036101000a038019825116818451168082178552505050505050905001915050600060405180830381855af49150503d806000811461077f576040519150601f19603f3d011682016040523d82523d6000602084013e610784565b606091505b50509050806107d3576040805162461bcd60e51b8152602060048201526016602482015275115c9c9bdc881a5b8819195b1959d85d194818d85b1b60521b604482015290519081900360640190fd5b505050565b60a5546001600160a01b03168156fea2646970667358221220aec15ead15bfccda002e4104afbb263c5de6c4678c4135c790ca808f4539e37364736f6c63430006000033",
  "source": "pragma solidity 0.6.0;\n\nimport {ChangeContract} from \"../moc-gobernanza/Governance/ChangeContract.sol\";\nimport {GovernedAbstract} from \"../libs/GovernedAbstract.sol\";\nimport {SupportersWhitelistedStorage} from \"../SupportersWhitelistedStorage.sol\";\n\n/**\n  @title SupportersWhitelistedPeriodChange\n  @notice This contract is a ChangeContract intended to be used to change the SupportersWhitelisted contract\n  parameter period\n */\ncontract SupportersWhitelistedPeriodChange is SupportersWhitelistedStorage, ChangeContract {\n\n    GovernedAbstract public supporters;\n    bytes public encodedData;\n\n    /**\n      @notice Constructor\n      @param _supporters Address of supporters whitelisted contract to upgrade\n      @param _period The length of the round in blocks\n    */\n    constructor(GovernedAbstract _supporters, uint256 _period) public {\n        supporters = _supporters;\n        encodedData = abi.encode(_period);\n    }\n\n    /**\n      @notice Execute the changes.\n      @dev Should be called by the governor, but this contract does not check that explicitly because\n      it is not its responsability in the current architecture\n     */\n    function execute() external override {\n        supporters.delegateCallToChanger(encodedData);\n        // TODO: Make it usable just once.\n    }\n\n    /**\n        Called by the Governed contract delegateCallToChanger method\n        This methods runs in the Governed contract storage.\n    */\n    function impersonate(bytes calldata data) external {\n        supportersVestedData.supportersData.period = abi.decode(data, (uint256));\n    }\n}\n",
  "sourcePath": "/home/adji/Desktop/work/coinfabrik/OMoC-Decentralized-Oracle/contracts/contracts/change/SupportersWhitelistedPeriodChange.sol",
  "compiler": {
    "name": "solc",
    "version": "0.6.0+commit.26b70077.Emscripten.clang"
  },
  "schemaVersion": "3.2.0",
  "updatedAt": "2020-06-29T21:30:43.139Z",
  "devdoc": {
    "methods": {
      "changeIGovernor(address)": {
        "params": {
          "newIGovernor": "New governor address"
        }
      },
      "constructor": {
        "params": {
          "_period": "The length of the round in blocks",
          "_supporters": "Address of supporters whitelisted contract to upgrade"
        }
      },
      "execute()": {
        "details": "Should be called by the governor, but this contract does not check that explicitly because it is not its responsability in the current architecture"
      }
    },
    "title": "SupportersWhitelistedPeriodChange"
  },
  "userdoc": {
    "methods": {
      "changeIGovernor(address)": {
        "notice": "Change the contract's governor. Should be called through the old governance system"
      },
      "constructor": "Constructor",
      "execute()": {
        "notice": "Execute the changes."
      },
      "impersonate(bytes)": {
        "notice": "Called by the Governed contract delegateCallToChanger method This methods runs in the Governed contract storage."
      }
    },
    "notice": "This contract is a ChangeContract intended to be used to change the SupportersWhitelisted contract parameter period"
  }
}