{
  "contractName": "SupportersWhitelisted",
  "abi": [
    {
      "anonymous": false,
      "inputs": [
        {
          "indexed": true,
          "internalType": "address",
          "name": "user",
          "type": "address"
        },
        {
          "indexed": true,
          "internalType": "address",
          "name": "subaccount",
          "type": "address"
        },
        {
          "indexed": true,
          "internalType": "address",
          "name": "sender",
          "type": "address"
        },
        {
          "indexed": false,
          "internalType": "uint256",
          "name": "amount",
          "type": "uint256"
        },
        {
          "indexed": false,
          "internalType": "uint256",
          "name": "mocs",
          "type": "uint256"
        }
      ],
      "name": "AddStake",
      "type": "event"
    },
    {
      "anonymous": false,
      "inputs": [
        {
          "indexed": false,
          "internalType": "uint256",
          "name": "earnings",
          "type": "uint256"
        },
        {
          "indexed": false,
          "internalType": "uint256",
          "name": "start",
          "type": "uint256"
        },
        {
          "indexed": false,
          "internalType": "uint256",
          "name": "end",
          "type": "uint256"
        }
      ],
      "name": "CancelEarnings",
      "type": "event"
    },
    {
      "anonymous": false,
      "inputs": [
        {
          "indexed": false,
          "internalType": "uint256",
          "name": "earnings",
          "type": "uint256"
        },
        {
          "indexed": false,
          "internalType": "uint256",
          "name": "start",
          "type": "uint256"
        },
        {
          "indexed": false,
          "internalType": "uint256",
          "name": "end",
          "type": "uint256"
        }
      ],
      "name": "PayEarnings",
      "type": "event"
    },
    {
      "anonymous": false,
      "inputs": [
        {
          "indexed": true,
          "internalType": "address",
          "name": "msg_sender",
          "type": "address"
        },
        {
          "indexed": true,
          "internalType": "address",
          "name": "user",
          "type": "address"
        },
        {
          "indexed": false,
          "internalType": "uint256",
          "name": "blockNum",
          "type": "uint256"
        }
      ],
      "name": "Stop",
      "type": "event"
    },
    {
      "anonymous": false,
      "inputs": [
        {
          "indexed": true,
          "internalType": "address",
          "name": "msg_sender",
          "type": "address"
        },
        {
          "indexed": true,
          "internalType": "address",
          "name": "subacount",
          "type": "address"
        },
        {
          "indexed": true,
          "internalType": "address",
          "name": "receiver",
          "type": "address"
        },
        {
          "indexed": false,
          "internalType": "uint256",
          "name": "mocs",
          "type": "uint256"
        },
        {
          "indexed": false,
          "internalType": "uint256",
          "name": "blockNum",
          "type": "uint256"
        }
      ],
      "name": "Withdraw",
      "type": "event"
    },
    {
      "anonymous": false,
      "inputs": [
        {
          "indexed": true,
          "internalType": "address",
          "name": "user",
          "type": "address"
        },
        {
          "indexed": true,
          "internalType": "address",
          "name": "subaccount",
          "type": "address"
        },
        {
          "indexed": true,
          "internalType": "address",
          "name": "destination",
          "type": "address"
        },
        {
          "indexed": false,
          "internalType": "uint256",
          "name": "amount",
          "type": "uint256"
        },
        {
          "indexed": false,
          "internalType": "uint256",
          "name": "mocs",
          "type": "uint256"
        }
      ],
      "name": "WithdrawStake",
      "type": "event"
    },
    {
      "inputs": [
        {
          "internalType": "contract IGovernor",
          "name": "newIGovernor",
          "type": "address"
        }
      ],
      "name": "changeIGovernor",
      "outputs": [],
      "stateMutability": "nonpayable",
      "type": "function"
    },
    {
      "inputs": [
        {
          "internalType": "bytes",
          "name": "data",
          "type": "bytes"
        }
      ],
      "name": "delegateCallToChanger",
      "outputs": [],
      "stateMutability": "nonpayable",
      "type": "function"
    },
    {
      "inputs": [],
      "name": "governor",
      "outputs": [
        {
          "internalType": "contract IGovernor",
          "name": "",
          "type": "address"
        }
      ],
      "stateMutability": "view",
      "type": "function",
      "constant": true
    },
    {
      "inputs": [
        {
          "internalType": "contract IGovernor",
          "name": "_governor",
          "type": "address"
        },
        {
          "internalType": "address[]",
          "name": "_wlist",
          "type": "address[]"
        },
        {
          "internalType": "contract IERC20",
          "name": "_mocToken",
          "type": "address"
        },
        {
          "internalType": "uint256",
          "name": "_period",
          "type": "uint256"
        },
        {
          "internalType": "uint256",
          "name": "_minStayBlocks",
          "type": "uint256"
        },
        {
          "internalType": "uint256",
          "name": "_afterStopBlocks",
          "type": "uint256"
        }
      ],
      "name": "initialize",
      "outputs": [],
      "stateMutability": "nonpayable",
      "type": "function"
    },
    {
      "inputs": [
        {
          "internalType": "address",
          "name": "_whitelisted",
          "type": "address"
        }
      ],
      "name": "addToWhitelist",
      "outputs": [],
      "stateMutability": "nonpayable",
      "type": "function"
    },
    {
      "inputs": [
        {
          "internalType": "address",
          "name": "_whitelisted",
          "type": "address"
        }
      ],
      "name": "removeFromWhitelist",
      "outputs": [],
      "stateMutability": "nonpayable",
      "type": "function"
    },
    {
      "inputs": [],
      "name": "distribute",
      "outputs": [],
      "stateMutability": "nonpayable",
      "type": "function"
    },
    {
      "inputs": [],
      "name": "isReadyToDistribute",
      "outputs": [
        {
          "internalType": "bool",
          "name": "",
          "type": "bool"
        }
      ],
      "stateMutability": "view",
      "type": "function",
      "constant": true
    },
    {
      "inputs": [
        {
          "internalType": "uint256",
          "name": "_mocs",
          "type": "uint256"
        },
        {
          "internalType": "address",
          "name": "_subaccount",
          "type": "address"
        }
      ],
      "name": "stakeAt",
      "outputs": [],
      "stateMutability": "nonpayable",
      "type": "function"
    },
    {
      "inputs": [
        {
          "internalType": "uint256",
          "name": "_mocs",
          "type": "uint256"
        },
        {
          "internalType": "address",
          "name": "_subaccount",
          "type": "address"
        },
        {
          "internalType": "address",
          "name": "_sender",
          "type": "address"
        }
      ],
      "name": "stakeAtFrom",
      "outputs": [],
      "stateMutability": "nonpayable",
      "type": "function"
    },
    {
      "inputs": [
        {
          "internalType": "uint256",
          "name": "_tokens",
          "type": "uint256"
        },
        {
          "internalType": "address",
          "name": "_subaccount",
          "type": "address"
        }
      ],
      "name": "withdrawFrom",
      "outputs": [
        {
          "internalType": "uint256",
          "name": "",
          "type": "uint256"
        }
      ],
      "stateMutability": "nonpayable",
      "type": "function"
    },
    {
      "inputs": [
        {
          "internalType": "uint256",
          "name": "_tokens",
          "type": "uint256"
        },
        {
          "internalType": "address",
          "name": "_subaccount",
          "type": "address"
        },
        {
          "internalType": "address",
          "name": "_receiver",
          "type": "address"
        }
      ],
      "name": "withdrawFromTo",
      "outputs": [
        {
          "internalType": "uint256",
          "name": "",
          "type": "uint256"
        }
      ],
      "stateMutability": "nonpayable",
      "type": "function"
    },
    {
      "inputs": [
        {
          "internalType": "address",
          "name": "_subaccount",
          "type": "address"
        }
      ],
      "name": "canWithdraw",
      "outputs": [
        {
          "internalType": "bool",
          "name": "",
          "type": "bool"
        }
      ],
      "stateMutability": "view",
      "type": "function",
      "constant": true
    },
    {
      "inputs": [
        {
          "internalType": "address",
          "name": "_user",
          "type": "address"
        },
        {
          "internalType": "address",
          "name": "_subaccount",
          "type": "address"
        }
      ],
      "name": "getBalanceAt",
      "outputs": [
        {
          "internalType": "uint256",
          "name": "",
          "type": "uint256"
        }
      ],
      "stateMutability": "view",
      "type": "function",
      "constant": true
    },
    {
      "inputs": [
        {
          "internalType": "address",
          "name": "_user",
          "type": "address"
        },
        {
          "internalType": "address",
          "name": "_subaccount",
          "type": "address"
        }
      ],
      "name": "getMOCBalanceAt",
      "outputs": [
        {
          "internalType": "uint256",
          "name": "",
          "type": "uint256"
        }
      ],
      "stateMutability": "view",
      "type": "function",
      "constant": true
    },
    {
      "inputs": [],
      "name": "getTokens",
      "outputs": [
        {
          "internalType": "uint256",
          "name": "",
          "type": "uint256"
        }
      ],
      "stateMutability": "view",
      "type": "function",
      "constant": true
    },
    {
      "inputs": [],
      "name": "getAvailableMOC",
      "outputs": [
        {
          "internalType": "uint256",
          "name": "",
          "type": "uint256"
        }
      ],
      "stateMutability": "view",
      "type": "function",
      "constant": true
    },
    {
      "inputs": [
        {
          "internalType": "uint256",
          "name": "_block",
          "type": "uint256"
        }
      ],
      "name": "getEarningsAt",
      "outputs": [
        {
          "internalType": "uint256",
          "name": "",
          "type": "uint256"
        }
      ],
      "stateMutability": "view",
      "type": "function",
      "constant": true
    },
    {
      "inputs": [
        {
          "internalType": "uint256",
          "name": "_block",
          "type": "uint256"
        }
      ],
      "name": "getLockedAt",
      "outputs": [
        {
          "internalType": "uint256",
          "name": "",
          "type": "uint256"
        }
      ],
      "stateMutability": "view",
      "type": "function",
      "constant": true
    },
    {
      "inputs": [],
      "name": "getEarningsInfo",
      "outputs": [
        {
          "internalType": "uint256",
          "name": "",
          "type": "uint256"
        },
        {
          "internalType": "uint256",
          "name": "",
          "type": "uint256"
        },
        {
          "internalType": "uint256",
          "name": "",
          "type": "uint256"
        }
      ],
      "stateMutability": "view",
      "type": "function",
      "constant": true
    },
    {
      "inputs": [],
      "name": "mocToken",
      "outputs": [
        {
          "internalType": "contract IERC20",
          "name": "",
          "type": "address"
        }
      ],
      "stateMutability": "view",
      "type": "function",
      "constant": true
    },
    {
      "inputs": [],
      "name": "period",
      "outputs": [
        {
          "internalType": "uint256",
          "name": "",
          "type": "uint256"
        }
      ],
      "stateMutability": "view",
      "type": "function",
      "constant": true
    },
    {
      "inputs": [
        {
          "internalType": "address",
          "name": "_addr",
          "type": "address"
        }
      ],
      "name": "stop",
      "outputs": [],
      "stateMutability": "nonpayable",
      "type": "function"
    },
    {
      "inputs": [
        {
          "internalType": "address",
          "name": "_user",
          "type": "address"
        },
        {
          "internalType": "address",
          "name": "_subaccount",
          "type": "address"
        }
      ],
      "name": "vestingInfoOf",
      "outputs": [
        {
          "internalType": "uint256",
          "name": "balance",
          "type": "uint256"
        },
        {
          "internalType": "uint256",
          "name": "stoppedInblock",
          "type": "uint256"
        }
      ],
      "stateMutability": "view",
      "type": "function",
      "constant": true
    },
    {
      "inputs": [],
      "name": "getMinStayBlocks",
      "outputs": [
        {
          "internalType": "uint256",
          "name": "",
          "type": "uint256"
        }
      ],
      "stateMutability": "view",
      "type": "function",
      "constant": true
    },
    {
      "inputs": [],
      "name": "getAfterStopBlocks",
      "outputs": [
        {
          "internalType": "uint256",
          "name": "",
          "type": "uint256"
        }
      ],
      "stateMutability": "view",
      "type": "function",
      "constant": true
    },
    {
      "inputs": [],
      "name": "getWhiteListLen",
      "outputs": [
        {
          "internalType": "uint256",
          "name": "",
          "type": "uint256"
        }
      ],
      "stateMutability": "view",
      "type": "function",
      "constant": true
    },
    {
      "inputs": [
        {
          "internalType": "uint256",
          "name": "_idx",
          "type": "uint256"
        }
      ],
      "name": "getWhiteListAtIndex",
      "outputs": [
        {
          "internalType": "address",
          "name": "",
          "type": "address"
        }
      ],
      "stateMutability": "view",
      "type": "function",
      "constant": true
    },
    {
      "inputs": [
        {
          "internalType": "address",
          "name": "_account",
          "type": "address"
        }
      ],
      "name": "isWhitelisted",
      "outputs": [
        {
          "internalType": "bool",
          "name": "",
          "type": "bool"
        }
      ],
      "stateMutability": "view",
      "type": "function",
      "constant": true
    }
  ],
  "bytecode": "0x6080604052612371806100136000396000f3fe608060405234801561001057600080fd5b50600436106101cf5760003560e01c80638388069611610104578063cb0706f9116100a2578063e1db39af11610071578063e1db39af1461059c578063e43252d714610637578063e4fc6b6d1461065d578063ef78d4fd14610665576101cf565b8063cb0706f9146104c9578063d41ecc5a146104d1578063db1bfafa146104ee578063dc8990e1146104f6576101cf565b8063aa6ca808116100de578063aa6ca80814610441578063b1cbf88814610449578063b25147e314610475578063b6e08330146104a3576101cf565b806383880696146103a05780638ab1d681146103d45780638fc63c70146103fa576101cf565b80633af32abf116101715780634e3760fb1161014b5780634e3760fb14610327578063656cb0bc1461034457806372015d1a1461036c5780637c5e5db014610374576101cf565b80633af32abf146102cb5780633b2b9785146102f15780634df42bf91461031f576101cf565b806319262d30116101ad57806319262d301461025a5780631a3d00c0146102805780632784b9851461029d578063385976b8146102a5576101cf565b80630480a2e4146101d457806309418081146101f05780630c340a2414610236575b600080fd5b6101dc61066d565b604080519115158252519081900360200190f35b6102246004803603606081101561020657600080fd5b508035906001600160a01b036020820135811691604001351661067e565b60408051918252519081900360200190f35b61023e6106e7565b604080516001600160a01b039092168252519081900360200190f35b6101dc6004803603602081101561027057600080fd5b50356001600160a01b03166106f6565b61023e6004803603602081101561029657600080fd5b503561070f565b610224610722565b6102ad610728565b60408051938452602084019290925282820152519081900360600190f35b6101dc600480360360208110156102e157600080fd5b50356001600160a01b0316610741565b6102246004803603604081101561030757600080fd5b506001600160a01b0381358116916020013516610754565b61022461076f565b6102246004803603602081101561033d57600080fd5b5035610775565b61036a6004803603602081101561035a57600080fd5b50356001600160a01b0316610788565b005b61023e6107e8565b61036a6004803603604081101561038a57600080fd5b50803590602001356001600160a01b03166107f7565b61036a600480360360608110156103b657600080fd5b508035906001600160a01b036020820135811691604001351661085a565b61036a600480360360208110156103ea57600080fd5b50356001600160a01b03166108be565b6104286004803603604081101561041057600080fd5b506001600160a01b0381358116916020013516610a02565b6040805192835260208301919091528051918290030190f35b610224610a8d565b6102246004803603604081101561045f57600080fd5b50803590602001356001600160a01b0316610a99565b6102246004803603604081101561048b57600080fd5b506001600160a01b0381358116916020013516610b01565b61036a600480360360208110156104b957600080fd5b50356001600160a01b0316610b15565b610224610c28565b610224600480360360208110156104e757600080fd5b5035610c34565b610224610c47565b61036a6004803603602081101561050c57600080fd5b81019060208101813564010000000081111561052757600080fd5b82018360208201111561053957600080fd5b8035906020019184600183028401116401000000008311171561055b57600080fd5b91908080601f016020809104026020016040519081016040528093929190818152602001838380828437600092019190915250929550610c53945050505050565b61036a600480360360c08110156105b257600080fd5b6001600160a01b0382351691908101906040810160208201356401000000008111156105dd57600080fd5b8201836020820111156105ef57600080fd5b8035906020019184602083028401116401000000008311171561061157600080fd5b91935091506001600160a01b038135169060208101359060408101359060600135610ed2565b61036a6004803603602081101561064d57600080fd5b50356001600160a01b0316610fdb565b61036a6110dd565b6102246110e9565b600061067960686110ef565b905090565b6000606661068c8133611109565b6106cb576040805162461bcd60e51b815260206004820152601a60248201526000805160206122cc833981519152604482015290519081900360640190fd5b6106de606886868663ffffffff61118316565b95945050505050565b6033546001600160a01b031681565b600061070960688363ffffffff61132c16565b92915050565b600061070960668363ffffffff61138e16565b60715490565b600080806107366068611401565b925092509250909192565b600061070960668363ffffffff61110916565b60006107686068848463ffffffff6114b616565b9392505050565b60725490565b600061070960688363ffffffff6114de16565b60666107948133611109565b6107d3576040805162461bcd60e51b815260206004820152601a60248201526000805160206122cc833981519152604482015290519081900360640190fd5b6107e460688363ffffffff61157516565b5050565b606f546001600160a01b031690565b60666108038133611109565b610842576040805162461bcd60e51b815260206004820152601a60248201526000805160206122cc833981519152604482015290519081900360640190fd5b610855606884843363ffffffff6115ce16565b505050565b60666108668133611109565b6108a5576040805162461bcd60e51b815260206004820152601a60248201526000805160206122cc833981519152604482015290519081900360640190fd5b6108b8606885858563ffffffff6115ce16565b50505050565b6033546040805163d994d6d560e01b815233600482015290516001600160a01b039092169163d994d6d591602480820192602092909190829003018186803b15801561090957600080fd5b505afa15801561091d573d6000803e3d6000fd5b505050506040513d602081101561093357600080fd5b50516040805180820190915260168152753737ba2fb0baba3437b934bd32b22fb1b430b733b2b960511b6020820152906109eb5760405162461bcd60e51b81526004018080602001828103825283818151815260200191508051906020019080838360005b838110156109b0578181015183820152602001610998565b50505050905090810190601f1680156109dd5780820380516001836020036101000a031916815260200191505b509250505060405180910390fd5b506109ff606682600063ffffffff61164616565b50565b6000806001600160a01b038316610a57576040805162461bcd60e51b8152602060048201526014602482015273041646472657373206d75737420626520213d20360641b604482015290519081900360640190fd5b610a696068858563ffffffff61182116565b6001600160a01b039390931660009081526070602052604090205492949293505050565b60006106796068611852565b60006066610aa78133611109565b610ae6576040805162461bcd60e51b815260206004820152601a60248201526000805160206122cc833981519152604482015290519081900360640190fd5b610af9606885853363ffffffff61118316565b949350505050565b60006107686068848463ffffffff61182116565b6033546040805163d994d6d560e01b815233600482015290516001600160a01b039092169163d994d6d591602480820192602092909190829003018186803b158015610b6057600080fd5b505afa158015610b74573d6000803e3d6000fd5b505050506040513d6020811015610b8a57600080fd5b50516040805180820190915260168152753737ba2fb0baba3437b934bd32b22fb1b430b733b2b960511b602082015290610c055760405162461bcd60e51b81526020600482018181528351602484015283519092839260449091019190850190808383600083156109b0578181015183820152602001610998565b50603380546001600160a01b0319166001600160a01b0392909216919091179055565b60006106796066611859565b600061070960688363ffffffff61185d16565b6000610679606861187d565b6033546040805163d994d6d560e01b815233600482015290516001600160a01b039092169163d994d6d591602480820192602092909190829003018186803b158015610c9e57600080fd5b505afa158015610cb2573d6000803e3d6000fd5b505050506040513d6020811015610cc857600080fd5b50516040805180820190915260168152753737ba2fb0baba3437b934bd32b22fb1b430b733b2b960511b602082015290610d435760405162461bcd60e51b81526020600482018181528351602484015283519092839260449091019190850190808383600083156109b0578181015183820152602001610998565b5060003390506000816001600160a01b0316836040516024018080602001828103825283818151815260200191508051906020019080838360005b83811015610d96578181015183820152602001610d7e565b50505050905090810190601f168015610dc35780820380516001836020036101000a031916815260200191505b5060408051601f198184030181529181526020820180516001600160e01b03166350b113e560e11b178152905182519295509350839250908083835b60208310610e1e5780518252601f199092019160209182019101610dff565b6001836020036101000a038019825116818451168082178552505050505050905001915050600060405180830381855af49150503d8060008114610e7e576040519150601f19603f3d011682016040523d82523d6000602084013e610e83565b606091505b5050905080610855576040805162461bcd60e51b8152602060048201526016602482015275115c9c9bdc881a5b8819195b1959d85d194818d85b1b60521b604482015290519081900360640190fd5b600054610100900460ff1680610eeb5750610eeb61189d565b80610ef9575060005460ff16155b610f345760405162461bcd60e51b815260040180806020018281038252602e8152602001806122ec602e913960400191505060405180910390fd5b600054610100900460ff16158015610f5f576000805460ff1961ff0019909116610100171660011790555b610f68886118a3565b610f7c60688686868663ffffffff6118c516565b60005b86811015610fbe57610fb6888883818110610f9657fe5b905060200201356001600160a01b031660666118eb90919063ffffffff16565b600101610f7f565b508015610fd1576000805461ff00191690555b5050505050505050565b6033546040805163d994d6d560e01b815233600482015290516001600160a01b039092169163d994d6d591602480820192602092909190829003018186803b15801561102657600080fd5b505afa15801561103a573d6000803e3d6000fd5b505050506040513d602081101561105057600080fd5b50516040805180820190915260168152753737ba2fb0baba3437b934bd32b22fb1b430b733b2b960511b6020820152906110cb5760405162461bcd60e51b81526020600482018181528351602484015283519092839260449091019190850190808383600083156109b0578181015183820152602001610998565b506109ff60668263ffffffff6118eb16565b6110e760686119e7565b565b606e5490565b600080826001015411801561070957505060040154431190565b60006001600160a01b038216611160576040805162461bcd60e51b815260206004820152601760248201527604163636f756e74206d757374206e6f742062652030783604c1b604482015290519081900360640190fd5b506001600160a01b03166000908152600191909101602052604090205460ff1690565b6001600160a01b03821660009081526008850160205260408120546111e1576040805162461bcd60e51b815260206004820152600f60248201526e135d5cdd081899481cdd1bdc1c1959608a1b604482015290519081900360640190fd5b60098501546001600160a01b0384166000908152600887016020526040902054439101106112405760405162461bcd60e51b815260040180806020018281038252602281526020018061231a6022913960400191505060405180910390fd5b600a85015460098601546001600160a01b038516600090815260088801602052604090205443910190910110156112a85760405162461bcd60e51b81526004018080602001828103825260248152602001806122876024913960400191505060405180910390fd5b60006112bc8686868663ffffffff611b5316565b6001600160a01b03808616600081815260088a01602090815260408083209290925581518581524391810191909152815194955092871693919233927ffbde797d201c681b91056529119e0b02407c7bb96a4a2c75c01fc9667232c8db929181900390910190a495945050505050565b60098201546001600160a01b038216600090815260088401602052604081205490914391011080156107685750600a83015460098401546001600160a01b03841660009081526008860160205260409020544391019091011015905092915050565b815460009082106113d6576040805162461bcd60e51b815260206004820152600d60248201526c092d8d8cacec2d840d2dcc8caf609b1b604482015290519081900360640190fd5b8260000182815481106113e557fe5b6000918252602090912001546001600160a01b03169392505050565b60028101546007820154604080516370a0823160e01b8152306004820152905160009384938493849361149693926001600160a01b0316916370a08231916024808301926020929190829003018186803b15801561145e57600080fd5b505afa158015611472573d6000803e3d6000fd5b505050506040513d602081101561148857600080fd5b50519063ffffffff611cc916565b905060006114a486436114de565b60059690960154969194509092505050565b6001600160a01b03918216600090815260209384526040808220929093168152925290205490565b60008260050154600014156114f557506000610709565b826003015482101561150957506000610709565b826004015482111561152057506005820154610709565b61076861153e84600301548560040154611cc990919063ffffffff16565b611569611558866003015486611cc990919063ffffffff16565b60058701549063ffffffff611d0b16565b9063ffffffff611d6416565b6001600160a01b038116600081815260088401602090815260409182902043908190558251908152915133927ff2112358528862a15af145e8ef22d74225826c19f0f623bba04f6ebf4448101992908290030190a35050565b6115e08484848463ffffffff611da616565b6001600160a01b038082166000818152600887016020908152604080832092909255815187815243918101919091528151929386169233927f3be9ba9d4cf811f0b3ae373b3afca68bd248152e6ab6090207e86237963411b0928290030190a450505050565b6001600160a01b03821661169b576040805162461bcd60e51b815260206004820152601760248201527604163636f756e74206d757374206e6f742062652030783604c1b604482015290519081900360640190fd5b825481106116e0576040805162461bcd60e51b815260206004820152600d60248201526c092d8d8cacec2d840d2dcc8caf609b1b604482015290519081900360640190fd5b6116ea8383611109565b6117255760405162461bcd60e51b815260040180806020018281038252603c815260200180612218603c913960400191505060405180910390fd5b6001600160a01b03821660009081526001840160205260409020805460ff19169055805b83548110156108b857826001600160a01b031684600001828154811061176b57fe5b6000918252602090912001546001600160a01b031614156118195783548490600019810190811061179857fe5b60009182526020909120015484546001600160a01b03909116908590839081106117be57fe5b600091825260209091200180546001600160a01b0319166001600160a01b039290921691909117905583548490806117f257fe5b600082815260209020810160001990810180546001600160a01b03191690550190556108b8565b600101611749565b6001600160a01b03808316600090815260208581526040808320938516835292905290812054610af9908590611f13565b6001015490565b5490565b600061076861186c84846114de565b60058501549063ffffffff611cc916565b600061070961188c834361185d565b60028401549063ffffffff611cc916565b303b1590565b603380546001600160a01b0319166001600160a01b0392909216919091179055565b6118d685858563ffffffff611f5216565b6009850191909155600a909301929092555050565b6118f58282611109565b6119255781546001810183556000838152602090200180546001600160a01b0319166001600160a01b0383161790555b6001600160a01b03811661197a576040805162461bcd60e51b815260206004820152601760248201527604163636f756e74206d757374206e6f742062652030783604c1b604482015290519081900360640190fd5b6119848282611109565b156119c05760405162461bcd60e51b81526004018080602001828103825260338152602001806122546033913960400191505060405180910390fd5b6001600160a01b03166000908152600191820160205260409020805460ff19169091179055565b6119f0816110ef565b611a41576040805162461bcd60e51b815260206004820152601760248201527f4e6f7420726561647920746f2064697374726962757465000000000000000000604482015290519081900360640190fd5b6007810154604080516370a0823160e01b815230600482015290516000926001600160a01b0316916370a08231916024808301926020929190829003018186803b158015611a8e57600080fd5b505afa158015611aa2573d6000803e3d6000fd5b505050506040513d6020811015611ab857600080fd5b50516002830154909150611ad390829063ffffffff611cc916565b600583015543600383018190556006830154611af5919063ffffffff611f7d16565b6004830181905560028301829055600583015460038401546040805192835260208301919091528181019290925290517fae0d41d081163df90cb6fb9635dcfd40447a96402d60e1503b6aca171fc849379181900360600190a15050565b600080611b608686611f13565b9050611b6e86338787611fd7565b6002860154611b83908263ffffffff611cc916565b600287015560078601546040805163a9059cbb60e01b81526001600160a01b038681166004830152602482018590529151919092169163a9059cbb9160448083019260209291908290030181600087803b158015611be057600080fd5b505af1158015611bf4573d6000803e3d6000fd5b505050506040513d6020811015611c0a57600080fd5b5051611c51576040805162461bcd60e51b815260206004820152601160248201527032b93937b91034b7103a3930b739b332b960791b604482015290519081900360640190fd5b6001860154611c6357611c6386612052565b826001600160a01b0316846001600160a01b0316336001600160a01b03167f592e508b7bcb8f340f4235dc972f0eed3fb8ceec1522f7dc664c0ec3d70ccd158885604051808381526020018281526020019250505060405180910390a495945050505050565b600061076883836040518060400160405280601e81526020017f536166654d6174683a207375627472616374696f6e206f766572666c6f7700008152506120b5565b600082611d1a57506000610709565b82820282848281611d2757fe5b04146107685760405162461bcd60e51b81526004018080602001828103825260218152602001806122ab6021913960400191505060405180910390fd5b600061076883836040518060400160405280601a81526020017f536166654d6174683a206469766973696f6e206279207a65726f00000000000081525061210f565b6000611db28585612174565b6002860154909150611dca908563ffffffff611f7d16565b60028601556007850154604080516323b872dd60e01b81526001600160a01b03858116600483015230602483015260448201889052915191909216916323b872dd9160648083019260209291908290030181600087803b158015611e2d57600080fd5b505af1158015611e41573d6000803e3d6000fd5b505050506040513d6020811015611e5757600080fd5b5051611ea3576040805162461bcd60e51b81526020600482015260166024820152756572726f7220696e207472616e736665722066726f6d60501b604482015290519081900360640190fd5b611eaf853383866121aa565b816001600160a01b0316836001600160a01b0316336001600160a01b03167f3be9ba9d4cf811f0b3ae373b3afca68bd248152e6ab6090207e86237963411b08488604051808381526020018281526020019250505060405180910390a45050505050565b600080611f1f84611852565b90506000611f2c8561187d565b905080611f3e57600092505050610709565b6106de82611569868463ffffffff611d0b16565b6007830180546001600160a01b0319166001600160a01b039390931692909217909155600690910155565b600082820183811015610768576040805162461bcd60e51b815260206004820152601b60248201527f536166654d6174683a206164646974696f6e206f766572666c6f770000000000604482015290519081900360640190fd5b6001600160a01b038084166000908152602086815260408083209385168352929052205461200b908363ffffffff611cc916565b6001600160a01b03808516600090815260208781526040808320938616835292905220556001840154612044908363ffffffff611cc916565b846001018190555050505050565b60028101805460009182905560058301919091556003820154600483015460408051848152602081019390935282810191909152517f5cae2c6323e6b89af1beffd6a6dfd5a1b15ce6894280f14456b631ed380fa5119181900360600190a15050565b600081848411156121075760405162461bcd60e51b81526020600482018181528351602484015283519092839260449091019190850190808383600083156109b0578181015183820152602001610998565b505050900390565b6000818361215e5760405162461bcd60e51b81526020600482018181528351602484015283519092839260449091019190850190808383600083156109b0578181015183820152602001610998565b50600083858161216a57fe5b0495945050505050565b6000806121808461187d565b9050600061218d85611852565b90508115801561219b575080155b15611f3e578392505050610709565b6001600160a01b03808416600090815260208681526040808320938516835292905220546121de908363ffffffff611f7d16565b6001600160a01b03808516600090815260208781526040808320938616835292905220556001840154612044908363ffffffff611f7d1656fe4163636f756e74206973206e6f7420616c6c6f77656420746f2072656d6f766520616464726573732066726f6d20746865207768697465206c6973744163636f756e74206e6f7420616c6c6f77656420746f20616464206163636f756e747320696e746f207768697465206c6973744d757374207769746864726177206265666f726520616674657253746f70426c6f636b73536166654d6174683a206d756c7469706c69636174696f6e206f766572666c6f7741646472657373206973206e6f742077686974656c6973746564000000000000436f6e747261637420696e7374616e63652068617320616c7265616479206265656e20696e697469616c697a656443616e277420776974686472617720756e74696c206d696e53746179426c6f636b73a2646970667358221220bdc0bda58a75a6990c2b7bfd81c3b81de5f044ad6831337a1d065bed63accff164736f6c63430006000033",
  "source": "pragma solidity 0.6.0;\n\nimport {SafeMath} from \"./openzeppelin/math/SafeMath.sol\";\nimport {IERC20} from \"./openzeppelin/token/ERC20/IERC20.sol\";\nimport {IGovernor} from \"./moc-gobernanza/Governance/IGovernor.sol\";\nimport {Governed} from \"./moc-gobernanza/Governance/Governed.sol\";\nimport {SupportersWhitelistedStorage} from \"./SupportersWhitelistedStorage.sol\";\n\n/*\n    Right now we have two things implemented in the same smart-contract:\n        - Only the smart-contracts in the whitelist can access this one.\n        - Some vesting rules implemented in SupportersVestedAbstract\n    This can be split in the future in two smart-contracts if we want to add a specific set\n    of vesting rules (that doesn't do what SupportersVestedAbstract does).\n*/\ncontract SupportersWhitelisted is SupportersWhitelistedStorage {\n    using SafeMath for uint;\n\n    // Emitted by SupportersLib and SupportersVestedLib\n    event PayEarnings(uint256 earnings, uint256 start, uint256 end);\n    event CancelEarnings(uint256 earnings, uint256 start, uint256 end);\n    event AddStake(address indexed user, address indexed subaccount,\n        address indexed sender, uint256 amount, uint256 mocs);\n    event WithdrawStake(address indexed user, address indexed subaccount,\n        address indexed destination, uint256 amount, uint256 mocs);\n\n    event Stop(address indexed msg_sender, address indexed user, uint256 blockNum);\n    event Withdraw(address indexed msg_sender, address indexed subacount,\n        address indexed receiver, uint256 mocs, uint256 blockNum);\n\n\n    /**\n     @notice Contract creation\n\n     @param _governor The address of the contract which governs this one\n     @param _wlist Initial whitelist addresses\n     @param _mocToken The address of the contract which governs this one\n     @param _period The address of the contract which governs this one\n     @param _minStayBlocks The address of the contract which governs this one\n     @param _afterStopBlocks The address of the contract which governs this one\n    */\n    function initialize(IGovernor _governor, address[] calldata _wlist, IERC20 _mocToken, uint256 _period\n    , uint256 _minStayBlocks, uint256 _afterStopBlocks)\n    external initializer {\n        Governed._initialize(_governor);\n        supportersVestedData._initialize(_mocToken, _period, _minStayBlocks, _afterStopBlocks);\n        for (uint256 i = 0; i < _wlist.length; i++) {\n            iterableWhitelistData._addToWhitelist(_wlist[i]);\n        }\n    }\n\n    /**\n     @notice Add to the list of contracts that can stake in this contract\n\n     @param  _whitelisted - the override coinPair\n    */\n    function addToWhitelist(address _whitelisted) external onlyAuthorizedChanger() {\n        iterableWhitelistData._addToWhitelist(_whitelisted);\n    }\n\n    /**\n     @notice Remove from the list of contracts that can stake in this contract\n\n     @param _whitelisted - the override coinPair\n    */\n    function removeFromWhitelist(address _whitelisted) external onlyAuthorizedChanger() {\n        iterableWhitelistData._removeFromWhitelist(_whitelisted, 0);\n    }\n\n\n    /**\n      @notice Deposit earnings that will be credited to supporters.\n      @dev Earnings will be credited periodically through several blocks.\n    */\n    function distribute() external {\n        supportersVestedData.supportersData._distribute();\n    }\n\n    /**\n      @notice Return true if is ready to do a distribute call\n\n      @return true if ready\n    */\n    function isReadyToDistribute() external view returns (bool)  {\n        return supportersVestedData.supportersData._isReadyToDistribute();\n    }\n\n    /**\n     Stake MOC to receive earnings on a subaccount.\n\n     @param _mocs amount of MOC to stake\n     @param _subaccount sub-account used to identify the stake\n    */\n    function stakeAt(uint256 _mocs, address _subaccount)\n    external onlyWhitelisted(iterableWhitelistData) {\n        supportersVestedData._stakeAtFrom(_mocs, _subaccount, msg.sender);\n    }\n\n    /**\n     Stake MOC to receive earnings on a subaccount.\n\n     @param _mocs amount of MOC to stake\n     @param _subaccount sub-account used to identify the stake\n     @param _sender sender account that must approve and from which the funds are taken\n    */\n    function stakeAtFrom(uint256 _mocs, address _subaccount, address _sender)\n    external onlyWhitelisted(iterableWhitelistData) {\n        supportersVestedData._stakeAtFrom(_mocs, _subaccount, _sender);\n    }\n\n    /**\n      Withdraw MOC for tokens for a subaccount.\n\n      @param _tokens amount of tokens to convert to MOC\n      @param _subaccount subaccount used to withdraw MOC\n      @return Amount of MOC transfered\n    */\n    function withdrawFrom(uint256 _tokens, address _subaccount)\n    external onlyWhitelisted(iterableWhitelistData) returns (uint256) {\n        return supportersVestedData._withdrawFromTo(_tokens, _subaccount, msg.sender);\n    }\n\n    /**\n      Withdraw MOC for tokens for a subaccount.\n\n      @param _tokens amount of tokens to convert to MOC\n      @param _subaccount subaccount used to withdraw MOC\n      @param _receiver destination address that gets the MOC\n      @return Amount of MOC transfered\n    */\n    function withdrawFromTo(uint256 _tokens, address _subaccount, address _receiver)\n    external onlyWhitelisted(iterableWhitelistData) returns (uint256) {\n        return supportersVestedData._withdrawFromTo(_tokens, _subaccount, _receiver);\n    }\n\n    /**\n     @notice Returns true if a supporter can withdraw his money\n\n     @param _subaccount subaccount used to withdraw MOC\n    */\n    function canWithdraw(address _subaccount) external view returns (bool) {\n        return supportersVestedData._canWithdraw(_subaccount);\n    }\n\n    /**\n      @notice Amount of tokens for _user in a _subaccount.\n\n      @param _user User address\n      @param _subaccount subaccount to get balance\n      @return tokens for _user at _subaccount\n    */\n    function getBalanceAt(address _user, address _subaccount) external view returns (uint256) {\n        return supportersVestedData.supportersData._getBalanceAt(_user, _subaccount);\n    }\n\n    /**\n      @notice MOC available for withdrawal by _user.\n\n      @param _user User address\n      @param _subaccount subaccount to get MOC balance\n      @return MOC for _user\n    */\n    function getMOCBalanceAt(address _user, address _subaccount) external view returns (uint256) {\n        return supportersVestedData.supportersData._getMOCBalanceAt(_user, _subaccount);\n    }\n\n    /**\n      @notice Total tokens created.\n\n      @return total amount of tokens\n    */\n    function getTokens() external view returns (uint256) {\n        return supportersVestedData.supportersData._getTokens();\n    }\n\n    /**\n      @notice MOC available for withdrawal.\n\n      @return total amount of MOC\n    */\n    function getAvailableMOC() external view returns (uint256) {\n        return supportersVestedData.supportersData._getAvailableMOC();\n    }\n\n    /**\n      @notice Calculate earnings to be paid at a block\n\n      @param _block Block used to calculate\n      @return Earnings to be paid\n    */\n    function getEarningsAt(uint256 _block) external view returns (uint256) {\n        return supportersVestedData.supportersData._getEarningsAt(_block);\n    }\n\n    /**\n      @notice Calculate locked earnings at a block\n\n      @param _block Block used for calculations\n      @return Locked amount of earnings in MOC\n    */\n    function getLockedAt(uint256 _block) external view returns (uint256) {\n        return supportersVestedData.supportersData._getLockedAt(_block);\n    }\n\n    /**\n      @notice Return information about earnings\n\n      @return Information about earnings\n    */\n    function getEarningsInfo() external view returns (uint256, uint256, uint256) {\n        return supportersVestedData.supportersData._getEarningsInfo();\n    }\n\n\n    /// @notice The moc token address\n    function mocToken() external view returns (IERC20) {\n        return supportersVestedData.supportersData.mocToken;\n    }\n\n    /**\n     @notice Return the round length in blocks .\n     @dev During each round rewards are collected and distributed during next round.\n\n     @return Number of blocks to distribute earnings\n    */\n    function period() external view returns (uint256) {\n        return supportersVestedData.supportersData.period;\n    }\n\n    /**\n     Stop staking some MOCs\n\n     @param _addr User address\n    */\n    function stop(address _addr) external onlyWhitelisted(iterableWhitelistData) {\n        supportersVestedData._stop(_addr);\n    }\n\n    /**\n      Vesting information for an account.\n\n      @param _user User address\n      @param _subaccount subaccount to get MOC balance\n      @return balance stoppedInblock balance\n      @return stoppedInblock the block in which the mocs where stopped\n    */\n    function vestingInfoOf(address _user, address _subaccount)\n    external view returns (uint256 balance, uint256 stoppedInblock) {\n        require(_subaccount != address(0), \"Address must be != 0\");\n        return (supportersVestedData.supportersData._getMOCBalanceAt(_user, _subaccount),\n        supportersVestedData.stopInBlockMap[_subaccount]);\n    }\n\n    /// @notice Get the minimum number of blocks that a user must stay staked after staking\n    function getMinStayBlocks() external view returns (uint256) {\n        return supportersVestedData.minStayBlocks;\n    }\n\n    /// @notice  Get the period of blocks a user have after a stop and minStayBlock to withdraw\n    function getAfterStopBlocks() external view returns (uint256) {\n        return supportersVestedData.afterStopBlocks;\n    }\n\n    /// @notice Returns the count of whitelisted addresses.\n    function getWhiteListLen() external view returns (uint256) {\n        return iterableWhitelistData._getWhiteListLen();\n    }\n\n    /**\n     @notice Returns the address at index.\n\n     @param _idx index to query.\n    */\n    function getWhiteListAtIndex(uint256 _idx) external view returns (address) {\n        return iterableWhitelistData._getWhiteListAtIndex(_idx);\n    }\n\n    /**\n     @notice Check if an account is whitelisted\n\n     @param _account The account to check\n    */\n    function isWhitelisted(address _account) external view returns (bool) {\n        return iterableWhitelistData._isWhitelisted(_account);\n    }\n}\n",
  "sourcePath": "/home/adji/Desktop/work/coinfabrik/OMoC-Decentralized-Oracle/contracts/contracts/SupportersWhitelisted.sol",
  "compiler": {
    "name": "solc",
    "version": "0.6.0+commit.26b70077.Emscripten.clang"
  },
  "schemaVersion": "3.2.0",
  "updatedAt": "2020-06-29T22:06:08.741Z",
  "networkType": "ethereum",
  "devdoc": {
    "methods": {
      "addToWhitelist(address)": {
        "params": {
          "_whitelisted": "- the override coinPair"
        }
      },
      "canWithdraw(address)": {
        "params": {
          "_subaccount": "subaccount used to withdraw MOC"
        }
      },
      "changeIGovernor(address)": {
        "params": {
          "newIGovernor": "New governor address"
        }
      },
      "distribute()": {
        "details": "Earnings will be credited periodically through several blocks."
      },
      "getBalanceAt(address,address)": {
        "params": {
          "_subaccount": "subaccount to get balance",
          "_user": "User address"
        },
        "returns": {
          "_0": "tokens for _user at _subaccount"
        }
      },
      "getEarningsAt(uint256)": {
        "params": {
          "_block": "Block used to calculate"
        },
        "returns": {
          "_0": "Earnings to be paid"
        }
      },
      "getLockedAt(uint256)": {
        "params": {
          "_block": "Block used for calculations"
        },
        "returns": {
          "_0": "Locked amount of earnings in MOC"
        }
      },
      "getMOCBalanceAt(address,address)": {
        "params": {
          "_subaccount": "subaccount to get MOC balance",
          "_user": "User address"
        },
        "returns": {
          "_0": "MOC for _user"
        }
      },
      "getWhiteListAtIndex(uint256)": {
        "params": {
          "_idx": "index to query."
        }
      },
      "initialize(address,address[],address,uint256,uint256,uint256)": {
        "params": {
          "_afterStopBlocks": "The address of the contract which governs this one",
          "_governor": "The address of the contract which governs this one",
          "_minStayBlocks": "The address of the contract which governs this one",
          "_mocToken": "The address of the contract which governs this one",
          "_period": "The address of the contract which governs this one",
          "_wlist": "Initial whitelist addresses"
        }
      },
      "isWhitelisted(address)": {
        "params": {
          "_account": "The account to check"
        }
      },
      "period()": {
        "details": "During each round rewards are collected and distributed during next round.",
        "returns": {
          "_0": "Number of blocks to distribute earnings"
        }
      },
      "removeFromWhitelist(address)": {
        "params": {
          "_whitelisted": "- the override coinPair"
        }
      },
      "stakeAt(uint256,address)": {
        "params": {
          "_mocs": "amount of MOC to stake",
          "_subaccount": "sub-account used to identify the stake"
        }
      },
      "stakeAtFrom(uint256,address,address)": {
        "params": {
          "_mocs": "amount of MOC to stake",
          "_sender": "sender account that must approve and from which the funds are taken",
          "_subaccount": "sub-account used to identify the stake"
        }
      },
      "stop(address)": {
        "params": {
          "_addr": "User address"
        }
      },
      "vestingInfoOf(address,address)": {
        "params": {
          "_subaccount": "subaccount to get MOC balance",
          "_user": "User address"
        },
        "returns": {
          "balance": "stoppedInblock balance",
          "stoppedInblock": "the block in which the mocs where stopped"
        }
      },
      "withdrawFrom(uint256,address)": {
        "params": {
          "_subaccount": "subaccount used to withdraw MOC",
          "_tokens": "amount of tokens to convert to MOC"
        },
        "returns": {
          "_0": "Amount of MOC transfered"
        }
      },
      "withdrawFromTo(uint256,address,address)": {
        "params": {
          "_receiver": "destination address that gets the MOC",
          "_subaccount": "subaccount used to withdraw MOC",
          "_tokens": "amount of tokens to convert to MOC"
        },
        "returns": {
          "_0": "Amount of MOC transfered"
        }
      }
    }
  },
  "userdoc": {
    "methods": {
      "addToWhitelist(address)": {
        "notice": "Add to the list of contracts that can stake in this contract"
      },
      "canWithdraw(address)": {
        "notice": "Returns true if a supporter can withdraw his money"
      },
      "changeIGovernor(address)": {
        "notice": "Change the contract's governor. Should be called through the old governance system"
      },
      "distribute()": {
        "notice": "Deposit earnings that will be credited to supporters."
      },
      "getAfterStopBlocks()": {
        "notice": "Get the period of blocks a user have after a stop and minStayBlock to withdraw"
      },
      "getAvailableMOC()": {
        "notice": "MOC available for withdrawal."
      },
      "getBalanceAt(address,address)": {
        "notice": "Amount of tokens for _user in a _subaccount."
      },
      "getEarningsAt(uint256)": {
        "notice": "Calculate earnings to be paid at a block"
      },
      "getEarningsInfo()": {
        "notice": "Return information about earnings"
      },
      "getLockedAt(uint256)": {
        "notice": "Calculate locked earnings at a block"
      },
      "getMOCBalanceAt(address,address)": {
        "notice": "MOC available for withdrawal by _user."
      },
      "getMinStayBlocks()": {
        "notice": "Get the minimum number of blocks that a user must stay staked after staking"
      },
      "getTokens()": {
        "notice": "Total tokens created."
      },
      "getWhiteListAtIndex(uint256)": {
        "notice": "Returns the address at index."
      },
      "getWhiteListLen()": {
        "notice": "Returns the count of whitelisted addresses."
      },
      "initialize(address,address[],address,uint256,uint256,uint256)": {
        "notice": "Contract creation"
      },
      "isReadyToDistribute()": {
        "notice": "Return true if is ready to do a distribute call"
      },
      "isWhitelisted(address)": {
        "notice": "Check if an account is whitelisted"
      },
      "mocToken()": {
        "notice": "The moc token address"
      },
      "period()": {
        "notice": "Return the round length in blocks ."
      },
      "removeFromWhitelist(address)": {
        "notice": "Remove from the list of contracts that can stake in this contract"
      },
      "stakeAt(uint256,address)": {
        "notice": "Stake MOC to receive earnings on a subaccount."
      },
      "stakeAtFrom(uint256,address,address)": {
        "notice": "Stake MOC to receive earnings on a subaccount."
      },
      "stop(address)": {
        "notice": "Stop staking some MOCs"
      },
      "vestingInfoOf(address,address)": {
        "notice": "Vesting information for an account."
      },
      "withdrawFrom(uint256,address)": {
        "notice": "Withdraw MOC for tokens for a subaccount."
      },
      "withdrawFromTo(uint256,address,address)": {
        "notice": "Withdraw MOC for tokens for a subaccount."
      }
    }
  }
}