{
  "contractName": "TestMOC",
  "abi": [
    {
      "anonymous": false,
      "inputs": [
        {
          "indexed": true,
          "internalType": "address",
          "name": "owner",
          "type": "address"
        },
        {
          "indexed": true,
          "internalType": "address",
          "name": "spender",
          "type": "address"
        },
        {
          "indexed": false,
          "internalType": "uint256",
          "name": "value",
          "type": "uint256"
        }
      ],
      "name": "Approval",
      "type": "event"
    },
    {
      "anonymous": false,
      "inputs": [
        {
          "indexed": true,
          "internalType": "address",
          "name": "from",
          "type": "address"
        },
        {
          "indexed": true,
          "internalType": "address",
          "name": "to",
          "type": "address"
        },
        {
          "indexed": false,
          "internalType": "uint256",
          "name": "value",
          "type": "uint256"
        }
      ],
      "name": "Transfer",
      "type": "event"
    },
    {
      "inputs": [
        {
          "internalType": "address",
          "name": "owner",
          "type": "address"
        },
        {
          "internalType": "address",
          "name": "spender",
          "type": "address"
        }
      ],
      "name": "allowance",
      "outputs": [
        {
          "internalType": "uint256",
          "name": "",
          "type": "uint256"
        }
      ],
      "stateMutability": "view",
      "type": "function"
    },
    {
      "inputs": [
        {
          "internalType": "address",
          "name": "spender",
          "type": "address"
        },
        {
          "internalType": "uint256",
          "name": "amount",
          "type": "uint256"
        }
      ],
      "name": "approve",
      "outputs": [
        {
          "internalType": "bool",
          "name": "",
          "type": "bool"
        }
      ],
      "stateMutability": "nonpayable",
      "type": "function"
    },
    {
      "inputs": [
        {
          "internalType": "address",
          "name": "account",
          "type": "address"
        }
      ],
      "name": "balanceOf",
      "outputs": [
        {
          "internalType": "uint256",
          "name": "",
          "type": "uint256"
        }
      ],
      "stateMutability": "view",
      "type": "function"
    },
    {
      "inputs": [
        {
          "internalType": "contract IGovernor",
          "name": "newIGovernor",
          "type": "address"
        }
      ],
      "name": "changeIGovernor",
      "outputs": [],
      "stateMutability": "nonpayable",
      "type": "function"
    },
    {
      "inputs": [],
      "name": "decimals",
      "outputs": [
        {
          "internalType": "uint8",
          "name": "",
          "type": "uint8"
        }
      ],
      "stateMutability": "view",
      "type": "function"
    },
    {
      "inputs": [
        {
          "internalType": "address",
          "name": "spender",
          "type": "address"
        },
        {
          "internalType": "uint256",
          "name": "subtractedValue",
          "type": "uint256"
        }
      ],
      "name": "decreaseAllowance",
      "outputs": [
        {
          "internalType": "bool",
          "name": "",
          "type": "bool"
        }
      ],
      "stateMutability": "nonpayable",
      "type": "function"
    },
    {
      "inputs": [
        {
          "internalType": "bytes",
          "name": "data",
          "type": "bytes"
        }
      ],
      "name": "delegateCallToChanger",
      "outputs": [],
      "stateMutability": "nonpayable",
      "type": "function"
    },
    {
      "inputs": [],
      "name": "governor",
      "outputs": [
        {
          "internalType": "contract IGovernor",
          "name": "",
          "type": "address"
        }
      ],
      "stateMutability": "view",
      "type": "function"
    },
    {
      "inputs": [
        {
          "internalType": "address",
          "name": "spender",
          "type": "address"
        },
        {
          "internalType": "uint256",
          "name": "addedValue",
          "type": "uint256"
        }
      ],
      "name": "increaseAllowance",
      "outputs": [
        {
          "internalType": "bool",
          "name": "",
          "type": "bool"
        }
      ],
      "stateMutability": "nonpayable",
      "type": "function"
    },
    {
      "inputs": [],
      "name": "name",
      "outputs": [
        {
          "internalType": "string",
          "name": "",
          "type": "string"
        }
      ],
      "stateMutability": "view",
      "type": "function"
    },
    {
      "inputs": [],
      "name": "symbol",
      "outputs": [
        {
          "internalType": "string",
          "name": "",
          "type": "string"
        }
      ],
      "stateMutability": "view",
      "type": "function"
    },
    {
      "inputs": [],
      "name": "totalSupply",
      "outputs": [
        {
          "internalType": "uint256",
          "name": "",
          "type": "uint256"
        }
      ],
      "stateMutability": "view",
      "type": "function"
    },
    {
      "inputs": [
        {
          "internalType": "address",
          "name": "recipient",
          "type": "address"
        },
        {
          "internalType": "uint256",
          "name": "amount",
          "type": "uint256"
        }
      ],
      "name": "transfer",
      "outputs": [
        {
          "internalType": "bool",
          "name": "",
          "type": "bool"
        }
      ],
      "stateMutability": "nonpayable",
      "type": "function"
    },
    {
      "inputs": [
        {
          "internalType": "address",
          "name": "sender",
          "type": "address"
        },
        {
          "internalType": "address",
          "name": "recipient",
          "type": "address"
        },
        {
          "internalType": "uint256",
          "name": "amount",
          "type": "uint256"
        }
      ],
      "name": "transferFrom",
      "outputs": [
        {
          "internalType": "bool",
          "name": "",
          "type": "bool"
        }
      ],
      "stateMutability": "nonpayable",
      "type": "function"
    },
    {
      "inputs": [
        {
          "internalType": "contract IGovernor",
          "name": "_governor",
          "type": "address"
        }
      ],
      "name": "initialize",
      "outputs": [],
      "stateMutability": "nonpayable",
      "type": "function"
    },
    {
      "inputs": [
        {
          "internalType": "address",
          "name": "user",
          "type": "address"
        },
        {
          "internalType": "uint256",
          "name": "amount",
          "type": "uint256"
        }
      ],
      "name": "mint",
      "outputs": [],
      "stateMutability": "nonpayable",
      "type": "function"
    }
  ],
  "bytecode": "0x60c06040526007608081905266544553544d4f4360c81b60a09081526200002a91606991906200005f565b5060408051808201909152600480825263544d4f4360e01b60209092019182526200005891606a916200005f565b5062000104565b828054600181600116156101000203166002900490600052602060002090601f016020900481019282601f10620000a257805160ff1916838001178555620000d2565b82800160010185558215620000d2579182015b82811115620000d2578251825591602001919060010190620000b5565b50620000e0929150620000e4565b5090565b6200010191905b80821115620000e05760008155600101620000eb565b90565b61123a80620001146000396000f3fe608060405234801561001057600080fd5b50600436106101005760003560e01c806370a0823111610097578063b6e0833011610066578063b6e0833014610334578063c4d66de81461035a578063dc8990e114610380578063dd62ed3e1461042657610100565b806370a08231146102ae57806395d89b41146102d4578063a457c2d7146102dc578063a9059cbb1461030857610100565b806323b872dd116100d357806323b872dd14610200578063313ce56714610236578063395093511461025457806340c10f191461028057610100565b806306fdde0314610105578063095ea7b3146101825780630c340a24146101c257806318160ddd146101e6575b600080fd5b61010d610454565b6040805160208082528351818301528351919283929083019185019080838360005b8381101561014757818101518382015260200161012f565b50505050905090810190601f1680156101745780820380516001836020036101000a031916815260200191505b509250505060405180910390f35b6101ae6004803603604081101561019857600080fd5b506001600160a01b0381351690602001356104e2565b604080519115158252519081900360200190f35b6101ca6104ff565b604080516001600160a01b039092168252519081900360200190f35b6101ee61050e565b60408051918252519081900360200190f35b6101ae6004803603606081101561021657600080fd5b506001600160a01b03813581169160208101359091169060400135610514565b61023e6105a1565b6040805160ff9092168252519081900360200190f35b6101ae6004803603604081101561026a57600080fd5b506001600160a01b0381351690602001356105a6565b6102ac6004803603604081101561029657600080fd5b506001600160a01b0381351690602001356105fa565b005b6101ee600480360360208110156102c457600080fd5b50356001600160a01b0316610736565b61010d610751565b6101ae600480360360408110156102f257600080fd5b506001600160a01b0381351690602001356107ac565b6101ae6004803603604081101561031e57600080fd5b506001600160a01b03813516906020013561081a565b6102ac6004803603602081101561034a57600080fd5b50356001600160a01b031661082e565b6102ac6004803603602081101561037057600080fd5b50356001600160a01b0316610941565b6102ac6004803603602081101561039657600080fd5b8101906020810181356401000000008111156103b157600080fd5b8201836020820111156103c357600080fd5b803590602001918460018302840111640100000000831117156103e557600080fd5b91908080601f0160208091040260200160405190810160405280939291908181526020018383808284376000920191909152509295506109ec945050505050565b6101ee6004803603604081101561043c57600080fd5b506001600160a01b0381358116916020013516610c70565b6069805460408051602060026001851615610100026000190190941693909304601f810184900484028201840190925281815292918301828280156104da5780601f106104af576101008083540402835291602001916104da565b820191906000526020600020905b8154815290600101906020018083116104bd57829003601f168201915b505050505081565b60006104f66104ef610c9b565b8484610c9f565b50600192915050565b6033546001600160a01b031681565b60685490565b6000610521848484610d8b565b6105978461052d610c9b565b61059285604051806060016040528060288152602001611141602891396001600160a01b038a1660009081526067602052604081209061056b610c9b565b6001600160a01b03168152602081019190915260400160002054919063ffffffff610ef416565b610c9f565b5060019392505050565b601281565b60006104f66105b3610c9b565b8461059285606760006105c4610c9b565b6001600160a01b03908116825260208083019390935260409182016000908120918c16815292529020549063ffffffff610f4e16565b6033546040805163d994d6d560e01b815233600482015290516001600160a01b039092169163d994d6d591602480820192602092909190829003018186803b15801561064557600080fd5b505afa158015610659573d6000803e3d6000fd5b505050506040513d602081101561066f57600080fd5b50516040805180820190915260168152753737ba2fb0baba3437b934bd32b22fb1b430b733b2b960511b6020820152906107275760405162461bcd60e51b81526004018080602001828103825283818151815260200191508051906020019080838360005b838110156106ec5781810151838201526020016106d4565b50505050905090810190601f1680156107195780820380516001836020036101000a031916815260200191505b509250505060405180910390fd5b506107328282610faf565b5050565b6001600160a01b031660009081526066602052604090205490565b606a805460408051602060026001851615610100026000190190941693909304601f810184900484028201840190925281815292918301828280156104da5780601f106104af576101008083540402835291602001916104da565b60006104f66107b9610c9b565b84610592856040518060600160405280602581526020016111e060259139606760006107e3610c9b565b6001600160a01b03908116825260208083019390935260409182016000908120918d1681529252902054919063ffffffff610ef416565b60006104f6610827610c9b565b8484610d8b565b6033546040805163d994d6d560e01b815233600482015290516001600160a01b039092169163d994d6d591602480820192602092909190829003018186803b15801561087957600080fd5b505afa15801561088d573d6000803e3d6000fd5b505050506040513d60208110156108a357600080fd5b50516040805180820190915260168152753737ba2fb0baba3437b934bd32b22fb1b430b733b2b960511b60208201529061091e5760405162461bcd60e51b81526020600482018181528351602484015283519092839260449091019190850190808383600083156106ec5781810151838201526020016106d4565b50603380546001600160a01b0319166001600160a01b0392909216919091179055565b600054610100900460ff168061095a575061095a6110ad565b80610968575060005460ff16155b6109a35760405162461bcd60e51b815260040180806020018281038252602e815260200180611169602e913960400191505060405180910390fd5b600054610100900460ff161580156109ce576000805460ff1961ff0019909116610100171660011790555b6109d7826110b3565b8015610732576000805461ff00191690555050565b6033546040805163d994d6d560e01b815233600482015290516001600160a01b039092169163d994d6d591602480820192602092909190829003018186803b158015610a3757600080fd5b505afa158015610a4b573d6000803e3d6000fd5b505050506040513d6020811015610a6157600080fd5b50516040805180820190915260168152753737ba2fb0baba3437b934bd32b22fb1b430b733b2b960511b602082015290610adc5760405162461bcd60e51b81526020600482018181528351602484015283519092839260449091019190850190808383600083156106ec5781810151838201526020016106d4565b5060003390506000816001600160a01b0316836040516024018080602001828103825283818151815260200191508051906020019080838360005b83811015610b2f578181015183820152602001610b17565b50505050905090810190601f168015610b5c5780820380516001836020036101000a031916815260200191505b5060408051601f198184030181529181526020820180516001600160e01b03166350b113e560e11b178152905182519295509350839250908083835b60208310610bb75780518252601f199092019160209182019101610b98565b6001836020036101000a038019825116818451168082178552505050505050905001915050600060405180830381855af49150503d8060008114610c17576040519150601f19603f3d011682016040523d82523d6000602084013e610c1c565b606091505b5050905080610c6b576040805162461bcd60e51b8152602060048201526016602482015275115c9c9bdc881a5b8819195b1959d85d194818d85b1b60521b604482015290519081900360640190fd5b505050565b6001600160a01b03918216600090815260676020908152604080832093909416825291909152205490565b3390565b6001600160a01b038316610ce45760405162461bcd60e51b81526004018080602001828103825260248152602001806111bc6024913960400191505060405180910390fd5b6001600160a01b038216610d295760405162461bcd60e51b81526004018080602001828103825260228152602001806110f96022913960400191505060405180910390fd5b6001600160a01b03808416600081815260676020908152604080832094871680845294825291829020859055815185815291517f8c5be1e5ebec7d5bd14f71427d1e84f3dd0314c0f7b2291e5b200ac8c7c3b9259281900390910190a3505050565b6001600160a01b038316610dd05760405162461bcd60e51b81526004018080602001828103825260258152602001806111976025913960400191505060405180910390fd5b6001600160a01b038216610e155760405162461bcd60e51b81526004018080602001828103825260238152602001806110d66023913960400191505060405180910390fd5b610e20838383610c6b565b610e638160405180606001604052806026815260200161111b602691396001600160a01b038616600090815260666020526040902054919063ffffffff610ef416565b6001600160a01b038085166000908152606660205260408082209390935590841681522054610e98908263ffffffff610f4e16565b6001600160a01b0380841660008181526066602090815260409182902094909455805185815290519193928716927fddf252ad1be2c89b69c2b068fc378daa952ba7f163c4a11628f55a4df523b3ef92918290030190a3505050565b60008184841115610f465760405162461bcd60e51b81526020600482018181528351602484015283519092839260449091019190850190808383600083156106ec5781810151838201526020016106d4565b505050900390565b600082820183811015610fa8576040805162461bcd60e51b815260206004820152601b60248201527f536166654d6174683a206164646974696f6e206f766572666c6f770000000000604482015290519081900360640190fd5b9392505050565b6001600160a01b03821661100a576040805162461bcd60e51b815260206004820152601f60248201527f45524332303a206d696e7420746f20746865207a65726f206164647265737300604482015290519081900360640190fd5b61101660008383610c6b565b606854611029908263ffffffff610f4e16565b6068556001600160a01b038216600090815260666020526040902054611055908263ffffffff610f4e16565b6001600160a01b03831660008181526066602090815260408083209490945583518581529351929391927fddf252ad1be2c89b69c2b068fc378daa952ba7f163c4a11628f55a4df523b3ef9281900390910190a35050565b303b1590565b603380546001600160a01b0319166001600160a01b039290921691909117905556fe45524332303a207472616e7366657220746f20746865207a65726f206164647265737345524332303a20617070726f766520746f20746865207a65726f206164647265737345524332303a207472616e7366657220616d6f756e7420657863656564732062616c616e636545524332303a207472616e7366657220616d6f756e74206578636565647320616c6c6f77616e6365436f6e747261637420696e7374616e63652068617320616c7265616479206265656e20696e697469616c697a656445524332303a207472616e736665722066726f6d20746865207a65726f206164647265737345524332303a20617070726f76652066726f6d20746865207a65726f206164647265737345524332303a2064656372656173656420616c6c6f77616e63652062656c6f77207a65726fa2646970667358221220a7eaf2a0d5aaba553ec4fa884b3d31d13808ca0d68f226fc025b1715dd62ba1f64736f6c63430006000033",
  "source": "pragma solidity 0.6.0;\n\nimport {ERC20} from \"./openzeppelin/token/ERC20/ERC20.sol\";\nimport {GovernedAbstract} from \"./libs/GovernedAbstract.sol\";\nimport {IGovernor} from \"./moc-gobernanza/Governance/IGovernor.sol\";\nimport {Governed} from \"./moc-gobernanza/Governance/Governed.sol\";\nimport {Initializable} from \"./openzeppelin/Initializable.sol\";\n\ncontract TestMOC is Initializable, GovernedAbstract, ERC20\n{\n    string public name = \"TESTMOC\";\n    string public symbol = \"TMOC\";\n    uint8 public constant decimals = 18;\n\n    /**\n      @notice Initialize the contract with the basic settings\n      @dev This initialize replaces the constructor but it is not called automatically.\n      It is necessary because of the upgradeability of the contracts\n      @param _governor Governor address\n     */\n    function initialize(IGovernor _governor) external initializer {\n        Governed._initialize(_governor);\n    }\n\n    function mint(address user, uint256 amount) external onlyAuthorizedChanger() {\n        _mint(user, amount);\n    }\n}\n",
  "sourcePath": "/home/adji/Desktop/work/coinfabrik/OMoC-Decentralized-Oracle/contracts/contracts/TestMOC.sol",
  "compiler": {
    "name": "solc",
    "version": "0.6.0+commit.26b70077.Emscripten.clang"
  },
  "schemaVersion": "3.2.0",
  "updatedAt": "2020-06-29T21:30:43.120Z",
  "devdoc": {
    "methods": {
      "allowance(address,address)": {
        "details": "See {IERC20-allowance}."
      },
      "approve(address,uint256)": {
        "details": "See {IERC20-approve}.     * Requirements:     * - `spender` cannot be the zero address."
      },
      "balanceOf(address)": {
        "details": "See {IERC20-balanceOf}."
      },
      "changeIGovernor(address)": {
        "params": {
          "newIGovernor": "New governor address"
        }
      },
      "decreaseAllowance(address,uint256)": {
        "details": "Atomically decreases the allowance granted to `spender` by the caller.     * This is an alternative to {approve} that can be used as a mitigation for problems described in {IERC20-approve}.     * Emits an {Approval} event indicating the updated allowance.     * Requirements:     * - `spender` cannot be the zero address. - `spender` must have allowance for the caller of at least `subtractedValue`."
      },
      "increaseAllowance(address,uint256)": {
        "details": "Atomically increases the allowance granted to `spender` by the caller.     * This is an alternative to {approve} that can be used as a mitigation for problems described in {IERC20-approve}.     * Emits an {Approval} event indicating the updated allowance.     * Requirements:     * - `spender` cannot be the zero address."
      },
      "initialize(address)": {
        "details": "This initialize replaces the constructor but it is not called automatically. It is necessary because of the upgradeability of the contracts",
        "params": {
          "_governor": "Governor address"
        }
      },
      "totalSupply()": {
        "details": "See {IERC20-totalSupply}."
      },
      "transfer(address,uint256)": {
        "details": "See {IERC20-transfer}.     * Requirements:     * - `recipient` cannot be the zero address. - the caller must have a balance of at least `amount`."
      },
      "transferFrom(address,address,uint256)": {
        "details": "See {IERC20-transferFrom}.     * Emits an {Approval} event indicating the updated allowance. This is not required by the EIP. See the note at the beginning of {ERC20};     * Requirements: - `sender` and `recipient` cannot be the zero address. - `sender` must have a balance of at least `amount`. - the caller must have allowance for `sender`'s tokens of at least `amount`."
      }
    }
  },
  "userdoc": {
    "methods": {
      "changeIGovernor(address)": {
        "notice": "Change the contract's governor. Should be called through the old governance system"
      },
      "initialize(address)": {
        "notice": "Initialize the contract with the basic settings"
      }
    }
  }
}