{
  "contractName": "TestMOCMintChange",
  "abi": [
    {
      "inputs": [
        {
          "internalType": "contract TestMOC",
          "name": "_token",
          "type": "address"
        },
        {
          "internalType": "address",
          "name": "_user",
          "type": "address"
        },
        {
          "internalType": "uint256",
          "name": "_amount",
          "type": "uint256"
        }
      ],
      "stateMutability": "nonpayable",
      "type": "constructor"
    },
    {
      "inputs": [],
      "name": "amount",
      "outputs": [
        {
          "internalType": "uint256",
          "name": "",
          "type": "uint256"
        }
      ],
      "stateMutability": "view",
      "type": "function"
    },
    {
      "inputs": [],
      "name": "token",
      "outputs": [
        {
          "internalType": "contract TestMOC",
          "name": "",
          "type": "address"
        }
      ],
      "stateMutability": "view",
      "type": "function"
    },
    {
      "inputs": [],
      "name": "user",
      "outputs": [
        {
          "internalType": "address",
          "name": "",
          "type": "address"
        }
      ],
      "stateMutability": "view",
      "type": "function"
    },
    {
      "inputs": [],
      "name": "execute",
      "outputs": [],
      "stateMutability": "nonpayable",
      "type": "function"
    }
  ],
  "bytecode": "0x608060405234801561001057600080fd5b506040516101f03803806101f08339818101604052606081101561003357600080fd5b5080516020820151604090920151600080546001600160a01b039384166001600160a01b031991821617909155600180549390941692169190911790915560025561016d806100836000396000f3fe608060405234801561001057600080fd5b506004361061004c5760003560e01c80634f8632ba146100515780636146195414610075578063aa8c217c1461007f578063fc0c546a14610099575b600080fd5b6100596100a1565b604080516001600160a01b039092168252519081900360200190f35b61007d6100b0565b005b610087610122565b60408051918252519081900360200190f35b610059610128565b6001546001600160a01b031681565b60008054600154600254604080516340c10f1960e01b81526001600160a01b03938416600482015260248101929092525191909216926340c10f19926044808201939182900301818387803b15801561010857600080fd5b505af115801561011c573d6000803e3d6000fd5b50505050565b60025481565b6000546001600160a01b03168156fea2646970667358221220211cf0cf9812ae66888dc4f731e1b8d8c8bf1d10bea86fac9ba5f9ff41443a4364736f6c63430006000033",
  "source": "pragma solidity 0.6.0;\n\nimport {ChangeContract} from \"../moc-gobernanza/Governance/ChangeContract.sol\";\nimport {TestMOC} from \"../TestMOC.sol\";\n\n/**\n  @title MocRegistryInitChange\n  @notice This contract is a ChangeContract intended to initialize all the MOC registry values\n */\ncontract TestMOCMintChange is ChangeContract {\n\n    TestMOC public token;\n    address public user;\n    uint256 public amount;\n\n    /**\n      @notice Constructor\n    */\n    constructor(TestMOC _token, address _user, uint256 _amount) public {\n        token = _token;\n        user = _user;\n        amount = _amount;\n    }\n\n    /**\n      @notice Execute the changes.\n      @dev Should be called by the governor, but this contract does not check that explicitly because it is\n      not its responsability in the current architecture\n     */\n    function execute() external override {\n        token.mint(user, amount);\n    }\n}\n",
  "sourcePath": "/home/adji/Desktop/work/coinfabrik/OMoC-Decentralized-Oracle/contracts/contracts/change/TestMOCMintChange.sol",
  "compiler": {
    "name": "solc",
    "version": "0.6.0+commit.26b70077.Emscripten.clang"
  },
  "schemaVersion": "3.2.0",
  "updatedAt": "2020-06-29T21:30:43.140Z",
  "devdoc": {
    "methods": {
      "execute()": {
        "details": "Should be called by the governor, but this contract does not check that explicitly because it is not its responsability in the current architecture"
      }
    },
    "title": "MocRegistryInitChange"
  },
  "userdoc": {
    "methods": {
      "constructor": "Constructor",
      "execute()": {
        "notice": "Execute the changes."
      }
    },
    "notice": "This contract is a ChangeContract intended to initialize all the MOC registry values"
  }
}