{
  "contractName": "UpgradeDelegator",
  "abi": [
    {
      "inputs": [
        {
          "internalType": "contract IGovernor",
          "name": "newIGovernor",
          "type": "address"
        }
      ],
      "name": "changeIGovernor",
      "outputs": [],
      "stateMutability": "nonpayable",
      "type": "function"
    },
    {
      "inputs": [],
      "name": "governor",
      "outputs": [
        {
          "internalType": "contract IGovernor",
          "name": "",
          "type": "address"
        }
      ],
      "stateMutability": "view",
      "type": "function"
    },
    {
      "inputs": [],
      "name": "proxyAdmin",
      "outputs": [
        {
          "internalType": "contract IOZProxyAdmin",
          "name": "",
          "type": "address"
        }
      ],
      "stateMutability": "view",
      "type": "function"
    },
    {
      "inputs": [
        {
          "internalType": "contract IGovernor",
          "name": "_governor",
          "type": "address"
        },
        {
          "internalType": "contract IOZProxyAdmin",
          "name": "_proxyAdmin",
          "type": "address"
        }
      ],
      "name": "initialize",
      "outputs": [],
      "stateMutability": "nonpayable",
      "type": "function"
    },
    {
      "inputs": [
        {
          "internalType": "contract IOZAdminUpgradeabilityProxy",
          "name": "proxy",
          "type": "address"
        }
      ],
      "name": "getProxyImplementation",
      "outputs": [
        {
          "internalType": "address",
          "name": "",
          "type": "address"
        }
      ],
      "stateMutability": "view",
      "type": "function"
    },
    {
      "inputs": [
        {
          "internalType": "contract IOZAdminUpgradeabilityProxy",
          "name": "proxy",
          "type": "address"
        }
      ],
      "name": "getProxyAdmin",
      "outputs": [
        {
          "internalType": "address",
          "name": "",
          "type": "address"
        }
      ],
      "stateMutability": "view",
      "type": "function"
    },
    {
      "inputs": [
        {
          "internalType": "contract IOZAdminUpgradeabilityProxy",
          "name": "proxy",
          "type": "address"
        },
        {
          "internalType": "address",
          "name": "newAdmin",
          "type": "address"
        }
      ],
      "name": "changeProxyAdmin",
      "outputs": [],
      "stateMutability": "nonpayable",
      "type": "function"
    },
    {
      "inputs": [
        {
          "internalType": "contract IOZAdminUpgradeabilityProxy",
          "name": "proxy",
          "type": "address"
        },
        {
          "internalType": "address",
          "name": "implementation",
          "type": "address"
        }
      ],
      "name": "upgrade",
      "outputs": [],
      "stateMutability": "nonpayable",
      "type": "function"
    },
    {
      "inputs": [
        {
          "internalType": "contract IOZAdminUpgradeabilityProxy",
          "name": "proxy",
          "type": "address"
        },
        {
          "internalType": "address",
          "name": "implementation",
          "type": "address"
        },
        {
          "internalType": "bytes",
          "name": "data",
          "type": "bytes"
        }
      ],
      "name": "upgradeAndCall",
      "outputs": [],
      "stateMutability": "payable",
      "type": "function"
    }
  ],
  "bytecode": "0x608060405234801561001057600080fd5b50610af2806100206000396000f3fe6080604052600436106100865760003560e01c80637eff275e116100595780637eff275e146101415780639623609d1461017c57806399a88ec41461023b578063b6e0833014610276578063f3b7dead146102a957610086565b80630c340a241461008b578063204e1c7a146100bc5780633e47158c146100ef578063485cc95514610104575b600080fd5b34801561009757600080fd5b506100a06102dc565b604080516001600160a01b039092168252519081900360200190f35b3480156100c857600080fd5b506100a0600480360360208110156100df57600080fd5b50356001600160a01b03166102eb565b3480156100fb57600080fd5b506100a061036e565b34801561011057600080fd5b5061013f6004803603604081101561012757600080fd5b506001600160a01b038135811691602001351661037d565b005b34801561014d57600080fd5b5061013f6004803603604081101561016457600080fd5b506001600160a01b0381358116916020013516610445565b61013f6004803603606081101561019257600080fd5b6001600160a01b0382358116926020810135909116918101906060810160408201356401000000008111156101c657600080fd5b8201836020820111156101d857600080fd5b803590602001918460018302840111640100000000831117156101fa57600080fd5b91908080601f0160208091040260200160405190810160405280939291908181526020018383808284376000920191909152509295506105e5945050505050565b34801561024757600080fd5b5061013f6004803603604081101561025e57600080fd5b506001600160a01b03813581169160200135166107bb565b34801561028257600080fd5b5061013f6004803603602081101561029957600080fd5b50356001600160a01b0316610902565b3480156102b557600080fd5b506100a0600480360360208110156102cc57600080fd5b50356001600160a01b0316610a15565b6033546001600160a01b031681565b606654604080516310270e3d60e11b81526001600160a01b0384811660048301529151600093929092169163204e1c7a91602480820192602092909190829003018186803b15801561033c57600080fd5b505afa158015610350573d6000803e3d6000fd5b505050506040513d602081101561036657600080fd5b505192915050565b6066546001600160a01b031681565b600054610100900460ff16806103965750610396610a66565b806103a4575060005460ff16155b6103df5760405162461bcd60e51b815260040180806020018281038252602e815260200180610a8f602e913960400191505060405180910390fd5b600054610100900460ff1615801561040a576000805460ff1961ff0019909116610100171660011790555b61041383610a6c565b606680546001600160a01b0319166001600160a01b0384161790558015610440576000805461ff00191690555b505050565b6033546040805163d994d6d560e01b815233600482015290516001600160a01b039092169163d994d6d591602480820192602092909190829003018186803b15801561049057600080fd5b505afa1580156104a4573d6000803e3d6000fd5b505050506040513d60208110156104ba57600080fd5b50516040805180820190915260168152753737ba2fb0baba3437b934bd32b22fb1b430b733b2b960511b6020820152906105725760405162461bcd60e51b81526004018080602001828103825283818151815260200191508051906020019080838360005b8381101561053757818101518382015260200161051f565b50505050905090810190601f1680156105645780820380516001836020036101000a031916815260200191505b509250505060405180910390fd5b5060665460408051633f7f93af60e11b81526001600160a01b038581166004830152848116602483015291519190921691637eff275e91604480830192600092919082900301818387803b1580156105c957600080fd5b505af11580156105dd573d6000803e3d6000fd5b505050505050565b6033546040805163d994d6d560e01b815233600482015290516001600160a01b039092169163d994d6d591602480820192602092909190829003018186803b15801561063057600080fd5b505afa158015610644573d6000803e3d6000fd5b505050506040513d602081101561065a57600080fd5b50516040805180820190915260168152753737ba2fb0baba3437b934bd32b22fb1b430b733b2b960511b6020820152906106d55760405162461bcd60e51b815260206004820181815283516024840152835190928392604490910191908501908083836000831561053757818101518382015260200161051f565b50606654604051639623609d60e01b81526001600160a01b038581166004830190815285821660248401526060604484019081528551606485015285519290941693639623609d9334938993899389939192909160840190602085019080838360005b83811015610750578181015183820152602001610738565b50505050905090810190601f16801561077d5780820380516001836020036101000a031916815260200191505b509450505050506000604051808303818588803b15801561079d57600080fd5b505af11580156107b1573d6000803e3d6000fd5b5050505050505050565b6033546040805163d994d6d560e01b815233600482015290516001600160a01b039092169163d994d6d591602480820192602092909190829003018186803b15801561080657600080fd5b505afa15801561081a573d6000803e3d6000fd5b505050506040513d602081101561083057600080fd5b50516040805180820190915260168152753737ba2fb0baba3437b934bd32b22fb1b430b733b2b960511b6020820152906108ab5760405162461bcd60e51b815260206004820181815283516024840152835190928392604490910191908501908083836000831561053757818101518382015260200161051f565b506066546040805163266a23b160e21b81526001600160a01b0385811660048301528481166024830152915191909216916399a88ec491604480830192600092919082900301818387803b1580156105c957600080fd5b6033546040805163d994d6d560e01b815233600482015290516001600160a01b039092169163d994d6d591602480820192602092909190829003018186803b15801561094d57600080fd5b505afa158015610961573d6000803e3d6000fd5b505050506040513d602081101561097757600080fd5b50516040805180820190915260168152753737ba2fb0baba3437b934bd32b22fb1b430b733b2b960511b6020820152906109f25760405162461bcd60e51b815260206004820181815283516024840152835190928392604490910191908501908083836000831561053757818101518382015260200161051f565b50603380546001600160a01b0319166001600160a01b0392909216919091179055565b6066546040805163f3b7dead60e01b81526001600160a01b0384811660048301529151600093929092169163f3b7dead91602480820192602092909190829003018186803b15801561033c57600080fd5b303b1590565b603380546001600160a01b0319166001600160a01b039290921691909117905556fe436f6e747261637420696e7374616e63652068617320616c7265616479206265656e20696e697469616c697a6564a2646970667358221220b57ad424f7b0884266d9c3db895f16ad3ff3b5bb16a27edaebf7a45a016576fc64736f6c63430006000033",
  "source": "pragma solidity 0.6.0;\n\n\nimport {IOZAdminUpgradeabilityProxy} from \"../IOZAdminUpgradeabilityProxy.sol\";\nimport {IOZProxyAdmin} from \"../IOZProxyAdmin.sol\";\nimport {Governed} from \"../Governance/Governed.sol\";\nimport {IGovernor} from \"../Governance/IGovernor.sol\";\nimport {Initializable} from \"../../openzeppelin/Initializable.sol\";\n\n/**\n  @title UpgradeDelegator\n  @notice Dispatches to the proxyAdmin any call made through the governance system\n  @dev Adapter between our governance system and the zeppelinOS proxyAdmin. This is\n  needed to be able to upgrade governance through the same system\n\n */\ncontract UpgradeDelegator is Initializable, Governed {\n    IOZProxyAdmin public proxyAdmin;\n\n    function initialize(IGovernor _governor, IOZProxyAdmin _proxyAdmin) public initializer {\n        Governed._initialize(_governor);\n        proxyAdmin = _proxyAdmin;\n    }\n\n    /**\n     * @dev Returns the current implementation of a proxy.\n     * This is needed because only the proxy admin can query it.\n     * @return The address of the current implementation of the proxy.\n     */\n    function getProxyImplementation(IOZAdminUpgradeabilityProxy proxy) public view returns (address) {\n        return proxyAdmin.getProxyImplementation(proxy);\n    }\n\n    /**\n     * @dev Returns the admin of a proxy. Only the admin can query it.\n     * @return The address of the current admin of the proxy.\n     */\n    function getProxyAdmin(IOZAdminUpgradeabilityProxy proxy) public view returns (address) {\n        return proxyAdmin.getProxyAdmin(proxy);\n    }\n\n    /**\n     * @dev Changes the admin of a proxy.\n     * @param proxy Proxy to change admin.\n     * @param newAdmin Address to transfer proxy administration to.\n     */\n    function changeProxyAdmin(IOZAdminUpgradeabilityProxy proxy, address newAdmin) public onlyAuthorizedChanger {\n        proxyAdmin.changeProxyAdmin(proxy, newAdmin);\n    }\n\n    /**\n     * @dev Upgrades a proxy to the newest implementation of a contract.\n     * @param proxy Proxy to be upgraded.\n     * @param implementation the address of the Implementation.\n     */\n    function upgrade(IOZAdminUpgradeabilityProxy proxy, address implementation) public onlyAuthorizedChanger {\n        proxyAdmin.upgrade(proxy, implementation);\n    }\n\n    /**\n     * @dev Upgrades a proxy to the newest implementation of a contract and forwards a function call to it.\n     * This is useful to initialize the proxied contract.\n     * @param proxy Proxy to be upgraded.\n     * @param implementation Address of the Implementation.\n     * @param data Data to send as msg.data in the low level call.\n     * It should include the signature and the parameters of the function to be called, as described in\n     * https://solidity.readthedocs.io/en/v0.4.24/abi-spec.html#function-selector-and-argument-encoding.\n     */\n    function upgradeAndCall(IOZAdminUpgradeabilityProxy proxy, address implementation, bytes memory data) public payable onlyAuthorizedChanger {\n        proxyAdmin.upgradeAndCall.value(msg.value)(proxy, implementation, data);\n    }\n}\n",
  "sourcePath": "/home/adji/Desktop/work/coinfabrik/OMoC-Decentralized-Oracle/contracts/contracts/moc-gobernanza/Upgradeability/UpgradeDelegator.sol",
  "compiler": {
    "name": "solc",
    "version": "0.6.0+commit.26b70077.Emscripten.clang"
  },
  "schemaVersion": "3.2.0",
  "updatedAt": "2020-06-29T21:36:48.799Z",
  "networkType": "ethereum",
  "devdoc": {
    "details": "Adapter between our governance system and the zeppelinOS proxyAdmin. This is needed to be able to upgrade governance through the same system",
    "methods": {
      "changeIGovernor(address)": {
        "params": {
          "newIGovernor": "New governor address"
        }
      },
      "changeProxyAdmin(address,address)": {
        "details": "Changes the admin of a proxy.",
        "params": {
          "newAdmin": "Address to transfer proxy administration to.",
          "proxy": "Proxy to change admin."
        }
      },
      "getProxyAdmin(address)": {
        "details": "Returns the admin of a proxy. Only the admin can query it.",
        "returns": {
          "_0": "The address of the current admin of the proxy."
        }
      },
      "getProxyImplementation(address)": {
        "details": "Returns the current implementation of a proxy. This is needed because only the proxy admin can query it.",
        "returns": {
          "_0": "The address of the current implementation of the proxy."
        }
      },
      "upgrade(address,address)": {
        "details": "Upgrades a proxy to the newest implementation of a contract.",
        "params": {
          "implementation": "the address of the Implementation.",
          "proxy": "Proxy to be upgraded."
        }
      },
      "upgradeAndCall(address,address,bytes)": {
        "details": "Upgrades a proxy to the newest implementation of a contract and forwards a function call to it. This is useful to initialize the proxied contract.",
        "params": {
          "data": "Data to send as msg.data in the low level call. It should include the signature and the parameters of the function to be called, as described in https://solidity.readthedocs.io/en/v0.4.24/abi-spec.html#function-selector-and-argument-encoding.",
          "implementation": "Address of the Implementation.",
          "proxy": "Proxy to be upgraded."
        }
      }
    },
    "title": "UpgradeDelegator"
  },
  "userdoc": {
    "methods": {
      "changeIGovernor(address)": {
        "notice": "Change the contract's governor. Should be called through the old governance system"
      }
    },
    "notice": "Dispatches to the proxyAdmin any call made through the governance system"
  }
}