{
  "contractName": "UpgraderTemplate",
  "abi": [
    {
      "inputs": [
        {
          "internalType": "contract IOZAdminUpgradeabilityProxy",
          "name": "_proxy",
          "type": "address"
        },
        {
          "internalType": "contract UpgradeDelegator",
          "name": "_upgradeDelegator",
          "type": "address"
        },
        {
          "internalType": "address",
          "name": "_newImplementation",
          "type": "address"
        }
      ],
      "stateMutability": "nonpayable",
      "type": "constructor"
    },
    {
      "inputs": [],
      "name": "newImplementation",
      "outputs": [
        {
          "internalType": "address",
          "name": "",
          "type": "address"
        }
      ],
      "stateMutability": "view",
      "type": "function"
    },
    {
      "inputs": [],
      "name": "proxy",
      "outputs": [
        {
          "internalType": "contract IOZAdminUpgradeabilityProxy",
          "name": "",
          "type": "address"
        }
      ],
      "stateMutability": "view",
      "type": "function"
    },
    {
      "inputs": [],
      "name": "upgradeDelegator",
      "outputs": [
        {
          "internalType": "contract UpgradeDelegator",
          "name": "",
          "type": "address"
        }
      ],
      "stateMutability": "view",
      "type": "function"
    },
    {
      "inputs": [],
      "name": "execute",
      "outputs": [],
      "stateMutability": "nonpayable",
      "type": "function"
    }
  ],
  "bytecode": "0x608060405234801561001057600080fd5b5060405161026f38038061026f8339818101604052606081101561003357600080fd5b5080516020820151604090920151600080546001600160a01b039384166001600160a01b03199182161790915560018054948416948216949094179093556002805492909116919092161790556101e08061008f6000396000f3fe608060405234801561001057600080fd5b506004361061004c5760003560e01c806333d2e9561461005157806361461954146100755780638b677b031461007f578063ec55688914610087575b600080fd5b61005961008f565b604080516001600160a01b039092168252519081900360200190f35b61007d61009e565b005b610059610109565b610059610118565b6001546001600160a01b031681565b6002546001600160a01b03166100f3576040805162461bcd60e51b81526020600482015260156024820152741059191c995cdcc81b5d5cdd081899481d985b1a59605a1b604482015290519081900360640190fd5b6100fb610107565b610103610127565b6101075b565b6002546001600160a01b031681565b6000546001600160a01b031681565b600154600080546002546040805163266a23b160e21b81526001600160a01b03938416600482015291831660248301525191909316926399a88ec492604480830193919282900301818387803b15801561018057600080fd5b505af1158015610194573d6000803e3d6000fd5b5050600280546001600160a01b0319169055505056fea2646970667358221220278af08171585c1686062f1bc5aa149ebe9a6094a8137c710e3cec7d5a12f03164736f6c634300060c0033",
  "immutableReferences": {},
  "source": "// SPDX-License-Identifier: UNLICENSED\npragma solidity ^0.6.0;\n\nimport {IOZAdminUpgradeabilityProxy} from \"../IOZAdminUpgradeabilityProxy.sol\";\nimport {ChangeContract} from \"../Governance/ChangeContract.sol\";\nimport {UpgradeDelegator} from \"../Upgradeability/UpgradeDelegator.sol\";\n\n/**\n  @title UpgraderTemplate\n  @notice This contract is a ChangeContract intended to be used when\n  upgrading any contract upgradeable through the zos-lib upgradeability\n  system. This doesn't initialize the upgraded contract, that should be done extending\n  this one or taking it as a guide\n */\ncontract UpgraderTemplate is ChangeContract {\n    IOZAdminUpgradeabilityProxy public proxy;\n    UpgradeDelegator public upgradeDelegator;\n    address public newImplementation;\n\n    /**\n      @notice Constructor\n      @param _proxy Address of the proxy to be upgraded\n      @param _upgradeDelegator Address of the upgradeDelegator in charge of that proxy\n      @param _newImplementation Address of the contract the proxy will delegate to\n    */\n    constructor(\n        IOZAdminUpgradeabilityProxy _proxy,\n        UpgradeDelegator _upgradeDelegator,\n        address _newImplementation\n    ) public {\n        proxy = _proxy;\n        upgradeDelegator = _upgradeDelegator;\n        newImplementation = _newImplementation;\n    }\n\n    /**\n      @notice Execute the changes.\n      @dev Should be called by the governor, but this contract does not check that explicitly because it is not its responsability in\n      the current architecture\n      IMPORTANT: This function should not be overriden, you should only redefine the _beforeUpgrade and _afterUpgrade to use this template\n     */\n    function execute() external override {\n        require(newImplementation != address(0), \"Address must be valid\");\n        _beforeUpgrade();\n        _upgrade();\n        _afterUpgrade();\n    }\n\n    /**\n      @notice Upgrade the proxy to the newImplementation\n      @dev IMPORTANT: This function should not be overriden\n     */\n    function _upgrade() internal {\n        upgradeDelegator.upgrade(proxy, newImplementation);\n        // Usable just once.\n        newImplementation = address(0);\n    }\n\n    /**\n      @notice Intended to prepare the system for the upgrade\n      @dev This function can be overriden by child changers to upgrade contracts that require some preparation before the upgrade\n     */\n    function _beforeUpgrade() internal {}\n\n    /**\n      @notice Intended to do the final tweaks after the upgrade, for example initialize the contract\n      @dev This function can be overriden by child changers to upgrade contracts that require some changes after the upgrade\n     */\n    function _afterUpgrade() internal {}\n}\n",
  "sourcePath": "/home/adji/Desktop/work/coinfabrik/moc-shared/contracts/moc-governance/ChangersTemplates/UpgraderTemplate.sol",
  "compiler": {
    "name": "solc",
    "version": "0.6.12+commit.27d51765.Emscripten.clang"
  },
  "schemaVersion": "3.2.5",
  "updatedAt": "2020-10-01T22:39:15.389Z",
  "devdoc": {
    "kind": "dev",
    "methods": {
      "constructor": {
        "params": {
          "_newImplementation": "Address of the contract the proxy will delegate to",
          "_proxy": "Address of the proxy to be upgraded",
          "_upgradeDelegator": "Address of the upgradeDelegator in charge of that proxy"
        }
      },
      "execute()": {
        "details": "Should be called by the governor, but this contract does not check that explicitly because it is not its responsability in the current architecture IMPORTANT: This function should not be overriden, you should only redefine the _beforeUpgrade and _afterUpgrade to use this template"
      }
    },
    "title": "UpgraderTemplate",
    "version": 1
  },
  "userdoc": {
    "kind": "user",
    "methods": {
      "constructor": "Constructor",
      "execute()": {
        "notice": "Execute the changes."
      }
    },
    "notice": "This contract is a ChangeContract intended to be used when upgrading any contract upgradeable through the zos-lib upgradeability system. This doesn't initialize the upgraded contract, that should be done extending this one or taking it as a guide",
    "version": 1
  }
}